{
  "address": "0x29613A07e91A99318fD670A96cac33abf5D89F33",
  "abi": [
    {
      "inputs": [
        {
          "internalType": "address",
          "name": "pxaAddress",
          "type": "address"
        },
        {
          "internalType": "contract IERC20Metadata",
          "name": "pxtAddress",
          "type": "address"
        }
      ],
      "stateMutability": "nonpayable",
      "type": "constructor"
    },
    {
      "anonymous": false,
      "inputs": [
        {
          "indexed": true,
          "internalType": "address",
          "name": "tokenAddress",
          "type": "address"
        },
        {
          "components": [
            {
              "internalType": "address",
              "name": "tokenAddress",
              "type": "address"
            },
            {
              "internalType": "uint8",
              "name": "protocol",
              "type": "uint8"
            },
            {
              "internalType": "bool",
              "name": "verified",
              "type": "bool"
            },
            {
              "internalType": "uint256",
              "name": "feeBase",
              "type": "uint256"
            },
            {
              "internalType": "uint256",
              "name": "feeRatio",
              "type": "uint256"
            }
          ],
          "indexed": false,
          "internalType": "struct AssetManager.Asset",
          "name": "record",
          "type": "tuple"
        }
      ],
      "name": "AssetCreated",
      "type": "event"
    },
    {
      "anonymous": false,
      "inputs": [
        {
          "indexed": true,
          "internalType": "address",
          "name": "tokenAddress",
          "type": "address"
        },
        {
          "indexed": false,
          "internalType": "uint256",
          "name": "feeBase",
          "type": "uint256"
        }
      ],
      "name": "AssetFeeBaseUpdated",
      "type": "event"
    },
    {
      "anonymous": false,
      "inputs": [
        {
          "indexed": true,
          "internalType": "address",
          "name": "tokenAddress",
          "type": "address"
        },
        {
          "indexed": false,
          "internalType": "uint256",
          "name": "feeRatio",
          "type": "uint256"
        }
      ],
      "name": "AssetFeeRatioUpdated",
      "type": "event"
    },
    {
      "anonymous": false,
      "inputs": [
        {
          "indexed": true,
          "internalType": "address",
          "name": "tokenAddress",
          "type": "address"
        }
      ],
      "name": "AssetRemoved",
      "type": "event"
    },
    {
      "anonymous": false,
      "inputs": [
        {
          "indexed": true,
          "internalType": "address",
          "name": "tokenAddress",
          "type": "address"
        },
        {
          "indexed": false,
          "internalType": "bool",
          "name": "verified",
          "type": "bool"
        }
      ],
      "name": "AssetVerified",
      "type": "event"
    },
    {
      "anonymous": false,
      "inputs": [
        {
          "indexed": true,
          "internalType": "uint256",
          "name": "tokenId",
          "type": "uint256"
        },
        {
          "indexed": false,
          "internalType": "uint256",
          "name": "price",
          "type": "uint256"
        },
        {
          "indexed": false,
          "internalType": "uint256",
          "name": "revenue",
          "type": "uint256"
        }
      ],
      "name": "Bought",
      "type": "event"
    },
    {
      "anonymous": false,
      "inputs": [
        {
          "indexed": true,
          "internalType": "uint256",
          "name": "tokenId",
          "type": "uint256"
        },
        {
          "indexed": false,
          "internalType": "uint256",
          "name": "revenue",
          "type": "uint256"
        }
      ],
      "name": "Claimed",
      "type": "event"
    },
    {
      "anonymous": false,
      "inputs": [
        {
          "indexed": false,
          "internalType": "uint256",
          "name": "feeBase",
          "type": "uint256"
        }
      ],
      "name": "DefaultAssetFeeBaseUpdated",
      "type": "event"
    },
    {
      "anonymous": false,
      "inputs": [
        {
          "indexed": false,
          "internalType": "uint256",
          "name": "feeRatio",
          "type": "uint256"
        }
      ],
      "name": "DefaultAssetFeeRatioUpdated",
      "type": "event"
    },
    {
      "anonymous": false,
      "inputs": [
        {
          "indexed": true,
          "internalType": "uint256",
          "name": "id",
          "type": "uint256"
        },
        {
          "components": [
            {
              "internalType": "uint256",
              "name": "proposeId",
              "type": "uint256"
            },
            {
              "internalType": "address",
              "name": "matcher",
              "type": "address"
            },
            {
              "internalType": "address[]",
              "name": "tokenAddresses",
              "type": "address[]"
            },
            {
              "internalType": "uint256[]",
              "name": "amounts",
              "type": "uint256[]"
            },
            {
              "internalType": "uint256[]",
              "name": "ids",
              "type": "uint256[]"
            },
            {
              "internalType": "uint8[]",
              "name": "protocols",
              "type": "uint8[]"
            },
            {
              "internalType": "uint256",
              "name": "index",
              "type": "uint256"
            }
          ],
          "indexed": false,
          "internalType": "struct AssetSwapper.MatchRecord",
          "name": "record",
          "type": "tuple"
        }
      ],
      "name": "Matched",
      "type": "event"
    },
    {
      "anonymous": false,
      "inputs": [
        {
          "indexed": true,
          "internalType": "uint256",
          "name": "id",
          "type": "uint256"
        },
        {
          "components": [
            {
              "internalType": "uint256",
              "name": "proposeId",
              "type": "uint256"
            },
            {
              "internalType": "address",
              "name": "matcher",
              "type": "address"
            },
            {
              "internalType": "address[]",
              "name": "tokenAddresses",
              "type": "address[]"
            },
            {
              "internalType": "uint256[]",
              "name": "amounts",
              "type": "uint256[]"
            },
            {
              "internalType": "uint256[]",
              "name": "ids",
              "type": "uint256[]"
            },
            {
              "internalType": "uint8[]",
              "name": "protocols",
              "type": "uint8[]"
            },
            {
              "internalType": "uint256",
              "name": "index",
              "type": "uint256"
            }
          ],
          "indexed": false,
          "internalType": "struct AssetSwapper.MatchRecord",
          "name": "record",
          "type": "tuple"
        }
      ],
      "name": "MatcherRemoved",
      "type": "event"
    },
    {
      "anonymous": false,
      "inputs": [
        {
          "indexed": true,
          "internalType": "uint256",
          "name": "tokenId",
          "type": "uint256"
        },
        {
          "indexed": false,
          "internalType": "address",
          "name": "seller",
          "type": "address"
        },
        {
          "indexed": false,
          "internalType": "uint256",
          "name": "price",
          "type": "uint256"
        }
      ],
      "name": "OrderCreated",
      "type": "event"
    },
    {
      "anonymous": false,
      "inputs": [
        {
          "indexed": true,
          "internalType": "uint256",
          "name": "tokenId",
          "type": "uint256"
        },
        {
          "indexed": false,
          "internalType": "uint256",
          "name": "revenue",
          "type": "uint256"
        }
      ],
      "name": "OrderRemoved",
      "type": "event"
    },
    {
      "anonymous": false,
      "inputs": [
        {
          "indexed": true,
          "internalType": "address",
          "name": "previousOwner",
          "type": "address"
        },
        {
          "indexed": true,
          "internalType": "address",
          "name": "newOwner",
          "type": "address"
        }
      ],
      "name": "OwnershipTransferred",
      "type": "event"
    },
    {
      "anonymous": false,
      "inputs": [
        {
          "indexed": true,
          "internalType": "uint256",
          "name": "id",
          "type": "uint256"
        },
        {
          "components": [
            {
              "internalType": "address",
              "name": "proposer",
              "type": "address"
            },
            {
              "internalType": "address",
              "name": "receiver",
              "type": "address"
            },
            {
              "internalType": "string",
              "name": "note",
              "type": "string"
            },
            {
              "internalType": "address[]",
              "name": "tokenAddresses",
              "type": "address[]"
            },
            {
              "internalType": "uint256[]",
              "name": "amounts",
              "type": "uint256[]"
            },
            {
              "internalType": "uint256[]",
              "name": "ids",
              "type": "uint256[]"
            },
            {
              "internalType": "uint8[]",
              "name": "protocols",
              "type": "uint8[]"
            },
            {
              "internalType": "bool[]",
              "name": "wanted",
              "type": "bool[]"
            },
            {
              "internalType": "uint256[]",
              "name": "matchRecordIds",
              "type": "uint256[]"
            }
          ],
          "indexed": false,
          "internalType": "struct AssetSwapper.ProposeRecord",
          "name": "record",
          "type": "tuple"
        }
      ],
      "name": "ProposalRemoved",
      "type": "event"
    },
    {
      "anonymous": false,
      "inputs": [
        {
          "indexed": true,
          "internalType": "uint256",
          "name": "id",
          "type": "uint256"
        },
        {
          "components": [
            {
              "internalType": "address",
              "name": "proposer",
              "type": "address"
            },
            {
              "internalType": "address",
              "name": "receiver",
              "type": "address"
            },
            {
              "internalType": "string",
              "name": "note",
              "type": "string"
            },
            {
              "internalType": "address[]",
              "name": "tokenAddresses",
              "type": "address[]"
            },
            {
              "internalType": "uint256[]",
              "name": "amounts",
              "type": "uint256[]"
            },
            {
              "internalType": "uint256[]",
              "name": "ids",
              "type": "uint256[]"
            },
            {
              "internalType": "uint8[]",
              "name": "protocols",
              "type": "uint8[]"
            },
            {
              "internalType": "bool[]",
              "name": "wanted",
              "type": "bool[]"
            },
            {
              "internalType": "uint256[]",
              "name": "matchRecordIds",
              "type": "uint256[]"
            }
          ],
          "indexed": false,
          "internalType": "struct AssetSwapper.ProposeRecord",
          "name": "record",
          "type": "tuple"
        }
      ],
      "name": "Proposed",
      "type": "event"
    },
    {
      "anonymous": false,
      "inputs": [
        {
          "indexed": true,
          "internalType": "uint256",
          "name": "tokenId",
          "type": "uint256"
        },
        {
          "indexed": false,
          "internalType": "uint256",
          "name": "revenue",
          "type": "uint256"
        }
      ],
      "name": "RevenueIncreased",
      "type": "event"
    },
    {
      "anonymous": false,
      "inputs": [
        {
          "indexed": true,
          "internalType": "uint256",
          "name": "proposeId",
          "type": "uint256"
        },
        {
          "indexed": true,
          "internalType": "uint256",
          "name": "matchId",
          "type": "uint256"
        }
      ],
      "name": "Swapped",
      "type": "event"
    },
    {
      "inputs": [],
      "name": "AM_RATE_BASE",
      "outputs": [
        {
          "internalType": "uint256",
          "name": "",
          "type": "uint256"
        }
      ],
      "stateMutability": "view",
      "type": "function"
    },
    {
      "inputs": [],
      "name": "PROTOCOL_ERC1155",
      "outputs": [
        {
          "internalType": "uint8",
          "name": "",
          "type": "uint8"
        }
      ],
      "stateMutability": "view",
      "type": "function"
    },
    {
      "inputs": [],
      "name": "PROTOCOL_ERC20",
      "outputs": [
        {
          "internalType": "uint8",
          "name": "",
          "type": "uint8"
        }
      ],
      "stateMutability": "view",
      "type": "function"
    },
    {
      "inputs": [],
      "name": "PROTOCOL_ERC721",
      "outputs": [
        {
          "internalType": "uint8",
          "name": "",
          "type": "uint8"
        }
      ],
      "stateMutability": "view",
      "type": "function"
    },
    {
      "inputs": [],
      "name": "PXA_RATE_BASE",
      "outputs": [
        {
          "internalType": "uint256",
          "name": "",
          "type": "uint256"
        }
      ],
      "stateMutability": "view",
      "type": "function"
    },
    {
      "inputs": [
        {
          "internalType": "uint256",
          "name": "proposeId",
          "type": "uint256"
        },
        {
          "internalType": "uint256",
          "name": "matchId",
          "type": "uint256"
        }
      ],
      "name": "acceptSwap",
      "outputs": [],
      "stateMutability": "nonpayable",
      "type": "function"
    },
    {
      "inputs": [],
      "name": "amFeeBase",
      "outputs": [
        {
          "internalType": "uint256",
          "name": "",
          "type": "uint256"
        }
      ],
      "stateMutability": "view",
      "type": "function"
    },
    {
      "inputs": [],
      "name": "amFeeRatio",
      "outputs": [
        {
          "internalType": "uint256",
          "name": "",
          "type": "uint256"
        }
      ],
      "stateMutability": "view",
      "type": "function"
    },
    {
      "inputs": [
        {
          "internalType": "address",
          "name": "tokenAddress",
          "type": "address"
        }
      ],
      "name": "asset",
      "outputs": [
        {
          "components": [
            {
              "internalType": "address",
              "name": "tokenAddress",
              "type": "address"
            },
            {
              "internalType": "uint8",
              "name": "protocol",
              "type": "uint8"
            },
            {
              "internalType": "bool",
              "name": "verified",
              "type": "bool"
            },
            {
              "internalType": "uint256",
              "name": "feeBase",
              "type": "uint256"
            },
            {
              "internalType": "uint256",
              "name": "feeRatio",
              "type": "uint256"
            }
          ],
          "internalType": "struct AssetManager.Asset",
          "name": "record",
          "type": "tuple"
        }
      ],
      "stateMutability": "view",
      "type": "function"
    },
    {
      "inputs": [
        {
          "internalType": "address",
          "name": "",
          "type": "address"
        }
      ],
      "name": "assets",
      "outputs": [
        {
          "internalType": "address",
          "name": "tokenAddress",
          "type": "address"
        },
        {
          "internalType": "uint8",
          "name": "protocol",
          "type": "uint8"
        },
        {
          "internalType": "bool",
          "name": "verified",
          "type": "bool"
        },
        {
          "internalType": "uint256",
          "name": "feeBase",
          "type": "uint256"
        },
        {
          "internalType": "uint256",
          "name": "feeRatio",
          "type": "uint256"
        }
      ],
      "stateMutability": "view",
      "type": "function"
    },
    {
      "inputs": [],
      "name": "balance",
      "outputs": [
        {
          "internalType": "uint256",
          "name": "",
          "type": "uint256"
        }
      ],
      "stateMutability": "view",
      "type": "function"
    },
    {
      "inputs": [
        {
          "internalType": "uint256",
          "name": "tokenId",
          "type": "uint256"
        }
      ],
      "name": "buy",
      "outputs": [],
      "stateMutability": "payable",
      "type": "function"
    },
    {
      "inputs": [
        {
          "internalType": "address[]",
          "name": "tokenAddreses",
          "type": "address[]"
        },
        {
          "internalType": "uint256[]",
          "name": "amounts",
          "type": "uint256[]"
        },
        {
          "internalType": "bool[]",
          "name": "wanted",
          "type": "bool[]"
        }
      ],
      "name": "calcSwapFee",
      "outputs": [
        {
          "internalType": "uint256",
          "name": "",
          "type": "uint256"
        }
      ],
      "stateMutability": "view",
      "type": "function"
    },
    {
      "inputs": [
        {
          "internalType": "uint256",
          "name": "tokenId",
          "type": "uint256"
        }
      ],
      "name": "cancelOrder",
      "outputs": [],
      "stateMutability": "payable",
      "type": "function"
    },
    {
      "inputs": [
        {
          "internalType": "uint256",
          "name": "tokenId",
          "type": "uint256"
        }
      ],
      "name": "claim",
      "outputs": [],
      "stateMutability": "payable",
      "type": "function"
    },
    {
      "inputs": [
        {
          "internalType": "address",
          "name": "tokenAddress",
          "type": "address"
        },
        {
          "internalType": "uint8",
          "name": "protocol",
          "type": "uint8"
        }
      ],
      "name": "createAsset",
      "outputs": [],
      "stateMutability": "nonpayable",
      "type": "function"
    },
    {
      "inputs": [
        {
          "internalType": "uint256",
          "name": "tokenId",
          "type": "uint256"
        },
        {
          "internalType": "uint256",
          "name": "price",
          "type": "uint256"
        }
      ],
      "name": "createOrder",
      "outputs": [],
      "stateMutability": "nonpayable",
      "type": "function"
    },
    {
      "inputs": [
        {
          "internalType": "uint256",
          "name": "id",
          "type": "uint256"
        }
      ],
      "name": "matchRecord",
      "outputs": [
        {
          "components": [
            {
              "internalType": "uint256",
              "name": "proposeId",
              "type": "uint256"
            },
            {
              "internalType": "address",
              "name": "matcher",
              "type": "address"
            },
            {
              "internalType": "address[]",
              "name": "tokenAddresses",
              "type": "address[]"
            },
            {
              "internalType": "uint256[]",
              "name": "amounts",
              "type": "uint256[]"
            },
            {
              "internalType": "uint256[]",
              "name": "ids",
              "type": "uint256[]"
            },
            {
              "internalType": "uint8[]",
              "name": "protocols",
              "type": "uint8[]"
            },
            {
              "internalType": "uint256",
              "name": "index",
              "type": "uint256"
            }
          ],
          "internalType": "struct AssetSwapper.MatchRecord",
          "name": "record",
          "type": "tuple"
        }
      ],
      "stateMutability": "view",
      "type": "function"
    },
    {
      "inputs": [
        {
          "internalType": "uint256",
          "name": "proposeId",
          "type": "uint256"
        },
        {
          "internalType": "address[]",
          "name": "tokenAddresses",
          "type": "address[]"
        },
        {
          "internalType": "uint256[]",
          "name": "amounts",
          "type": "uint256[]"
        },
        {
          "internalType": "uint256[]",
          "name": "ids",
          "type": "uint256[]"
        },
        {
          "internalType": "uint8[]",
          "name": "protocols",
          "type": "uint8[]"
        }
      ],
      "name": "matchSwap",
      "outputs": [],
      "stateMutability": "payable",
      "type": "function"
    },
    {
      "inputs": [
        {
          "internalType": "uint256",
          "name": "proposeId",
          "type": "uint256"
        },
        {
          "internalType": "address[]",
          "name": "tokenAddresses",
          "type": "address[]"
        },
        {
          "internalType": "uint256[]",
          "name": "amounts",
          "type": "uint256[]"
        },
        {
          "internalType": "uint256[]",
          "name": "ids",
          "type": "uint256[]"
        },
        {
          "internalType": "uint8[]",
          "name": "protocols",
          "type": "uint8[]"
        }
      ],
      "name": "matchSwapWithPxt",
      "outputs": [],
      "stateMutability": "payable",
      "type": "function"
    },
    {
      "inputs": [
        {
          "internalType": "address",
          "name": "",
          "type": "address"
        },
        {
          "internalType": "address",
          "name": "",
          "type": "address"
        },
        {
          "internalType": "uint256[]",
          "name": "",
          "type": "uint256[]"
        },
        {
          "internalType": "uint256[]",
          "name": "",
          "type": "uint256[]"
        },
        {
          "internalType": "bytes",
          "name": "",
          "type": "bytes"
        }
      ],
      "name": "onERC1155BatchReceived",
      "outputs": [
        {
          "internalType": "bytes4",
          "name": "",
          "type": "bytes4"
        }
      ],
      "stateMutability": "nonpayable",
      "type": "function"
    },
    {
      "inputs": [
        {
          "internalType": "address",
          "name": "",
          "type": "address"
        },
        {
          "internalType": "address",
          "name": "",
          "type": "address"
        },
        {
          "internalType": "uint256",
          "name": "",
          "type": "uint256"
        },
        {
          "internalType": "uint256",
          "name": "",
          "type": "uint256"
        },
        {
          "internalType": "bytes",
          "name": "",
          "type": "bytes"
        }
      ],
      "name": "onERC1155Received",
      "outputs": [
        {
          "internalType": "bytes4",
          "name": "",
          "type": "bytes4"
        }
      ],
      "stateMutability": "nonpayable",
      "type": "function"
    },
    {
      "inputs": [
        {
          "internalType": "address",
          "name": "",
          "type": "address"
        },
        {
          "internalType": "address",
          "name": "",
          "type": "address"
        },
        {
          "internalType": "uint256",
          "name": "",
          "type": "uint256"
        },
        {
          "internalType": "bytes",
          "name": "",
          "type": "bytes"
        }
      ],
      "name": "onERC721Received",
      "outputs": [
        {
          "internalType": "bytes4",
          "name": "",
          "type": "bytes4"
        }
      ],
      "stateMutability": "nonpayable",
      "type": "function"
    },
    {
      "inputs": [],
      "name": "owner",
      "outputs": [
        {
          "internalType": "address",
          "name": "",
          "type": "address"
        }
      ],
      "stateMutability": "view",
      "type": "function"
    },
    {
      "inputs": [
        {
          "internalType": "uint256",
          "name": "value",
          "type": "uint256"
        }
      ],
      "name": "ownerDeposit",
      "outputs": [],
      "stateMutability": "nonpayable",
      "type": "function"
    },
    {
      "inputs": [
        {
          "internalType": "uint256",
          "name": "value",
          "type": "uint256"
        }
      ],
      "name": "ownerWithdraw",
      "outputs": [],
      "stateMutability": "nonpayable",
      "type": "function"
    },
    {
      "inputs": [],
      "name": "perDeposit",
      "outputs": [
        {
          "internalType": "uint256",
          "name": "",
          "type": "uint256"
        }
      ],
      "stateMutability": "view",
      "type": "function"
    },
    {
      "inputs": [],
      "name": "perWithdraw",
      "outputs": [
        {
          "internalType": "uint256",
          "name": "",
          "type": "uint256"
        }
      ],
      "stateMutability": "view",
      "type": "function"
    },
    {
      "inputs": [],
      "name": "poolLowerBoundary",
      "outputs": [
        {
          "internalType": "uint256",
          "name": "",
          "type": "uint256"
        }
      ],
      "stateMutability": "view",
      "type": "function"
    },
    {
      "inputs": [],
      "name": "poolUpperBoundary",
      "outputs": [
        {
          "internalType": "uint256",
          "name": "",
          "type": "uint256"
        }
      ],
      "stateMutability": "view",
      "type": "function"
    },
    {
      "inputs": [],
      "name": "poolWindow",
      "outputs": [
        {
          "internalType": "uint256",
          "name": "",
          "type": "uint256"
        }
      ],
      "stateMutability": "view",
      "type": "function"
    },
    {
      "inputs": [
        {
          "internalType": "uint256",
          "name": "id",
          "type": "uint256"
        }
      ],
      "name": "proposeRecord",
      "outputs": [
        {
          "components": [
            {
              "internalType": "address",
              "name": "proposer",
              "type": "address"
            },
            {
              "internalType": "address",
              "name": "receiver",
              "type": "address"
            },
            {
              "internalType": "string",
              "name": "note",
              "type": "string"
            },
            {
              "internalType": "address[]",
              "name": "tokenAddresses",
              "type": "address[]"
            },
            {
              "internalType": "uint256[]",
              "name": "amounts",
              "type": "uint256[]"
            },
            {
              "internalType": "uint256[]",
              "name": "ids",
              "type": "uint256[]"
            },
            {
              "internalType": "uint8[]",
              "name": "protocols",
              "type": "uint8[]"
            },
            {
              "internalType": "bool[]",
              "name": "wanted",
              "type": "bool[]"
            },
            {
              "internalType": "uint256[]",
              "name": "matchRecordIds",
              "type": "uint256[]"
            }
          ],
          "internalType": "struct AssetSwapper.ProposeRecord",
          "name": "record",
          "type": "tuple"
        }
      ],
      "stateMutability": "view",
      "type": "function"
    },
    {
      "inputs": [
        {
          "internalType": "address",
          "name": "receiver",
          "type": "address"
        },
        {
          "internalType": "string",
          "name": "note",
          "type": "string"
        },
        {
          "internalType": "address[]",
          "name": "tokenAddresses",
          "type": "address[]"
        },
        {
          "internalType": "uint256[]",
          "name": "amounts",
          "type": "uint256[]"
        },
        {
          "internalType": "uint256[]",
          "name": "ids",
          "type": "uint256[]"
        },
        {
          "internalType": "uint8[]",
          "name": "protocols",
          "type": "uint8[]"
        },
        {
          "internalType": "bool[]",
          "name": "wanted",
          "type": "bool[]"
        }
      ],
      "name": "proposeSwap",
      "outputs": [],
      "stateMutability": "payable",
      "type": "function"
    },
    {
      "inputs": [
        {
          "internalType": "address",
          "name": "receiver",
          "type": "address"
        },
        {
          "internalType": "string",
          "name": "note",
          "type": "string"
        },
        {
          "internalType": "address[]",
          "name": "tokenAddresses",
          "type": "address[]"
        },
        {
          "internalType": "uint256[]",
          "name": "amounts",
          "type": "uint256[]"
        },
        {
          "internalType": "uint256[]",
          "name": "ids",
          "type": "uint256[]"
        },
        {
          "internalType": "uint8[]",
          "name": "protocols",
          "type": "uint8[]"
        },
        {
          "internalType": "bool[]",
          "name": "wanted",
          "type": "bool[]"
        }
      ],
      "name": "proposeSwapWithPxt",
      "outputs": [],
      "stateMutability": "payable",
      "type": "function"
    },
    {
      "inputs": [],
      "name": "pxaFeeRatio",
      "outputs": [
        {
          "internalType": "uint256",
          "name": "",
          "type": "uint256"
        }
      ],
      "stateMutability": "view",
      "type": "function"
    },
    {
      "inputs": [],
      "name": "pxaFeeShareRatio",
      "outputs": [
        {
          "internalType": "uint256",
          "name": "",
          "type": "uint256"
        }
      ],
      "stateMutability": "view",
      "type": "function"
    },
    {
      "inputs": [
        {
          "internalType": "uint256",
          "name": "tokenId",
          "type": "uint256"
        }
      ],
      "name": "pxaOrder",
      "outputs": [
        {
          "components": [
            {
              "internalType": "address",
              "name": "seller",
              "type": "address"
            },
            {
              "internalType": "uint256",
              "name": "tokenId",
              "type": "uint256"
            },
            {
              "internalType": "uint256",
              "name": "price",
              "type": "uint256"
            },
            {
              "internalType": "uint256",
              "name": "revenue",
              "type": "uint256"
            },
            {
              "internalType": "uint256",
              "name": "index",
              "type": "uint256"
            }
          ],
          "internalType": "struct PxaMarket.PxaOrder",
          "name": "order",
          "type": "tuple"
        }
      ],
      "stateMutability": "view",
      "type": "function"
    },
    {
      "inputs": [
        {
          "internalType": "address",
          "name": "tokenAddress",
          "type": "address"
        }
      ],
      "name": "removeAsset",
      "outputs": [],
      "stateMutability": "nonpayable",
      "type": "function"
    },
    {
      "inputs": [
        {
          "internalType": "uint256",
          "name": "matchId",
          "type": "uint256"
        }
      ],
      "name": "removeMatchRecord",
      "outputs": [],
      "stateMutability": "nonpayable",
      "type": "function"
    },
    {
      "inputs": [
        {
          "internalType": "uint256",
          "name": "proposeId",
          "type": "uint256"
        }
      ],
      "name": "removeProposeRecord",
      "outputs": [],
      "stateMutability": "nonpayable",
      "type": "function"
    },
    {
      "inputs": [],
      "name": "renounceOwnership",
      "outputs": [],
      "stateMutability": "nonpayable",
      "type": "function"
    },
    {
      "inputs": [
        {
          "internalType": "uint256",
          "name": "value",
          "type": "uint256"
        }
      ],
      "name": "setAmFeeBase",
      "outputs": [],
      "stateMutability": "nonpayable",
      "type": "function"
    },
    {
      "inputs": [
        {
          "internalType": "uint256",
          "name": "value",
          "type": "uint256"
        }
      ],
      "name": "setAmFeeRatio",
      "outputs": [],
      "stateMutability": "nonpayable",
      "type": "function"
    },
    {
      "inputs": [
        {
          "internalType": "address",
          "name": "tokenAddress",
          "type": "address"
        },
        {
          "internalType": "uint256",
          "name": "base",
          "type": "uint256"
        }
      ],
      "name": "setAssetFeeBase",
      "outputs": [],
      "stateMutability": "nonpayable",
      "type": "function"
    },
    {
      "inputs": [
        {
          "internalType": "address",
          "name": "tokenAddress",
          "type": "address"
        },
        {
          "internalType": "uint256",
          "name": "ratio",
          "type": "uint256"
        }
      ],
      "name": "setAssetFeeRatio",
      "outputs": [],
      "stateMutability": "nonpayable",
      "type": "function"
    },
    {
      "inputs": [
        {
          "internalType": "address",
          "name": "tokenAddress",
          "type": "address"
        },
        {
          "internalType": "bool",
          "name": "verified",
          "type": "bool"
        }
      ],
      "name": "setAssetVerified",
      "outputs": [],
      "stateMutability": "nonpayable",
      "type": "function"
    },
    {
      "inputs": [
        {
          "internalType": "uint256",
          "name": "value",
          "type": "uint256"
        }
      ],
      "name": "setPxaFeeRatio",
      "outputs": [],
      "stateMutability": "nonpayable",
      "type": "function"
    },
    {
      "inputs": [
        {
          "internalType": "address",
          "name": "pxaAddress",
          "type": "address"
        }
      ],
      "name": "setTokenAddress",
      "outputs": [],
      "stateMutability": "nonpayable",
      "type": "function"
    },
    {
      "inputs": [
        {
          "internalType": "bytes4",
          "name": "interfaceId",
          "type": "bytes4"
        }
      ],
      "name": "supportsInterface",
      "outputs": [
        {
          "internalType": "bool",
          "name": "",
          "type": "bool"
        }
      ],
      "stateMutability": "view",
      "type": "function"
    },
    {
      "inputs": [
        {
          "internalType": "address",
          "name": "newOwner",
          "type": "address"
        }
      ],
      "name": "transferOwnership",
      "outputs": [],
      "stateMutability": "nonpayable",
      "type": "function"
    }
  ],
  "transactionHash": "0x00f08cf16c115a45967b8ff493d43878faa13f915d11384c10d69a6ea239b920",
  "args": [
    "0x082C09c950d002a6020d68BA8e20a13802B0B20d",
    "0xd5E3bD9e68578F711407579991E01853Aa0d0B86"
  ],
  "numDeployments": 5,
  "solcInputHash": "ce19f736840fb0eb07a7ee816abc6813",
  "bytecode": "0x6080604052678ac7230489e80000600155612710600255600067ffffffffffffffff811115620000345762000033620002b9565b5b604051908082528060200260200182016040528015620000635781602001602082028036833780820191505090505b50600a90805190602001906200007b92919062000248565b5061c3506011553480156200008f57600080fd5b506040516200b3c23803806200b3c28339818101604052810190620000b5919062000397565b8082620000d7620000cb6200017c60201b60201c565b6200018460201b60201c565b600160048190555080600b60006101000a81548173ffffffffffffffffffffffffffffffffffffffff021916908373ffffffffffffffffffffffffffffffffffffffff160217905550611388600c819055505080600d60006101000a81548173ffffffffffffffffffffffffffffffffffffffff021916908373ffffffffffffffffffffffffffffffffffffffff160217905550600a600e81905550505050620003de565b600033905090565b60008060009054906101000a900473ffffffffffffffffffffffffffffffffffffffff169050816000806101000a81548173ffffffffffffffffffffffffffffffffffffffff021916908373ffffffffffffffffffffffffffffffffffffffff1602179055508173ffffffffffffffffffffffffffffffffffffffff168173ffffffffffffffffffffffffffffffffffffffff167f8be0079c531659141344cd1fd0a4f28419497f9722a3daafe3b4186f6b6457e060405160405180910390a35050565b82805482825590600052602060002090810192821562000287579160200282015b828111156200028657825182559160200191906001019062000269565b5b5090506200029691906200029a565b5090565b5b80821115620002b55760008160009055506001016200029b565b5090565b7f4e487b7100000000000000000000000000000000000000000000000000000000600052604160045260246000fd5b600080fd5b600073ffffffffffffffffffffffffffffffffffffffff82169050919050565b60006200031a82620002ed565b9050919050565b6200032c816200030d565b81146200033857600080fd5b50565b6000815190506200034c8162000321565b92915050565b60006200035f826200030d565b9050919050565b620003718162000352565b81146200037d57600080fd5b50565b600081519050620003918162000366565b92915050565b60008060408385031215620003b157620003b0620002e8565b5b6000620003c1858286016200033b565b9250506020620003d48582860162000380565b9150509250929050565b61afd480620003ee6000396000f3fe6080604052600436106102c95760003560e01c80637d09820011610175578063b69ef8a8116100dc578063e014afaf11610095578063f11b81881161006f578063f11b818814610a7d578063f23a6e6114610abe578063f2fde38b14610afb578063f9ebec6314610b24576102c9565b8063e014afaf14610a0d578063e52f894114610a38578063ef0aa21814610a61576102c9565b8063b69ef8a81461090e578063bc197c8114610939578063c284f02c14610976578063cd7e22711461099f578063d1d5a071146109c8578063d96a094a146109f1576102c9565b8063961e975a1161012e578063961e975a1461080d5780639991d3bf1461083857806399f95ece146108545780639c4667a21461087f578063a7375701146108bc578063a9dc8b85146108e5576102c9565b80637d0982001461071a578063807f68d21461074557806381d9a25c14610770578063847771711461079b5780638ca11c74146107b75780638da5cb5b146107e2576102c9565b8063476394e2116102345780636bcbd11c116101ed57806377f2fcbc116101c757806377f2fcbc1461066257806379109baa1461068b5780637a5b0231146106b45780637b6ee86e146106f1576102c9565b80636bcbd11c146105f75780636c149d5814610622578063715018a61461064b576102c9565b8063476394e2146105155780634a5e42b1146105405780634b7b9ad014610569578063514fcac714610594578063558675d6146105b05780636a579d2a146105cc576102c9565b8063262597251161028657806326259725146103f057806326a4e8d21461042d5780632aa1c79a1461045657806333f707d114610493578063379607f5146104bc578063434f7327146104d8576102c9565b806301ffc9a7146102ce57806302de00e81461030b578063141833dc14610336578063150b7a021461035f5780631cfa82951461039c578063240d78a1146103c5575b600080fd5b3480156102da57600080fd5b506102f560048036038101906102f09190616266565b610b4f565b60405161030291906162ae565b60405180910390f35b34801561031757600080fd5b50610320610bc9565b60405161032d91906162e5565b60405180910390f35b34801561034257600080fd5b5061035d60048036038101906103589190616336565b610bce565b005b34801561036b57600080fd5b5061038660048036038101906103819190616507565b610cac565b6040516103939190616599565b60405180910390f35b3480156103a857600080fd5b506103c360048036038101906103be91906165b4565b610cc0565b005b3480156103d157600080fd5b506103da610da6565b6040516103e79190616603565b60405180910390f35b3480156103fc57600080fd5b5061041760048036038101906104129190616336565b610e82565b6040516104249190616909565b60405180910390f35b34801561043957600080fd5b50610454600480360381019061044f919061692b565b6110d5565b005b34801561046257600080fd5b5061047d60048036038101906104789190616bd2565b611195565b60405161048a9190616603565b60405180910390f35b34801561049f57600080fd5b506104ba60048036038101906104b59190616336565b611244565b005b6104d660048036038101906104d19190616336565b6113c1565b005b3480156104e457600080fd5b506104ff60048036038101906104fa9190616336565b6113ce565b60405161050c9190616ce1565b60405180910390f35b34801561052157600080fd5b5061052a611479565b6040516105379190616603565b60405180910390f35b34801561054c57600080fd5b506105676004803603810190610562919061692b565b611480565b005b34801561057557600080fd5b5061057e6115e3565b60405161058b91906162e5565b60405180910390f35b6105ae60048036038101906105a99190616336565b6115e8565b005b6105ca60048036038101906105c59190616deb565b611787565b005b3480156105d857600080fd5b506105e1611963565b6040516105ee9190616603565b60405180910390f35b34801561060357600080fd5b5061060c61196d565b6040516106199190616603565b60405180910390f35b34801561062e57600080fd5b5061064960048036038101906106449190616336565b611973565b005b34801561065757600080fd5b50610660611ac3565b005b34801561066e57600080fd5b5061068960048036038101906106849190616336565b611b4b565b005b34801561069757600080fd5b506106b260048036038101906106ad91906165b4565b611cbc565b005b3480156106c057600080fd5b506106db60048036038101906106d69190616336565b611f85565b6040516106e8919061710b565b60405180910390f35b3480156106fd57600080fd5b506107186004803603810190610713919061712d565b612382565b005b34801561072657600080fd5b5061072f612608565b60405161073c9190616603565b60405180910390f35b34801561075157600080fd5b5061075a612612565b6040516107679190616603565b60405180910390f35b34801561077c57600080fd5b5061078561261c565b6040516107929190616603565b60405180910390f35b6107b560048036038101906107b09190616deb565b612706565b005b3480156107c357600080fd5b506107cc612787565b6040516107d991906162e5565b60405180910390f35b3480156107ee57600080fd5b506107f761278c565b604051610804919061717c565b60405180910390f35b34801561081957600080fd5b506108226127b5565b60405161082f9190616603565b60405180910390f35b610852600480360381019061084d9190617238565b6127bc565b005b34801561086057600080fd5b50610869612906565b6040516108769190616603565b60405180910390f35b34801561088b57600080fd5b506108a660048036038101906108a1919061692b565b61290c565b6040516108b391906173ea565b60405180910390f35b3480156108c857600080fd5b506108e360048036038101906108de9190616336565b612a07565b005b3480156108f157600080fd5b5061090c60048036038101906109079190616336565b612ac4565b005b34801561091a57600080fd5b50610923612b4a565b6040516109309190616603565b60405180910390f35b34801561094557600080fd5b50610960600480360381019061095b9190617405565b612bed565b60405161096d9190616599565b60405180910390f35b34801561098257600080fd5b5061099d60048036038101906109989190616336565b612c02565b005b3480156109ab57600080fd5b506109c660048036038101906109c191906174d4565b612cbf565b005b3480156109d457600080fd5b506109ef60048036038101906109ea91906174d4565b612ea6565b005b610a0b6004803603810190610a069190616336565b61308d565b005b348015610a1957600080fd5b50610a226132da565b604051610a2f9190616603565b60405180910390f35b348015610a4457600080fd5b50610a5f6004803603810190610a5a9190617514565b6132e0565b005b610a7b6004803603810190610a769190617238565b6134da565b005b348015610a8957600080fd5b50610aa46004803603810190610a9f919061692b565b61355f565b604051610ab5959493929190617554565b60405180910390f35b348015610aca57600080fd5b50610ae56004803603810190610ae091906175a7565b6135cf565b604051610af29190616599565b60405180910390f35b348015610b0757600080fd5b50610b226004803603810190610b1d919061692b565b6135e4565b005b348015610b3057600080fd5b50610b396136dc565b604051610b469190616603565b60405180910390f35b60007f4e2312e0000000000000000000000000000000000000000000000000000000007bffffffffffffffffffffffffffffffffffffffffffffffffffffffff1916827bffffffffffffffffffffffffffffffffffffffffffffffffffffffff19161480610bc25750610bc1826136e2565b5b9050919050565b600281565b610bd661374c565b73ffffffffffffffffffffffffffffffffffffffff16610bf461278c565b73ffffffffffffffffffffffffffffffffffffffff1614610c4a576040517f08c379a0000000000000000000000000000000000000000000000000000000008152600401610c419061769b565b60405180910390fd5b610c99333083600d60009054906101000a900473ffffffffffffffffffffffffffffffffffffffff1673ffffffffffffffffffffffffffffffffffffffff16613754909392919063ffffffff16565b610ca9610ca4612b4a565b6137dd565b50565b600063150b7a0260e01b9050949350505050565b60026004541415610d06576040517f08c379a0000000000000000000000000000000000000000000000000000000008152600401610cfd90617707565b60405180910390fd5b6002600481905550610d188282613808565b6000610d22610da6565b90506000811115610d9057610d4333600283610d3e9190617785565b613c7c565b610d8f6008600084815260200190815260200160002060010160009054906101000a900473ffffffffffffffffffffffffffffffffffffffff16600283610d8a9190617785565b613c7c565b5b610d9983613db8565b5060016004819055505050565b600080610db1612b4a565b1415610dc05760009050610e7f565b600d60009054906101000a900473ffffffffffffffffffffffffffffffffffffffff1673ffffffffffffffffffffffffffffffffffffffff1663313ce5676040518163ffffffff1660e01b8152600401602060405180830381865afa158015610e2d573d6000803e3d6000fd5b505050506040513d601f19601f82011682018060405250810190610e5191906177cb565b600a610e5d919061792b565b601054610e68612b4a565b610e729190617785565b610e7c9190617976565b90505b90565b610e8a615d07565b600860008381526020019081526020016000206040518060e0016040529081600082015481526020016001820160009054906101000a900473ffffffffffffffffffffffffffffffffffffffff1673ffffffffffffffffffffffffffffffffffffffff1673ffffffffffffffffffffffffffffffffffffffff16815260200160028201805480602002602001604051908101604052809291908181526020018280548015610f8d57602002820191906000526020600020905b8160009054906101000a900473ffffffffffffffffffffffffffffffffffffffff1673ffffffffffffffffffffffffffffffffffffffff1681526020019060010190808311610f43575b5050505050815260200160038201805480602002602001604051908101604052809291908181526020018280548015610fe557602002820191906000526020600020905b815481526020019060010190808311610fd1575b505050505081526020016004820180548060200260200160405190810160405280929190818152602001828054801561103d57602002820191906000526020600020905b815481526020019060010190808311611029575b50505050508152602001600582018054806020026020016040519081016040528092919081815260200182805480156110bb57602002820191906000526020600020906000905b82829054906101000a900460ff1660ff16815260200190600101906020826000010492830192600103820291508084116110845790505b505050505081526020016006820154815250509050919050565b6110dd61374c565b73ffffffffffffffffffffffffffffffffffffffff166110fb61278c565b73ffffffffffffffffffffffffffffffffffffffff1614611151576040517f08c379a00000000000000000000000000000000000000000000000000000000081526004016111489061769b565b60405180910390fd5b80600b60006101000a81548173ffffffffffffffffffffffffffffffffffffffff021916908373ffffffffffffffffffffffffffffffffffffffff16021790555050565b6000806000905060005b855181101561123857600015158482815181106111bf576111be6179d0565b5b602002602001015115151415611225578481815181106111e2576111e16179d0565b5b602002602001015161120d878381518110611200576111ff6179d0565b5b6020026020010151613ef6565b6112179190617976565b8261122291906179ff565b91505b808061123090617a55565b91505061119f565b50809150509392505050565b61124c61374c565b73ffffffffffffffffffffffffffffffffffffffff1661126a61278c565b73ffffffffffffffffffffffffffffffffffffffff16146112c0576040517f08c379a00000000000000000000000000000000000000000000000000000000081526004016112b79061769b565b60405180910390fd5b600d60009054906101000a900473ffffffffffffffffffffffffffffffffffffffff1673ffffffffffffffffffffffffffffffffffffffff1663095ea7b333836040518363ffffffff1660e01b815260040161131d929190617a9e565b6020604051808303816000875af115801561133c573d6000803e3d6000fd5b505050506040513d601f19601f820116820180604052508101906113609190617adc565b506113ae3382600d60009054906101000a900473ffffffffffffffffffffffffffffffffffffffff1673ffffffffffffffffffffffffffffffffffffffff166140599092919063ffffffff16565b6113be6113b9612b4a565b6137dd565b50565b6113cb33826140df565b50565b6113d6615d5a565b600960008381526020019081526020016000206040518060a00160405290816000820160009054906101000a900473ffffffffffffffffffffffffffffffffffffffff1673ffffffffffffffffffffffffffffffffffffffff1673ffffffffffffffffffffffffffffffffffffffff1681526020016001820154815260200160028201548152602001600382015481526020016004820154815250509050919050565b620f424081565b61148861374c565b73ffffffffffffffffffffffffffffffffffffffff166114a661278c565b73ffffffffffffffffffffffffffffffffffffffff16146114fc576040517f08c379a00000000000000000000000000000000000000000000000000000000081526004016114f39061769b565b60405180910390fd5b600360008273ffffffffffffffffffffffffffffffffffffffff1673ffffffffffffffffffffffffffffffffffffffff168152602001908152602001600020600080820160006101000a81549073ffffffffffffffffffffffffffffffffffffffff02191690556000820160146101000a81549060ff02191690556000820160156101000a81549060ff02191690556001820160009055600282016000905550508073ffffffffffffffffffffffffffffffffffffffff167f37803e2125c48ee96c38ddf04e826daf335b0e1603579040fd275aba6d06b6fc60405160405180910390a250565b600181565b6009600082815260200190815260200160002060000160009054906101000a900473ffffffffffffffffffffffffffffffffffffffff1673ffffffffffffffffffffffffffffffffffffffff163373ffffffffffffffffffffffffffffffffffffffff161461168c576040517f08c379a000000000000000000000000000000000000000000000000000000000815260040161168390617b55565b60405180910390fd5b6000600960008381526020019081526020016000206003015490506116b133836140df565b6116ba826141ed565b600b60009054906101000a900473ffffffffffffffffffffffffffffffffffffffff1673ffffffffffffffffffffffffffffffffffffffff166342842e0e3033856040518463ffffffff1660e01b815260040161171993929190617b75565b600060405180830381600087803b15801561173357600080fd5b505af1158015611747573d6000803e3d6000fd5b50505050817fdec16ec0a15607be6e73ed1ca935aa1269ae828874049d254f31b28c102f6dd08260405161177b9190616603565b60405180910390a25050565b600260045414156117cd576040517f08c379a00000000000000000000000000000000000000000000000000000000081526004016117c490617707565b60405180910390fd5b60026004819055506000845167ffffffffffffffff8111156117f2576117f16163dc565b5b6040519080825280602002602001820160405280156118205781602001602082028036833780820191505090505b50905060005b8151811015611869576000828281518110611844576118436179d0565b5b602002602001019015159081151581525050808061186190617a55565b915050611826565b506000611877868684611195565b9050803410156118bc576040517f08c379a00000000000000000000000000000000000000000000000000000000081526004016118b390617bf8565b60405180910390fd5b6118c98787878787614322565b6000620f4240601154836118dd9190617976565b6118e79190617785565b90506118f2816145dc565b600081836119009190617c18565b905061190a61278c565b73ffffffffffffffffffffffffffffffffffffffff166108fc829081150290604051600060405180830381858888f1935050505015801561194f573d6000803e3d6000fd5b505050505060016004819055505050505050565b6000600c54905090565b600e5481565b600260045414156119b9576040517f08c379a00000000000000000000000000000000000000000000000000000000081526004016119b090617707565b60405180910390fd5b60026004819055506006600082815260200190815260200160002060000160009054906101000a900473ffffffffffffffffffffffffffffffffffffffff1673ffffffffffffffffffffffffffffffffffffffff163373ffffffffffffffffffffffffffffffffffffffff1614611a65576040517f08c379a0000000000000000000000000000000000000000000000000000000008152600401611a5c90617c98565b60405180910390fd5b611a6e81613db8565b807f3d864d2c1b6545daa5b7b4ad188f731b7401c1ad8e7b0aa7714e57fe4a8a02fd60066000848152602001908152602001600020604051611ab0919061995b565b60405180910390a2600160048190555050565b611acb61374c565b73ffffffffffffffffffffffffffffffffffffffff16611ae961278c565b73ffffffffffffffffffffffffffffffffffffffff1614611b3f576040517f08c379a0000000000000000000000000000000000000000000000000000000008152600401611b369061769b565b60405180910390fd5b611b4960006146ce565b565b60026004541415611b91576040517f08c379a0000000000000000000000000000000000000000000000000000000008152600401611b8890617707565b60405180910390fd5b60026004819055503373ffffffffffffffffffffffffffffffffffffffff166008600083815260200190815260200160002060010160009054906101000a900473ffffffffffffffffffffffffffffffffffffffff1673ffffffffffffffffffffffffffffffffffffffff1614611c3d576040517f08c379a0000000000000000000000000000000000000000000000000000000008152600401611c34906199c9565b60405180910390fd5b6000600860008381526020019081526020016000209050611c5d81614792565b611c6682614882565b817f172e414729ca68e725ab11d0dad476faab984e1fb9118f3c0cd0bce9283abbd060086000858152602001908152602001600020604051611ca89190619ab9565b60405180910390a250600160048190555050565b3373ffffffffffffffffffffffffffffffffffffffff16600b60009054906101000a900473ffffffffffffffffffffffffffffffffffffffff1673ffffffffffffffffffffffffffffffffffffffff16636352211e846040518263ffffffff1660e01b8152600401611d2e9190616603565b602060405180830381865afa158015611d4b573d6000803e3d6000fd5b505050506040513d601f19601f82011682018060405250810190611d6f9190619af0565b73ffffffffffffffffffffffffffffffffffffffff1614611dc5576040517f08c379a0000000000000000000000000000000000000000000000000000000008152600401611dbc90619b69565b60405180910390fd5b600b60009054906101000a900473ffffffffffffffffffffffffffffffffffffffff1673ffffffffffffffffffffffffffffffffffffffff166342842e0e3330856040518463ffffffff1660e01b8152600401611e2493929190617b75565b600060405180830381600087803b158015611e3e57600080fd5b505af1158015611e52573d6000803e3d6000fd5b505050506040518060a001604052803373ffffffffffffffffffffffffffffffffffffffff16815260200183815260200182815260200160008152602001600a805490508152506009600084815260200190815260200160002060008201518160000160006101000a81548173ffffffffffffffffffffffffffffffffffffffff021916908373ffffffffffffffffffffffffffffffffffffffff16021790555060208201518160010155604082015181600201556060820151816003015560808201518160040155905050600a829080600181540180825580915050600190039060005260206000200160009091909190915055817f28eb86fd03c9bd96a8a83e4a46ab2ad257b70cea893d98ad6d482e96aa25fad03383604051611f79929190617a9e565b60405180910390a25050565b611f8d615d9f565b60066000838152602001908152602001600020604051806101200160405290816000820160009054906101000a900473ffffffffffffffffffffffffffffffffffffffff1673ffffffffffffffffffffffffffffffffffffffff1673ffffffffffffffffffffffffffffffffffffffff1681526020016001820160009054906101000a900473ffffffffffffffffffffffffffffffffffffffff1673ffffffffffffffffffffffffffffffffffffffff1673ffffffffffffffffffffffffffffffffffffffff16815260200160028201805461206890617d2e565b80601f016020809104026020016040519081016040528092919081815260200182805461209490617d2e565b80156120e15780601f106120b6576101008083540402835291602001916120e1565b820191906000526020600020905b8154815290600101906020018083116120c457829003601f168201915b505050505081526020016003820180548060200260200160405190810160405280929190818152602001828054801561216f57602002820191906000526020600020905b8160009054906101000a900473ffffffffffffffffffffffffffffffffffffffff1673ffffffffffffffffffffffffffffffffffffffff1681526020019060010190808311612125575b50505050508152602001600482018054806020026020016040519081016040528092919081815260200182805480156121c757602002820191906000526020600020905b8154815260200190600101908083116121b3575b505050505081526020016005820180548060200260200160405190810160405280929190818152602001828054801561221f57602002820191906000526020600020905b81548152602001906001019080831161220b575b505050505081526020016006820180548060200260200160405190810160405280929190818152602001828054801561229d57602002820191906000526020600020906000905b82829054906101000a900460ff1660ff16815260200190600101906020826000010492830192600103820291508084116122665790505b505050505081526020016007820180548060200260200160405190810160405280929190818152602001828054801561231a57602002820191906000526020600020906000905b82829054906101000a900460ff161515815260200190600101906020826000010492830192600103820291508084116122e45790505b505050505081526020016008820180548060200260200160405190810160405280929190818152602001828054801561237257602002820191906000526020600020905b81548152602001906001019080831161235e575b5050505050815250509050919050565b600073ffffffffffffffffffffffffffffffffffffffff16600360008473ffffffffffffffffffffffffffffffffffffffff1673ffffffffffffffffffffffffffffffffffffffff16815260200190815260200160002060000160009054906101000a900473ffffffffffffffffffffffffffffffffffffffff1673ffffffffffffffffffffffffffffffffffffffff1614612453576040517f08c379a000000000000000000000000000000000000000000000000000000000815260040161244a90619bfb565b60405180910390fd5b6040518060a001604052808373ffffffffffffffffffffffffffffffffffffffff1681526020018260ff1681526020016000151581526020016001548152602001600254815250600360008473ffffffffffffffffffffffffffffffffffffffff1673ffffffffffffffffffffffffffffffffffffffff16815260200190815260200160002060008201518160000160006101000a81548173ffffffffffffffffffffffffffffffffffffffff021916908373ffffffffffffffffffffffffffffffffffffffff16021790555060208201518160000160146101000a81548160ff021916908360ff16021790555060408201518160000160156101000a81548160ff02191690831515021790555060608201518160010155608082015181600201559050508173ffffffffffffffffffffffffffffffffffffffff167f86d6b3d460e359f72d4ee6085cd19682b58b8536b0c7b70bae5922152e6141db600360008573ffffffffffffffffffffffffffffffffffffffff1673ffffffffffffffffffffffffffffffffffffffff1681526020019081526020016000206040516125fc9190619cae565b60405180910390a25050565b6000600254905090565b6000600154905090565b600080612627612b4a565b14156126eb57600d60009054906101000a900473ffffffffffffffffffffffffffffffffffffffff1673ffffffffffffffffffffffffffffffffffffffff1663313ce5676040518163ffffffff1660e01b8152600401602060405180830381865afa15801561269a573d6000803e3d6000fd5b505050506040513d601f19601f820116820180604052508101906126be91906177cb565b600a6126ca919061792b565b600e54600f546126da9190617785565b6126e49190617976565b9050612703565b6126f3612b4a565b600f546127009190617785565b90505b90565b6002600454141561274c576040517f08c379a000000000000000000000000000000000000000000000000000000000815260040161274390617707565b60405180910390fd5b6002600481905550600061275e61261c565b905061276a3382614912565b6127778686868686614322565b5060016004819055505050505050565b600381565b60008060009054906101000a900473ffffffffffffffffffffffffffffffffffffffff16905090565b620f424081565b60026004541415612802576040517f08c379a00000000000000000000000000000000000000000000000000000000081526004016127f990617707565b60405180910390fd5b60026004819055506000612817868684611195565b90508034101561285c576040517f08c379a000000000000000000000000000000000000000000000000000000000815260040161285390617bf8565b60405180910390fd5b61286b888888888888886149af565b6000620f42406011548361287f9190617976565b6128899190617785565b9050612894816145dc565b600081836128a29190617c18565b90506128ac61278c565b73ffffffffffffffffffffffffffffffffffffffff166108fc829081150290604051600060405180830381858888f193505050501580156128f1573d6000803e3d6000fd5b50505050600160048190555050505050505050565b60115481565b612914615e17565b600360008373ffffffffffffffffffffffffffffffffffffffff1673ffffffffffffffffffffffffffffffffffffffff1681526020019081526020016000206040518060a00160405290816000820160009054906101000a900473ffffffffffffffffffffffffffffffffffffffff1673ffffffffffffffffffffffffffffffffffffffff1673ffffffffffffffffffffffffffffffffffffffff1681526020016000820160149054906101000a900460ff1660ff1660ff1681526020016000820160159054906101000a900460ff16151515158152602001600182015481526020016002820154815250509050919050565b612a0f61374c565b73ffffffffffffffffffffffffffffffffffffffff16612a2d61278c565b73ffffffffffffffffffffffffffffffffffffffff1614612a83576040517f08c379a0000000000000000000000000000000000000000000000000000000008152600401612a7a9061769b565b60405180910390fd5b806001819055507fa701c734adc954390df39cc273bd151a37445a72782f9e86c98dd19a4740149881604051612ab99190616603565b60405180910390a150565b612acc61374c565b73ffffffffffffffffffffffffffffffffffffffff16612aea61278c565b73ffffffffffffffffffffffffffffffffffffffff1614612b40576040517f08c379a0000000000000000000000000000000000000000000000000000000008152600401612b379061769b565b60405180910390fd5b80600c8190555050565b6000600d60009054906101000a900473ffffffffffffffffffffffffffffffffffffffff1673ffffffffffffffffffffffffffffffffffffffff166370a08231306040518263ffffffff1660e01b8152600401612ba7919061717c565b602060405180830381865afa158015612bc4573d6000803e3d6000fd5b505050506040513d601f19601f82011682018060405250810190612be89190619cde565b905090565b600063bc197c8160e01b905095945050505050565b612c0a61374c565b73ffffffffffffffffffffffffffffffffffffffff16612c2861278c565b73ffffffffffffffffffffffffffffffffffffffff1614612c7e576040517f08c379a0000000000000000000000000000000000000000000000000000000008152600401612c759061769b565b60405180910390fd5b806002819055507fad98c275fe99ef4d6c741df6bdb2851e1efffb9e71a1a68d63992a0cd8c038ed81604051612cb49190616603565b60405180910390a150565b612cc761374c565b73ffffffffffffffffffffffffffffffffffffffff16612ce561278c565b73ffffffffffffffffffffffffffffffffffffffff1614612d3b576040517f08c379a0000000000000000000000000000000000000000000000000000000008152600401612d329061769b565b60405180910390fd5b600073ffffffffffffffffffffffffffffffffffffffff16600360008473ffffffffffffffffffffffffffffffffffffffff1673ffffffffffffffffffffffffffffffffffffffff16815260200190815260200160002060000160009054906101000a900473ffffffffffffffffffffffffffffffffffffffff1673ffffffffffffffffffffffffffffffffffffffff161415612e0d576040517f08c379a0000000000000000000000000000000000000000000000000000000008152600401612e0490619d7d565b60405180910390fd5b80600360008473ffffffffffffffffffffffffffffffffffffffff1673ffffffffffffffffffffffffffffffffffffffff168152602001908152602001600020600201819055508173ffffffffffffffffffffffffffffffffffffffff167f55da874da551007bd7fc7a2fb26d9323093416d2402d016c40fa042deb363ab682604051612e9a9190616603565b60405180910390a25050565b612eae61374c565b73ffffffffffffffffffffffffffffffffffffffff16612ecc61278c565b73ffffffffffffffffffffffffffffffffffffffff1614612f22576040517f08c379a0000000000000000000000000000000000000000000000000000000008152600401612f199061769b565b60405180910390fd5b600073ffffffffffffffffffffffffffffffffffffffff16600360008473ffffffffffffffffffffffffffffffffffffffff1673ffffffffffffffffffffffffffffffffffffffff16815260200190815260200160002060000160009054906101000a900473ffffffffffffffffffffffffffffffffffffffff1673ffffffffffffffffffffffffffffffffffffffff161415612ff4576040517f08c379a0000000000000000000000000000000000000000000000000000000008152600401612feb90619d7d565b60405180910390fd5b80600360008473ffffffffffffffffffffffffffffffffffffffff1673ffffffffffffffffffffffffffffffffffffffff168152602001908152602001600020600101819055508173ffffffffffffffffffffffffffffffffffffffff167fa7dd36139906f2738e957c249a5b90dc5e1ffeac05e1e86f53d0200343463f72826040516130819190616603565b60405180910390a25050565b60096000828152602001908152602001600020600201543410156130e6576040517f08c379a00000000000000000000000000000000000000000000000000000000081526004016130dd90619de9565b60405180910390fd5b6000620f4240600c54346130fa9190617976565b6131049190617785565b9050600081346131149190617c18565b905061311e61278c565b73ffffffffffffffffffffffffffffffffffffffff166108fc839081150290604051600060405180830381858888f19350505050158015613163573d6000803e3d6000fd5b506009600084815260200190815260200160002060000160009054906101000a900473ffffffffffffffffffffffffffffffffffffffff1673ffffffffffffffffffffffffffffffffffffffff166108fc829081150290604051600060405180830381858888f193505050501580156131e0573d6000803e3d6000fd5b506131eb33846140df565b600b60009054906101000a900473ffffffffffffffffffffffffffffffffffffffff1673ffffffffffffffffffffffffffffffffffffffff166342842e0e3033866040518463ffffffff1660e01b815260040161324a93929190617b75565b600060405180830381600087803b15801561326457600080fd5b505af1158015613278573d6000803e3d6000fd5b50505050613285836141ed565b827f871cca9c30ebd3d38d92d08304561880d6466ddb658d2fd88e501a929c497fd93460096000878152602001908152602001600020600301546040516132cd929190619e09565b60405180910390a2505050565b600f5481565b6132e861374c565b73ffffffffffffffffffffffffffffffffffffffff1661330661278c565b73ffffffffffffffffffffffffffffffffffffffff161461335c576040517f08c379a00000000000000000000000000000000000000000000000000000000081526004016133539061769b565b60405180910390fd5b600073ffffffffffffffffffffffffffffffffffffffff16600360008473ffffffffffffffffffffffffffffffffffffffff1673ffffffffffffffffffffffffffffffffffffffff16815260200190815260200160002060000160009054906101000a900473ffffffffffffffffffffffffffffffffffffffff1673ffffffffffffffffffffffffffffffffffffffff16141561342e576040517f08c379a000000000000000000000000000000000000000000000000000000000815260040161342590619d7d565b60405180910390fd5b80600360008473ffffffffffffffffffffffffffffffffffffffff1673ffffffffffffffffffffffffffffffffffffffff16815260200190815260200160002060000160156101000a81548160ff0219169083151502179055508173ffffffffffffffffffffffffffffffffffffffff167f1dad4d9181f7ee4eb2d94b3f9313219e5875d90e2b8660718d58d687f94c49ac826040516134ce91906162ae565b60405180910390a25050565b60026004541415613520576040517f08c379a000000000000000000000000000000000000000000000000000000000815260040161351790617707565b60405180910390fd5b6002600481905550600061353261261c565b905061353e3382614912565b61354d888888888888886149af565b50600160048190555050505050505050565b60036020528060005260406000206000915090508060000160009054906101000a900473ffffffffffffffffffffffffffffffffffffffff16908060000160149054906101000a900460ff16908060000160159054906101000a900460ff16908060010154908060020154905085565b600063f23a6e6160e01b905095945050505050565b6135ec61374c565b73ffffffffffffffffffffffffffffffffffffffff1661360a61278c565b73ffffffffffffffffffffffffffffffffffffffff1614613660576040517f08c379a00000000000000000000000000000000000000000000000000000000081526004016136579061769b565b60405180910390fd5b600073ffffffffffffffffffffffffffffffffffffffff168173ffffffffffffffffffffffffffffffffffffffff1614156136d0576040517f08c379a00000000000000000000000000000000000000000000000000000000081526004016136c790619ea4565b60405180910390fd5b6136d9816146ce565b50565b60105481565b60007f01ffc9a7000000000000000000000000000000000000000000000000000000007bffffffffffffffffffffffffffffffffffffffffffffffffffffffff1916827bffffffffffffffffffffffffffffffffffffffffffffffffffffffff1916149050919050565b600033905090565b6137d7846323b872dd60e01b85858560405160240161377593929190617b75565b604051602081830303815290604052907bffffffffffffffffffffffffffffffffffffffffffffffffffffffff19166020820180517bffffffffffffffffffffffffffffffffffffffffffffffffffffffff8381831617835250505050614d50565b50505050565b600e54816137eb9190617976565b600f81905550600e54816137ff9190617785565b60108190555050565b600060066000848152602001908152602001600020905060006008600084815260200190815260200160002090503373ffffffffffffffffffffffffffffffffffffffff168260000160009054906101000a900473ffffffffffffffffffffffffffffffffffffffff1673ffffffffffffffffffffffffffffffffffffffff16146138c8576040517f08c379a00000000000000000000000000000000000000000000000000000000081526004016138bf90617c98565b60405180910390fd5b8060000154841461390e576040517f08c379a000000000000000000000000000000000000000000000000000000000815260040161390590619f10565b60405180910390fd5b61391782614e17565b613956576040517f08c379a000000000000000000000000000000000000000000000000000000000815260040161394d90619fa2565b60405180910390fd5b61395f816150c3565b61399e576040517f08c379a00000000000000000000000000000000000000000000000000000000081526004016139959061a034565b60405180910390fd5b60005b8260030180549050811015613b1657600115158360070182815481106139ca576139c96179d0565b5b90600052602060002090602091828204019190069054906101000a900460ff16151514156139f757613b03565b613b028360000160009054906101000a900473ffffffffffffffffffffffffffffffffffffffff168360010160009054906101000a900473ffffffffffffffffffffffffffffffffffffffff16856003018481548110613a5a57613a596179d0565b5b9060005260206000200160009054906101000a900473ffffffffffffffffffffffffffffffffffffffff16866004018581548110613a9b57613a9a6179d0565b5b9060005260206000200154876005018681548110613abc57613abb6179d0565b5b9060005260206000200154886006018781548110613add57613adc6179d0565b5b90600052602060002090602091828204019190069054906101000a900460ff16615328565b5b8080613b0e90617a55565b9150506139a1565b5060005b8160020180549050811015613c4757613c348260010160009054906101000a900473ffffffffffffffffffffffffffffffffffffffff168460000160009054906101000a900473ffffffffffffffffffffffffffffffffffffffff16846002018481548110613b8c57613b8b6179d0565b5b9060005260206000200160009054906101000a900473ffffffffffffffffffffffffffffffffffffffff16856003018581548110613bcd57613bcc6179d0565b5b9060005260206000200154866004018681548110613bee57613bed6179d0565b5b9060005260206000200154876005018781548110613c0f57613c0e6179d0565b5b90600052602060002090602091828204019190069054906101000a900460ff16615328565b8080613c3f90617a55565b915050613b1a565b5082847f5a6443be634d8594e0dff76c972a6a74f88bf761fb6e334d88dd979516f3bc8f60405160405180910390a350505050565b613c84610da6565b811115613cc6576040517f08c379a0000000000000000000000000000000000000000000000000000000008152600401613cbd9061a0a0565b60405180910390fd5b600d60009054906101000a900473ffffffffffffffffffffffffffffffffffffffff1673ffffffffffffffffffffffffffffffffffffffff1663095ea7b383836040518363ffffffff1660e01b8152600401613d23929190617a9e565b6020604051808303816000875af1158015613d42573d6000803e3d6000fd5b505050506040513d601f19601f82011682018060405250810190613d669190617adc565b50613db48282600d60009054906101000a900473ffffffffffffffffffffffffffffffffffffffff1673ffffffffffffffffffffffffffffffffffffffff166140599092919063ffffffff16565b5050565b600060066000838152602001908152602001600020905060066000838152602001908152602001600020600080820160006101000a81549073ffffffffffffffffffffffffffffffffffffffff02191690556001820160006101000a81549073ffffffffffffffffffffffffffffffffffffffff0219169055600282016000613e419190615e61565b600382016000613e519190615ea1565b600482016000613e619190615ec2565b600582016000613e719190615ec2565b600682016000613e819190615ee3565b600782016000613e919190615f0b565b600882016000613ea19190615ec2565b505060005b8160080180549050811015613ef157613ede826008018281548110613ece57613ecd6179d0565b5b9060005260206000200154614882565b8080613ee990617a55565b915050613ea6565b505050565b60008073ffffffffffffffffffffffffffffffffffffffff16600360008473ffffffffffffffffffffffffffffffffffffffff1673ffffffffffffffffffffffffffffffffffffffff16815260200190815260200160002060000160009054906101000a900473ffffffffffffffffffffffffffffffffffffffff1673ffffffffffffffffffffffffffffffffffffffff161415613fb357620f4240600254600154613fa29190617976565b613fac9190617785565b9050614054565b620f4240600360008473ffffffffffffffffffffffffffffffffffffffff1673ffffffffffffffffffffffffffffffffffffffff16815260200190815260200160002060020154600360008573ffffffffffffffffffffffffffffffffffffffff1673ffffffffffffffffffffffffffffffffffffffff168152602001908152602001600020600101546140479190617976565b6140519190617785565b90505b919050565b6140da8363a9059cbb60e01b8484604051602401614078929190617a9e565b604051602081830303815290604052907bffffffffffffffffffffffffffffffffffffffffffffffffffffffff19166020820180517bffffffffffffffffffffffffffffffffffffffffffffffffffffffff8381831617835250505050614d50565b505050565b600060096000838152602001908152602001600020600301549050600081141561410957506141e9565b4781111561414c576040517f08c379a00000000000000000000000000000000000000000000000000000000081526004016141439061a10c565b60405180910390fd5b8273ffffffffffffffffffffffffffffffffffffffff166108fc829081150290604051600060405180830381858888f19350505050158015614192573d6000803e3d6000fd5b5060006009600084815260200190815260200160002060030181905550817fc83b5086ce94ec8d5a88a9f5fea4b18a522bb238ed0d2d8abd959549a80c16b8826040516141df9190616603565b60405180910390a2505b5050565b60006009600083815260200190815260200160002060040154905060006001600a8054905061421c9190617c18565b9050600a8181548110614232576142316179d0565b5b9060005260206000200154600a8381548110614251576142506179d0565b5b90600052602060002001819055508160096000600a8481548110614278576142776179d0565b5b906000526020600020015481526020019081526020016000206004018190555060096000848152602001908152602001600020600080820160006101000a81549073ffffffffffffffffffffffffffffffffffffffff021916905560018201600090556002820160009055600382016000905560048201600090555050600a8054806143075761430661a12c565b5b60019003818190600052602060002001600090559055505050565b8251845114614366576040517f08c379a000000000000000000000000000000000000000000000000000000000815260040161435d9061a1cd565b60405180910390fd5b81518451146143aa576040517f08c379a00000000000000000000000000000000000000000000000000000000081526004016143a19061a25f565b60405180910390fd5b80518451146143ee576040517f08c379a00000000000000000000000000000000000000000000000000000000081526004016143e59061a2f1565b60405180910390fd5b6143f860076154b6565b600061440460076154cc565b90506040518060e001604052808781526020013373ffffffffffffffffffffffffffffffffffffffff1681526020018681526020018581526020018481526020018381526020016006600089815260200190815260200160002060080180549050815250600860008381526020019081526020016000206000820151816000015560208201518160010160006101000a81548173ffffffffffffffffffffffffffffffffffffffff021916908373ffffffffffffffffffffffffffffffffffffffff16021790555060408201518160020190805190602001906144e8929190615f33565b506060820151816003019080519060200190614505929190615fbd565b506080820151816004019080519060200190614522929190615fbd565b5060a082015181600501908051906020019061453f92919061600a565b5060c0820151816006015590505060066000878152602001908152602001600020600801819080600181540180825580915050600190039060005260206000200160009091909190915055807fd7af2d7ec779fb9958829116ac22b6fbd4eafe2ca69287d52dc56020617a6882600860008481526020019081526020016000206040516145cc9190619ab9565b60405180910390a2505050505050565b6000600a8054905014156145ef576146cb565b6000600a80549050826146029190617785565b905060005b600a805490508110156146c8578160096000600a848154811061462d5761462c6179d0565b5b90600052602060002001548152602001908152602001600020600301600082825461465891906179ff565b92505081905550600a8181548110614673576146726179d0565b5b90600052602060002001547fa916eef8b97ca0570d37ecb046f524f745075ea4e82b3067d873334377e9f8b7836040516146ad9190616603565b60405180910390a280806146c090617a55565b915050614607565b50505b50565b60008060009054906101000a900473ffffffffffffffffffffffffffffffffffffffff169050816000806101000a81548173ffffffffffffffffffffffffffffffffffffffff021916908373ffffffffffffffffffffffffffffffffffffffff1602179055508173ffffffffffffffffffffffffffffffffffffffff168173ffffffffffffffffffffffffffffffffffffffff167f8be0079c531659141344cd1fd0a4f28419497f9722a3daafe3b4186f6b6457e060405160405180910390a35050565b6000600660008360000154815260200190815260200160002090506000600182600801805490506147c39190617c18565b90506000600860008460080184815481106147e1576147e06179d0565b5b9060005260206000200154815260200190815260200160002090508360060154816006018190555082600801828154811061481f5761481e6179d0565b5b906000526020600020015483600801856006015481548110614844576148436179d0565b5b9060005260206000200181905550826008018054806148665761486561a12c565b5b6001900381819060005260206000200160009055905550505050565b600860008281526020019081526020016000206000808201600090556001820160006101000a81549073ffffffffffffffffffffffffffffffffffffffff02191690556002820160006148d59190615ea1565b6003820160006148e59190615ec2565b6004820160006148f59190615ec2565b6005820160006149059190615ee3565b6006820160009055505050565b61491a61261c565b81101561495c576040517f08c379a00000000000000000000000000000000000000000000000000000000081526004016149539061a35d565b60405180910390fd5b6149ab823083600d60009054906101000a900473ffffffffffffffffffffffffffffffffffffffff1673ffffffffffffffffffffffffffffffffffffffff16613754909392919063ffffffff16565b5050565b83518551146149f3576040517f08c379a00000000000000000000000000000000000000000000000000000000081526004016149ea9061a3ef565b60405180910390fd5b8251855114614a37576040517f08c379a0000000000000000000000000000000000000000000000000000000008152600401614a2e9061a481565b60405180910390fd5b8151855114614a7b576040517f08c379a0000000000000000000000000000000000000000000000000000000008152600401614a729061a513565b60405180910390fd5b8051855114614abf576040517f08c379a0000000000000000000000000000000000000000000000000000000008152600401614ab69061a5a5565b60405180910390fd5b614ac960056154b6565b6000614ad560056154cc565b90506040518061012001604052803373ffffffffffffffffffffffffffffffffffffffff1681526020018973ffffffffffffffffffffffffffffffffffffffff168152602001888152602001878152602001868152602001858152602001848152602001838152602001600067ffffffffffffffff811115614b5a57614b596163dc565b5b604051908082528060200260200182016040528015614b885781602001602082028036833780820191505090505b508152506006600083815260200190815260200160002060008201518160000160006101000a81548173ffffffffffffffffffffffffffffffffffffffff021916908373ffffffffffffffffffffffffffffffffffffffff16021790555060208201518160010160006101000a81548173ffffffffffffffffffffffffffffffffffffffff021916908373ffffffffffffffffffffffffffffffffffffffff1602179055506040820151816002019080519060200190614c499291906160b1565b506060820151816003019080519060200190614c66929190615f33565b506080820151816004019080519060200190614c83929190615fbd565b5060a0820151816005019080519060200190614ca0929190615fbd565b5060c0820151816006019080519060200190614cbd92919061600a565b5060e0820151816007019080519060200190614cda929190616137565b50610100820151816008019080519060200190614cf8929190615fbd565b50905050807f48e81893487928a99fb309ba6421c1f6fc1d630b8fd46ba2bd6ed6de9929ff7560066000848152602001908152602001600020604051614d3e919061995b565b60405180910390a25050505050505050565b6000614db2826040518060400160405280602081526020017f5361666545524332303a206c6f772d6c6576656c2063616c6c206661696c65648152508573ffffffffffffffffffffffffffffffffffffffff166154da9092919063ffffffff16565b9050600081511115614e125780806020019051810190614dd29190617adc565b614e11576040517f08c379a0000000000000000000000000000000000000000000000000000000008152600401614e089061a637565b60405180910390fd5b5b505050565b6000808260000160009054906101000a900473ffffffffffffffffffffffffffffffffffffffff1690506000836003019050600084600501905060008560060190506000866004019050600087600701905060005b85805490508110156150b357818181548110614e8b57614e8a6179d0565b5b90600052602060002090602091828204019190069054906101000a900460ff1615614eb5576150a0565b614f6b87878381548110614ecc57614ecb6179d0565b5b9060005260206000200160009054906101000a900473ffffffffffffffffffffffffffffffffffffffff16878481548110614f0a57614f096179d0565b5b9060005260206000200154878581548110614f2857614f276179d0565b5b90600052602060002090602091828204019190069054906101000a900460ff16878681548110614f5b57614f5a6179d0565b5b90600052602060002001546154f2565b614faa576040517f08c379a0000000000000000000000000000000000000000000000000000000008152600401614fa19061a6c9565b60405180910390fd5b61506087878381548110614fc157614fc06179d0565b5b9060005260206000200160009054906101000a900473ffffffffffffffffffffffffffffffffffffffff16878481548110614fff57614ffe6179d0565b5b906000526020600020015487858154811061501d5761501c6179d0565b5b90600052602060002090602091828204019190069054906101000a900460ff168786815481106150505761504f6179d0565b5b906000526020600020015461586f565b61509f576040517f08c379a00000000000000000000000000000000000000000000000000000000081526004016150969061a75b565b60405180910390fd5b5b80806150ab90617a55565b915050614e6c565b5060019650505050505050919050565b6000808260010160009054906101000a900473ffffffffffffffffffffffffffffffffffffffff169050600083600201905060008460040190506000856005019050600086600301905060005b8480549050811015615319576151d286868381548110615133576151326179d0565b5b9060005260206000200160009054906101000a900473ffffffffffffffffffffffffffffffffffffffff16868481548110615171576151706179d0565b5b906000526020600020015486858154811061518f5761518e6179d0565b5b90600052602060002090602091828204019190069054906101000a900460ff168686815481106151c2576151c16179d0565b5b90600052602060002001546154f2565b615211576040517f08c379a00000000000000000000000000000000000000000000000000000000081526004016152089061a7ed565b60405180910390fd5b6152c786868381548110615228576152276179d0565b5b9060005260206000200160009054906101000a900473ffffffffffffffffffffffffffffffffffffffff16868481548110615266576152656179d0565b5b9060005260206000200154868581548110615284576152836179d0565b5b90600052602060002090602091828204019190069054906101000a900460ff168686815481106152b7576152b66179d0565b5b906000526020600020015461586f565b615306576040517f08c379a00000000000000000000000000000000000000000000000000000000081526004016152fd9061a87f565b60405180910390fd5b808061531190617a55565b915050615110565b50600195505050505050919050565b600160ff168160ff161415615369576153648686858773ffffffffffffffffffffffffffffffffffffffff16613754909392919063ffffffff16565b6154ae565b600260ff168160ff1614156153ec578373ffffffffffffffffffffffffffffffffffffffff166342842e0e8787856040518463ffffffff1660e01b81526004016153b593929190617b75565b600060405180830381600087803b1580156153cf57600080fd5b505af11580156153e3573d6000803e3d6000fd5b505050506154ad565b600360ff168160ff161415615471578373ffffffffffffffffffffffffffffffffffffffff1663f242432a878785876040518563ffffffff1660e01b815260040161543a949392919061a8d6565b600060405180830381600087803b15801561545457600080fd5b505af1158015615468573d6000803e3d6000fd5b505050506154ac565b6040517f08c379a00000000000000000000000000000000000000000000000000000000081526004016154a39061a9a0565b60405180910390fd5b5b5b505050505050565b6001816000016000828254019250508190555050565b600081600001549050919050565b60606154e98484600085615b69565b90509392505050565b6000600160ff168360ff1614156155cc576000859050828173ffffffffffffffffffffffffffffffffffffffff1663dd62ed3e89306040518363ffffffff1660e01b815260040161554492919061a9c0565b602060405180830381865afa158015615561573d6000803e3d6000fd5b505050506040513d601f19601f820116820180604052508101906155859190619cde565b10156155c6576040517f08c379a00000000000000000000000000000000000000000000000000000000081526004016155bd9061aa5b565b60405180910390fd5b50615862565b600260ff168360ff1614156157505760008590503073ffffffffffffffffffffffffffffffffffffffff168173ffffffffffffffffffffffffffffffffffffffff1663081812fc876040518263ffffffff1660e01b81526004016156309190616603565b602060405180830381865afa15801561564d573d6000803e3d6000fd5b505050506040513d601f19601f820116820180604052508101906156719190619af0565b73ffffffffffffffffffffffffffffffffffffffff16148061570b57508073ffffffffffffffffffffffffffffffffffffffff1663e985e9c588306040518363ffffffff1660e01b81526004016156c992919061a9c0565b602060405180830381865afa1580156156e6573d6000803e3d6000fd5b505050506040513d601f19601f8201168201806040525081019061570a9190617adc565b5b61574a576040517f08c379a00000000000000000000000000000000000000000000000000000000081526004016157419061aaed565b60405180910390fd5b50615861565b600360ff168360ff1614156158255760008590508073ffffffffffffffffffffffffffffffffffffffff1663e985e9c588306040518363ffffffff1660e01b815260040161579f92919061a9c0565b602060405180830381865afa1580156157bc573d6000803e3d6000fd5b505050506040513d601f19601f820116820180604052508101906157e09190617adc565b61581f576040517f08c379a00000000000000000000000000000000000000000000000000000000081526004016158169061ab7f565b60405180910390fd5b50615860565b6040517f08c379a00000000000000000000000000000000000000000000000000000000081526004016158579061ac11565b60405180910390fd5b5b5b6001905095945050505050565b6000600160ff168360ff161415615947576000859050828173ffffffffffffffffffffffffffffffffffffffff166370a08231896040518263ffffffff1660e01b81526004016158bf919061717c565b602060405180830381865afa1580156158dc573d6000803e3d6000fd5b505050506040513d601f19601f820116820180604052508101906159009190619cde565b1015615941576040517f08c379a00000000000000000000000000000000000000000000000000000000081526004016159389061aca3565b60405180910390fd5b50615b5c565b600260ff168360ff161415615a485760008590508673ffffffffffffffffffffffffffffffffffffffff168173ffffffffffffffffffffffffffffffffffffffff16636352211e876040518263ffffffff1660e01b81526004016159ab9190616603565b602060405180830381865afa1580156159c8573d6000803e3d6000fd5b505050506040513d601f19601f820116820180604052508101906159ec9190619af0565b73ffffffffffffffffffffffffffffffffffffffff1614615a42576040517f08c379a0000000000000000000000000000000000000000000000000000000008152600401615a399061ad35565b60405180910390fd5b50615b5b565b600360ff168360ff161415615b1f576000859050828173ffffffffffffffffffffffffffffffffffffffff1662fdd58e89886040518363ffffffff1660e01b8152600401615a97929190617a9e565b602060405180830381865afa158015615ab4573d6000803e3d6000fd5b505050506040513d601f19601f82011682018060405250810190615ad89190619cde565b1015615b19576040517f08c379a0000000000000000000000000000000000000000000000000000000008152600401615b109061adc7565b60405180910390fd5b50615b5a565b6040517f08c379a0000000000000000000000000000000000000000000000000000000008152600401615b519061ac11565b60405180910390fd5b5b5b6001905095945050505050565b606082471015615bae576040517f08c379a0000000000000000000000000000000000000000000000000000000008152600401615ba59061ae59565b60405180910390fd5b615bb785615c7d565b615bf6576040517f08c379a0000000000000000000000000000000000000000000000000000000008152600401615bed9061aec5565b60405180910390fd5b6000808673ffffffffffffffffffffffffffffffffffffffff168587604051615c1f919061af2c565b60006040518083038185875af1925050503d8060008114615c5c576040519150601f19603f3d011682016040523d82523d6000602084013e615c61565b606091505b5091509150615c71828286615ca0565b92505050949350505050565b6000808273ffffffffffffffffffffffffffffffffffffffff163b119050919050565b60608315615cb057829050615d00565b600083511115615cc35782518084602001fd5b816040517f08c379a0000000000000000000000000000000000000000000000000000000008152600401615cf7919061af7c565b60405180910390fd5b9392505050565b6040518060e0016040528060008152602001600073ffffffffffffffffffffffffffffffffffffffff16815260200160608152602001606081526020016060815260200160608152602001600081525090565b6040518060a00160405280600073ffffffffffffffffffffffffffffffffffffffff168152602001600081526020016000815260200160008152602001600081525090565b604051806101200160405280600073ffffffffffffffffffffffffffffffffffffffff168152602001600073ffffffffffffffffffffffffffffffffffffffff168152602001606081526020016060815260200160608152602001606081526020016060815260200160608152602001606081525090565b6040518060a00160405280600073ffffffffffffffffffffffffffffffffffffffff168152602001600060ff16815260200160001515815260200160008152602001600081525090565b508054615e6d90617d2e565b6000825580601f10615e7f5750615e9e565b601f016020900490600052602060002090810190615e9d91906161dd565b5b50565b5080546000825590600052602060002090810190615ebf91906161dd565b50565b5080546000825590600052602060002090810190615ee091906161dd565b50565b50805460008255601f016020900490600052602060002090810190615f0891906161dd565b50565b50805460008255601f016020900490600052602060002090810190615f3091906161dd565b50565b828054828255906000526020600020908101928215615fac579160200282015b82811115615fab5782518260006101000a81548173ffffffffffffffffffffffffffffffffffffffff021916908373ffffffffffffffffffffffffffffffffffffffff16021790555091602001919060010190615f53565b5b509050615fb991906161dd565b5090565b828054828255906000526020600020908101928215615ff9579160200282015b82811115615ff8578251825591602001919060010190615fdd565b5b50905061600691906161dd565b5090565b82805482825590600052602060002090601f016020900481019282156160a05791602002820160005b8382111561607157835183826101000a81548160ff021916908360ff1602179055509260200192600101602081600001049283019260010302616033565b801561609e5782816101000a81549060ff0219169055600101602081600001049283019260010302616071565b505b5090506160ad91906161dd565b5090565b8280546160bd90617d2e565b90600052602060002090601f0160209004810192826160df5760008555616126565b82601f106160f857805160ff1916838001178555616126565b82800160010185558215616126579182015b8281111561612557825182559160200191906001019061610a565b5b50905061613391906161dd565b5090565b82805482825590600052602060002090601f016020900481019282156161cc5791602002820160005b8382111561619d57835183826101000a81548160ff0219169083151502179055509260200192600101602081600001049283019260010302616160565b80156161ca5782816101000a81549060ff021916905560010160208160000104928301926001030261619d565b505b5090506161d991906161dd565b5090565b5b808211156161f65760008160009055506001016161de565b5090565b6000604051905090565b600080fd5b600080fd5b60007fffffffff0000000000000000000000000000000000000000000000000000000082169050919050565b6162438161620e565b811461624e57600080fd5b50565b6000813590506162608161623a565b92915050565b60006020828403121561627c5761627b616204565b5b600061628a84828501616251565b91505092915050565b60008115159050919050565b6162a881616293565b82525050565b60006020820190506162c3600083018461629f565b92915050565b600060ff82169050919050565b6162df816162c9565b82525050565b60006020820190506162fa60008301846162d6565b92915050565b6000819050919050565b61631381616300565b811461631e57600080fd5b50565b6000813590506163308161630a565b92915050565b60006020828403121561634c5761634b616204565b5b600061635a84828501616321565b91505092915050565b600073ffffffffffffffffffffffffffffffffffffffff82169050919050565b600061638e82616363565b9050919050565b61639e81616383565b81146163a957600080fd5b50565b6000813590506163bb81616395565b92915050565b600080fd5b600080fd5b6000601f19601f8301169050919050565b7f4e487b7100000000000000000000000000000000000000000000000000000000600052604160045260246000fd5b616414826163cb565b810181811067ffffffffffffffff82111715616433576164326163dc565b5b80604052505050565b60006164466161fa565b9050616452828261640b565b919050565b600067ffffffffffffffff821115616472576164716163dc565b5b61647b826163cb565b9050602081019050919050565b82818337600083830152505050565b60006164aa6164a584616457565b61643c565b9050828152602081018484840111156164c6576164c56163c6565b5b6164d1848285616488565b509392505050565b600082601f8301126164ee576164ed6163c1565b5b81356164fe848260208601616497565b91505092915050565b6000806000806080858703121561652157616520616204565b5b600061652f878288016163ac565b9450506020616540878288016163ac565b935050604061655187828801616321565b925050606085013567ffffffffffffffff81111561657257616571616209565b5b61657e878288016164d9565b91505092959194509250565b6165938161620e565b82525050565b60006020820190506165ae600083018461658a565b92915050565b600080604083850312156165cb576165ca616204565b5b60006165d985828601616321565b92505060206165ea85828601616321565b9150509250929050565b6165fd81616300565b82525050565b600060208201905061661860008301846165f4565b92915050565b61662781616300565b82525050565b61663681616383565b82525050565b600081519050919050565b600082825260208201905092915050565b6000819050602082019050919050565b6000616674838361662d565b60208301905092915050565b6000602082019050919050565b60006166988261663c565b6166a28185616647565b93506166ad83616658565b8060005b838110156166de5781516166c58882616668565b97506166d083616680565b9250506001810190506166b1565b5085935050505092915050565b600081519050919050565b600082825260208201905092915050565b6000819050602082019050919050565b6000616723838361661e565b60208301905092915050565b6000602082019050919050565b6000616747826166eb565b61675181856166f6565b935061675c83616707565b8060005b8381101561678d5781516167748882616717565b975061677f8361672f565b925050600181019050616760565b5085935050505092915050565b600081519050919050565b600082825260208201905092915050565b6000819050602082019050919050565b6167cf816162c9565b82525050565b60006167e183836167c6565b60208301905092915050565b6000602082019050919050565b60006168058261679a565b61680f81856167a5565b935061681a836167b6565b8060005b8381101561684b57815161683288826167d5565b975061683d836167ed565b92505060018101905061681e565b5085935050505092915050565b600060e083016000830151616870600086018261661e565b506020830151616883602086018261662d565b506040830151848203604086015261689b828261668d565b915050606083015184820360608601526168b5828261673c565b915050608083015184820360808601526168cf828261673c565b91505060a083015184820360a08601526168e982826167fa565b91505060c08301516168fe60c086018261661e565b508091505092915050565b600060208201905081810360008301526169238184616858565b905092915050565b60006020828403121561694157616940616204565b5b600061694f848285016163ac565b91505092915050565b600067ffffffffffffffff821115616973576169726163dc565b5b602082029050602081019050919050565b600080fd5b600061699c61699784616958565b61643c565b905080838252602082019050602084028301858111156169bf576169be616984565b5b835b818110156169e857806169d488826163ac565b8452602084019350506020810190506169c1565b5050509392505050565b600082601f830112616a0757616a066163c1565b5b8135616a17848260208601616989565b91505092915050565b600067ffffffffffffffff821115616a3b57616a3a6163dc565b5b602082029050602081019050919050565b6000616a5f616a5a84616a20565b61643c565b90508083825260208201905060208402830185811115616a8257616a81616984565b5b835b81811015616aab5780616a978882616321565b845260208401935050602081019050616a84565b5050509392505050565b600082601f830112616aca57616ac96163c1565b5b8135616ada848260208601616a4c565b91505092915050565b600067ffffffffffffffff821115616afe57616afd6163dc565b5b602082029050602081019050919050565b616b1881616293565b8114616b2357600080fd5b50565b600081359050616b3581616b0f565b92915050565b6000616b4e616b4984616ae3565b61643c565b90508083825260208201905060208402830185811115616b7157616b70616984565b5b835b81811015616b9a5780616b868882616b26565b845260208401935050602081019050616b73565b5050509392505050565b600082601f830112616bb957616bb86163c1565b5b8135616bc9848260208601616b3b565b91505092915050565b600080600060608486031215616beb57616bea616204565b5b600084013567ffffffffffffffff811115616c0957616c08616209565b5b616c15868287016169f2565b935050602084013567ffffffffffffffff811115616c3657616c35616209565b5b616c4286828701616ab5565b925050604084013567ffffffffffffffff811115616c6357616c62616209565b5b616c6f86828701616ba4565b9150509250925092565b60a082016000820151616c8f600085018261662d565b506020820151616ca2602085018261661e565b506040820151616cb5604085018261661e565b506060820151616cc8606085018261661e565b506080820151616cdb608085018261661e565b50505050565b600060a082019050616cf66000830184616c79565b92915050565b600067ffffffffffffffff821115616d1757616d166163dc565b5b602082029050602081019050919050565b616d31816162c9565b8114616d3c57600080fd5b50565b600081359050616d4e81616d28565b92915050565b6000616d67616d6284616cfc565b61643c565b90508083825260208201905060208402830185811115616d8a57616d89616984565b5b835b81811015616db35780616d9f8882616d3f565b845260208401935050602081019050616d8c565b5050509392505050565b600082601f830112616dd257616dd16163c1565b5b8135616de2848260208601616d54565b91505092915050565b600080600080600060a08688031215616e0757616e06616204565b5b6000616e1588828901616321565b955050602086013567ffffffffffffffff811115616e3657616e35616209565b5b616e42888289016169f2565b945050604086013567ffffffffffffffff811115616e6357616e62616209565b5b616e6f88828901616ab5565b935050606086013567ffffffffffffffff811115616e9057616e8f616209565b5b616e9c88828901616ab5565b925050608086013567ffffffffffffffff811115616ebd57616ebc616209565b5b616ec988828901616dbd565b9150509295509295909350565b600081519050919050565b600082825260208201905092915050565b60005b83811015616f10578082015181840152602081019050616ef5565b83811115616f1f576000848401525b50505050565b6000616f3082616ed6565b616f3a8185616ee1565b9350616f4a818560208601616ef2565b616f53816163cb565b840191505092915050565b600081519050919050565b600082825260208201905092915050565b6000819050602082019050919050565b616f9381616293565b82525050565b6000616fa58383616f8a565b60208301905092915050565b6000602082019050919050565b6000616fc982616f5e565b616fd38185616f69565b9350616fde83616f7a565b8060005b8381101561700f578151616ff68882616f99565b975061700183616fb1565b925050600181019050616fe2565b5085935050505092915050565b600061012083016000830151617035600086018261662d565b506020830151617048602086018261662d565b50604083015184820360408601526170608282616f25565b9150506060830151848203606086015261707a828261668d565b91505060808301518482036080860152617094828261673c565b91505060a083015184820360a08601526170ae828261673c565b91505060c083015184820360c08601526170c882826167fa565b91505060e083015184820360e08601526170e28282616fbe565b9150506101008301518482036101008601526170fe828261673c565b9150508091505092915050565b60006020820190508181036000830152617125818461701c565b905092915050565b6000806040838503121561714457617143616204565b5b6000617152858286016163ac565b925050602061716385828601616d3f565b9150509250929050565b61717681616383565b82525050565b6000602082019050617191600083018461716d565b92915050565b600067ffffffffffffffff8211156171b2576171b16163dc565b5b6171bb826163cb565b9050602081019050919050565b60006171db6171d684617197565b61643c565b9050828152602081018484840111156171f7576171f66163c6565b5b617202848285616488565b509392505050565b600082601f83011261721f5761721e6163c1565b5b813561722f8482602086016171c8565b91505092915050565b600080600080600080600060e0888a03121561725757617256616204565b5b60006172658a828b016163ac565b975050602088013567ffffffffffffffff81111561728657617285616209565b5b6172928a828b0161720a565b965050604088013567ffffffffffffffff8111156172b3576172b2616209565b5b6172bf8a828b016169f2565b955050606088013567ffffffffffffffff8111156172e0576172df616209565b5b6172ec8a828b01616ab5565b945050608088013567ffffffffffffffff81111561730d5761730c616209565b5b6173198a828b01616ab5565b93505060a088013567ffffffffffffffff81111561733a57617339616209565b5b6173468a828b01616dbd565b92505060c088013567ffffffffffffffff81111561736757617366616209565b5b6173738a828b01616ba4565b91505092959891949750929550565b60a082016000820151617398600085018261662d565b5060208201516173ab60208501826167c6565b5060408201516173be6040850182616f8a565b5060608201516173d1606085018261661e565b5060808201516173e4608085018261661e565b50505050565b600060a0820190506173ff6000830184617382565b92915050565b600080600080600060a0868803121561742157617420616204565b5b600061742f888289016163ac565b9550506020617440888289016163ac565b945050604086013567ffffffffffffffff81111561746157617460616209565b5b61746d88828901616ab5565b935050606086013567ffffffffffffffff81111561748e5761748d616209565b5b61749a88828901616ab5565b925050608086013567ffffffffffffffff8111156174bb576174ba616209565b5b6174c7888289016164d9565b9150509295509295909350565b600080604083850312156174eb576174ea616204565b5b60006174f9858286016163ac565b925050602061750a85828601616321565b9150509250929050565b6000806040838503121561752b5761752a616204565b5b6000617539858286016163ac565b925050602061754a85828601616b26565b9150509250929050565b600060a082019050617569600083018861716d565b61757660208301876162d6565b617583604083018661629f565b61759060608301856165f4565b61759d60808301846165f4565b9695505050505050565b600080600080600060a086880312156175c3576175c2616204565b5b60006175d1888289016163ac565b95505060206175e2888289016163ac565b94505060406175f388828901616321565b935050606061760488828901616321565b925050608086013567ffffffffffffffff81111561762557617624616209565b5b617631888289016164d9565b9150509295509295909350565b600082825260208201905092915050565b7f4f776e61626c653a2063616c6c6572206973206e6f7420746865206f776e6572600082015250565b600061768560208361763e565b91506176908261764f565b602082019050919050565b600060208201905081810360008301526176b481617678565b9050919050565b7f5265656e7472616e637947756172643a207265656e7472616e742063616c6c00600082015250565b60006176f1601f8361763e565b91506176fc826176bb565b602082019050919050565b60006020820190508181036000830152617720816176e4565b9050919050565b7f4e487b7100000000000000000000000000000000000000000000000000000000600052601260045260246000fd5b7f4e487b7100000000000000000000000000000000000000000000000000000000600052601160045260246000fd5b600061779082616300565b915061779b83616300565b9250826177ab576177aa617727565b5b828204905092915050565b6000815190506177c581616d28565b92915050565b6000602082840312156177e1576177e0616204565b5b60006177ef848285016177b6565b91505092915050565b60008160011c9050919050565b6000808291508390505b600185111561784f5780860481111561782b5761782a617756565b5b600185161561783a5780820291505b8081029050617848856177f8565b945061780f565b94509492505050565b6000826178685760019050617924565b816178765760009050617924565b816001811461788c5760028114617896576178c5565b6001915050617924565b60ff8411156178a8576178a7617756565b5b8360020a9150848211156178bf576178be617756565b5b50617924565b5060208310610133831016604e8410600b84101617156178fa5782820a9050838111156178f5576178f4617756565b5b617924565b6179078484846001617805565b9250905081840481111561791e5761791d617756565b5b81810290505b9392505050565b600061793682616300565b9150617941836162c9565b925061796e7fffffffffffffffffffffffffffffffffffffffffffffffffffffffffffffffff8484617858565b905092915050565b600061798182616300565b915061798c83616300565b9250817fffffffffffffffffffffffffffffffffffffffffffffffffffffffffffffffff04831182151516156179c5576179c4617756565b5b828202905092915050565b7f4e487b7100000000000000000000000000000000000000000000000000000000600052603260045260246000fd5b6000617a0a82616300565b9150617a1583616300565b9250827fffffffffffffffffffffffffffffffffffffffffffffffffffffffffffffffff03821115617a4a57617a49617756565b5b828201905092915050565b6000617a6082616300565b91507fffffffffffffffffffffffffffffffffffffffffffffffffffffffffffffffff821415617a9357617a92617756565b5b600182019050919050565b6000604082019050617ab3600083018561716d565b617ac060208301846165f4565b9392505050565b600081519050617ad681616b0f565b92915050565b600060208284031215617af257617af1616204565b5b6000617b0084828501617ac7565b91505092915050565b7f5078614d61726b65743a20696e76616c69642073656c6c657200000000000000600082015250565b6000617b3f60198361763e565b9150617b4a82617b09565b602082019050919050565b60006020820190508181036000830152617b6e81617b32565b9050919050565b6000606082019050617b8a600083018661716d565b617b97602083018561716d565b617ba460408301846165f4565b949350505050565b7f50697870726573733a20696e73756666696369656e7420737761702066656500600082015250565b6000617be2601f8361763e565b9150617bed82617bac565b602082019050919050565b60006020820190508181036000830152617c1181617bd5565b9050919050565b6000617c2382616300565b9150617c2e83616300565b925082821015617c4157617c40617756565b5b828203905092915050565b7f417373657420537761707065723a20696e76616c69642070726f706f73657200600082015250565b6000617c82601f8361763e565b9150617c8d82617c4c565b602082019050919050565b60006020820190508181036000830152617cb181617c75565b9050919050565b60008160001c9050919050565b600073ffffffffffffffffffffffffffffffffffffffff82169050919050565b6000617cf8617cf383617cb8565b617cc5565b9050919050565b7f4e487b7100000000000000000000000000000000000000000000000000000000600052602260045260246000fd5b60006002820490506001821680617d4657607f821691505b60208210811415617d5a57617d59617cff565b5b50919050565b60008190508160005260206000209050919050565b60008154617d8281617d2e565b617d8c8186616ee1565b94506001821660008114617da75760018114617db957617dec565b60ff1983168652602086019350617dec565b617dc285617d60565b60005b83811015617de457815481890152600182019150602081019050617dc5565b808801955050505b50505092915050565b600081549050919050565b60008190508160005260206000209050919050565b6000617e218254617ce5565b9050919050565b6000600182019050919050565b6000617e4082617df5565b617e4a8185616647565b9350617e5583617e00565b8060005b83811015617e8d57617e6a82617e15565b617e748882616668565b9750617e7f83617e28565b925050600181019050617e59565b5085935050505092915050565b600081549050919050565b60008190508160005260206000209050919050565b6000819050919050565b6000617ed7617ed283617cb8565b617eba565b9050919050565b6000617eea8254617ec4565b9050919050565b6000600182019050919050565b6000617f0982617e9a565b617f1381856166f6565b9350617f1e83617ea5565b8060005b83811015617f5657617f3382617ede565b617f3d8882616717565b9750617f4883617ef1565b925050600181019050617f22565b5085935050505092915050565b600081549050919050565b60008190508160005260206000209050919050565b600060ff82169050919050565b6000617fa3617f9e83617cb8565b617f83565b9050919050565b60008160081c9050919050565b6000617fca617fc583617faa565b617f83565b9050919050565b60008160101c9050919050565b6000617ff1617fec83617fd1565b617f83565b9050919050565b60008160181c9050919050565b600061801861801383617ff8565b617f83565b9050919050565b60008160201c9050919050565b600061803f61803a8361801f565b617f83565b9050919050565b60008160281c9050919050565b600061806661806183618046565b617f83565b9050919050565b60008160301c9050919050565b600061808d6180888361806d565b617f83565b9050919050565b60008160381c9050919050565b60006180b46180af83618094565b617f83565b9050919050565b60008160401c9050919050565b60006180db6180d6836180bb565b617f83565b9050919050565b60008160481c9050919050565b60006181026180fd836180e2565b617f83565b9050919050565b60008160501c9050919050565b600061812961812483618109565b617f83565b9050919050565b60008160581c9050919050565b600061815061814b83618130565b617f83565b9050919050565b60008160601c9050919050565b600061817761817283618157565b617f83565b9050919050565b60008160681c9050919050565b600061819e6181998361817e565b617f83565b9050919050565b60008160701c9050919050565b60006181c56181c0836181a5565b617f83565b9050919050565b60008160781c9050919050565b60006181ec6181e7836181cc565b617f83565b9050919050565b60008160801c9050919050565b600061821361820e836181f3565b617f83565b9050919050565b60008160881c9050919050565b600061823a6182358361821a565b617f83565b9050919050565b60008160901c9050919050565b600061826161825c83618241565b617f83565b9050919050565b60008160981c9050919050565b600061828861828383618268565b617f83565b9050919050565b60008160a01c9050919050565b60006182af6182aa8361828f565b617f83565b9050919050565b60008160a81c9050919050565b60006182d66182d1836182b6565b617f83565b9050919050565b60008160b01c9050919050565b60006182fd6182f8836182dd565b617f83565b9050919050565b60008160b81c9050919050565b600061832461831f83618304565b617f83565b9050919050565b60008160c01c9050919050565b600061834b6183468361832b565b617f83565b9050919050565b60008160c81c9050919050565b600061837261836d83618352565b617f83565b9050919050565b60008160d01c9050919050565b600061839961839483618379565b617f83565b9050919050565b60008160d81c9050919050565b60006183c06183bb836183a0565b617f83565b9050919050565b60008160e01c9050919050565b60006183e76183e2836183c7565b617f83565b9050919050565b60008160e81c9050919050565b600061840e618409836183ee565b617f83565b9050919050565b60008160f01c9050919050565b600061843561843083618415565b617f83565b9050919050565b60008160f81c9050919050565b600061845c6184578361843c565b617f83565b9050919050565b600061846e82617f63565b61847881856167a5565b93508361848484617f6e565b60006001156187b1575b836001602003820110156187b05781546184b0886184ab83617f90565b6167c6565b6020880197506184c8886184c383617fb7565b6167c6565b6020880197506184e0886184db83617fde565b6167c6565b6020880197506184f8886184f383618005565b6167c6565b6020880197506185108861850b8361802c565b6167c6565b6020880197506185288861852383618053565b6167c6565b6020880197506185408861853b8361807a565b6167c6565b60208801975061855888618553836180a1565b6167c6565b6020880197506185708861856b836180c8565b6167c6565b60208801975061858888618583836180ef565b6167c6565b6020880197506185a08861859b83618116565b6167c6565b6020880197506185b8886185b38361813d565b6167c6565b6020880197506185d0886185cb83618164565b6167c6565b6020880197506185e8886185e38361818b565b6167c6565b602088019750618600886185fb836181b2565b6167c6565b60208801975061861888618613836181d9565b6167c6565b6020880197506186308861862b83618200565b6167c6565b6020880197506186488861864383618227565b6167c6565b6020880197506186608861865b8361824e565b6167c6565b6020880197506186788861867383618275565b6167c6565b6020880197506186908861868b8361829c565b6167c6565b6020880197506186a8886186a3836182c3565b6167c6565b6020880197506186c0886186bb836182ea565b6167c6565b6020880197506186d8886186d383618311565b6167c6565b6020880197506186f0886186eb83618338565b6167c6565b602088019750618708886187038361835f565b6167c6565b6020880197506187208861871b83618386565b6167c6565b60208801975061873888618733836183ad565b6167c6565b6020880197506187508861874b836183d4565b6167c6565b60208801975061876888618763836183fb565b6167c6565b6020880197506187808861877b83618422565b6167c6565b6020880197506187988861879383618449565b6167c6565b6020880197506001830192505060208101905061848e565b5b600115618c9c578154848210156187e1576187d4886187cf83617f90565b6167c6565b6020880197506001820191505b84821015618808576187fb886187f683617fb7565b6167c6565b6020880197506001820191505b8482101561882f576188228861881d83617fde565b6167c6565b6020880197506001820191505b84821015618856576188498861884483618005565b6167c6565b6020880197506001820191505b8482101561887d576188708861886b8361802c565b6167c6565b6020880197506001820191505b848210156188a4576188978861889283618053565b6167c6565b6020880197506001820191505b848210156188cb576188be886188b98361807a565b6167c6565b6020880197506001820191505b848210156188f2576188e5886188e0836180a1565b6167c6565b6020880197506001820191505b848210156189195761890c88618907836180c8565b6167c6565b6020880197506001820191505b84821015618940576189338861892e836180ef565b6167c6565b6020880197506001820191505b848210156189675761895a8861895583618116565b6167c6565b6020880197506001820191505b8482101561898e576189818861897c8361813d565b6167c6565b6020880197506001820191505b848210156189b5576189a8886189a383618164565b6167c6565b6020880197506001820191505b848210156189dc576189cf886189ca8361818b565b6167c6565b6020880197506001820191505b84821015618a03576189f6886189f1836181b2565b6167c6565b6020880197506001820191505b84821015618a2a57618a1d88618a18836181d9565b6167c6565b6020880197506001820191505b84821015618a5157618a4488618a3f83618200565b6167c6565b6020880197506001820191505b84821015618a7857618a6b88618a6683618227565b6167c6565b6020880197506001820191505b84821015618a9f57618a9288618a8d8361824e565b6167c6565b6020880197506001820191505b84821015618ac657618ab988618ab483618275565b6167c6565b6020880197506001820191505b84821015618aed57618ae088618adb8361829c565b6167c6565b6020880197506001820191505b84821015618b1457618b0788618b02836182c3565b6167c6565b6020880197506001820191505b84821015618b3b57618b2e88618b29836182ea565b6167c6565b6020880197506001820191505b84821015618b6257618b5588618b5083618311565b6167c6565b6020880197506001820191505b84821015618b8957618b7c88618b7783618338565b6167c6565b6020880197506001820191505b84821015618bb057618ba388618b9e8361835f565b6167c6565b6020880197506001820191505b84821015618bd757618bca88618bc583618386565b6167c6565b6020880197506001820191505b84821015618bfe57618bf188618bec836183ad565b6167c6565b6020880197506001820191505b84821015618c2557618c1888618c13836183d4565b6167c6565b6020880197506001820191505b84821015618c4c57618c3f88618c3a836183fb565b6167c6565b6020880197506001820191505b84821015618c7357618c6688618c6183618422565b6167c6565b6020880197506001820191505b84821015618c9a57618c8d88618c8883618449565b6167c6565b6020880197506001820191505b505b8694505050505092915050565b600081549050919050565b60008190508160005260206000209050919050565b600060ff82169050919050565b6000618ce9618ce483617cb8565b618cc9565b9050919050565b6000618d03618cfe83617faa565b618cc9565b9050919050565b6000618d1d618d1883617fd1565b618cc9565b9050919050565b6000618d37618d3283617ff8565b618cc9565b9050919050565b6000618d51618d4c8361801f565b618cc9565b9050919050565b6000618d6b618d6683618046565b618cc9565b9050919050565b6000618d85618d808361806d565b618cc9565b9050919050565b6000618d9f618d9a83618094565b618cc9565b9050919050565b6000618db9618db4836180bb565b618cc9565b9050919050565b6000618dd3618dce836180e2565b618cc9565b9050919050565b6000618ded618de883618109565b618cc9565b9050919050565b6000618e07618e0283618130565b618cc9565b9050919050565b6000618e21618e1c83618157565b618cc9565b9050919050565b6000618e3b618e368361817e565b618cc9565b9050919050565b6000618e55618e50836181a5565b618cc9565b9050919050565b6000618e6f618e6a836181cc565b618cc9565b9050919050565b6000618e89618e84836181f3565b618cc9565b9050919050565b6000618ea3618e9e8361821a565b618cc9565b9050919050565b6000618ebd618eb883618241565b618cc9565b9050919050565b6000618ed7618ed283618268565b618cc9565b9050919050565b6000618ef1618eec8361828f565b618cc9565b9050919050565b6000618f0b618f06836182b6565b618cc9565b9050919050565b6000618f25618f20836182dd565b618cc9565b9050919050565b6000618f3f618f3a83618304565b618cc9565b9050919050565b6000618f59618f548361832b565b618cc9565b9050919050565b6000618f73618f6e83618352565b618cc9565b9050919050565b6000618f8d618f8883618379565b618cc9565b9050919050565b6000618fa7618fa2836183a0565b618cc9565b9050919050565b6000618fc1618fbc836183c7565b618cc9565b9050919050565b6000618fdb618fd6836183ee565b618cc9565b9050919050565b6000618ff5618ff083618415565b618cc9565b9050919050565b600061900f61900a8361843c565b618cc9565b9050919050565b600061902182618ca9565b61902b8185616f69565b93508361903784618cb4565b6000600115619364575b836001602003820110156193635781546190638861905e83618cd6565b616f8a565b60208801975061907b8861907683618cf0565b616f8a565b6020880197506190938861908e83618d0a565b616f8a565b6020880197506190ab886190a683618d24565b616f8a565b6020880197506190c3886190be83618d3e565b616f8a565b6020880197506190db886190d683618d58565b616f8a565b6020880197506190f3886190ee83618d72565b616f8a565b60208801975061910b8861910683618d8c565b616f8a565b6020880197506191238861911e83618da6565b616f8a565b60208801975061913b8861913683618dc0565b616f8a565b6020880197506191538861914e83618dda565b616f8a565b60208801975061916b8861916683618df4565b616f8a565b6020880197506191838861917e83618e0e565b616f8a565b60208801975061919b8861919683618e28565b616f8a565b6020880197506191b3886191ae83618e42565b616f8a565b6020880197506191cb886191c683618e5c565b616f8a565b6020880197506191e3886191de83618e76565b616f8a565b6020880197506191fb886191f683618e90565b616f8a565b6020880197506192138861920e83618eaa565b616f8a565b60208801975061922b8861922683618ec4565b616f8a565b6020880197506192438861923e83618ede565b616f8a565b60208801975061925b8861925683618ef8565b616f8a565b6020880197506192738861926e83618f12565b616f8a565b60208801975061928b8861928683618f2c565b616f8a565b6020880197506192a38861929e83618f46565b616f8a565b6020880197506192bb886192b683618f60565b616f8a565b6020880197506192d3886192ce83618f7a565b616f8a565b6020880197506192eb886192e683618f94565b616f8a565b602088019750619303886192fe83618fae565b616f8a565b60208801975061931b8861931683618fc8565b616f8a565b6020880197506193338861932e83618fe2565b616f8a565b60208801975061934b8861934683618ffc565b616f8a565b60208801975060018301925050602081019050619041565b5b60011561984f57815484821015619394576193878861938283618cd6565b616f8a565b6020880197506001820191505b848210156193bb576193ae886193a983618cf0565b616f8a565b6020880197506001820191505b848210156193e2576193d5886193d083618d0a565b616f8a565b6020880197506001820191505b84821015619409576193fc886193f783618d24565b616f8a565b6020880197506001820191505b84821015619430576194238861941e83618d3e565b616f8a565b6020880197506001820191505b848210156194575761944a8861944583618d58565b616f8a565b6020880197506001820191505b8482101561947e576194718861946c83618d72565b616f8a565b6020880197506001820191505b848210156194a5576194988861949383618d8c565b616f8a565b6020880197506001820191505b848210156194cc576194bf886194ba83618da6565b616f8a565b6020880197506001820191505b848210156194f3576194e6886194e183618dc0565b616f8a565b6020880197506001820191505b8482101561951a5761950d8861950883618dda565b616f8a565b6020880197506001820191505b84821015619541576195348861952f83618df4565b616f8a565b6020880197506001820191505b848210156195685761955b8861955683618e0e565b616f8a565b6020880197506001820191505b8482101561958f576195828861957d83618e28565b616f8a565b6020880197506001820191505b848210156195b6576195a9886195a483618e42565b616f8a565b6020880197506001820191505b848210156195dd576195d0886195cb83618e5c565b616f8a565b6020880197506001820191505b84821015619604576195f7886195f283618e76565b616f8a565b6020880197506001820191505b8482101561962b5761961e8861961983618e90565b616f8a565b6020880197506001820191505b84821015619652576196458861964083618eaa565b616f8a565b6020880197506001820191505b848210156196795761966c8861966783618ec4565b616f8a565b6020880197506001820191505b848210156196a0576196938861968e83618ede565b616f8a565b6020880197506001820191505b848210156196c7576196ba886196b583618ef8565b616f8a565b6020880197506001820191505b848210156196ee576196e1886196dc83618f12565b616f8a565b6020880197506001820191505b84821015619715576197088861970383618f2c565b616f8a565b6020880197506001820191505b8482101561973c5761972f8861972a83618f46565b616f8a565b6020880197506001820191505b84821015619763576197568861975183618f60565b616f8a565b6020880197506001820191505b8482101561978a5761977d8861977883618f7a565b616f8a565b6020880197506001820191505b848210156197b1576197a48861979f83618f94565b616f8a565b6020880197506001820191505b848210156197d8576197cb886197c683618fae565b616f8a565b6020880197506001820191505b848210156197ff576197f2886197ed83618fc8565b616f8a565b6020880197506001820191505b84821015619826576198198861981483618fe2565b616f8a565b6020880197506001820191505b8482101561984d576198408861983b83618ffc565b616f8a565b6020880197506001820191505b505b8694505050505092915050565b60006101208301600080840154905061987481617ce5565b619881600087018261662d565b506001840154905061989281617ce5565b61989f602087018261662d565b506002840185830360408701526198b68382617d75565b9250506003840185830360608701526198cf8382617e35565b9250506004840185830360808701526198e88382617efe565b9250506005840185830360a08701526199018382617efe565b9250506006840185830360c087015261991a8382618463565b9250506007840185830360e08701526199338382619016565b9250506008840185830361010087015261994d8382617efe565b925050819250505092915050565b60006020820190508181036000830152619975818461985c565b905092915050565b7f417373657420537761707065723a20696e76616c6964206d6174636865720000600082015250565b60006199b3601e8361763e565b91506199be8261997d565b602082019050919050565b600060208201905081810360008301526199e2816199a6565b9050919050565b600060e083016000808401549050619a0081617ec4565b619a0d600087018261661e565b5060018401549050619a1e81617ce5565b619a2b602087018261662d565b50600284018583036040870152619a428382617e35565b925050600384018583036060870152619a5b8382617efe565b925050600484018583036080870152619a748382617efe565b9250506005840185830360a0870152619a8d8382618463565b92505060068401549050619aa081617ec4565b619aad60c087018261661e565b50819250505092915050565b60006020820190508181036000830152619ad381846199e9565b905092915050565b600081519050619aea81616395565b92915050565b600060208284031215619b0657619b05616204565b5b6000619b1484828501619adb565b91505092915050565b7f5078614d61726b65743a20696e76616c696420746f6b656e206f776e65720000600082015250565b6000619b53601e8361763e565b9150619b5e82619b1d565b602082019050919050565b60006020820190508181036000830152619b8281619b46565b9050919050565b7f41737365744d616e616765723a20617373657420616c7265616479206578697360008201527f7400000000000000000000000000000000000000000000000000000000000000602082015250565b6000619be560218361763e565b9150619bf082619b89565b604082019050919050565b60006020820190508181036000830152619c1481619bd8565b9050919050565b60a082016000808301549050619c3081617ce5565b619c3d600086018261662d565b50619c478161829c565b619c5460208601826167c6565b50619c5e81618ef8565b619c6b6040860182616f8a565b5060018301549050619c7c81617ec4565b619c89606086018261661e565b5060028301549050619c9a81617ec4565b619ca7608086018261661e565b5050505050565b600060a082019050619cc36000830184619c1b565b92915050565b600081519050619cd88161630a565b92915050565b600060208284031215619cf457619cf3616204565b5b6000619d0284828501619cc9565b91505092915050565b7f41737365744d616e616765723a20617373657420646f6573206e6f742065786960008201527f7374000000000000000000000000000000000000000000000000000000000000602082015250565b6000619d6760228361763e565b9150619d7282619d0b565b604082019050919050565b60006020820190508181036000830152619d9681619d5a565b9050919050565b7f5078614d61726b65743a20696e73756666696369656e742043454c4f00000000600082015250565b6000619dd3601c8361763e565b9150619dde82619d9d565b602082019050919050565b60006020820190508181036000830152619e0281619dc6565b9050919050565b6000604082019050619e1e60008301856165f4565b619e2b60208301846165f4565b9392505050565b7f4f776e61626c653a206e6577206f776e657220697320746865207a65726f206160008201527f6464726573730000000000000000000000000000000000000000000000000000602082015250565b6000619e8e60268361763e565b9150619e9982619e32565b604082019050919050565b60006020820190508181036000830152619ebd81619e81565b9050919050565b7f417373657420537761707065723a20696e76616c6964206d6174636820696400600082015250565b6000619efa601f8361763e565b9150619f0582619ec4565b602082019050919050565b60006020820190508181036000830152619f2981619eed565b9050919050565b7f417373657420537761707065723a2070726f706f73657220617373657473206960008201527f6e76616c69640000000000000000000000000000000000000000000000000000602082015250565b6000619f8c60268361763e565b9150619f9782619f30565b604082019050919050565b60006020820190508181036000830152619fbb81619f7f565b9050919050565b7f417373657420537761707065723a206d6174636865722061737365747320696e60008201527f76616c6964000000000000000000000000000000000000000000000000000000602082015250565b600061a01e60258361763e565b915061a02982619fc2565b604082019050919050565b6000602082019050818103600083015261a04d8161a011565b9050919050565b7f50585420506f6f6c3a20696e73756666696369656e742062616c616e63650000600082015250565b600061a08a601e8361763e565b915061a0958261a054565b602082019050919050565b6000602082019050818103600083015261a0b98161a07d565b9050919050565b7f5078614d61726b65743a20696e73756666696369656e742062616c616e636500600082015250565b600061a0f6601f8361763e565b915061a1018261a0c0565b602082019050919050565b6000602082019050818103600083015261a1258161a0e9565b9050919050565b7f4e487b7100000000000000000000000000000000000000000000000000000000600052603160045260246000fd5b7f41737365737420537761707065723a20616d6f756e74207265636f726420736960008201527f7a6520646f6573206e6f74206d61746368000000000000000000000000000000602082015250565b600061a1b760318361763e565b915061a1c28261a15b565b604082019050919050565b6000602082019050818103600083015261a1e68161a1aa565b9050919050565b7f41737365737420537761707065723a206964207265636f72642073697a65206460008201527f6f6573206e6f74206d6174636800000000000000000000000000000000000000602082015250565b600061a249602d8361763e565b915061a2548261a1ed565b604082019050919050565b6000602082019050818103600083015261a2788161a23c565b9050919050565b7f41737365737420537761707065723a2070726f746f636f6c207265636f72642060008201527f73697a6520646f6573206e6f74206d6174636800000000000000000000000000602082015250565b600061a2db60338361763e565b915061a2e68261a27f565b604082019050919050565b6000602082019050818103600083015261a30a8161a2ce565b9050919050565b7f50585420506f6f6c3a20696e73756666696369656e7420616d6f756e74000000600082015250565b600061a347601d8361763e565b915061a3528261a311565b602082019050919050565b6000602082019050818103600083015261a3768161a33a565b9050919050565b7f417373657420537761707065723a20616d6f756e74207265636f72642073697a60008201527f6520646f6573206e6f74206d6174636800000000000000000000000000000000602082015250565b600061a3d960308361763e565b915061a3e48261a37d565b604082019050919050565b6000602082019050818103600083015261a4088161a3cc565b9050919050565b7f417373657420537761707065723a206964207265636f72642073697a6520646f60008201527f6573206e6f74206d617463680000000000000000000000000000000000000000602082015250565b600061a46b602c8361763e565b915061a4768261a40f565b604082019050919050565b6000602082019050818103600083015261a49a8161a45e565b9050919050565b7f417373657420537761707065723a2070726f746f636f6c207265636f7264207360008201527f697a6520646f6573206e6f74206d617463680000000000000000000000000000602082015250565b600061a4fd60328361763e565b915061a5088261a4a1565b604082019050919050565b6000602082019050818103600083015261a52c8161a4f0565b9050919050565b7f417373657420537761707065723a2077616e746564207265636f72642073697a60008201527f6520646f6573206e6f74206d6174636800000000000000000000000000000000602082015250565b600061a58f60308361763e565b915061a59a8261a533565b604082019050919050565b6000602082019050818103600083015261a5be8161a582565b9050919050565b7f5361666545524332303a204552433230206f7065726174696f6e20646964206e60008201527f6f74207375636365656400000000000000000000000000000000000000000000602082015250565b600061a621602a8361763e565b915061a62c8261a5c5565b604082019050919050565b6000602082019050818103600083015261a6508161a614565b9050919050565b7f417373657420537761707065723a20736f6d652070726f706f7365722061737360008201527f65747320617265206e6f7420617070726f766564000000000000000000000000602082015250565b600061a6b360348361763e565b915061a6be8261a657565b604082019050919050565b6000602082019050818103600083015261a6e28161a6a6565b9050919050565b7f417373657420537761707065723a20736f6d652070726f706f7365722061737360008201527f65747320617265206e6f7420696e2073746f636b000000000000000000000000602082015250565b600061a74560348361763e565b915061a7508261a6e9565b604082019050919050565b6000602082019050818103600083015261a7748161a738565b9050919050565b7f417373657420537761707065723a20736f6d65206d617463686572206173736560008201527f747320617265206e6f7420617070726f76656400000000000000000000000000602082015250565b600061a7d760338361763e565b915061a7e28261a77b565b604082019050919050565b6000602082019050818103600083015261a8068161a7ca565b9050919050565b7f417373657420537761707065723a20736f6d65206d617463686572206173736560008201527f747320617265206e6f7420696e2073746f636b00000000000000000000000000602082015250565b600061a86960338361763e565b915061a8748261a80d565b604082019050919050565b6000602082019050818103600083015261a8988161a85c565b9050919050565b600082825260208201905092915050565b50565b600061a8c060008361a89f565b915061a8cb8261a8b0565b600082019050919050565b600060a08201905061a8eb600083018761716d565b61a8f8602083018661716d565b61a90560408301856165f4565b61a91260608301846165f4565b818103608083015261a9238161a8b3565b905095945050505050565b7f417373657420537761707065723a2063616e6e6f74207377617020756e73757060008201527f706f7274656420746f6b656e2070726f746f636f6c0000000000000000000000602082015250565b600061a98a60358361763e565b915061a9958261a92e565b604082019050919050565b6000602082019050818103600083015261a9b98161a97d565b9050919050565b600060408201905061a9d5600083018561716d565b61a9e2602083018461716d565b9392505050565b7f417373657420537761707065723a20696e73756666696369656e7420746f6b6560008201527f6e20616c6c6f77616e6365000000000000000000000000000000000000000000602082015250565b600061aa45602b8361763e565b915061aa508261a9e9565b604082019050919050565b6000602082019050818103600083015261aa748161aa38565b9050919050565b7f417373657420537761707065723a2045524337323120746f6b656e206e6f742060008201527f617070726f766564200000000000000000000000000000000000000000000000602082015250565b600061aad760298361763e565b915061aae28261aa7b565b604082019050919050565b6000602082019050818103600083015261ab068161aaca565b9050919050565b7f417373657420537761707065723a204552433131353520746f6b656e206e6f7460008201527f20617070726f7665642000000000000000000000000000000000000000000000602082015250565b600061ab69602a8361763e565b915061ab748261ab0d565b604082019050919050565b6000602082019050818103600083015261ab988161ab5c565b9050919050565b7f417373657420537761707065723a20756e737570706f7274656420746f6b656e60008201527f2070726f746f636f6c0000000000000000000000000000000000000000000000602082015250565b600061abfb60298361763e565b915061ac068261ab9f565b604082019050919050565b6000602082019050818103600083015261ac2a8161abee565b9050919050565b7f417373657420537761707065723a20455243323020696e73756666696369656e60008201527f7420746f6b656e2062616c616e63650000000000000000000000000000000000602082015250565b600061ac8d602f8361763e565b915061ac988261ac31565b604082019050919050565b6000602082019050818103600083015261acbc8161ac80565b9050919050565b7f417373657420537761707065723a2045524337323120696e737566666963696560008201527f6e7420746f6b656e2062616c616e636500000000000000000000000000000000602082015250565b600061ad1f60308361763e565b915061ad2a8261acc3565b604082019050919050565b6000602082019050818103600083015261ad4e8161ad12565b9050919050565b7f417373657420537761707065723a204552433131353520696e7375666669636960008201527f656e7420746f6b656e2062616c616e6365000000000000000000000000000000602082015250565b600061adb160318361763e565b915061adbc8261ad55565b604082019050919050565b6000602082019050818103600083015261ade08161ada4565b9050919050565b7f416464726573733a20696e73756666696369656e742062616c616e636520666f60008201527f722063616c6c0000000000000000000000000000000000000000000000000000602082015250565b600061ae4360268361763e565b915061ae4e8261ade7565b604082019050919050565b6000602082019050818103600083015261ae728161ae36565b9050919050565b7f416464726573733a2063616c6c20746f206e6f6e2d636f6e7472616374000000600082015250565b600061aeaf601d8361763e565b915061aeba8261ae79565b602082019050919050565b6000602082019050818103600083015261aede8161aea2565b9050919050565b600081519050919050565b600081905092915050565b600061af068261aee5565b61af10818561aef0565b935061af20818560208601616ef2565b80840191505092915050565b600061af38828461aefb565b915081905092915050565b600061af4e82616ed6565b61af58818561763e565b935061af68818560208601616ef2565b61af71816163cb565b840191505092915050565b6000602082019050818103600083015261af96818461af43565b90509291505056fea26469706673582212202b5c2de0aeb95253d0d071123e33b5b58fd8009180fe549433ac043e3e38547d64736f6c634300080c0033",
  "devdoc": {
    "kind": "dev",
    "methods": {
      "onERC721Received(address,address,uint256,bytes)": {
        "details": "See {IERC721Receiver-onERC721Received}. Always returns `IERC721Receiver.onERC721Received.selector`."
      },
      "owner()": {
        "details": "Returns the address of the current owner."
      },
      "renounceOwnership()": {
        "details": "Leaves the contract without owner. It will not be possible to call `onlyOwner` functions anymore. Can only be called by the current owner. NOTE: Renouncing ownership will leave the contract without an owner, thereby removing any functionality that is only available to the owner."
      },
      "supportsInterface(bytes4)": {
        "details": "See {IERC165-supportsInterface}."
      },
      "transferOwnership(address)": {
        "details": "Transfers ownership of the contract to a new account (`newOwner`). Can only be called by the current owner."
      }
    },
    "version": 1
  },
  "userdoc": {
    "kind": "user",
    "methods": {},
    "version": 1
  },
  "storageLayout": {
    "storage": [
      {
        "astId": 7,
        "contract": "contracts/Pixpress.sol:Pixpress",
        "label": "_owner",
        "offset": 0,
        "slot": "0",
        "type": "t_address"
      },
      {
        "astId": 1338,
        "contract": "contracts/Pixpress.sol:Pixpress",
        "label": "_amFeeBase",
        "offset": 0,
        "slot": "1",
        "type": "t_uint256"
      },
      {
        "astId": 1341,
        "contract": "contracts/Pixpress.sol:Pixpress",
        "label": "_amFeeRatio",
        "offset": 0,
        "slot": "2",
        "type": "t_uint256"
      },
      {
        "astId": 1383,
        "contract": "contracts/Pixpress.sol:Pixpress",
        "label": "assets",
        "offset": 0,
        "slot": "3",
        "type": "t_mapping(t_address,t_struct(Asset)1335_storage)"
      },
      {
        "astId": 115,
        "contract": "contracts/Pixpress.sol:Pixpress",
        "label": "_status",
        "offset": 0,
        "slot": "4",
        "type": "t_uint256"
      },
      {
        "astId": 1749,
        "contract": "contracts/Pixpress.sol:Pixpress",
        "label": "_proposeRecordIds",
        "offset": 0,
        "slot": "5",
        "type": "t_struct(Counter)1203_storage"
      },
      {
        "astId": 1754,
        "contract": "contracts/Pixpress.sol:Pixpress",
        "label": "_proposeRecords",
        "offset": 0,
        "slot": "6",
        "type": "t_mapping(t_uint256,t_struct(ProposeRecord)1693_storage)"
      },
      {
        "astId": 1757,
        "contract": "contracts/Pixpress.sol:Pixpress",
        "label": "_matchRecordIds",
        "offset": 0,
        "slot": "7",
        "type": "t_struct(Counter)1203_storage"
      },
      {
        "astId": 1762,
        "contract": "contracts/Pixpress.sol:Pixpress",
        "label": "_matchRecords",
        "offset": 0,
        "slot": "8",
        "type": "t_mapping(t_uint256,t_struct(MatchRecord)1712_storage)"
      },
      {
        "astId": 3235,
        "contract": "contracts/Pixpress.sol:Pixpress",
        "label": "_orders",
        "offset": 0,
        "slot": "9",
        "type": "t_mapping(t_uint256,t_struct(PxaOrder)3196_storage)"
      },
      {
        "astId": 3243,
        "contract": "contracts/Pixpress.sol:Pixpress",
        "label": "_orderIds",
        "offset": 0,
        "slot": "10",
        "type": "t_array(t_uint256)dyn_storage"
      },
      {
        "astId": 3245,
        "contract": "contracts/Pixpress.sol:Pixpress",
        "label": "_pxaAddress",
        "offset": 0,
        "slot": "11",
        "type": "t_address"
      },
      {
        "astId": 3247,
        "contract": "contracts/Pixpress.sol:Pixpress",
        "label": "_pxaFeeRatio",
        "offset": 0,
        "slot": "12",
        "type": "t_uint256"
      },
      {
        "astId": 3679,
        "contract": "contracts/Pixpress.sol:Pixpress",
        "label": "_pxtAddress",
        "offset": 0,
        "slot": "13",
        "type": "t_contract(IERC20Metadata)495"
      },
      {
        "astId": 3681,
        "contract": "contracts/Pixpress.sol:Pixpress",
        "label": "poolWindow",
        "offset": 0,
        "slot": "14",
        "type": "t_uint256"
      },
      {
        "astId": 3683,
        "contract": "contracts/Pixpress.sol:Pixpress",
        "label": "poolUpperBoundary",
        "offset": 0,
        "slot": "15",
        "type": "t_uint256"
      },
      {
        "astId": 3685,
        "contract": "contracts/Pixpress.sol:Pixpress",
        "label": "poolLowerBoundary",
        "offset": 0,
        "slot": "16",
        "type": "t_uint256"
      },
      {
        "astId": 2806,
        "contract": "contracts/Pixpress.sol:Pixpress",
        "label": "pxaFeeShareRatio",
        "offset": 0,
        "slot": "17",
        "type": "t_uint256"
      }
    ],
    "types": {
      "t_address": {
        "encoding": "inplace",
        "label": "address",
        "numberOfBytes": "20"
      },
      "t_array(t_address)dyn_storage": {
        "base": "t_address",
        "encoding": "dynamic_array",
        "label": "address[]",
        "numberOfBytes": "32"
      },
      "t_array(t_bool)dyn_storage": {
        "base": "t_bool",
        "encoding": "dynamic_array",
        "label": "bool[]",
        "numberOfBytes": "32"
      },
      "t_array(t_uint256)dyn_storage": {
        "base": "t_uint256",
        "encoding": "dynamic_array",
        "label": "uint256[]",
        "numberOfBytes": "32"
      },
      "t_array(t_uint8)dyn_storage": {
        "base": "t_uint8",
        "encoding": "dynamic_array",
        "label": "uint8[]",
        "numberOfBytes": "32"
      },
      "t_bool": {
        "encoding": "inplace",
        "label": "bool",
        "numberOfBytes": "1"
      },
      "t_contract(IERC20Metadata)495": {
        "encoding": "inplace",
        "label": "contract IERC20Metadata",
        "numberOfBytes": "20"
      },
      "t_mapping(t_address,t_struct(Asset)1335_storage)": {
        "encoding": "mapping",
        "key": "t_address",
        "label": "mapping(address => struct AssetManager.Asset)",
        "numberOfBytes": "32",
        "value": "t_struct(Asset)1335_storage"
      },
      "t_mapping(t_uint256,t_struct(MatchRecord)1712_storage)": {
        "encoding": "mapping",
        "key": "t_uint256",
        "label": "mapping(uint256 => struct AssetSwapper.MatchRecord)",
        "numberOfBytes": "32",
        "value": "t_struct(MatchRecord)1712_storage"
      },
      "t_mapping(t_uint256,t_struct(ProposeRecord)1693_storage)": {
        "encoding": "mapping",
        "key": "t_uint256",
        "label": "mapping(uint256 => struct AssetSwapper.ProposeRecord)",
        "numberOfBytes": "32",
        "value": "t_struct(ProposeRecord)1693_storage"
      },
      "t_mapping(t_uint256,t_struct(PxaOrder)3196_storage)": {
        "encoding": "mapping",
        "key": "t_uint256",
        "label": "mapping(uint256 => struct PxaMarket.PxaOrder)",
        "numberOfBytes": "32",
        "value": "t_struct(PxaOrder)3196_storage"
      },
      "t_string_storage": {
        "encoding": "bytes",
        "label": "string",
        "numberOfBytes": "32"
      },
      "t_struct(Asset)1335_storage": {
        "encoding": "inplace",
        "label": "struct AssetManager.Asset",
        "members": [
          {
            "astId": 1326,
            "contract": "contracts/Pixpress.sol:Pixpress",
            "label": "tokenAddress",
            "offset": 0,
            "slot": "0",
            "type": "t_address"
          },
          {
            "astId": 1328,
            "contract": "contracts/Pixpress.sol:Pixpress",
            "label": "protocol",
            "offset": 20,
            "slot": "0",
            "type": "t_uint8"
          },
          {
            "astId": 1330,
            "contract": "contracts/Pixpress.sol:Pixpress",
            "label": "verified",
            "offset": 21,
            "slot": "0",
            "type": "t_bool"
          },
          {
            "astId": 1332,
            "contract": "contracts/Pixpress.sol:Pixpress",
            "label": "feeBase",
            "offset": 0,
            "slot": "1",
            "type": "t_uint256"
          },
          {
            "astId": 1334,
            "contract": "contracts/Pixpress.sol:Pixpress",
            "label": "feeRatio",
            "offset": 0,
            "slot": "2",
            "type": "t_uint256"
          }
        ],
        "numberOfBytes": "96"
      },
      "t_struct(Counter)1203_storage": {
        "encoding": "inplace",
        "label": "struct Counters.Counter",
        "members": [
          {
            "astId": 1202,
            "contract": "contracts/Pixpress.sol:Pixpress",
            "label": "_value",
            "offset": 0,
            "slot": "0",
            "type": "t_uint256"
          }
        ],
        "numberOfBytes": "32"
      },
      "t_struct(MatchRecord)1712_storage": {
        "encoding": "inplace",
        "label": "struct AssetSwapper.MatchRecord",
        "members": [
          {
            "astId": 1695,
            "contract": "contracts/Pixpress.sol:Pixpress",
            "label": "proposeId",
            "offset": 0,
            "slot": "0",
            "type": "t_uint256"
          },
          {
            "astId": 1697,
            "contract": "contracts/Pixpress.sol:Pixpress",
            "label": "matcher",
            "offset": 0,
            "slot": "1",
            "type": "t_address"
          },
          {
            "astId": 1700,
            "contract": "contracts/Pixpress.sol:Pixpress",
            "label": "tokenAddresses",
            "offset": 0,
            "slot": "2",
            "type": "t_array(t_address)dyn_storage"
          },
          {
            "astId": 1703,
            "contract": "contracts/Pixpress.sol:Pixpress",
            "label": "amounts",
            "offset": 0,
            "slot": "3",
            "type": "t_array(t_uint256)dyn_storage"
          },
          {
            "astId": 1706,
            "contract": "contracts/Pixpress.sol:Pixpress",
            "label": "ids",
            "offset": 0,
            "slot": "4",
            "type": "t_array(t_uint256)dyn_storage"
          },
          {
            "astId": 1709,
            "contract": "contracts/Pixpress.sol:Pixpress",
            "label": "protocols",
            "offset": 0,
            "slot": "5",
            "type": "t_array(t_uint8)dyn_storage"
          },
          {
            "astId": 1711,
            "contract": "contracts/Pixpress.sol:Pixpress",
            "label": "index",
            "offset": 0,
            "slot": "6",
            "type": "t_uint256"
          }
        ],
        "numberOfBytes": "224"
      },
      "t_struct(ProposeRecord)1693_storage": {
        "encoding": "inplace",
        "label": "struct AssetSwapper.ProposeRecord",
        "members": [
          {
            "astId": 1670,
            "contract": "contracts/Pixpress.sol:Pixpress",
            "label": "proposer",
            "offset": 0,
            "slot": "0",
            "type": "t_address"
          },
          {
            "astId": 1672,
            "contract": "contracts/Pixpress.sol:Pixpress",
            "label": "receiver",
            "offset": 0,
            "slot": "1",
            "type": "t_address"
          },
          {
            "astId": 1674,
            "contract": "contracts/Pixpress.sol:Pixpress",
            "label": "note",
            "offset": 0,
            "slot": "2",
            "type": "t_string_storage"
          },
          {
            "astId": 1677,
            "contract": "contracts/Pixpress.sol:Pixpress",
            "label": "tokenAddresses",
            "offset": 0,
            "slot": "3",
            "type": "t_array(t_address)dyn_storage"
          },
          {
            "astId": 1680,
            "contract": "contracts/Pixpress.sol:Pixpress",
            "label": "amounts",
            "offset": 0,
            "slot": "4",
            "type": "t_array(t_uint256)dyn_storage"
          },
          {
            "astId": 1683,
            "contract": "contracts/Pixpress.sol:Pixpress",
            "label": "ids",
            "offset": 0,
            "slot": "5",
            "type": "t_array(t_uint256)dyn_storage"
          },
          {
            "astId": 1686,
            "contract": "contracts/Pixpress.sol:Pixpress",
            "label": "protocols",
            "offset": 0,
            "slot": "6",
            "type": "t_array(t_uint8)dyn_storage"
          },
          {
            "astId": 1689,
            "contract": "contracts/Pixpress.sol:Pixpress",
            "label": "wanted",
            "offset": 0,
            "slot": "7",
            "type": "t_array(t_bool)dyn_storage"
          },
          {
            "astId": 1692,
            "contract": "contracts/Pixpress.sol:Pixpress",
            "label": "matchRecordIds",
            "offset": 0,
            "slot": "8",
            "type": "t_array(t_uint256)dyn_storage"
          }
        ],
        "numberOfBytes": "288"
      },
      "t_struct(PxaOrder)3196_storage": {
        "encoding": "inplace",
        "label": "struct PxaMarket.PxaOrder",
        "members": [
          {
            "astId": 3187,
            "contract": "contracts/Pixpress.sol:Pixpress",
            "label": "seller",
            "offset": 0,
            "slot": "0",
            "type": "t_address"
          },
          {
            "astId": 3189,
            "contract": "contracts/Pixpress.sol:Pixpress",
            "label": "tokenId",
            "offset": 0,
            "slot": "1",
            "type": "t_uint256"
          },
          {
            "astId": 3191,
            "contract": "contracts/Pixpress.sol:Pixpress",
            "label": "price",
            "offset": 0,
            "slot": "2",
            "type": "t_uint256"
          },
          {
            "astId": 3193,
            "contract": "contracts/Pixpress.sol:Pixpress",
            "label": "revenue",
            "offset": 0,
            "slot": "3",
            "type": "t_uint256"
          },
          {
            "astId": 3195,
            "contract": "contracts/Pixpress.sol:Pixpress",
            "label": "index",
            "offset": 0,
            "slot": "4",
            "type": "t_uint256"
          }
        ],
        "numberOfBytes": "160"
      },
      "t_uint256": {
        "encoding": "inplace",
        "label": "uint256",
        "numberOfBytes": "32"
      },
      "t_uint8": {
        "encoding": "inplace",
        "label": "uint8",
        "numberOfBytes": "1"
      }
    }
  }
}