{
  "address": "0x392b565371d89738249Fa4514648167d020d8b80",
  "abi": [
    {
      "inputs": [
        {
          "internalType": "address",
          "name": "pxaAddress",
          "type": "address"
        },
        {
          "internalType": "contract IERC20Metadata",
          "name": "pxtAddress",
          "type": "address"
        }
      ],
      "stateMutability": "nonpayable",
      "type": "constructor"
    },
    {
      "anonymous": false,
      "inputs": [
        {
          "indexed": true,
          "internalType": "address",
          "name": "tokenAddress",
          "type": "address"
        },
        {
          "components": [
            {
              "internalType": "address",
              "name": "tokenAddress",
              "type": "address"
            },
            {
              "internalType": "uint8",
              "name": "protocol",
              "type": "uint8"
            },
            {
              "internalType": "uint256",
              "name": "feeBase",
              "type": "uint256"
            },
            {
              "internalType": "uint256",
              "name": "feeRatio",
              "type": "uint256"
            }
          ],
          "indexed": false,
          "internalType": "struct AssetManager.Asset",
          "name": "record",
          "type": "tuple"
        }
      ],
      "name": "AssetCreated",
      "type": "event"
    },
    {
      "anonymous": false,
      "inputs": [
        {
          "indexed": true,
          "internalType": "address",
          "name": "tokenAddress",
          "type": "address"
        },
        {
          "indexed": false,
          "internalType": "uint256",
          "name": "feeBase",
          "type": "uint256"
        }
      ],
      "name": "AssetFeeBaseUpdated",
      "type": "event"
    },
    {
      "anonymous": false,
      "inputs": [
        {
          "indexed": true,
          "internalType": "address",
          "name": "tokenAddress",
          "type": "address"
        },
        {
          "indexed": false,
          "internalType": "uint256",
          "name": "feeRatio",
          "type": "uint256"
        }
      ],
      "name": "AssetFeeRatioUpdated",
      "type": "event"
    },
    {
      "anonymous": false,
      "inputs": [
        {
          "indexed": true,
          "internalType": "address",
          "name": "tokenAddress",
          "type": "address"
        }
      ],
      "name": "AssetRemoved",
      "type": "event"
    },
    {
      "anonymous": false,
      "inputs": [
        {
          "indexed": true,
          "internalType": "uint256",
          "name": "tokenId",
          "type": "uint256"
        },
        {
          "indexed": false,
          "internalType": "uint256",
          "name": "price",
          "type": "uint256"
        },
        {
          "indexed": false,
          "internalType": "uint256",
          "name": "revenue",
          "type": "uint256"
        }
      ],
      "name": "Bought",
      "type": "event"
    },
    {
      "anonymous": false,
      "inputs": [
        {
          "indexed": true,
          "internalType": "uint256",
          "name": "tokenId",
          "type": "uint256"
        },
        {
          "indexed": false,
          "internalType": "uint256",
          "name": "revenue",
          "type": "uint256"
        }
      ],
      "name": "Claimed",
      "type": "event"
    },
    {
      "anonymous": false,
      "inputs": [
        {
          "indexed": false,
          "internalType": "uint256",
          "name": "feeBase",
          "type": "uint256"
        }
      ],
      "name": "DefaultAssetFeeBaseUpdated",
      "type": "event"
    },
    {
      "anonymous": false,
      "inputs": [
        {
          "indexed": false,
          "internalType": "uint256",
          "name": "feeRatio",
          "type": "uint256"
        }
      ],
      "name": "DefaultAssetFeeRatioUpdated",
      "type": "event"
    },
    {
      "anonymous": false,
      "inputs": [
        {
          "indexed": true,
          "internalType": "uint256",
          "name": "id",
          "type": "uint256"
        },
        {
          "components": [
            {
              "internalType": "uint256",
              "name": "proposeId",
              "type": "uint256"
            },
            {
              "internalType": "address",
              "name": "matcher",
              "type": "address"
            },
            {
              "internalType": "address[]",
              "name": "tokenAddresses",
              "type": "address[]"
            },
            {
              "internalType": "uint256[]",
              "name": "amounts",
              "type": "uint256[]"
            },
            {
              "internalType": "uint256[]",
              "name": "ids",
              "type": "uint256[]"
            },
            {
              "internalType": "uint8[]",
              "name": "protocols",
              "type": "uint8[]"
            },
            {
              "internalType": "uint256",
              "name": "index",
              "type": "uint256"
            }
          ],
          "indexed": false,
          "internalType": "struct AssetSwapper.MatchRecord",
          "name": "record",
          "type": "tuple"
        }
      ],
      "name": "Matched",
      "type": "event"
    },
    {
      "anonymous": false,
      "inputs": [
        {
          "indexed": true,
          "internalType": "uint256",
          "name": "id",
          "type": "uint256"
        },
        {
          "components": [
            {
              "internalType": "uint256",
              "name": "proposeId",
              "type": "uint256"
            },
            {
              "internalType": "address",
              "name": "matcher",
              "type": "address"
            },
            {
              "internalType": "address[]",
              "name": "tokenAddresses",
              "type": "address[]"
            },
            {
              "internalType": "uint256[]",
              "name": "amounts",
              "type": "uint256[]"
            },
            {
              "internalType": "uint256[]",
              "name": "ids",
              "type": "uint256[]"
            },
            {
              "internalType": "uint8[]",
              "name": "protocols",
              "type": "uint8[]"
            },
            {
              "internalType": "uint256",
              "name": "index",
              "type": "uint256"
            }
          ],
          "indexed": false,
          "internalType": "struct AssetSwapper.MatchRecord",
          "name": "record",
          "type": "tuple"
        }
      ],
      "name": "MatcherRemoved",
      "type": "event"
    },
    {
      "anonymous": false,
      "inputs": [
        {
          "indexed": true,
          "internalType": "uint256",
          "name": "tokenId",
          "type": "uint256"
        },
        {
          "indexed": false,
          "internalType": "address",
          "name": "seller",
          "type": "address"
        },
        {
          "indexed": false,
          "internalType": "uint256",
          "name": "price",
          "type": "uint256"
        }
      ],
      "name": "OrderCreated",
      "type": "event"
    },
    {
      "anonymous": false,
      "inputs": [
        {
          "indexed": true,
          "internalType": "uint256",
          "name": "tokenId",
          "type": "uint256"
        },
        {
          "indexed": false,
          "internalType": "uint256",
          "name": "revenue",
          "type": "uint256"
        }
      ],
      "name": "OrderRemoved",
      "type": "event"
    },
    {
      "anonymous": false,
      "inputs": [
        {
          "indexed": true,
          "internalType": "address",
          "name": "previousOwner",
          "type": "address"
        },
        {
          "indexed": true,
          "internalType": "address",
          "name": "newOwner",
          "type": "address"
        }
      ],
      "name": "OwnershipTransferred",
      "type": "event"
    },
    {
      "anonymous": false,
      "inputs": [
        {
          "indexed": true,
          "internalType": "uint256",
          "name": "id",
          "type": "uint256"
        },
        {
          "components": [
            {
              "internalType": "address",
              "name": "proposer",
              "type": "address"
            },
            {
              "internalType": "address",
              "name": "receiver",
              "type": "address"
            },
            {
              "internalType": "string",
              "name": "note",
              "type": "string"
            },
            {
              "internalType": "address[]",
              "name": "tokenAddresses",
              "type": "address[]"
            },
            {
              "internalType": "uint256[]",
              "name": "amounts",
              "type": "uint256[]"
            },
            {
              "internalType": "uint256[]",
              "name": "ids",
              "type": "uint256[]"
            },
            {
              "internalType": "uint8[]",
              "name": "protocols",
              "type": "uint8[]"
            },
            {
              "internalType": "bool[]",
              "name": "wanted",
              "type": "bool[]"
            },
            {
              "internalType": "uint256[]",
              "name": "matchRecordIds",
              "type": "uint256[]"
            }
          ],
          "indexed": false,
          "internalType": "struct AssetSwapper.ProposeRecord",
          "name": "record",
          "type": "tuple"
        }
      ],
      "name": "ProposalRemoved",
      "type": "event"
    },
    {
      "anonymous": false,
      "inputs": [
        {
          "indexed": true,
          "internalType": "uint256",
          "name": "id",
          "type": "uint256"
        },
        {
          "components": [
            {
              "internalType": "address",
              "name": "proposer",
              "type": "address"
            },
            {
              "internalType": "address",
              "name": "receiver",
              "type": "address"
            },
            {
              "internalType": "string",
              "name": "note",
              "type": "string"
            },
            {
              "internalType": "address[]",
              "name": "tokenAddresses",
              "type": "address[]"
            },
            {
              "internalType": "uint256[]",
              "name": "amounts",
              "type": "uint256[]"
            },
            {
              "internalType": "uint256[]",
              "name": "ids",
              "type": "uint256[]"
            },
            {
              "internalType": "uint8[]",
              "name": "protocols",
              "type": "uint8[]"
            },
            {
              "internalType": "bool[]",
              "name": "wanted",
              "type": "bool[]"
            },
            {
              "internalType": "uint256[]",
              "name": "matchRecordIds",
              "type": "uint256[]"
            }
          ],
          "indexed": false,
          "internalType": "struct AssetSwapper.ProposeRecord",
          "name": "record",
          "type": "tuple"
        }
      ],
      "name": "Proposed",
      "type": "event"
    },
    {
      "anonymous": false,
      "inputs": [
        {
          "indexed": true,
          "internalType": "uint256",
          "name": "tokenId",
          "type": "uint256"
        },
        {
          "indexed": false,
          "internalType": "uint256",
          "name": "revenue",
          "type": "uint256"
        }
      ],
      "name": "RevenueIncreased",
      "type": "event"
    },
    {
      "anonymous": false,
      "inputs": [
        {
          "indexed": true,
          "internalType": "uint256",
          "name": "proposeId",
          "type": "uint256"
        },
        {
          "indexed": true,
          "internalType": "uint256",
          "name": "matchId",
          "type": "uint256"
        }
      ],
      "name": "Swapped",
      "type": "event"
    },
    {
      "inputs": [],
      "name": "AM_RATE_BASE",
      "outputs": [
        {
          "internalType": "uint256",
          "name": "",
          "type": "uint256"
        }
      ],
      "stateMutability": "view",
      "type": "function"
    },
    {
      "inputs": [],
      "name": "PROTOCOL_ERC1155",
      "outputs": [
        {
          "internalType": "uint8",
          "name": "",
          "type": "uint8"
        }
      ],
      "stateMutability": "view",
      "type": "function"
    },
    {
      "inputs": [],
      "name": "PROTOCOL_ERC20",
      "outputs": [
        {
          "internalType": "uint8",
          "name": "",
          "type": "uint8"
        }
      ],
      "stateMutability": "view",
      "type": "function"
    },
    {
      "inputs": [],
      "name": "PROTOCOL_ERC721",
      "outputs": [
        {
          "internalType": "uint8",
          "name": "",
          "type": "uint8"
        }
      ],
      "stateMutability": "view",
      "type": "function"
    },
    {
      "inputs": [],
      "name": "PXA_RATE_BASE",
      "outputs": [
        {
          "internalType": "uint256",
          "name": "",
          "type": "uint256"
        }
      ],
      "stateMutability": "view",
      "type": "function"
    },
    {
      "inputs": [
        {
          "internalType": "uint256",
          "name": "proposeId",
          "type": "uint256"
        },
        {
          "internalType": "uint256",
          "name": "matchId",
          "type": "uint256"
        }
      ],
      "name": "acceptSwap",
      "outputs": [],
      "stateMutability": "nonpayable",
      "type": "function"
    },
    {
      "inputs": [],
      "name": "amFeeBase",
      "outputs": [
        {
          "internalType": "uint256",
          "name": "",
          "type": "uint256"
        }
      ],
      "stateMutability": "view",
      "type": "function"
    },
    {
      "inputs": [],
      "name": "amFeeRatio",
      "outputs": [
        {
          "internalType": "uint256",
          "name": "",
          "type": "uint256"
        }
      ],
      "stateMutability": "view",
      "type": "function"
    },
    {
      "inputs": [
        {
          "internalType": "address",
          "name": "tokenAddress",
          "type": "address"
        }
      ],
      "name": "asset",
      "outputs": [
        {
          "components": [
            {
              "internalType": "address",
              "name": "tokenAddress",
              "type": "address"
            },
            {
              "internalType": "uint8",
              "name": "protocol",
              "type": "uint8"
            },
            {
              "internalType": "uint256",
              "name": "feeBase",
              "type": "uint256"
            },
            {
              "internalType": "uint256",
              "name": "feeRatio",
              "type": "uint256"
            }
          ],
          "internalType": "struct AssetManager.Asset",
          "name": "record",
          "type": "tuple"
        }
      ],
      "stateMutability": "view",
      "type": "function"
    },
    {
      "inputs": [
        {
          "internalType": "address",
          "name": "",
          "type": "address"
        }
      ],
      "name": "assets",
      "outputs": [
        {
          "internalType": "address",
          "name": "tokenAddress",
          "type": "address"
        },
        {
          "internalType": "uint8",
          "name": "protocol",
          "type": "uint8"
        },
        {
          "internalType": "uint256",
          "name": "feeBase",
          "type": "uint256"
        },
        {
          "internalType": "uint256",
          "name": "feeRatio",
          "type": "uint256"
        }
      ],
      "stateMutability": "view",
      "type": "function"
    },
    {
      "inputs": [],
      "name": "balance",
      "outputs": [
        {
          "internalType": "uint256",
          "name": "",
          "type": "uint256"
        }
      ],
      "stateMutability": "view",
      "type": "function"
    },
    {
      "inputs": [
        {
          "internalType": "uint256",
          "name": "tokenId",
          "type": "uint256"
        }
      ],
      "name": "buy",
      "outputs": [],
      "stateMutability": "payable",
      "type": "function"
    },
    {
      "inputs": [
        {
          "internalType": "address[]",
          "name": "tokenAddreses",
          "type": "address[]"
        },
        {
          "internalType": "uint8[]",
          "name": "protocols",
          "type": "uint8[]"
        },
        {
          "internalType": "uint256[]",
          "name": "amounts",
          "type": "uint256[]"
        },
        {
          "internalType": "bool[]",
          "name": "wanted",
          "type": "bool[]"
        }
      ],
      "name": "calcSwapFee",
      "outputs": [
        {
          "internalType": "uint256",
          "name": "",
          "type": "uint256"
        }
      ],
      "stateMutability": "view",
      "type": "function"
    },
    {
      "inputs": [
        {
          "internalType": "uint256",
          "name": "tokenId",
          "type": "uint256"
        }
      ],
      "name": "cancelOrder",
      "outputs": [],
      "stateMutability": "payable",
      "type": "function"
    },
    {
      "inputs": [
        {
          "internalType": "uint256",
          "name": "tokenId",
          "type": "uint256"
        }
      ],
      "name": "claim",
      "outputs": [],
      "stateMutability": "payable",
      "type": "function"
    },
    {
      "inputs": [
        {
          "internalType": "address",
          "name": "tokenAddress",
          "type": "address"
        },
        {
          "internalType": "uint8",
          "name": "protocol",
          "type": "uint8"
        },
        {
          "internalType": "uint256",
          "name": "base",
          "type": "uint256"
        },
        {
          "internalType": "uint256",
          "name": "ratio",
          "type": "uint256"
        }
      ],
      "name": "createAsset",
      "outputs": [],
      "stateMutability": "nonpayable",
      "type": "function"
    },
    {
      "inputs": [
        {
          "internalType": "uint256",
          "name": "tokenId",
          "type": "uint256"
        },
        {
          "internalType": "uint256",
          "name": "price",
          "type": "uint256"
        }
      ],
      "name": "createOrder",
      "outputs": [],
      "stateMutability": "nonpayable",
      "type": "function"
    },
    {
      "inputs": [
        {
          "internalType": "uint256",
          "name": "id",
          "type": "uint256"
        }
      ],
      "name": "matchRecord",
      "outputs": [
        {
          "components": [
            {
              "internalType": "uint256",
              "name": "proposeId",
              "type": "uint256"
            },
            {
              "internalType": "address",
              "name": "matcher",
              "type": "address"
            },
            {
              "internalType": "address[]",
              "name": "tokenAddresses",
              "type": "address[]"
            },
            {
              "internalType": "uint256[]",
              "name": "amounts",
              "type": "uint256[]"
            },
            {
              "internalType": "uint256[]",
              "name": "ids",
              "type": "uint256[]"
            },
            {
              "internalType": "uint8[]",
              "name": "protocols",
              "type": "uint8[]"
            },
            {
              "internalType": "uint256",
              "name": "index",
              "type": "uint256"
            }
          ],
          "internalType": "struct AssetSwapper.MatchRecord",
          "name": "record",
          "type": "tuple"
        }
      ],
      "stateMutability": "view",
      "type": "function"
    },
    {
      "inputs": [
        {
          "internalType": "uint256",
          "name": "proposeId",
          "type": "uint256"
        },
        {
          "internalType": "address[]",
          "name": "tokenAddresses",
          "type": "address[]"
        },
        {
          "internalType": "uint256[]",
          "name": "amounts",
          "type": "uint256[]"
        },
        {
          "internalType": "uint256[]",
          "name": "ids",
          "type": "uint256[]"
        },
        {
          "internalType": "uint8[]",
          "name": "protocols",
          "type": "uint8[]"
        }
      ],
      "name": "matchSwap",
      "outputs": [],
      "stateMutability": "payable",
      "type": "function"
    },
    {
      "inputs": [
        {
          "internalType": "uint256",
          "name": "proposeId",
          "type": "uint256"
        },
        {
          "internalType": "address[]",
          "name": "tokenAddresses",
          "type": "address[]"
        },
        {
          "internalType": "uint256[]",
          "name": "amounts",
          "type": "uint256[]"
        },
        {
          "internalType": "uint256[]",
          "name": "ids",
          "type": "uint256[]"
        },
        {
          "internalType": "uint8[]",
          "name": "protocols",
          "type": "uint8[]"
        }
      ],
      "name": "matchSwapWithPxt",
      "outputs": [],
      "stateMutability": "payable",
      "type": "function"
    },
    {
      "inputs": [
        {
          "internalType": "address",
          "name": "",
          "type": "address"
        },
        {
          "internalType": "address",
          "name": "",
          "type": "address"
        },
        {
          "internalType": "uint256[]",
          "name": "",
          "type": "uint256[]"
        },
        {
          "internalType": "uint256[]",
          "name": "",
          "type": "uint256[]"
        },
        {
          "internalType": "bytes",
          "name": "",
          "type": "bytes"
        }
      ],
      "name": "onERC1155BatchReceived",
      "outputs": [
        {
          "internalType": "bytes4",
          "name": "",
          "type": "bytes4"
        }
      ],
      "stateMutability": "nonpayable",
      "type": "function"
    },
    {
      "inputs": [
        {
          "internalType": "address",
          "name": "",
          "type": "address"
        },
        {
          "internalType": "address",
          "name": "",
          "type": "address"
        },
        {
          "internalType": "uint256",
          "name": "",
          "type": "uint256"
        },
        {
          "internalType": "uint256",
          "name": "",
          "type": "uint256"
        },
        {
          "internalType": "bytes",
          "name": "",
          "type": "bytes"
        }
      ],
      "name": "onERC1155Received",
      "outputs": [
        {
          "internalType": "bytes4",
          "name": "",
          "type": "bytes4"
        }
      ],
      "stateMutability": "nonpayable",
      "type": "function"
    },
    {
      "inputs": [
        {
          "internalType": "address",
          "name": "",
          "type": "address"
        },
        {
          "internalType": "address",
          "name": "",
          "type": "address"
        },
        {
          "internalType": "uint256",
          "name": "",
          "type": "uint256"
        },
        {
          "internalType": "bytes",
          "name": "",
          "type": "bytes"
        }
      ],
      "name": "onERC721Received",
      "outputs": [
        {
          "internalType": "bytes4",
          "name": "",
          "type": "bytes4"
        }
      ],
      "stateMutability": "nonpayable",
      "type": "function"
    },
    {
      "inputs": [],
      "name": "owner",
      "outputs": [
        {
          "internalType": "address",
          "name": "",
          "type": "address"
        }
      ],
      "stateMutability": "view",
      "type": "function"
    },
    {
      "inputs": [
        {
          "internalType": "uint256",
          "name": "value",
          "type": "uint256"
        }
      ],
      "name": "ownerDeposit",
      "outputs": [],
      "stateMutability": "nonpayable",
      "type": "function"
    },
    {
      "inputs": [
        {
          "internalType": "uint256",
          "name": "value",
          "type": "uint256"
        }
      ],
      "name": "ownerWithdraw",
      "outputs": [],
      "stateMutability": "nonpayable",
      "type": "function"
    },
    {
      "inputs": [],
      "name": "perDeposit",
      "outputs": [
        {
          "internalType": "uint256",
          "name": "",
          "type": "uint256"
        }
      ],
      "stateMutability": "view",
      "type": "function"
    },
    {
      "inputs": [],
      "name": "perWithdraw",
      "outputs": [
        {
          "internalType": "uint256",
          "name": "",
          "type": "uint256"
        }
      ],
      "stateMutability": "view",
      "type": "function"
    },
    {
      "inputs": [],
      "name": "poolLowerBoundary",
      "outputs": [
        {
          "internalType": "uint256",
          "name": "",
          "type": "uint256"
        }
      ],
      "stateMutability": "view",
      "type": "function"
    },
    {
      "inputs": [],
      "name": "poolUpperBoundary",
      "outputs": [
        {
          "internalType": "uint256",
          "name": "",
          "type": "uint256"
        }
      ],
      "stateMutability": "view",
      "type": "function"
    },
    {
      "inputs": [],
      "name": "poolWindow",
      "outputs": [
        {
          "internalType": "uint256",
          "name": "",
          "type": "uint256"
        }
      ],
      "stateMutability": "view",
      "type": "function"
    },
    {
      "inputs": [
        {
          "internalType": "uint256",
          "name": "id",
          "type": "uint256"
        }
      ],
      "name": "proposeRecord",
      "outputs": [
        {
          "components": [
            {
              "internalType": "address",
              "name": "proposer",
              "type": "address"
            },
            {
              "internalType": "address",
              "name": "receiver",
              "type": "address"
            },
            {
              "internalType": "string",
              "name": "note",
              "type": "string"
            },
            {
              "internalType": "address[]",
              "name": "tokenAddresses",
              "type": "address[]"
            },
            {
              "internalType": "uint256[]",
              "name": "amounts",
              "type": "uint256[]"
            },
            {
              "internalType": "uint256[]",
              "name": "ids",
              "type": "uint256[]"
            },
            {
              "internalType": "uint8[]",
              "name": "protocols",
              "type": "uint8[]"
            },
            {
              "internalType": "bool[]",
              "name": "wanted",
              "type": "bool[]"
            },
            {
              "internalType": "uint256[]",
              "name": "matchRecordIds",
              "type": "uint256[]"
            }
          ],
          "internalType": "struct AssetSwapper.ProposeRecord",
          "name": "record",
          "type": "tuple"
        }
      ],
      "stateMutability": "view",
      "type": "function"
    },
    {
      "inputs": [
        {
          "internalType": "address",
          "name": "receiver",
          "type": "address"
        },
        {
          "internalType": "string",
          "name": "note",
          "type": "string"
        },
        {
          "internalType": "address[]",
          "name": "tokenAddresses",
          "type": "address[]"
        },
        {
          "internalType": "uint256[]",
          "name": "amounts",
          "type": "uint256[]"
        },
        {
          "internalType": "uint256[]",
          "name": "ids",
          "type": "uint256[]"
        },
        {
          "internalType": "uint8[]",
          "name": "protocols",
          "type": "uint8[]"
        },
        {
          "internalType": "bool[]",
          "name": "wanted",
          "type": "bool[]"
        }
      ],
      "name": "proposeSwap",
      "outputs": [],
      "stateMutability": "payable",
      "type": "function"
    },
    {
      "inputs": [
        {
          "internalType": "address",
          "name": "receiver",
          "type": "address"
        },
        {
          "internalType": "string",
          "name": "note",
          "type": "string"
        },
        {
          "internalType": "address[]",
          "name": "tokenAddresses",
          "type": "address[]"
        },
        {
          "internalType": "uint256[]",
          "name": "amounts",
          "type": "uint256[]"
        },
        {
          "internalType": "uint256[]",
          "name": "ids",
          "type": "uint256[]"
        },
        {
          "internalType": "uint8[]",
          "name": "protocols",
          "type": "uint8[]"
        },
        {
          "internalType": "bool[]",
          "name": "wanted",
          "type": "bool[]"
        }
      ],
      "name": "proposeSwapWithPxt",
      "outputs": [],
      "stateMutability": "payable",
      "type": "function"
    },
    {
      "inputs": [],
      "name": "pxaFeeRatio",
      "outputs": [
        {
          "internalType": "uint256",
          "name": "",
          "type": "uint256"
        }
      ],
      "stateMutability": "view",
      "type": "function"
    },
    {
      "inputs": [],
      "name": "pxaFeeShareRatio",
      "outputs": [
        {
          "internalType": "uint256",
          "name": "",
          "type": "uint256"
        }
      ],
      "stateMutability": "view",
      "type": "function"
    },
    {
      "inputs": [
        {
          "internalType": "uint256",
          "name": "tokenId",
          "type": "uint256"
        }
      ],
      "name": "pxaOrder",
      "outputs": [
        {
          "components": [
            {
              "internalType": "address",
              "name": "seller",
              "type": "address"
            },
            {
              "internalType": "uint256",
              "name": "tokenId",
              "type": "uint256"
            },
            {
              "internalType": "uint256",
              "name": "price",
              "type": "uint256"
            },
            {
              "internalType": "uint256",
              "name": "revenue",
              "type": "uint256"
            },
            {
              "internalType": "uint256",
              "name": "index",
              "type": "uint256"
            }
          ],
          "internalType": "struct PxaMarket.PxaOrder",
          "name": "order",
          "type": "tuple"
        }
      ],
      "stateMutability": "view",
      "type": "function"
    },
    {
      "inputs": [
        {
          "internalType": "address",
          "name": "tokenAddress",
          "type": "address"
        }
      ],
      "name": "removeAsset",
      "outputs": [],
      "stateMutability": "nonpayable",
      "type": "function"
    },
    {
      "inputs": [
        {
          "internalType": "uint256",
          "name": "matchId",
          "type": "uint256"
        }
      ],
      "name": "removeMatchRecord",
      "outputs": [],
      "stateMutability": "nonpayable",
      "type": "function"
    },
    {
      "inputs": [
        {
          "internalType": "uint256",
          "name": "proposeId",
          "type": "uint256"
        }
      ],
      "name": "removeProposeRecord",
      "outputs": [],
      "stateMutability": "nonpayable",
      "type": "function"
    },
    {
      "inputs": [],
      "name": "renounceOwnership",
      "outputs": [],
      "stateMutability": "nonpayable",
      "type": "function"
    },
    {
      "inputs": [
        {
          "internalType": "uint256",
          "name": "value",
          "type": "uint256"
        }
      ],
      "name": "setAmFeeBase",
      "outputs": [],
      "stateMutability": "nonpayable",
      "type": "function"
    },
    {
      "inputs": [
        {
          "internalType": "uint256",
          "name": "value",
          "type": "uint256"
        }
      ],
      "name": "setAmFeeRatio",
      "outputs": [],
      "stateMutability": "nonpayable",
      "type": "function"
    },
    {
      "inputs": [
        {
          "internalType": "address",
          "name": "tokenAddress",
          "type": "address"
        },
        {
          "internalType": "uint256",
          "name": "base",
          "type": "uint256"
        }
      ],
      "name": "setAssetFeeBase",
      "outputs": [],
      "stateMutability": "nonpayable",
      "type": "function"
    },
    {
      "inputs": [
        {
          "internalType": "address",
          "name": "tokenAddress",
          "type": "address"
        },
        {
          "internalType": "uint256",
          "name": "ratio",
          "type": "uint256"
        }
      ],
      "name": "setAssetFeeRatio",
      "outputs": [],
      "stateMutability": "nonpayable",
      "type": "function"
    },
    {
      "inputs": [
        {
          "internalType": "uint256",
          "name": "value",
          "type": "uint256"
        }
      ],
      "name": "setPxaFeeRatio",
      "outputs": [],
      "stateMutability": "nonpayable",
      "type": "function"
    },
    {
      "inputs": [
        {
          "internalType": "address",
          "name": "pxaAddress",
          "type": "address"
        }
      ],
      "name": "setTokenAddress",
      "outputs": [],
      "stateMutability": "nonpayable",
      "type": "function"
    },
    {
      "inputs": [
        {
          "internalType": "bytes4",
          "name": "interfaceId",
          "type": "bytes4"
        }
      ],
      "name": "supportsInterface",
      "outputs": [
        {
          "internalType": "bool",
          "name": "",
          "type": "bool"
        }
      ],
      "stateMutability": "view",
      "type": "function"
    },
    {
      "inputs": [
        {
          "internalType": "address",
          "name": "newOwner",
          "type": "address"
        }
      ],
      "name": "transferOwnership",
      "outputs": [],
      "stateMutability": "nonpayable",
      "type": "function"
    }
  ],
  "transactionHash": "0xbd49ceb6a072b06d44c68764141f66979444c1708b28dbc0767af383c17bfcc7",
  "args": [
    "0x082C09c950d002a6020d68BA8e20a13802B0B20d",
    "0xd5E3bD9e68578F711407579991E01853Aa0d0B86"
  ],
  "numDeployments": 8,
  "solcInputHash": "b1620c4c5bf02dece59dda15a242e4a5",
  "bytecode": "0x6080604052678ac7230489e80000600155612710600255600067ffffffffffffffff811115620000345762000033620002b9565b5b604051908082528060200260200182016040528015620000635781602001602082028036833780820191505090505b50600a90805190602001906200007b92919062000248565b5061c3506011553480156200008f57600080fd5b506040516200b1da3803806200b1da8339818101604052810190620000b5919062000397565b8082620000d7620000cb6200017c60201b60201c565b6200018460201b60201c565b600160048190555080600b60006101000a81548173ffffffffffffffffffffffffffffffffffffffff021916908373ffffffffffffffffffffffffffffffffffffffff160217905550611388600c819055505080600d60006101000a81548173ffffffffffffffffffffffffffffffffffffffff021916908373ffffffffffffffffffffffffffffffffffffffff160217905550600a600e81905550505050620003de565b600033905090565b60008060009054906101000a900473ffffffffffffffffffffffffffffffffffffffff169050816000806101000a81548173ffffffffffffffffffffffffffffffffffffffff021916908373ffffffffffffffffffffffffffffffffffffffff1602179055508173ffffffffffffffffffffffffffffffffffffffff168173ffffffffffffffffffffffffffffffffffffffff167f8be0079c531659141344cd1fd0a4f28419497f9722a3daafe3b4186f6b6457e060405160405180910390a35050565b82805482825590600052602060002090810192821562000287579160200282015b828111156200028657825182559160200191906001019062000269565b5b5090506200029691906200029a565b5090565b5b80821115620002b55760008160009055506001016200029b565b5090565b7f4e487b7100000000000000000000000000000000000000000000000000000000600052604160045260246000fd5b600080fd5b600073ffffffffffffffffffffffffffffffffffffffff82169050919050565b60006200031a82620002ed565b9050919050565b6200032c816200030d565b81146200033857600080fd5b50565b6000815190506200034c8162000321565b92915050565b60006200035f826200030d565b9050919050565b620003718162000352565b81146200037d57600080fd5b50565b600081519050620003918162000366565b92915050565b60008060408385031215620003b157620003b0620002e8565b5b6000620003c1858286016200033b565b9250506020620003d48582860162000380565b9150509250929050565b61adec80620003ee6000396000f3fe6080604052600436106102ae5760003560e01c80637a5b023111610175578063a9dc8b85116100dc578063d96a094a11610095578063f11b81881161006f578063f11b818814610a39578063f23a6e6114610a79578063f2fde38b14610ab6578063f9ebec6314610adf576102ae565b8063d96a094a146109d6578063e014afaf146109f2578063ef0aa21814610a1d576102ae565b8063a9dc8b85146108ca578063b69ef8a8146108f3578063bc197c811461091e578063c284f02c1461095b578063cd7e227114610984578063d1d5a071146109ad576102ae565b80638da5cb5b1161012e5780638da5cb5b146107c7578063961e975a146107f25780639991d3bf1461081d57806399f95ece146108395780639c4667a214610864578063a7375701146108a1576102ae565b80637a5b0231146106c25780637d098200146106ff578063807f68d21461072a57806381d9a25c1461075557806384777171146107805780638ca11c741461079c576102ae565b8063476394e2116102195780636a579d2a116101d25780636a579d2a146105da5780636bcbd11c146106055780636c149d5814610630578063715018a61461065957806377f2fcbc1461067057806379109baa14610699576102ae565b8063476394e2146104fa5780634a5e42b1146105255780634b7b9ad01461054e578063514fcac714610579578063558675d614610595578063576053d6146105b1576102ae565b8063262597251161026b57806326259725146103d557806326a4e8d2146104125780632f8943c41461043b57806333f707d114610478578063379607f5146104a1578063434f7327146104bd576102ae565b806301ffc9a7146102b357806302de00e8146102f0578063141833dc1461031b578063150b7a02146103445780631cfa829514610381578063240d78a1146103aa575b600080fd5b3480156102bf57600080fd5b506102da60048036038101906102d5919061609f565b610b0a565b6040516102e791906160e7565b60405180910390f35b3480156102fc57600080fd5b50610305610b84565b604051610312919061611e565b60405180910390f35b34801561032757600080fd5b50610342600480360381019061033d919061616f565b610b89565b005b34801561035057600080fd5b5061036b60048036038101906103669190616340565b610c67565b60405161037891906163d2565b60405180910390f35b34801561038d57600080fd5b506103a860048036038101906103a391906163ed565b610c7b565b005b3480156103b657600080fd5b506103bf610d61565b6040516103cc919061643c565b60405180910390f35b3480156103e157600080fd5b506103fc60048036038101906103f7919061616f565b610e3d565b6040516104099190616742565b60405180910390f35b34801561041e57600080fd5b5061043960048036038101906104349190616764565b611090565b005b34801561044757600080fd5b50610462600480360381019061045d9190616afa565b611150565b60405161046f919061643c565b60405180910390f35b34801561048457600080fd5b5061049f600480360381019061049a919061616f565b611211565b005b6104bb60048036038101906104b6919061616f565b61138e565b005b3480156104c957600080fd5b506104e460048036038101906104df919061616f565b61139b565b6040516104f19190616c39565b60405180910390f35b34801561050657600080fd5b5061050f611446565b60405161051c919061643c565b60405180910390f35b34801561053157600080fd5b5061054c60048036038101906105479190616764565b61144d565b005b34801561055a57600080fd5b5061056361159c565b604051610570919061611e565b60405180910390f35b610593600480360381019061058e919061616f565b6115a1565b005b6105af60048036038101906105aa9190616c54565b611740565b005b3480156105bd57600080fd5b506105d860048036038101906105d39190616d3f565b61191d565b005b3480156105e657600080fd5b506105ef611b78565b6040516105fc919061643c565b60405180910390f35b34801561061157600080fd5b5061061a611b82565b604051610627919061643c565b60405180910390f35b34801561063c57600080fd5b506106576004803603810190610652919061616f565b611b88565b005b34801561066557600080fd5b5061066e611cd8565b005b34801561067c57600080fd5b506106976004803603810190610692919061616f565b611d60565b005b3480156106a557600080fd5b506106c060048036038101906106bb91906163ed565b611ed1565b005b3480156106ce57600080fd5b506106e960048036038101906106e4919061616f565b61219a565b6040516106f69190616fdb565b60405180910390f35b34801561070b57600080fd5b50610714612597565b604051610721919061643c565b60405180910390f35b34801561073657600080fd5b5061073f6125a1565b60405161074c919061643c565b60405180910390f35b34801561076157600080fd5b5061076a6125ab565b604051610777919061643c565b60405180910390f35b61079a60048036038101906107959190616c54565b612695565b005b3480156107a857600080fd5b506107b1612716565b6040516107be919061611e565b60405180910390f35b3480156107d357600080fd5b506107dc61271b565b6040516107e9919061700c565b60405180910390f35b3480156107fe57600080fd5b50610807612744565b604051610814919061643c565b60405180910390f35b610837600480360381019061083291906170c8565b61274b565b005b34801561084557600080fd5b5061084e612896565b60405161085b919061643c565b60405180910390f35b34801561087057600080fd5b5061088b60048036038101906108869190616764565b61289c565b6040516108989190617267565b60405180910390f35b3480156108ad57600080fd5b506108c860048036038101906108c3919061616f565b61297c565b005b3480156108d657600080fd5b506108f160048036038101906108ec919061616f565b612a39565b005b3480156108ff57600080fd5b50610908612abf565b604051610915919061643c565b60405180910390f35b34801561092a57600080fd5b5061094560048036038101906109409190617282565b612b62565b60405161095291906163d2565b60405180910390f35b34801561096757600080fd5b50610982600480360381019061097d919061616f565b612b77565b005b34801561099057600080fd5b506109ab60048036038101906109a69190617351565b612c34565b005b3480156109b957600080fd5b506109d460048036038101906109cf9190617351565b612e1b565b005b6109f060048036038101906109eb919061616f565b613002565b005b3480156109fe57600080fd5b50610a0761324f565b604051610a14919061643c565b60405180910390f35b610a376004803603810190610a3291906170c8565b613255565b005b348015610a4557600080fd5b50610a606004803603810190610a5b9190616764565b6132da565b604051610a709493929190617391565b60405180910390f35b348015610a8557600080fd5b50610aa06004803603810190610a9b91906173d6565b613337565b604051610aad91906163d2565b60405180910390f35b348015610ac257600080fd5b50610add6004803603810190610ad89190616764565b61334c565b005b348015610aeb57600080fd5b50610af4613444565b604051610b01919061643c565b60405180910390f35b60007f4e2312e0000000000000000000000000000000000000000000000000000000007bffffffffffffffffffffffffffffffffffffffffffffffffffffffff1916827bffffffffffffffffffffffffffffffffffffffffffffffffffffffff19161480610b7d5750610b7c8261344a565b5b9050919050565b600281565b610b916134b4565b73ffffffffffffffffffffffffffffffffffffffff16610baf61271b565b73ffffffffffffffffffffffffffffffffffffffff1614610c05576040517f08c379a0000000000000000000000000000000000000000000000000000000008152600401610bfc906174ca565b60405180910390fd5b610c54333083600d60009054906101000a900473ffffffffffffffffffffffffffffffffffffffff1673ffffffffffffffffffffffffffffffffffffffff166134bc909392919063ffffffff16565b610c64610c5f612abf565b613545565b50565b600063150b7a0260e01b9050949350505050565b60026004541415610cc1576040517f08c379a0000000000000000000000000000000000000000000000000000000008152600401610cb890617536565b60405180910390fd5b6002600481905550610cd38282613570565b6000610cdd610d61565b90506000811115610d4b57610cfe33600283610cf991906175b4565b6139e4565b610d4a6008600084815260200190815260200160002060010160009054906101000a900473ffffffffffffffffffffffffffffffffffffffff16600283610d4591906175b4565b6139e4565b5b610d5483613b20565b5060016004819055505050565b600080610d6c612abf565b1415610d7b5760009050610e3a565b600d60009054906101000a900473ffffffffffffffffffffffffffffffffffffffff1673ffffffffffffffffffffffffffffffffffffffff1663313ce5676040518163ffffffff1660e01b8152600401602060405180830381865afa158015610de8573d6000803e3d6000fd5b505050506040513d601f19601f82011682018060405250810190610e0c91906175fa565b600a610e18919061775a565b601054610e23612abf565b610e2d91906175b4565b610e3791906177a5565b90505b90565b610e45615b49565b600860008381526020019081526020016000206040518060e0016040529081600082015481526020016001820160009054906101000a900473ffffffffffffffffffffffffffffffffffffffff1673ffffffffffffffffffffffffffffffffffffffff1673ffffffffffffffffffffffffffffffffffffffff16815260200160028201805480602002602001604051908101604052809291908181526020018280548015610f4857602002820191906000526020600020905b8160009054906101000a900473ffffffffffffffffffffffffffffffffffffffff1673ffffffffffffffffffffffffffffffffffffffff1681526020019060010190808311610efe575b5050505050815260200160038201805480602002602001604051908101604052809291908181526020018280548015610fa057602002820191906000526020600020905b815481526020019060010190808311610f8c575b5050505050815260200160048201805480602002602001604051908101604052809291908181526020018280548015610ff857602002820191906000526020600020905b815481526020019060010190808311610fe4575b505050505081526020016005820180548060200260200160405190810160405280929190818152602001828054801561107657602002820191906000526020600020906000905b82829054906101000a900460ff1660ff168152602001906001019060208260000104928301926001038202915080841161103f5790505b505050505081526020016006820154815250509050919050565b6110986134b4565b73ffffffffffffffffffffffffffffffffffffffff166110b661271b565b73ffffffffffffffffffffffffffffffffffffffff161461110c576040517f08c379a0000000000000000000000000000000000000000000000000000000008152600401611103906174ca565b60405180910390fd5b80600b60006101000a81548173ffffffffffffffffffffffffffffffffffffffff021916908373ffffffffffffffffffffffffffffffffffffffff16021790555050565b6000806000905060005b8651811015611204576000151584828151811061117a576111796177ff565b5b6020026020010151151514156111f1576111e38782815181106111a05761119f6177ff565b5b60200260200101518783815181106111bb576111ba6177ff565b5b60200260200101518784815181106111d6576111d56177ff565b5b6020026020010151613c5e565b826111ee919061782e565b91505b80806111fc90617884565b91505061115a565b5080915050949350505050565b6112196134b4565b73ffffffffffffffffffffffffffffffffffffffff1661123761271b565b73ffffffffffffffffffffffffffffffffffffffff161461128d576040517f08c379a0000000000000000000000000000000000000000000000000000000008152600401611284906174ca565b60405180910390fd5b600d60009054906101000a900473ffffffffffffffffffffffffffffffffffffffff1673ffffffffffffffffffffffffffffffffffffffff1663095ea7b333836040518363ffffffff1660e01b81526004016112ea9291906178cd565b6020604051808303816000875af1158015611309573d6000803e3d6000fd5b505050506040513d601f19601f8201168201806040525081019061132d919061790b565b5061137b3382600d60009054906101000a900473ffffffffffffffffffffffffffffffffffffffff1673ffffffffffffffffffffffffffffffffffffffff16613e679092919063ffffffff16565b61138b611386612abf565b613545565b50565b6113983382613eed565b50565b6113a3615b9c565b600960008381526020019081526020016000206040518060a00160405290816000820160009054906101000a900473ffffffffffffffffffffffffffffffffffffffff1673ffffffffffffffffffffffffffffffffffffffff1673ffffffffffffffffffffffffffffffffffffffff1681526020016001820154815260200160028201548152602001600382015481526020016004820154815250509050919050565b620f424081565b6114556134b4565b73ffffffffffffffffffffffffffffffffffffffff1661147361271b565b73ffffffffffffffffffffffffffffffffffffffff16146114c9576040517f08c379a00000000000000000000000000000000000000000000000000000000081526004016114c0906174ca565b60405180910390fd5b600360008273ffffffffffffffffffffffffffffffffffffffff1673ffffffffffffffffffffffffffffffffffffffff168152602001908152602001600020600080820160006101000a81549073ffffffffffffffffffffffffffffffffffffffff02191690556000820160146101000a81549060ff02191690556001820160009055600282016000905550508073ffffffffffffffffffffffffffffffffffffffff167f37803e2125c48ee96c38ddf04e826daf335b0e1603579040fd275aba6d06b6fc60405160405180910390a250565b600181565b6009600082815260200190815260200160002060000160009054906101000a900473ffffffffffffffffffffffffffffffffffffffff1673ffffffffffffffffffffffffffffffffffffffff163373ffffffffffffffffffffffffffffffffffffffff1614611645576040517f08c379a000000000000000000000000000000000000000000000000000000000815260040161163c90617984565b60405180910390fd5b60006009600083815260200190815260200160002060030154905061166a3383613eed565b61167382613ffb565b600b60009054906101000a900473ffffffffffffffffffffffffffffffffffffffff1673ffffffffffffffffffffffffffffffffffffffff166342842e0e3033856040518463ffffffff1660e01b81526004016116d2939291906179a4565b600060405180830381600087803b1580156116ec57600080fd5b505af1158015611700573d6000803e3d6000fd5b50505050817fdec16ec0a15607be6e73ed1ca935aa1269ae828874049d254f31b28c102f6dd082604051611734919061643c565b60405180910390a25050565b60026004541415611786576040517f08c379a000000000000000000000000000000000000000000000000000000000815260040161177d90617536565b60405180910390fd5b60026004819055506000845167ffffffffffffffff8111156117ab576117aa616215565b5b6040519080825280602002602001820160405280156117d95781602001602082028036833780820191505090505b50905060005b81518110156118225760008282815181106117fd576117fc6177ff565b5b602002602001019015159081151581525050808061181a90617884565b9150506117df565b50600061183186848785611150565b905080341015611876576040517f08c379a000000000000000000000000000000000000000000000000000000000815260040161186d90617a27565b60405180910390fd5b6118838787878787614130565b6000620f42406011548361189791906177a5565b6118a191906175b4565b90506118ac816143ea565b600081836118ba9190617a47565b90506118c461271b565b73ffffffffffffffffffffffffffffffffffffffff166108fc829081150290604051600060405180830381858888f19350505050158015611909573d6000803e3d6000fd5b505050505060016004819055505050505050565b600073ffffffffffffffffffffffffffffffffffffffff16600360008673ffffffffffffffffffffffffffffffffffffffff1673ffffffffffffffffffffffffffffffffffffffff16815260200190815260200160002060000160009054906101000a900473ffffffffffffffffffffffffffffffffffffffff1673ffffffffffffffffffffffffffffffffffffffff16146119ee576040517f08c379a00000000000000000000000000000000000000000000000000000000081526004016119e590617aed565b60405180910390fd5b60405180608001604052808573ffffffffffffffffffffffffffffffffffffffff1681526020018460ff16815260200183815260200182815250600360008673ffffffffffffffffffffffffffffffffffffffff1673ffffffffffffffffffffffffffffffffffffffff16815260200190815260200160002060008201518160000160006101000a81548173ffffffffffffffffffffffffffffffffffffffff021916908373ffffffffffffffffffffffffffffffffffffffff16021790555060208201518160000160146101000a81548160ff021916908360ff16021790555060408201518160010155606082015181600201559050508373ffffffffffffffffffffffffffffffffffffffff167ff2907ab530928e5b90d775441159d3ad184c3d3bf92dbe843026af908d61702d600360008773ffffffffffffffffffffffffffffffffffffffff1673ffffffffffffffffffffffffffffffffffffffff168152602001908152602001600020604051611b6a9190617c28565b60405180910390a250505050565b6000600c54905090565b600e5481565b60026004541415611bce576040517f08c379a0000000000000000000000000000000000000000000000000000000008152600401611bc590617536565b60405180910390fd5b60026004819055506006600082815260200190815260200160002060000160009054906101000a900473ffffffffffffffffffffffffffffffffffffffff1673ffffffffffffffffffffffffffffffffffffffff163373ffffffffffffffffffffffffffffffffffffffff1614611c7a576040517f08c379a0000000000000000000000000000000000000000000000000000000008152600401611c7190617c8f565b60405180910390fd5b611c8381613b20565b807f3d864d2c1b6545daa5b7b4ad188f731b7401c1ad8e7b0aa7714e57fe4a8a02fd60066000848152602001908152602001600020604051611cc591906198b3565b60405180910390a2600160048190555050565b611ce06134b4565b73ffffffffffffffffffffffffffffffffffffffff16611cfe61271b565b73ffffffffffffffffffffffffffffffffffffffff1614611d54576040517f08c379a0000000000000000000000000000000000000000000000000000000008152600401611d4b906174ca565b60405180910390fd5b611d5e6000614510565b565b60026004541415611da6576040517f08c379a0000000000000000000000000000000000000000000000000000000008152600401611d9d90617536565b60405180910390fd5b60026004819055503373ffffffffffffffffffffffffffffffffffffffff166008600083815260200190815260200160002060010160009054906101000a900473ffffffffffffffffffffffffffffffffffffffff1673ffffffffffffffffffffffffffffffffffffffff1614611e52576040517f08c379a0000000000000000000000000000000000000000000000000000000008152600401611e4990619921565b60405180910390fd5b6000600860008381526020019081526020016000209050611e72816145d4565b611e7b826146c4565b817f172e414729ca68e725ab11d0dad476faab984e1fb9118f3c0cd0bce9283abbd060086000858152602001908152602001600020604051611ebd9190619a11565b60405180910390a250600160048190555050565b3373ffffffffffffffffffffffffffffffffffffffff16600b60009054906101000a900473ffffffffffffffffffffffffffffffffffffffff1673ffffffffffffffffffffffffffffffffffffffff16636352211e846040518263ffffffff1660e01b8152600401611f43919061643c565b602060405180830381865afa158015611f60573d6000803e3d6000fd5b505050506040513d601f19601f82011682018060405250810190611f849190619a48565b73ffffffffffffffffffffffffffffffffffffffff1614611fda576040517f08c379a0000000000000000000000000000000000000000000000000000000008152600401611fd190619ac1565b60405180910390fd5b600b60009054906101000a900473ffffffffffffffffffffffffffffffffffffffff1673ffffffffffffffffffffffffffffffffffffffff166342842e0e3330856040518463ffffffff1660e01b8152600401612039939291906179a4565b600060405180830381600087803b15801561205357600080fd5b505af1158015612067573d6000803e3d6000fd5b505050506040518060a001604052803373ffffffffffffffffffffffffffffffffffffffff16815260200183815260200182815260200160008152602001600a805490508152506009600084815260200190815260200160002060008201518160000160006101000a81548173ffffffffffffffffffffffffffffffffffffffff021916908373ffffffffffffffffffffffffffffffffffffffff16021790555060208201518160010155604082015181600201556060820151816003015560808201518160040155905050600a829080600181540180825580915050600190039060005260206000200160009091909190915055817f28eb86fd03c9bd96a8a83e4a46ab2ad257b70cea893d98ad6d482e96aa25fad0338360405161218e9291906178cd565b60405180910390a25050565b6121a2615be1565b60066000838152602001908152602001600020604051806101200160405290816000820160009054906101000a900473ffffffffffffffffffffffffffffffffffffffff1673ffffffffffffffffffffffffffffffffffffffff1673ffffffffffffffffffffffffffffffffffffffff1681526020016001820160009054906101000a900473ffffffffffffffffffffffffffffffffffffffff1673ffffffffffffffffffffffffffffffffffffffff1673ffffffffffffffffffffffffffffffffffffffff16815260200160028201805461227d90617cde565b80601f01602080910402602001604051908101604052809291908181526020018280546122a990617cde565b80156122f65780601f106122cb576101008083540402835291602001916122f6565b820191906000526020600020905b8154815290600101906020018083116122d957829003601f168201915b505050505081526020016003820180548060200260200160405190810160405280929190818152602001828054801561238457602002820191906000526020600020905b8160009054906101000a900473ffffffffffffffffffffffffffffffffffffffff1673ffffffffffffffffffffffffffffffffffffffff168152602001906001019080831161233a575b50505050508152602001600482018054806020026020016040519081016040528092919081815260200182805480156123dc57602002820191906000526020600020905b8154815260200190600101908083116123c8575b505050505081526020016005820180548060200260200160405190810160405280929190818152602001828054801561243457602002820191906000526020600020905b815481526020019060010190808311612420575b50505050508152602001600682018054806020026020016040519081016040528092919081815260200182805480156124b257602002820191906000526020600020906000905b82829054906101000a900460ff1660ff168152602001906001019060208260000104928301926001038202915080841161247b5790505b505050505081526020016007820180548060200260200160405190810160405280929190818152602001828054801561252f57602002820191906000526020600020906000905b82829054906101000a900460ff161515815260200190600101906020826000010492830192600103820291508084116124f95790505b505050505081526020016008820180548060200260200160405190810160405280929190818152602001828054801561258757602002820191906000526020600020905b815481526020019060010190808311612573575b5050505050815250509050919050565b6000600254905090565b6000600154905090565b6000806125b6612abf565b141561267a57600d60009054906101000a900473ffffffffffffffffffffffffffffffffffffffff1673ffffffffffffffffffffffffffffffffffffffff1663313ce5676040518163ffffffff1660e01b8152600401602060405180830381865afa158015612629573d6000803e3d6000fd5b505050506040513d601f19601f8201168201806040525081019061264d91906175fa565b600a612659919061775a565b600e54600f5461266991906175b4565b61267391906177a5565b9050612692565b612682612abf565b600f5461268f91906175b4565b90505b90565b600260045414156126db576040517f08c379a00000000000000000000000000000000000000000000000000000000081526004016126d290617536565b60405180910390fd5b600260048190555060006126ed6125ab565b90506126f93382614754565b6127068686868686614130565b5060016004819055505050505050565b600381565b60008060009054906101000a900473ffffffffffffffffffffffffffffffffffffffff16905090565b620f424081565b60026004541415612791576040517f08c379a000000000000000000000000000000000000000000000000000000000815260040161278890617536565b60405180910390fd5b600260048190555060006127a786848785611150565b9050803410156127ec576040517f08c379a00000000000000000000000000000000000000000000000000000000081526004016127e390617a27565b60405180910390fd5b6127fb888888888888886147f1565b6000620f42406011548361280f91906177a5565b61281991906175b4565b9050612824816143ea565b600081836128329190617a47565b905061283c61271b565b73ffffffffffffffffffffffffffffffffffffffff166108fc829081150290604051600060405180830381858888f19350505050158015612881573d6000803e3d6000fd5b50505050600160048190555050505050505050565b60115481565b6128a4615c59565b600360008373ffffffffffffffffffffffffffffffffffffffff1673ffffffffffffffffffffffffffffffffffffffff1681526020019081526020016000206040518060800160405290816000820160009054906101000a900473ffffffffffffffffffffffffffffffffffffffff1673ffffffffffffffffffffffffffffffffffffffff1673ffffffffffffffffffffffffffffffffffffffff1681526020016000820160149054906101000a900460ff1660ff1660ff168152602001600182015481526020016002820154815250509050919050565b6129846134b4565b73ffffffffffffffffffffffffffffffffffffffff166129a261271b565b73ffffffffffffffffffffffffffffffffffffffff16146129f8576040517f08c379a00000000000000000000000000000000000000000000000000000000081526004016129ef906174ca565b60405180910390fd5b806001819055507fa701c734adc954390df39cc273bd151a37445a72782f9e86c98dd19a4740149881604051612a2e919061643c565b60405180910390a150565b612a416134b4565b73ffffffffffffffffffffffffffffffffffffffff16612a5f61271b565b73ffffffffffffffffffffffffffffffffffffffff1614612ab5576040517f08c379a0000000000000000000000000000000000000000000000000000000008152600401612aac906174ca565b60405180910390fd5b80600c8190555050565b6000600d60009054906101000a900473ffffffffffffffffffffffffffffffffffffffff1673ffffffffffffffffffffffffffffffffffffffff166370a08231306040518263ffffffff1660e01b8152600401612b1c919061700c565b602060405180830381865afa158015612b39573d6000803e3d6000fd5b505050506040513d601f19601f82011682018060405250810190612b5d9190619af6565b905090565b600063bc197c8160e01b905095945050505050565b612b7f6134b4565b73ffffffffffffffffffffffffffffffffffffffff16612b9d61271b565b73ffffffffffffffffffffffffffffffffffffffff1614612bf3576040517f08c379a0000000000000000000000000000000000000000000000000000000008152600401612bea906174ca565b60405180910390fd5b806002819055507fad98c275fe99ef4d6c741df6bdb2851e1efffb9e71a1a68d63992a0cd8c038ed81604051612c29919061643c565b60405180910390a150565b612c3c6134b4565b73ffffffffffffffffffffffffffffffffffffffff16612c5a61271b565b73ffffffffffffffffffffffffffffffffffffffff1614612cb0576040517f08c379a0000000000000000000000000000000000000000000000000000000008152600401612ca7906174ca565b60405180910390fd5b600073ffffffffffffffffffffffffffffffffffffffff16600360008473ffffffffffffffffffffffffffffffffffffffff1673ffffffffffffffffffffffffffffffffffffffff16815260200190815260200160002060000160009054906101000a900473ffffffffffffffffffffffffffffffffffffffff1673ffffffffffffffffffffffffffffffffffffffff161415612d82576040517f08c379a0000000000000000000000000000000000000000000000000000000008152600401612d7990619b95565b60405180910390fd5b80600360008473ffffffffffffffffffffffffffffffffffffffff1673ffffffffffffffffffffffffffffffffffffffff168152602001908152602001600020600201819055508173ffffffffffffffffffffffffffffffffffffffff167f55da874da551007bd7fc7a2fb26d9323093416d2402d016c40fa042deb363ab682604051612e0f919061643c565b60405180910390a25050565b612e236134b4565b73ffffffffffffffffffffffffffffffffffffffff16612e4161271b565b73ffffffffffffffffffffffffffffffffffffffff1614612e97576040517f08c379a0000000000000000000000000000000000000000000000000000000008152600401612e8e906174ca565b60405180910390fd5b600073ffffffffffffffffffffffffffffffffffffffff16600360008473ffffffffffffffffffffffffffffffffffffffff1673ffffffffffffffffffffffffffffffffffffffff16815260200190815260200160002060000160009054906101000a900473ffffffffffffffffffffffffffffffffffffffff1673ffffffffffffffffffffffffffffffffffffffff161415612f69576040517f08c379a0000000000000000000000000000000000000000000000000000000008152600401612f6090619b95565b60405180910390fd5b80600360008473ffffffffffffffffffffffffffffffffffffffff1673ffffffffffffffffffffffffffffffffffffffff168152602001908152602001600020600101819055508173ffffffffffffffffffffffffffffffffffffffff167fa7dd36139906f2738e957c249a5b90dc5e1ffeac05e1e86f53d0200343463f7282604051612ff6919061643c565b60405180910390a25050565b600960008281526020019081526020016000206002015434101561305b576040517f08c379a000000000000000000000000000000000000000000000000000000000815260040161305290619c01565b60405180910390fd5b6000620f4240600c543461306f91906177a5565b61307991906175b4565b9050600081346130899190617a47565b905061309361271b565b73ffffffffffffffffffffffffffffffffffffffff166108fc839081150290604051600060405180830381858888f193505050501580156130d8573d6000803e3d6000fd5b506009600084815260200190815260200160002060000160009054906101000a900473ffffffffffffffffffffffffffffffffffffffff1673ffffffffffffffffffffffffffffffffffffffff166108fc829081150290604051600060405180830381858888f19350505050158015613155573d6000803e3d6000fd5b506131603384613eed565b600b60009054906101000a900473ffffffffffffffffffffffffffffffffffffffff1673ffffffffffffffffffffffffffffffffffffffff166342842e0e3033866040518463ffffffff1660e01b81526004016131bf939291906179a4565b600060405180830381600087803b1580156131d957600080fd5b505af11580156131ed573d6000803e3d6000fd5b505050506131fa83613ffb565b827f871cca9c30ebd3d38d92d08304561880d6466ddb658d2fd88e501a929c497fd9346009600087815260200190815260200160002060030154604051613242929190619c21565b60405180910390a2505050565b600f5481565b6002600454141561329b576040517f08c379a000000000000000000000000000000000000000000000000000000000815260040161329290617536565b60405180910390fd5b600260048190555060006132ad6125ab565b90506132b93382614754565b6132c8888888888888886147f1565b50600160048190555050505050505050565b60036020528060005260406000206000915090508060000160009054906101000a900473ffffffffffffffffffffffffffffffffffffffff16908060000160149054906101000a900460ff16908060010154908060020154905084565b600063f23a6e6160e01b905095945050505050565b6133546134b4565b73ffffffffffffffffffffffffffffffffffffffff1661337261271b565b73ffffffffffffffffffffffffffffffffffffffff16146133c8576040517f08c379a00000000000000000000000000000000000000000000000000000000081526004016133bf906174ca565b60405180910390fd5b600073ffffffffffffffffffffffffffffffffffffffff168173ffffffffffffffffffffffffffffffffffffffff161415613438576040517f08c379a000000000000000000000000000000000000000000000000000000000815260040161342f90619cbc565b60405180910390fd5b61344181614510565b50565b60105481565b60007f01ffc9a7000000000000000000000000000000000000000000000000000000007bffffffffffffffffffffffffffffffffffffffffffffffffffffffff1916827bffffffffffffffffffffffffffffffffffffffffffffffffffffffff1916149050919050565b600033905090565b61353f846323b872dd60e01b8585856040516024016134dd939291906179a4565b604051602081830303815290604052907bffffffffffffffffffffffffffffffffffffffffffffffffffffffff19166020820180517bffffffffffffffffffffffffffffffffffffffffffffffffffffffff8381831617835250505050614b92565b50505050565b600e548161355391906177a5565b600f81905550600e548161356791906175b4565b60108190555050565b600060066000848152602001908152602001600020905060006008600084815260200190815260200160002090503373ffffffffffffffffffffffffffffffffffffffff168260000160009054906101000a900473ffffffffffffffffffffffffffffffffffffffff1673ffffffffffffffffffffffffffffffffffffffff1614613630576040517f08c379a000000000000000000000000000000000000000000000000000000000815260040161362790617c8f565b60405180910390fd5b80600001548414613676576040517f08c379a000000000000000000000000000000000000000000000000000000000815260040161366d90619d28565b60405180910390fd5b61367f82614c59565b6136be576040517f08c379a00000000000000000000000000000000000000000000000000000000081526004016136b590619dba565b60405180910390fd5b6136c781614f05565b613706576040517f08c379a00000000000000000000000000000000000000000000000000000000081526004016136fd90619e4c565b60405180910390fd5b60005b826003018054905081101561387e5760011515836007018281548110613732576137316177ff565b5b90600052602060002090602091828204019190069054906101000a900460ff161515141561375f5761386b565b61386a8360000160009054906101000a900473ffffffffffffffffffffffffffffffffffffffff168360010160009054906101000a900473ffffffffffffffffffffffffffffffffffffffff168560030184815481106137c2576137c16177ff565b5b9060005260206000200160009054906101000a900473ffffffffffffffffffffffffffffffffffffffff16866004018581548110613803576138026177ff565b5b9060005260206000200154876005018681548110613824576138236177ff565b5b9060005260206000200154886006018781548110613845576138446177ff565b5b90600052602060002090602091828204019190069054906101000a900460ff1661516a565b5b808061387690617884565b915050613709565b5060005b81600201805490508110156139af5761399c8260010160009054906101000a900473ffffffffffffffffffffffffffffffffffffffff168460000160009054906101000a900473ffffffffffffffffffffffffffffffffffffffff168460020184815481106138f4576138f36177ff565b5b9060005260206000200160009054906101000a900473ffffffffffffffffffffffffffffffffffffffff16856003018581548110613935576139346177ff565b5b9060005260206000200154866004018681548110613956576139556177ff565b5b9060005260206000200154876005018781548110613977576139766177ff565b5b90600052602060002090602091828204019190069054906101000a900460ff1661516a565b80806139a790617884565b915050613882565b5082847f5a6443be634d8594e0dff76c972a6a74f88bf761fb6e334d88dd979516f3bc8f60405160405180910390a350505050565b6139ec610d61565b811115613a2e576040517f08c379a0000000000000000000000000000000000000000000000000000000008152600401613a2590619eb8565b60405180910390fd5b600d60009054906101000a900473ffffffffffffffffffffffffffffffffffffffff1673ffffffffffffffffffffffffffffffffffffffff1663095ea7b383836040518363ffffffff1660e01b8152600401613a8b9291906178cd565b6020604051808303816000875af1158015613aaa573d6000803e3d6000fd5b505050506040513d601f19601f82011682018060405250810190613ace919061790b565b50613b1c8282600d60009054906101000a900473ffffffffffffffffffffffffffffffffffffffff1673ffffffffffffffffffffffffffffffffffffffff16613e679092919063ffffffff16565b5050565b600060066000838152602001908152602001600020905060066000838152602001908152602001600020600080820160006101000a81549073ffffffffffffffffffffffffffffffffffffffff02191690556001820160006101000a81549073ffffffffffffffffffffffffffffffffffffffff0219169055600282016000613ba99190615c9a565b600382016000613bb99190615cda565b600482016000613bc99190615cfb565b600582016000613bd99190615cfb565b600682016000613be99190615d1c565b600782016000613bf99190615d44565b600882016000613c099190615cfb565b505060005b8160080180549050811015613c5957613c46826008018281548110613c3657613c356177ff565b5b90600052602060002001546146c4565b8080613c5190617884565b915050613c0e565b505050565b60008073ffffffffffffffffffffffffffffffffffffffff16600360008673ffffffffffffffffffffffffffffffffffffffff1673ffffffffffffffffffffffffffffffffffffffff16815260200190815260200160002060000160009054906101000a900473ffffffffffffffffffffffffffffffffffffffff1673ffffffffffffffffffffffffffffffffffffffff161415613d4d57600160ff168360ff161415613d2857620f424060025483613d1791906177a5565b613d2191906175b4565b9050613e60565b620f4240600254600154613d3c91906177a5565b613d4691906175b4565b9050613e60565b600160ff168360ff161415613dbf57620f4240600360008673ffffffffffffffffffffffffffffffffffffffff1673ffffffffffffffffffffffffffffffffffffffff1681526020019081526020016000206002015483613dae91906177a5565b613db891906175b4565b9050613e60565b620f4240600360008673ffffffffffffffffffffffffffffffffffffffff1673ffffffffffffffffffffffffffffffffffffffff16815260200190815260200160002060020154600360008773ffffffffffffffffffffffffffffffffffffffff1673ffffffffffffffffffffffffffffffffffffffff16815260200190815260200160002060010154613e5391906177a5565b613e5d91906175b4565b90505b9392505050565b613ee88363a9059cbb60e01b8484604051602401613e869291906178cd565b604051602081830303815290604052907bffffffffffffffffffffffffffffffffffffffffffffffffffffffff19166020820180517bffffffffffffffffffffffffffffffffffffffffffffffffffffffff8381831617835250505050614b92565b505050565b6000600960008381526020019081526020016000206003015490506000811415613f175750613ff7565b47811115613f5a576040517f08c379a0000000000000000000000000000000000000000000000000000000008152600401613f5190619f24565b60405180910390fd5b8273ffffffffffffffffffffffffffffffffffffffff166108fc829081150290604051600060405180830381858888f19350505050158015613fa0573d6000803e3d6000fd5b5060006009600084815260200190815260200160002060030181905550817fc83b5086ce94ec8d5a88a9f5fea4b18a522bb238ed0d2d8abd959549a80c16b882604051613fed919061643c565b60405180910390a2505b5050565b60006009600083815260200190815260200160002060040154905060006001600a8054905061402a9190617a47565b9050600a81815481106140405761403f6177ff565b5b9060005260206000200154600a838154811061405f5761405e6177ff565b5b90600052602060002001819055508160096000600a8481548110614086576140856177ff565b5b906000526020600020015481526020019081526020016000206004018190555060096000848152602001908152602001600020600080820160006101000a81549073ffffffffffffffffffffffffffffffffffffffff021916905560018201600090556002820160009055600382016000905560048201600090555050600a80548061411557614114619f44565b5b60019003818190600052602060002001600090559055505050565b8251845114614174576040517f08c379a000000000000000000000000000000000000000000000000000000000815260040161416b90619fe5565b60405180910390fd5b81518451146141b8576040517f08c379a00000000000000000000000000000000000000000000000000000000081526004016141af9061a077565b60405180910390fd5b80518451146141fc576040517f08c379a00000000000000000000000000000000000000000000000000000000081526004016141f39061a109565b60405180910390fd5b61420660076152f8565b6000614212600761530e565b90506040518060e001604052808781526020013373ffffffffffffffffffffffffffffffffffffffff1681526020018681526020018581526020018481526020018381526020016006600089815260200190815260200160002060080180549050815250600860008381526020019081526020016000206000820151816000015560208201518160010160006101000a81548173ffffffffffffffffffffffffffffffffffffffff021916908373ffffffffffffffffffffffffffffffffffffffff16021790555060408201518160020190805190602001906142f6929190615d6c565b506060820151816003019080519060200190614313929190615df6565b506080820151816004019080519060200190614330929190615df6565b5060a082015181600501908051906020019061434d929190615e43565b5060c0820151816006015590505060066000878152602001908152602001600020600801819080600181540180825580915050600190039060005260206000200160009091909190915055807fd7af2d7ec779fb9958829116ac22b6fbd4eafe2ca69287d52dc56020617a6882600860008481526020019081526020016000206040516143da9190619a11565b60405180910390a2505050505050565b6000600a8054905014156143fd5761450d565b6000600a805490508261441091906175b4565b905060005b600a8054905081101561450a578160096000600a848154811061443b5761443a6177ff565b5b906000526020600020015481526020019081526020016000206003016000828254614466919061782e565b92505081905550600a8181548110614481576144806177ff565b5b90600052602060002001547fa916eef8b97ca0570d37ecb046f524f745075ea4e82b3067d873334377e9f8b760096000600a85815481106144c5576144c46177ff565b5b90600052602060002001548152602001908152602001600020600301546040516144ef919061643c565b60405180910390a2808061450290617884565b915050614415565b50505b50565b60008060009054906101000a900473ffffffffffffffffffffffffffffffffffffffff169050816000806101000a81548173ffffffffffffffffffffffffffffffffffffffff021916908373ffffffffffffffffffffffffffffffffffffffff1602179055508173ffffffffffffffffffffffffffffffffffffffff168173ffffffffffffffffffffffffffffffffffffffff167f8be0079c531659141344cd1fd0a4f28419497f9722a3daafe3b4186f6b6457e060405160405180910390a35050565b6000600660008360000154815260200190815260200160002090506000600182600801805490506146059190617a47565b9050600060086000846008018481548110614623576146226177ff565b5b90600052602060002001548152602001908152602001600020905083600601548160060181905550826008018281548110614661576146606177ff565b5b906000526020600020015483600801856006015481548110614686576146856177ff565b5b9060005260206000200181905550826008018054806146a8576146a7619f44565b5b6001900381819060005260206000200160009055905550505050565b600860008281526020019081526020016000206000808201600090556001820160006101000a81549073ffffffffffffffffffffffffffffffffffffffff02191690556002820160006147179190615cda565b6003820160006147279190615cfb565b6004820160006147379190615cfb565b6005820160006147479190615d1c565b6006820160009055505050565b61475c6125ab565b81101561479e576040517f08c379a00000000000000000000000000000000000000000000000000000000081526004016147959061a175565b60405180910390fd5b6147ed823083600d60009054906101000a900473ffffffffffffffffffffffffffffffffffffffff1673ffffffffffffffffffffffffffffffffffffffff166134bc909392919063ffffffff16565b5050565b8351855114614835576040517f08c379a000000000000000000000000000000000000000000000000000000000815260040161482c9061a207565b60405180910390fd5b8251855114614879576040517f08c379a00000000000000000000000000000000000000000000000000000000081526004016148709061a299565b60405180910390fd5b81518551146148bd576040517f08c379a00000000000000000000000000000000000000000000000000000000081526004016148b49061a32b565b60405180910390fd5b8051855114614901576040517f08c379a00000000000000000000000000000000000000000000000000000000081526004016148f89061a3bd565b60405180910390fd5b61490b60056152f8565b6000614917600561530e565b90506040518061012001604052803373ffffffffffffffffffffffffffffffffffffffff1681526020018973ffffffffffffffffffffffffffffffffffffffff168152602001888152602001878152602001868152602001858152602001848152602001838152602001600067ffffffffffffffff81111561499c5761499b616215565b5b6040519080825280602002602001820160405280156149ca5781602001602082028036833780820191505090505b508152506006600083815260200190815260200160002060008201518160000160006101000a81548173ffffffffffffffffffffffffffffffffffffffff021916908373ffffffffffffffffffffffffffffffffffffffff16021790555060208201518160010160006101000a81548173ffffffffffffffffffffffffffffffffffffffff021916908373ffffffffffffffffffffffffffffffffffffffff1602179055506040820151816002019080519060200190614a8b929190615eea565b506060820151816003019080519060200190614aa8929190615d6c565b506080820151816004019080519060200190614ac5929190615df6565b5060a0820151816005019080519060200190614ae2929190615df6565b5060c0820151816006019080519060200190614aff929190615e43565b5060e0820151816007019080519060200190614b1c929190615f70565b50610100820151816008019080519060200190614b3a929190615df6565b50905050807f48e81893487928a99fb309ba6421c1f6fc1d630b8fd46ba2bd6ed6de9929ff7560066000848152602001908152602001600020604051614b8091906198b3565b60405180910390a25050505050505050565b6000614bf4826040518060400160405280602081526020017f5361666545524332303a206c6f772d6c6576656c2063616c6c206661696c65648152508573ffffffffffffffffffffffffffffffffffffffff1661531c9092919063ffffffff16565b9050600081511115614c545780806020019051810190614c14919061790b565b614c53576040517f08c379a0000000000000000000000000000000000000000000000000000000008152600401614c4a9061a44f565b60405180910390fd5b5b505050565b6000808260000160009054906101000a900473ffffffffffffffffffffffffffffffffffffffff1690506000836003019050600084600501905060008560060190506000866004019050600087600701905060005b8580549050811015614ef557818181548110614ccd57614ccc6177ff565b5b90600052602060002090602091828204019190069054906101000a900460ff1615614cf757614ee2565b614dad87878381548110614d0e57614d0d6177ff565b5b9060005260206000200160009054906101000a900473ffffffffffffffffffffffffffffffffffffffff16878481548110614d4c57614d4b6177ff565b5b9060005260206000200154878581548110614d6a57614d696177ff565b5b90600052602060002090602091828204019190069054906101000a900460ff16878681548110614d9d57614d9c6177ff565b5b9060005260206000200154615334565b614dec576040517f08c379a0000000000000000000000000000000000000000000000000000000008152600401614de39061a4e1565b60405180910390fd5b614ea287878381548110614e0357614e026177ff565b5b9060005260206000200160009054906101000a900473ffffffffffffffffffffffffffffffffffffffff16878481548110614e4157614e406177ff565b5b9060005260206000200154878581548110614e5f57614e5e6177ff565b5b90600052602060002090602091828204019190069054906101000a900460ff16878681548110614e9257614e916177ff565b5b90600052602060002001546156b1565b614ee1576040517f08c379a0000000000000000000000000000000000000000000000000000000008152600401614ed89061a573565b60405180910390fd5b5b8080614eed90617884565b915050614cae565b5060019650505050505050919050565b6000808260010160009054906101000a900473ffffffffffffffffffffffffffffffffffffffff169050600083600201905060008460040190506000856005019050600086600301905060005b848054905081101561515b5761501486868381548110614f7557614f746177ff565b5b9060005260206000200160009054906101000a900473ffffffffffffffffffffffffffffffffffffffff16868481548110614fb357614fb26177ff565b5b9060005260206000200154868581548110614fd157614fd06177ff565b5b90600052602060002090602091828204019190069054906101000a900460ff16868681548110615004576150036177ff565b5b9060005260206000200154615334565b615053576040517f08c379a000000000000000000000000000000000000000000000000000000000815260040161504a9061a605565b60405180910390fd5b6151098686838154811061506a576150696177ff565b5b9060005260206000200160009054906101000a900473ffffffffffffffffffffffffffffffffffffffff168684815481106150a8576150a76177ff565b5b90600052602060002001548685815481106150c6576150c56177ff565b5b90600052602060002090602091828204019190069054906101000a900460ff168686815481106150f9576150f86177ff565b5b90600052602060002001546156b1565b615148576040517f08c379a000000000000000000000000000000000000000000000000000000000815260040161513f9061a697565b60405180910390fd5b808061515390617884565b915050614f52565b50600195505050505050919050565b600160ff168160ff1614156151ab576151a68686858773ffffffffffffffffffffffffffffffffffffffff166134bc909392919063ffffffff16565b6152f0565b600260ff168160ff16141561522e578373ffffffffffffffffffffffffffffffffffffffff166342842e0e8787856040518463ffffffff1660e01b81526004016151f7939291906179a4565b600060405180830381600087803b15801561521157600080fd5b505af1158015615225573d6000803e3d6000fd5b505050506152ef565b600360ff168160ff1614156152b3578373ffffffffffffffffffffffffffffffffffffffff1663f242432a878785876040518563ffffffff1660e01b815260040161527c949392919061a6ee565b600060405180830381600087803b15801561529657600080fd5b505af11580156152aa573d6000803e3d6000fd5b505050506152ee565b6040517f08c379a00000000000000000000000000000000000000000000000000000000081526004016152e59061a7b8565b60405180910390fd5b5b5b505050505050565b6001816000016000828254019250508190555050565b600081600001549050919050565b606061532b84846000856159ab565b90509392505050565b6000600160ff168360ff16141561540e576000859050828173ffffffffffffffffffffffffffffffffffffffff1663dd62ed3e89306040518363ffffffff1660e01b815260040161538692919061a7d8565b602060405180830381865afa1580156153a3573d6000803e3d6000fd5b505050506040513d601f19601f820116820180604052508101906153c79190619af6565b1015615408576040517f08c379a00000000000000000000000000000000000000000000000000000000081526004016153ff9061a873565b60405180910390fd5b506156a4565b600260ff168360ff1614156155925760008590503073ffffffffffffffffffffffffffffffffffffffff168173ffffffffffffffffffffffffffffffffffffffff1663081812fc876040518263ffffffff1660e01b8152600401615472919061643c565b602060405180830381865afa15801561548f573d6000803e3d6000fd5b505050506040513d601f19601f820116820180604052508101906154b39190619a48565b73ffffffffffffffffffffffffffffffffffffffff16148061554d57508073ffffffffffffffffffffffffffffffffffffffff1663e985e9c588306040518363ffffffff1660e01b815260040161550b92919061a7d8565b602060405180830381865afa158015615528573d6000803e3d6000fd5b505050506040513d601f19601f8201168201806040525081019061554c919061790b565b5b61558c576040517f08c379a00000000000000000000000000000000000000000000000000000000081526004016155839061a905565b60405180910390fd5b506156a3565b600360ff168360ff1614156156675760008590508073ffffffffffffffffffffffffffffffffffffffff1663e985e9c588306040518363ffffffff1660e01b81526004016155e192919061a7d8565b602060405180830381865afa1580156155fe573d6000803e3d6000fd5b505050506040513d601f19601f82011682018060405250810190615622919061790b565b615661576040517f08c379a00000000000000000000000000000000000000000000000000000000081526004016156589061a997565b60405180910390fd5b506156a2565b6040517f08c379a00000000000000000000000000000000000000000000000000000000081526004016156999061aa29565b60405180910390fd5b5b5b6001905095945050505050565b6000600160ff168360ff161415615789576000859050828173ffffffffffffffffffffffffffffffffffffffff166370a08231896040518263ffffffff1660e01b8152600401615701919061700c565b602060405180830381865afa15801561571e573d6000803e3d6000fd5b505050506040513d601f19601f820116820180604052508101906157429190619af6565b1015615783576040517f08c379a000000000000000000000000000000000000000000000000000000000815260040161577a9061aabb565b60405180910390fd5b5061599e565b600260ff168360ff16141561588a5760008590508673ffffffffffffffffffffffffffffffffffffffff168173ffffffffffffffffffffffffffffffffffffffff16636352211e876040518263ffffffff1660e01b81526004016157ed919061643c565b602060405180830381865afa15801561580a573d6000803e3d6000fd5b505050506040513d601f19601f8201168201806040525081019061582e9190619a48565b73ffffffffffffffffffffffffffffffffffffffff1614615884576040517f08c379a000000000000000000000000000000000000000000000000000000000815260040161587b9061ab4d565b60405180910390fd5b5061599d565b600360ff168360ff161415615961576000859050828173ffffffffffffffffffffffffffffffffffffffff1662fdd58e89886040518363ffffffff1660e01b81526004016158d99291906178cd565b602060405180830381865afa1580156158f6573d6000803e3d6000fd5b505050506040513d601f19601f8201168201806040525081019061591a9190619af6565b101561595b576040517f08c379a00000000000000000000000000000000000000000000000000000000081526004016159529061abdf565b60405180910390fd5b5061599c565b6040517f08c379a00000000000000000000000000000000000000000000000000000000081526004016159939061aa29565b60405180910390fd5b5b5b6001905095945050505050565b6060824710156159f0576040517f08c379a00000000000000000000000000000000000000000000000000000000081526004016159e79061ac71565b60405180910390fd5b6159f985615abf565b615a38576040517f08c379a0000000000000000000000000000000000000000000000000000000008152600401615a2f9061acdd565b60405180910390fd5b6000808673ffffffffffffffffffffffffffffffffffffffff168587604051615a61919061ad44565b60006040518083038185875af1925050503d8060008114615a9e576040519150601f19603f3d011682016040523d82523d6000602084013e615aa3565b606091505b5091509150615ab3828286615ae2565b92505050949350505050565b6000808273ffffffffffffffffffffffffffffffffffffffff163b119050919050565b60608315615af257829050615b42565b600083511115615b055782518084602001fd5b816040517f08c379a0000000000000000000000000000000000000000000000000000000008152600401615b39919061ad94565b60405180910390fd5b9392505050565b6040518060e0016040528060008152602001600073ffffffffffffffffffffffffffffffffffffffff16815260200160608152602001606081526020016060815260200160608152602001600081525090565b6040518060a00160405280600073ffffffffffffffffffffffffffffffffffffffff168152602001600081526020016000815260200160008152602001600081525090565b604051806101200160405280600073ffffffffffffffffffffffffffffffffffffffff168152602001600073ffffffffffffffffffffffffffffffffffffffff168152602001606081526020016060815260200160608152602001606081526020016060815260200160608152602001606081525090565b6040518060800160405280600073ffffffffffffffffffffffffffffffffffffffff168152602001600060ff16815260200160008152602001600081525090565b508054615ca690617cde565b6000825580601f10615cb85750615cd7565b601f016020900490600052602060002090810190615cd69190616016565b5b50565b5080546000825590600052602060002090810190615cf89190616016565b50565b5080546000825590600052602060002090810190615d199190616016565b50565b50805460008255601f016020900490600052602060002090810190615d419190616016565b50565b50805460008255601f016020900490600052602060002090810190615d699190616016565b50565b828054828255906000526020600020908101928215615de5579160200282015b82811115615de45782518260006101000a81548173ffffffffffffffffffffffffffffffffffffffff021916908373ffffffffffffffffffffffffffffffffffffffff16021790555091602001919060010190615d8c565b5b509050615df29190616016565b5090565b828054828255906000526020600020908101928215615e32579160200282015b82811115615e31578251825591602001919060010190615e16565b5b509050615e3f9190616016565b5090565b82805482825590600052602060002090601f01602090048101928215615ed95791602002820160005b83821115615eaa57835183826101000a81548160ff021916908360ff1602179055509260200192600101602081600001049283019260010302615e6c565b8015615ed75782816101000a81549060ff0219169055600101602081600001049283019260010302615eaa565b505b509050615ee69190616016565b5090565b828054615ef690617cde565b90600052602060002090601f016020900481019282615f185760008555615f5f565b82601f10615f3157805160ff1916838001178555615f5f565b82800160010185558215615f5f579182015b82811115615f5e578251825591602001919060010190615f43565b5b509050615f6c9190616016565b5090565b82805482825590600052602060002090601f016020900481019282156160055791602002820160005b83821115615fd657835183826101000a81548160ff0219169083151502179055509260200192600101602081600001049283019260010302615f99565b80156160035782816101000a81549060ff0219169055600101602081600001049283019260010302615fd6565b505b5090506160129190616016565b5090565b5b8082111561602f576000816000905550600101616017565b5090565b6000604051905090565b600080fd5b600080fd5b60007fffffffff0000000000000000000000000000000000000000000000000000000082169050919050565b61607c81616047565b811461608757600080fd5b50565b60008135905061609981616073565b92915050565b6000602082840312156160b5576160b461603d565b5b60006160c38482850161608a565b91505092915050565b60008115159050919050565b6160e1816160cc565b82525050565b60006020820190506160fc60008301846160d8565b92915050565b600060ff82169050919050565b61611881616102565b82525050565b6000602082019050616133600083018461610f565b92915050565b6000819050919050565b61614c81616139565b811461615757600080fd5b50565b60008135905061616981616143565b92915050565b6000602082840312156161855761618461603d565b5b60006161938482850161615a565b91505092915050565b600073ffffffffffffffffffffffffffffffffffffffff82169050919050565b60006161c78261619c565b9050919050565b6161d7816161bc565b81146161e257600080fd5b50565b6000813590506161f4816161ce565b92915050565b600080fd5b600080fd5b6000601f19601f8301169050919050565b7f4e487b7100000000000000000000000000000000000000000000000000000000600052604160045260246000fd5b61624d82616204565b810181811067ffffffffffffffff8211171561626c5761626b616215565b5b80604052505050565b600061627f616033565b905061628b8282616244565b919050565b600067ffffffffffffffff8211156162ab576162aa616215565b5b6162b482616204565b9050602081019050919050565b82818337600083830152505050565b60006162e36162de84616290565b616275565b9050828152602081018484840111156162ff576162fe6161ff565b5b61630a8482856162c1565b509392505050565b600082601f830112616327576163266161fa565b5b81356163378482602086016162d0565b91505092915050565b6000806000806080858703121561635a5761635961603d565b5b6000616368878288016161e5565b9450506020616379878288016161e5565b935050604061638a8782880161615a565b925050606085013567ffffffffffffffff8111156163ab576163aa616042565b5b6163b787828801616312565b91505092959194509250565b6163cc81616047565b82525050565b60006020820190506163e760008301846163c3565b92915050565b600080604083850312156164045761640361603d565b5b60006164128582860161615a565b92505060206164238582860161615a565b9150509250929050565b61643681616139565b82525050565b6000602082019050616451600083018461642d565b92915050565b61646081616139565b82525050565b61646f816161bc565b82525050565b600081519050919050565b600082825260208201905092915050565b6000819050602082019050919050565b60006164ad8383616466565b60208301905092915050565b6000602082019050919050565b60006164d182616475565b6164db8185616480565b93506164e683616491565b8060005b838110156165175781516164fe88826164a1565b9750616509836164b9565b9250506001810190506164ea565b5085935050505092915050565b600081519050919050565b600082825260208201905092915050565b6000819050602082019050919050565b600061655c8383616457565b60208301905092915050565b6000602082019050919050565b600061658082616524565b61658a818561652f565b935061659583616540565b8060005b838110156165c65781516165ad8882616550565b97506165b883616568565b925050600181019050616599565b5085935050505092915050565b600081519050919050565b600082825260208201905092915050565b6000819050602082019050919050565b61660881616102565b82525050565b600061661a83836165ff565b60208301905092915050565b6000602082019050919050565b600061663e826165d3565b61664881856165de565b9350616653836165ef565b8060005b8381101561668457815161666b888261660e565b975061667683616626565b925050600181019050616657565b5085935050505092915050565b600060e0830160008301516166a96000860182616457565b5060208301516166bc6020860182616466565b50604083015184820360408601526166d482826164c6565b915050606083015184820360608601526166ee8282616575565b915050608083015184820360808601526167088282616575565b91505060a083015184820360a08601526167228282616633565b91505060c083015161673760c0860182616457565b508091505092915050565b6000602082019050818103600083015261675c8184616691565b905092915050565b60006020828403121561677a5761677961603d565b5b6000616788848285016161e5565b91505092915050565b600067ffffffffffffffff8211156167ac576167ab616215565b5b602082029050602081019050919050565b600080fd5b60006167d56167d084616791565b616275565b905080838252602082019050602084028301858111156167f8576167f76167bd565b5b835b81811015616821578061680d88826161e5565b8452602084019350506020810190506167fa565b5050509392505050565b600082601f8301126168405761683f6161fa565b5b81356168508482602086016167c2565b91505092915050565b600067ffffffffffffffff82111561687457616873616215565b5b602082029050602081019050919050565b61688e81616102565b811461689957600080fd5b50565b6000813590506168ab81616885565b92915050565b60006168c46168bf84616859565b616275565b905080838252602082019050602084028301858111156168e7576168e66167bd565b5b835b8181101561691057806168fc888261689c565b8452602084019350506020810190506168e9565b5050509392505050565b600082601f83011261692f5761692e6161fa565b5b813561693f8482602086016168b1565b91505092915050565b600067ffffffffffffffff82111561696357616962616215565b5b602082029050602081019050919050565b600061698761698284616948565b616275565b905080838252602082019050602084028301858111156169aa576169a96167bd565b5b835b818110156169d357806169bf888261615a565b8452602084019350506020810190506169ac565b5050509392505050565b600082601f8301126169f2576169f16161fa565b5b8135616a02848260208601616974565b91505092915050565b600067ffffffffffffffff821115616a2657616a25616215565b5b602082029050602081019050919050565b616a40816160cc565b8114616a4b57600080fd5b50565b600081359050616a5d81616a37565b92915050565b6000616a76616a7184616a0b565b616275565b90508083825260208201905060208402830185811115616a9957616a986167bd565b5b835b81811015616ac25780616aae8882616a4e565b845260208401935050602081019050616a9b565b5050509392505050565b600082601f830112616ae157616ae06161fa565b5b8135616af1848260208601616a63565b91505092915050565b60008060008060808587031215616b1457616b1361603d565b5b600085013567ffffffffffffffff811115616b3257616b31616042565b5b616b3e8782880161682b565b945050602085013567ffffffffffffffff811115616b5f57616b5e616042565b5b616b6b8782880161691a565b935050604085013567ffffffffffffffff811115616b8c57616b8b616042565b5b616b98878288016169dd565b925050606085013567ffffffffffffffff811115616bb957616bb8616042565b5b616bc587828801616acc565b91505092959194509250565b60a082016000820151616be76000850182616466565b506020820151616bfa6020850182616457565b506040820151616c0d6040850182616457565b506060820151616c206060850182616457565b506080820151616c336080850182616457565b50505050565b600060a082019050616c4e6000830184616bd1565b92915050565b600080600080600060a08688031215616c7057616c6f61603d565b5b6000616c7e8882890161615a565b955050602086013567ffffffffffffffff811115616c9f57616c9e616042565b5b616cab8882890161682b565b945050604086013567ffffffffffffffff811115616ccc57616ccb616042565b5b616cd8888289016169dd565b935050606086013567ffffffffffffffff811115616cf957616cf8616042565b5b616d05888289016169dd565b925050608086013567ffffffffffffffff811115616d2657616d25616042565b5b616d328882890161691a565b9150509295509295909350565b60008060008060808587031215616d5957616d5861603d565b5b6000616d67878288016161e5565b9450506020616d788782880161689c565b9350506040616d898782880161615a565b9250506060616d9a8782880161615a565b91505092959194509250565b600081519050919050565b600082825260208201905092915050565b60005b83811015616de0578082015181840152602081019050616dc5565b83811115616def576000848401525b50505050565b6000616e0082616da6565b616e0a8185616db1565b9350616e1a818560208601616dc2565b616e2381616204565b840191505092915050565b600081519050919050565b600082825260208201905092915050565b6000819050602082019050919050565b616e63816160cc565b82525050565b6000616e758383616e5a565b60208301905092915050565b6000602082019050919050565b6000616e9982616e2e565b616ea38185616e39565b9350616eae83616e4a565b8060005b83811015616edf578151616ec68882616e69565b9750616ed183616e81565b925050600181019050616eb2565b5085935050505092915050565b600061012083016000830151616f056000860182616466565b506020830151616f186020860182616466565b5060408301518482036040860152616f308282616df5565b91505060608301518482036060860152616f4a82826164c6565b91505060808301518482036080860152616f648282616575565b91505060a083015184820360a0860152616f7e8282616575565b91505060c083015184820360c0860152616f988282616633565b91505060e083015184820360e0860152616fb28282616e8e565b915050610100830151848203610100860152616fce8282616575565b9150508091505092915050565b60006020820190508181036000830152616ff58184616eec565b905092915050565b617006816161bc565b82525050565b60006020820190506170216000830184616ffd565b92915050565b600067ffffffffffffffff82111561704257617041616215565b5b61704b82616204565b9050602081019050919050565b600061706b61706684617027565b616275565b905082815260208101848484011115617087576170866161ff565b5b6170928482856162c1565b509392505050565b600082601f8301126170af576170ae6161fa565b5b81356170bf848260208601617058565b91505092915050565b600080600080600080600060e0888a0312156170e7576170e661603d565b5b60006170f58a828b016161e5565b975050602088013567ffffffffffffffff81111561711657617115616042565b5b6171228a828b0161709a565b965050604088013567ffffffffffffffff81111561714357617142616042565b5b61714f8a828b0161682b565b955050606088013567ffffffffffffffff8111156171705761716f616042565b5b61717c8a828b016169dd565b945050608088013567ffffffffffffffff81111561719d5761719c616042565b5b6171a98a828b016169dd565b93505060a088013567ffffffffffffffff8111156171ca576171c9616042565b5b6171d68a828b0161691a565b92505060c088013567ffffffffffffffff8111156171f7576171f6616042565b5b6172038a828b01616acc565b91505092959891949750929550565b6080820160008201516172286000850182616466565b50602082015161723b60208501826165ff565b50604082015161724e6040850182616457565b5060608201516172616060850182616457565b50505050565b600060808201905061727c6000830184617212565b92915050565b600080600080600060a0868803121561729e5761729d61603d565b5b60006172ac888289016161e5565b95505060206172bd888289016161e5565b945050604086013567ffffffffffffffff8111156172de576172dd616042565b5b6172ea888289016169dd565b935050606086013567ffffffffffffffff81111561730b5761730a616042565b5b617317888289016169dd565b925050608086013567ffffffffffffffff81111561733857617337616042565b5b61734488828901616312565b9150509295509295909350565b600080604083850312156173685761736761603d565b5b6000617376858286016161e5565b92505060206173878582860161615a565b9150509250929050565b60006080820190506173a66000830187616ffd565b6173b3602083018661610f565b6173c0604083018561642d565b6173cd606083018461642d565b95945050505050565b600080600080600060a086880312156173f2576173f161603d565b5b6000617400888289016161e5565b9550506020617411888289016161e5565b94505060406174228882890161615a565b93505060606174338882890161615a565b925050608086013567ffffffffffffffff81111561745457617453616042565b5b61746088828901616312565b9150509295509295909350565b600082825260208201905092915050565b7f4f776e61626c653a2063616c6c6572206973206e6f7420746865206f776e6572600082015250565b60006174b460208361746d565b91506174bf8261747e565b602082019050919050565b600060208201905081810360008301526174e3816174a7565b9050919050565b7f5265656e7472616e637947756172643a207265656e7472616e742063616c6c00600082015250565b6000617520601f8361746d565b915061752b826174ea565b602082019050919050565b6000602082019050818103600083015261754f81617513565b9050919050565b7f4e487b7100000000000000000000000000000000000000000000000000000000600052601260045260246000fd5b7f4e487b7100000000000000000000000000000000000000000000000000000000600052601160045260246000fd5b60006175bf82616139565b91506175ca83616139565b9250826175da576175d9617556565b5b828204905092915050565b6000815190506175f481616885565b92915050565b6000602082840312156176105761760f61603d565b5b600061761e848285016175e5565b91505092915050565b60008160011c9050919050565b6000808291508390505b600185111561767e5780860481111561765a57617659617585565b5b60018516156176695780820291505b808102905061767785617627565b945061763e565b94509492505050565b6000826176975760019050617753565b816176a55760009050617753565b81600181146176bb57600281146176c5576176f4565b6001915050617753565b60ff8411156176d7576176d6617585565b5b8360020a9150848211156176ee576176ed617585565b5b50617753565b5060208310610133831016604e8410600b84101617156177295782820a90508381111561772457617723617585565b5b617753565b6177368484846001617634565b9250905081840481111561774d5761774c617585565b5b81810290505b9392505050565b600061776582616139565b915061777083616102565b925061779d7fffffffffffffffffffffffffffffffffffffffffffffffffffffffffffffffff8484617687565b905092915050565b60006177b082616139565b91506177bb83616139565b9250817fffffffffffffffffffffffffffffffffffffffffffffffffffffffffffffffff04831182151516156177f4576177f3617585565b5b828202905092915050565b7f4e487b7100000000000000000000000000000000000000000000000000000000600052603260045260246000fd5b600061783982616139565b915061784483616139565b9250827fffffffffffffffffffffffffffffffffffffffffffffffffffffffffffffffff0382111561787957617878617585565b5b828201905092915050565b600061788f82616139565b91507fffffffffffffffffffffffffffffffffffffffffffffffffffffffffffffffff8214156178c2576178c1617585565b5b600182019050919050565b60006040820190506178e26000830185616ffd565b6178ef602083018461642d565b9392505050565b60008151905061790581616a37565b92915050565b6000602082840312156179215761792061603d565b5b600061792f848285016178f6565b91505092915050565b7f5078614d61726b65743a20696e76616c69642073656c6c657200000000000000600082015250565b600061796e60198361746d565b915061797982617938565b602082019050919050565b6000602082019050818103600083015261799d81617961565b9050919050565b60006060820190506179b96000830186616ffd565b6179c66020830185616ffd565b6179d3604083018461642d565b949350505050565b7f50697870726573733a20696e73756666696369656e7420737761702066656500600082015250565b6000617a11601f8361746d565b9150617a1c826179db565b602082019050919050565b60006020820190508181036000830152617a4081617a04565b9050919050565b6000617a5282616139565b9150617a5d83616139565b925082821015617a7057617a6f617585565b5b828203905092915050565b7f41737365744d616e616765723a20617373657420616c7265616479206578697360008201527f7400000000000000000000000000000000000000000000000000000000000000602082015250565b6000617ad760218361746d565b9150617ae282617a7b565b604082019050919050565b60006020820190508181036000830152617b0681617aca565b9050919050565b60008160001c9050919050565b600073ffffffffffffffffffffffffffffffffffffffff82169050919050565b6000617b4d617b4883617b0d565b617b1a565b9050919050565b60008160a01c9050919050565b600060ff82169050919050565b6000617b81617b7c83617b54565b617b61565b9050919050565b6000819050919050565b6000617ba5617ba083617b0d565b617b88565b9050919050565b608082016000808301549050617bc181617b3a565b617bce6000860182616466565b50617bd881617b6e565b617be560208601826165ff565b5060018301549050617bf681617b92565b617c036040860182616457565b5060028301549050617c1481617b92565b617c216060860182616457565b5050505050565b6000608082019050617c3d6000830184617bac565b92915050565b7f417373657420537761707065723a20696e76616c69642070726f706f73657200600082015250565b6000617c79601f8361746d565b9150617c8482617c43565b602082019050919050565b60006020820190508181036000830152617ca881617c6c565b9050919050565b7f4e487b7100000000000000000000000000000000000000000000000000000000600052602260045260246000fd5b60006002820490506001821680617cf657607f821691505b60208210811415617d0a57617d09617caf565b5b50919050565b60008190508160005260206000209050919050565b60008154617d3281617cde565b617d3c8186616db1565b94506001821660008114617d575760018114617d6957617d9c565b60ff1983168652602086019350617d9c565b617d7285617d10565b60005b83811015617d9457815481890152600182019150602081019050617d75565b808801955050505b50505092915050565b600081549050919050565b60008190508160005260206000209050919050565b6000617dd18254617b3a565b9050919050565b6000600182019050919050565b6000617df082617da5565b617dfa8185616480565b9350617e0583617db0565b8060005b83811015617e3d57617e1a82617dc5565b617e2488826164a1565b9750617e2f83617dd8565b925050600181019050617e09565b5085935050505092915050565b600081549050919050565b60008190508160005260206000209050919050565b6000617e768254617b92565b9050919050565b6000600182019050919050565b6000617e9582617e4a565b617e9f818561652f565b9350617eaa83617e55565b8060005b83811015617ee257617ebf82617e6a565b617ec98882616550565b9750617ed483617e7d565b925050600181019050617eae565b5085935050505092915050565b600081549050919050565b60008190508160005260206000209050919050565b6000617f22617f1d83617b0d565b617b61565b9050919050565b60008160081c9050919050565b6000617f49617f4483617f29565b617b61565b9050919050565b60008160101c9050919050565b6000617f70617f6b83617f50565b617b61565b9050919050565b60008160181c9050919050565b6000617f97617f9283617f77565b617b61565b9050919050565b60008160201c9050919050565b6000617fbe617fb983617f9e565b617b61565b9050919050565b60008160281c9050919050565b6000617fe5617fe083617fc5565b617b61565b9050919050565b60008160301c9050919050565b600061800c61800783617fec565b617b61565b9050919050565b60008160381c9050919050565b600061803361802e83618013565b617b61565b9050919050565b60008160401c9050919050565b600061805a6180558361803a565b617b61565b9050919050565b60008160481c9050919050565b600061808161807c83618061565b617b61565b9050919050565b60008160501c9050919050565b60006180a86180a383618088565b617b61565b9050919050565b60008160581c9050919050565b60006180cf6180ca836180af565b617b61565b9050919050565b60008160601c9050919050565b60006180f66180f1836180d6565b617b61565b9050919050565b60008160681c9050919050565b600061811d618118836180fd565b617b61565b9050919050565b60008160701c9050919050565b600061814461813f83618124565b617b61565b9050919050565b60008160781c9050919050565b600061816b6181668361814b565b617b61565b9050919050565b60008160801c9050919050565b600061819261818d83618172565b617b61565b9050919050565b60008160881c9050919050565b60006181b96181b483618199565b617b61565b9050919050565b60008160901c9050919050565b60006181e06181db836181c0565b617b61565b9050919050565b60008160981c9050919050565b6000618207618202836181e7565b617b61565b9050919050565b60008160a81c9050919050565b600061822e6182298361820e565b617b61565b9050919050565b60008160b01c9050919050565b600061825561825083618235565b617b61565b9050919050565b60008160b81c9050919050565b600061827c6182778361825c565b617b61565b9050919050565b60008160c01c9050919050565b60006182a361829e83618283565b617b61565b9050919050565b60008160c81c9050919050565b60006182ca6182c5836182aa565b617b61565b9050919050565b60008160d01c9050919050565b60006182f16182ec836182d1565b617b61565b9050919050565b60008160d81c9050919050565b6000618318618313836182f8565b617b61565b9050919050565b60008160e01c9050919050565b600061833f61833a8361831f565b617b61565b9050919050565b60008160e81c9050919050565b600061836661836183618346565b617b61565b9050919050565b60008160f01c9050919050565b600061838d6183888361836d565b617b61565b9050919050565b60008160f81c9050919050565b60006183b46183af83618394565b617b61565b9050919050565b60006183c682617eef565b6183d081856165de565b9350836183dc84617efa565b6000600115618709575b836001602003820110156187085781546184088861840383617f0f565b6165ff565b6020880197506184208861841b83617f36565b6165ff565b6020880197506184388861843383617f5d565b6165ff565b6020880197506184508861844b83617f84565b6165ff565b6020880197506184688861846383617fab565b6165ff565b6020880197506184808861847b83617fd2565b6165ff565b6020880197506184988861849383617ff9565b6165ff565b6020880197506184b0886184ab83618020565b6165ff565b6020880197506184c8886184c383618047565b6165ff565b6020880197506184e0886184db8361806e565b6165ff565b6020880197506184f8886184f383618095565b6165ff565b6020880197506185108861850b836180bc565b6165ff565b60208801975061852888618523836180e3565b6165ff565b6020880197506185408861853b8361810a565b6165ff565b6020880197506185588861855383618131565b6165ff565b6020880197506185708861856b83618158565b6165ff565b602088019750618588886185838361817f565b6165ff565b6020880197506185a08861859b836181a6565b6165ff565b6020880197506185b8886185b3836181cd565b6165ff565b6020880197506185d0886185cb836181f4565b6165ff565b6020880197506185e8886185e383617b6e565b6165ff565b602088019750618600886185fb8361821b565b6165ff565b6020880197506186188861861383618242565b6165ff565b6020880197506186308861862b83618269565b6165ff565b6020880197506186488861864383618290565b6165ff565b6020880197506186608861865b836182b7565b6165ff565b60208801975061867888618673836182de565b6165ff565b6020880197506186908861868b83618305565b6165ff565b6020880197506186a8886186a38361832c565b6165ff565b6020880197506186c0886186bb83618353565b6165ff565b6020880197506186d8886186d38361837a565b6165ff565b6020880197506186f0886186eb836183a1565b6165ff565b602088019750600183019250506020810190506183e6565b5b600115618bf4578154848210156187395761872c8861872783617f0f565b6165ff565b6020880197506001820191505b84821015618760576187538861874e83617f36565b6165ff565b6020880197506001820191505b848210156187875761877a8861877583617f5d565b6165ff565b6020880197506001820191505b848210156187ae576187a18861879c83617f84565b6165ff565b6020880197506001820191505b848210156187d5576187c8886187c383617fab565b6165ff565b6020880197506001820191505b848210156187fc576187ef886187ea83617fd2565b6165ff565b6020880197506001820191505b84821015618823576188168861881183617ff9565b6165ff565b6020880197506001820191505b8482101561884a5761883d8861883883618020565b6165ff565b6020880197506001820191505b84821015618871576188648861885f83618047565b6165ff565b6020880197506001820191505b848210156188985761888b886188868361806e565b6165ff565b6020880197506001820191505b848210156188bf576188b2886188ad83618095565b6165ff565b6020880197506001820191505b848210156188e6576188d9886188d4836180bc565b6165ff565b6020880197506001820191505b8482101561890d57618900886188fb836180e3565b6165ff565b6020880197506001820191505b8482101561893457618927886189228361810a565b6165ff565b6020880197506001820191505b8482101561895b5761894e8861894983618131565b6165ff565b6020880197506001820191505b84821015618982576189758861897083618158565b6165ff565b6020880197506001820191505b848210156189a95761899c886189978361817f565b6165ff565b6020880197506001820191505b848210156189d0576189c3886189be836181a6565b6165ff565b6020880197506001820191505b848210156189f7576189ea886189e5836181cd565b6165ff565b6020880197506001820191505b84821015618a1e57618a1188618a0c836181f4565b6165ff565b6020880197506001820191505b84821015618a4557618a3888618a3383617b6e565b6165ff565b6020880197506001820191505b84821015618a6c57618a5f88618a5a8361821b565b6165ff565b6020880197506001820191505b84821015618a9357618a8688618a8183618242565b6165ff565b6020880197506001820191505b84821015618aba57618aad88618aa883618269565b6165ff565b6020880197506001820191505b84821015618ae157618ad488618acf83618290565b6165ff565b6020880197506001820191505b84821015618b0857618afb88618af6836182b7565b6165ff565b6020880197506001820191505b84821015618b2f57618b2288618b1d836182de565b6165ff565b6020880197506001820191505b84821015618b5657618b4988618b4483618305565b6165ff565b6020880197506001820191505b84821015618b7d57618b7088618b6b8361832c565b6165ff565b6020880197506001820191505b84821015618ba457618b9788618b9283618353565b6165ff565b6020880197506001820191505b84821015618bcb57618bbe88618bb98361837a565b6165ff565b6020880197506001820191505b84821015618bf257618be588618be0836183a1565b6165ff565b6020880197506001820191505b505b8694505050505092915050565b600081549050919050565b60008190508160005260206000209050919050565b600060ff82169050919050565b6000618c41618c3c83617b0d565b618c21565b9050919050565b6000618c5b618c5683617f29565b618c21565b9050919050565b6000618c75618c7083617f50565b618c21565b9050919050565b6000618c8f618c8a83617f77565b618c21565b9050919050565b6000618ca9618ca483617f9e565b618c21565b9050919050565b6000618cc3618cbe83617fc5565b618c21565b9050919050565b6000618cdd618cd883617fec565b618c21565b9050919050565b6000618cf7618cf283618013565b618c21565b9050919050565b6000618d11618d0c8361803a565b618c21565b9050919050565b6000618d2b618d2683618061565b618c21565b9050919050565b6000618d45618d4083618088565b618c21565b9050919050565b6000618d5f618d5a836180af565b618c21565b9050919050565b6000618d79618d74836180d6565b618c21565b9050919050565b6000618d93618d8e836180fd565b618c21565b9050919050565b6000618dad618da883618124565b618c21565b9050919050565b6000618dc7618dc28361814b565b618c21565b9050919050565b6000618de1618ddc83618172565b618c21565b9050919050565b6000618dfb618df683618199565b618c21565b9050919050565b6000618e15618e10836181c0565b618c21565b9050919050565b6000618e2f618e2a836181e7565b618c21565b9050919050565b6000618e49618e4483617b54565b618c21565b9050919050565b6000618e63618e5e8361820e565b618c21565b9050919050565b6000618e7d618e7883618235565b618c21565b9050919050565b6000618e97618e928361825c565b618c21565b9050919050565b6000618eb1618eac83618283565b618c21565b9050919050565b6000618ecb618ec6836182aa565b618c21565b9050919050565b6000618ee5618ee0836182d1565b618c21565b9050919050565b6000618eff618efa836182f8565b618c21565b9050919050565b6000618f19618f148361831f565b618c21565b9050919050565b6000618f33618f2e83618346565b618c21565b9050919050565b6000618f4d618f488361836d565b618c21565b9050919050565b6000618f67618f6283618394565b618c21565b9050919050565b6000618f7982618c01565b618f838185616e39565b935083618f8f84618c0c565b60006001156192bc575b836001602003820110156192bb578154618fbb88618fb683618c2e565b616e5a565b602088019750618fd388618fce83618c48565b616e5a565b602088019750618feb88618fe683618c62565b616e5a565b60208801975061900388618ffe83618c7c565b616e5a565b60208801975061901b8861901683618c96565b616e5a565b6020880197506190338861902e83618cb0565b616e5a565b60208801975061904b8861904683618cca565b616e5a565b6020880197506190638861905e83618ce4565b616e5a565b60208801975061907b8861907683618cfe565b616e5a565b6020880197506190938861908e83618d18565b616e5a565b6020880197506190ab886190a683618d32565b616e5a565b6020880197506190c3886190be83618d4c565b616e5a565b6020880197506190db886190d683618d66565b616e5a565b6020880197506190f3886190ee83618d80565b616e5a565b60208801975061910b8861910683618d9a565b616e5a565b6020880197506191238861911e83618db4565b616e5a565b60208801975061913b8861913683618dce565b616e5a565b6020880197506191538861914e83618de8565b616e5a565b60208801975061916b8861916683618e02565b616e5a565b6020880197506191838861917e83618e1c565b616e5a565b60208801975061919b8861919683618e36565b616e5a565b6020880197506191b3886191ae83618e50565b616e5a565b6020880197506191cb886191c683618e6a565b616e5a565b6020880197506191e3886191de83618e84565b616e5a565b6020880197506191fb886191f683618e9e565b616e5a565b6020880197506192138861920e83618eb8565b616e5a565b60208801975061922b8861922683618ed2565b616e5a565b6020880197506192438861923e83618eec565b616e5a565b60208801975061925b8861925683618f06565b616e5a565b6020880197506192738861926e83618f20565b616e5a565b60208801975061928b8861928683618f3a565b616e5a565b6020880197506192a38861929e83618f54565b616e5a565b60208801975060018301925050602081019050618f99565b5b6001156197a7578154848210156192ec576192df886192da83618c2e565b616e5a565b6020880197506001820191505b84821015619313576193068861930183618c48565b616e5a565b6020880197506001820191505b8482101561933a5761932d8861932883618c62565b616e5a565b6020880197506001820191505b84821015619361576193548861934f83618c7c565b616e5a565b6020880197506001820191505b848210156193885761937b8861937683618c96565b616e5a565b6020880197506001820191505b848210156193af576193a28861939d83618cb0565b616e5a565b6020880197506001820191505b848210156193d6576193c9886193c483618cca565b616e5a565b6020880197506001820191505b848210156193fd576193f0886193eb83618ce4565b616e5a565b6020880197506001820191505b84821015619424576194178861941283618cfe565b616e5a565b6020880197506001820191505b8482101561944b5761943e8861943983618d18565b616e5a565b6020880197506001820191505b84821015619472576194658861946083618d32565b616e5a565b6020880197506001820191505b848210156194995761948c8861948783618d4c565b616e5a565b6020880197506001820191505b848210156194c0576194b3886194ae83618d66565b616e5a565b6020880197506001820191505b848210156194e7576194da886194d583618d80565b616e5a565b6020880197506001820191505b8482101561950e57619501886194fc83618d9a565b616e5a565b6020880197506001820191505b84821015619535576195288861952383618db4565b616e5a565b6020880197506001820191505b8482101561955c5761954f8861954a83618dce565b616e5a565b6020880197506001820191505b84821015619583576195768861957183618de8565b616e5a565b6020880197506001820191505b848210156195aa5761959d8861959883618e02565b616e5a565b6020880197506001820191505b848210156195d1576195c4886195bf83618e1c565b616e5a565b6020880197506001820191505b848210156195f8576195eb886195e683618e36565b616e5a565b6020880197506001820191505b8482101561961f576196128861960d83618e50565b616e5a565b6020880197506001820191505b84821015619646576196398861963483618e6a565b616e5a565b6020880197506001820191505b8482101561966d576196608861965b83618e84565b616e5a565b6020880197506001820191505b84821015619694576196878861968283618e9e565b616e5a565b6020880197506001820191505b848210156196bb576196ae886196a983618eb8565b616e5a565b6020880197506001820191505b848210156196e2576196d5886196d083618ed2565b616e5a565b6020880197506001820191505b84821015619709576196fc886196f783618eec565b616e5a565b6020880197506001820191505b84821015619730576197238861971e83618f06565b616e5a565b6020880197506001820191505b848210156197575761974a8861974583618f20565b616e5a565b6020880197506001820191505b8482101561977e576197718861976c83618f3a565b616e5a565b6020880197506001820191505b848210156197a5576197988861979383618f54565b616e5a565b6020880197506001820191505b505b8694505050505092915050565b6000610120830160008084015490506197cc81617b3a565b6197d96000870182616466565b50600184015490506197ea81617b3a565b6197f76020870182616466565b5060028401858303604087015261980e8382617d25565b9250506003840185830360608701526198278382617de5565b9250506004840185830360808701526198408382617e8a565b9250506005840185830360a08701526198598382617e8a565b9250506006840185830360c087015261987283826183bb565b9250506007840185830360e087015261988b8382618f6e565b925050600884018583036101008701526198a58382617e8a565b925050819250505092915050565b600060208201905081810360008301526198cd81846197b4565b905092915050565b7f417373657420537761707065723a20696e76616c6964206d6174636865720000600082015250565b600061990b601e8361746d565b9150619916826198d5565b602082019050919050565b6000602082019050818103600083015261993a816198fe565b9050919050565b600060e08301600080840154905061995881617b92565b6199656000870182616457565b506001840154905061997681617b3a565b6199836020870182616466565b5060028401858303604087015261999a8382617de5565b9250506003840185830360608701526199b38382617e8a565b9250506004840185830360808701526199cc8382617e8a565b9250506005840185830360a08701526199e583826183bb565b925050600684015490506199f881617b92565b619a0560c0870182616457565b50819250505092915050565b60006020820190508181036000830152619a2b8184619941565b905092915050565b600081519050619a42816161ce565b92915050565b600060208284031215619a5e57619a5d61603d565b5b6000619a6c84828501619a33565b91505092915050565b7f5078614d61726b65743a20696e76616c696420746f6b656e206f776e65720000600082015250565b6000619aab601e8361746d565b9150619ab682619a75565b602082019050919050565b60006020820190508181036000830152619ada81619a9e565b9050919050565b600081519050619af081616143565b92915050565b600060208284031215619b0c57619b0b61603d565b5b6000619b1a84828501619ae1565b91505092915050565b7f41737365744d616e616765723a20617373657420646f6573206e6f742065786960008201527f7374000000000000000000000000000000000000000000000000000000000000602082015250565b6000619b7f60228361746d565b9150619b8a82619b23565b604082019050919050565b60006020820190508181036000830152619bae81619b72565b9050919050565b7f5078614d61726b65743a20696e73756666696369656e742043454c4f00000000600082015250565b6000619beb601c8361746d565b9150619bf682619bb5565b602082019050919050565b60006020820190508181036000830152619c1a81619bde565b9050919050565b6000604082019050619c36600083018561642d565b619c43602083018461642d565b9392505050565b7f4f776e61626c653a206e6577206f776e657220697320746865207a65726f206160008201527f6464726573730000000000000000000000000000000000000000000000000000602082015250565b6000619ca660268361746d565b9150619cb182619c4a565b604082019050919050565b60006020820190508181036000830152619cd581619c99565b9050919050565b7f417373657420537761707065723a20696e76616c6964206d6174636820696400600082015250565b6000619d12601f8361746d565b9150619d1d82619cdc565b602082019050919050565b60006020820190508181036000830152619d4181619d05565b9050919050565b7f417373657420537761707065723a2070726f706f73657220617373657473206960008201527f6e76616c69640000000000000000000000000000000000000000000000000000602082015250565b6000619da460268361746d565b9150619daf82619d48565b604082019050919050565b60006020820190508181036000830152619dd381619d97565b9050919050565b7f417373657420537761707065723a206d6174636865722061737365747320696e60008201527f76616c6964000000000000000000000000000000000000000000000000000000602082015250565b6000619e3660258361746d565b9150619e4182619dda565b604082019050919050565b60006020820190508181036000830152619e6581619e29565b9050919050565b7f50585420506f6f6c3a20696e73756666696369656e742062616c616e63650000600082015250565b6000619ea2601e8361746d565b9150619ead82619e6c565b602082019050919050565b60006020820190508181036000830152619ed181619e95565b9050919050565b7f5078614d61726b65743a20696e73756666696369656e742062616c616e636500600082015250565b6000619f0e601f8361746d565b9150619f1982619ed8565b602082019050919050565b60006020820190508181036000830152619f3d81619f01565b9050919050565b7f4e487b7100000000000000000000000000000000000000000000000000000000600052603160045260246000fd5b7f41737365737420537761707065723a20616d6f756e74207265636f726420736960008201527f7a6520646f6573206e6f74206d61746368000000000000000000000000000000602082015250565b6000619fcf60318361746d565b9150619fda82619f73565b604082019050919050565b60006020820190508181036000830152619ffe81619fc2565b9050919050565b7f41737365737420537761707065723a206964207265636f72642073697a65206460008201527f6f6573206e6f74206d6174636800000000000000000000000000000000000000602082015250565b600061a061602d8361746d565b915061a06c8261a005565b604082019050919050565b6000602082019050818103600083015261a0908161a054565b9050919050565b7f41737365737420537761707065723a2070726f746f636f6c207265636f72642060008201527f73697a6520646f6573206e6f74206d6174636800000000000000000000000000602082015250565b600061a0f360338361746d565b915061a0fe8261a097565b604082019050919050565b6000602082019050818103600083015261a1228161a0e6565b9050919050565b7f50585420506f6f6c3a20696e73756666696369656e7420616d6f756e74000000600082015250565b600061a15f601d8361746d565b915061a16a8261a129565b602082019050919050565b6000602082019050818103600083015261a18e8161a152565b9050919050565b7f417373657420537761707065723a20616d6f756e74207265636f72642073697a60008201527f6520646f6573206e6f74206d6174636800000000000000000000000000000000602082015250565b600061a1f160308361746d565b915061a1fc8261a195565b604082019050919050565b6000602082019050818103600083015261a2208161a1e4565b9050919050565b7f417373657420537761707065723a206964207265636f72642073697a6520646f60008201527f6573206e6f74206d617463680000000000000000000000000000000000000000602082015250565b600061a283602c8361746d565b915061a28e8261a227565b604082019050919050565b6000602082019050818103600083015261a2b28161a276565b9050919050565b7f417373657420537761707065723a2070726f746f636f6c207265636f7264207360008201527f697a6520646f6573206e6f74206d617463680000000000000000000000000000602082015250565b600061a31560328361746d565b915061a3208261a2b9565b604082019050919050565b6000602082019050818103600083015261a3448161a308565b9050919050565b7f417373657420537761707065723a2077616e746564207265636f72642073697a60008201527f6520646f6573206e6f74206d6174636800000000000000000000000000000000602082015250565b600061a3a760308361746d565b915061a3b28261a34b565b604082019050919050565b6000602082019050818103600083015261a3d68161a39a565b9050919050565b7f5361666545524332303a204552433230206f7065726174696f6e20646964206e60008201527f6f74207375636365656400000000000000000000000000000000000000000000602082015250565b600061a439602a8361746d565b915061a4448261a3dd565b604082019050919050565b6000602082019050818103600083015261a4688161a42c565b9050919050565b7f417373657420537761707065723a20736f6d652070726f706f7365722061737360008201527f65747320617265206e6f7420617070726f766564000000000000000000000000602082015250565b600061a4cb60348361746d565b915061a4d68261a46f565b604082019050919050565b6000602082019050818103600083015261a4fa8161a4be565b9050919050565b7f417373657420537761707065723a20736f6d652070726f706f7365722061737360008201527f65747320617265206e6f7420696e2073746f636b000000000000000000000000602082015250565b600061a55d60348361746d565b915061a5688261a501565b604082019050919050565b6000602082019050818103600083015261a58c8161a550565b9050919050565b7f417373657420537761707065723a20736f6d65206d617463686572206173736560008201527f747320617265206e6f7420617070726f76656400000000000000000000000000602082015250565b600061a5ef60338361746d565b915061a5fa8261a593565b604082019050919050565b6000602082019050818103600083015261a61e8161a5e2565b9050919050565b7f417373657420537761707065723a20736f6d65206d617463686572206173736560008201527f747320617265206e6f7420696e2073746f636b00000000000000000000000000602082015250565b600061a68160338361746d565b915061a68c8261a625565b604082019050919050565b6000602082019050818103600083015261a6b08161a674565b9050919050565b600082825260208201905092915050565b50565b600061a6d860008361a6b7565b915061a6e38261a6c8565b600082019050919050565b600060a08201905061a7036000830187616ffd565b61a7106020830186616ffd565b61a71d604083018561642d565b61a72a606083018461642d565b818103608083015261a73b8161a6cb565b905095945050505050565b7f417373657420537761707065723a2063616e6e6f74207377617020756e73757060008201527f706f7274656420746f6b656e2070726f746f636f6c0000000000000000000000602082015250565b600061a7a260358361746d565b915061a7ad8261a746565b604082019050919050565b6000602082019050818103600083015261a7d18161a795565b9050919050565b600060408201905061a7ed6000830185616ffd565b61a7fa6020830184616ffd565b9392505050565b7f417373657420537761707065723a20696e73756666696369656e7420746f6b6560008201527f6e20616c6c6f77616e6365000000000000000000000000000000000000000000602082015250565b600061a85d602b8361746d565b915061a8688261a801565b604082019050919050565b6000602082019050818103600083015261a88c8161a850565b9050919050565b7f417373657420537761707065723a2045524337323120746f6b656e206e6f742060008201527f617070726f766564200000000000000000000000000000000000000000000000602082015250565b600061a8ef60298361746d565b915061a8fa8261a893565b604082019050919050565b6000602082019050818103600083015261a91e8161a8e2565b9050919050565b7f417373657420537761707065723a204552433131353520746f6b656e206e6f7460008201527f20617070726f7665642000000000000000000000000000000000000000000000602082015250565b600061a981602a8361746d565b915061a98c8261a925565b604082019050919050565b6000602082019050818103600083015261a9b08161a974565b9050919050565b7f417373657420537761707065723a20756e737570706f7274656420746f6b656e60008201527f2070726f746f636f6c0000000000000000000000000000000000000000000000602082015250565b600061aa1360298361746d565b915061aa1e8261a9b7565b604082019050919050565b6000602082019050818103600083015261aa428161aa06565b9050919050565b7f417373657420537761707065723a20455243323020696e73756666696369656e60008201527f7420746f6b656e2062616c616e63650000000000000000000000000000000000602082015250565b600061aaa5602f8361746d565b915061aab08261aa49565b604082019050919050565b6000602082019050818103600083015261aad48161aa98565b9050919050565b7f417373657420537761707065723a2045524337323120696e737566666963696560008201527f6e7420746f6b656e2062616c616e636500000000000000000000000000000000602082015250565b600061ab3760308361746d565b915061ab428261aadb565b604082019050919050565b6000602082019050818103600083015261ab668161ab2a565b9050919050565b7f417373657420537761707065723a204552433131353520696e7375666669636960008201527f656e7420746f6b656e2062616c616e6365000000000000000000000000000000602082015250565b600061abc960318361746d565b915061abd48261ab6d565b604082019050919050565b6000602082019050818103600083015261abf88161abbc565b9050919050565b7f416464726573733a20696e73756666696369656e742062616c616e636520666f60008201527f722063616c6c0000000000000000000000000000000000000000000000000000602082015250565b600061ac5b60268361746d565b915061ac668261abff565b604082019050919050565b6000602082019050818103600083015261ac8a8161ac4e565b9050919050565b7f416464726573733a2063616c6c20746f206e6f6e2d636f6e7472616374000000600082015250565b600061acc7601d8361746d565b915061acd28261ac91565b602082019050919050565b6000602082019050818103600083015261acf68161acba565b9050919050565b600081519050919050565b600081905092915050565b600061ad1e8261acfd565b61ad28818561ad08565b935061ad38818560208601616dc2565b80840191505092915050565b600061ad50828461ad13565b915081905092915050565b600061ad6682616da6565b61ad70818561746d565b935061ad80818560208601616dc2565b61ad8981616204565b840191505092915050565b6000602082019050818103600083015261adae818461ad5b565b90509291505056fea26469706673582212200513e6847d85cf7eafc35673afecc2c08545ae11c3a2e248e0da9b18035d0fe664736f6c634300080c0033",
  "devdoc": {
    "kind": "dev",
    "methods": {
      "onERC721Received(address,address,uint256,bytes)": {
        "details": "See {IERC721Receiver-onERC721Received}. Always returns `IERC721Receiver.onERC721Received.selector`."
      },
      "owner()": {
        "details": "Returns the address of the current owner."
      },
      "renounceOwnership()": {
        "details": "Leaves the contract without owner. It will not be possible to call `onlyOwner` functions anymore. Can only be called by the current owner. NOTE: Renouncing ownership will leave the contract without an owner, thereby removing any functionality that is only available to the owner."
      },
      "supportsInterface(bytes4)": {
        "details": "See {IERC165-supportsInterface}."
      },
      "transferOwnership(address)": {
        "details": "Transfers ownership of the contract to a new account (`newOwner`). Can only be called by the current owner."
      }
    },
    "version": 1
  },
  "userdoc": {
    "kind": "user",
    "methods": {},
    "version": 1
  },
  "storageLayout": {
    "storage": [
      {
        "astId": 7,
        "contract": "contracts/Pixpress.sol:Pixpress",
        "label": "_owner",
        "offset": 0,
        "slot": "0",
        "type": "t_address"
      },
      {
        "astId": 1336,
        "contract": "contracts/Pixpress.sol:Pixpress",
        "label": "_amFeeBase",
        "offset": 0,
        "slot": "1",
        "type": "t_uint256"
      },
      {
        "astId": 1339,
        "contract": "contracts/Pixpress.sol:Pixpress",
        "label": "_amFeeRatio",
        "offset": 0,
        "slot": "2",
        "type": "t_uint256"
      },
      {
        "astId": 1375,
        "contract": "contracts/Pixpress.sol:Pixpress",
        "label": "assets",
        "offset": 0,
        "slot": "3",
        "type": "t_mapping(t_address,t_struct(Asset)1333_storage)"
      },
      {
        "astId": 115,
        "contract": "contracts/Pixpress.sol:Pixpress",
        "label": "_status",
        "offset": 0,
        "slot": "4",
        "type": "t_uint256"
      },
      {
        "astId": 1742,
        "contract": "contracts/Pixpress.sol:Pixpress",
        "label": "_proposeRecordIds",
        "offset": 0,
        "slot": "5",
        "type": "t_struct(Counter)1203_storage"
      },
      {
        "astId": 1747,
        "contract": "contracts/Pixpress.sol:Pixpress",
        "label": "_proposeRecords",
        "offset": 0,
        "slot": "6",
        "type": "t_mapping(t_uint256,t_struct(ProposeRecord)1686_storage)"
      },
      {
        "astId": 1750,
        "contract": "contracts/Pixpress.sol:Pixpress",
        "label": "_matchRecordIds",
        "offset": 0,
        "slot": "7",
        "type": "t_struct(Counter)1203_storage"
      },
      {
        "astId": 1755,
        "contract": "contracts/Pixpress.sol:Pixpress",
        "label": "_matchRecords",
        "offset": 0,
        "slot": "8",
        "type": "t_mapping(t_uint256,t_struct(MatchRecord)1705_storage)"
      },
      {
        "astId": 3235,
        "contract": "contracts/Pixpress.sol:Pixpress",
        "label": "_orders",
        "offset": 0,
        "slot": "9",
        "type": "t_mapping(t_uint256,t_struct(PxaOrder)3196_storage)"
      },
      {
        "astId": 3243,
        "contract": "contracts/Pixpress.sol:Pixpress",
        "label": "_orderIds",
        "offset": 0,
        "slot": "10",
        "type": "t_array(t_uint256)dyn_storage"
      },
      {
        "astId": 3245,
        "contract": "contracts/Pixpress.sol:Pixpress",
        "label": "_pxaAddress",
        "offset": 0,
        "slot": "11",
        "type": "t_address"
      },
      {
        "astId": 3247,
        "contract": "contracts/Pixpress.sol:Pixpress",
        "label": "_pxaFeeRatio",
        "offset": 0,
        "slot": "12",
        "type": "t_uint256"
      },
      {
        "astId": 3684,
        "contract": "contracts/Pixpress.sol:Pixpress",
        "label": "_pxtAddress",
        "offset": 0,
        "slot": "13",
        "type": "t_contract(IERC20Metadata)495"
      },
      {
        "astId": 3686,
        "contract": "contracts/Pixpress.sol:Pixpress",
        "label": "poolWindow",
        "offset": 0,
        "slot": "14",
        "type": "t_uint256"
      },
      {
        "astId": 3688,
        "contract": "contracts/Pixpress.sol:Pixpress",
        "label": "poolUpperBoundary",
        "offset": 0,
        "slot": "15",
        "type": "t_uint256"
      },
      {
        "astId": 3690,
        "contract": "contracts/Pixpress.sol:Pixpress",
        "label": "poolLowerBoundary",
        "offset": 0,
        "slot": "16",
        "type": "t_uint256"
      },
      {
        "astId": 2799,
        "contract": "contracts/Pixpress.sol:Pixpress",
        "label": "pxaFeeShareRatio",
        "offset": 0,
        "slot": "17",
        "type": "t_uint256"
      }
    ],
    "types": {
      "t_address": {
        "encoding": "inplace",
        "label": "address",
        "numberOfBytes": "20"
      },
      "t_array(t_address)dyn_storage": {
        "base": "t_address",
        "encoding": "dynamic_array",
        "label": "address[]",
        "numberOfBytes": "32"
      },
      "t_array(t_bool)dyn_storage": {
        "base": "t_bool",
        "encoding": "dynamic_array",
        "label": "bool[]",
        "numberOfBytes": "32"
      },
      "t_array(t_uint256)dyn_storage": {
        "base": "t_uint256",
        "encoding": "dynamic_array",
        "label": "uint256[]",
        "numberOfBytes": "32"
      },
      "t_array(t_uint8)dyn_storage": {
        "base": "t_uint8",
        "encoding": "dynamic_array",
        "label": "uint8[]",
        "numberOfBytes": "32"
      },
      "t_bool": {
        "encoding": "inplace",
        "label": "bool",
        "numberOfBytes": "1"
      },
      "t_contract(IERC20Metadata)495": {
        "encoding": "inplace",
        "label": "contract IERC20Metadata",
        "numberOfBytes": "20"
      },
      "t_mapping(t_address,t_struct(Asset)1333_storage)": {
        "encoding": "mapping",
        "key": "t_address",
        "label": "mapping(address => struct AssetManager.Asset)",
        "numberOfBytes": "32",
        "value": "t_struct(Asset)1333_storage"
      },
      "t_mapping(t_uint256,t_struct(MatchRecord)1705_storage)": {
        "encoding": "mapping",
        "key": "t_uint256",
        "label": "mapping(uint256 => struct AssetSwapper.MatchRecord)",
        "numberOfBytes": "32",
        "value": "t_struct(MatchRecord)1705_storage"
      },
      "t_mapping(t_uint256,t_struct(ProposeRecord)1686_storage)": {
        "encoding": "mapping",
        "key": "t_uint256",
        "label": "mapping(uint256 => struct AssetSwapper.ProposeRecord)",
        "numberOfBytes": "32",
        "value": "t_struct(ProposeRecord)1686_storage"
      },
      "t_mapping(t_uint256,t_struct(PxaOrder)3196_storage)": {
        "encoding": "mapping",
        "key": "t_uint256",
        "label": "mapping(uint256 => struct PxaMarket.PxaOrder)",
        "numberOfBytes": "32",
        "value": "t_struct(PxaOrder)3196_storage"
      },
      "t_string_storage": {
        "encoding": "bytes",
        "label": "string",
        "numberOfBytes": "32"
      },
      "t_struct(Asset)1333_storage": {
        "encoding": "inplace",
        "label": "struct AssetManager.Asset",
        "members": [
          {
            "astId": 1326,
            "contract": "contracts/Pixpress.sol:Pixpress",
            "label": "tokenAddress",
            "offset": 0,
            "slot": "0",
            "type": "t_address"
          },
          {
            "astId": 1328,
            "contract": "contracts/Pixpress.sol:Pixpress",
            "label": "protocol",
            "offset": 20,
            "slot": "0",
            "type": "t_uint8"
          },
          {
            "astId": 1330,
            "contract": "contracts/Pixpress.sol:Pixpress",
            "label": "feeBase",
            "offset": 0,
            "slot": "1",
            "type": "t_uint256"
          },
          {
            "astId": 1332,
            "contract": "contracts/Pixpress.sol:Pixpress",
            "label": "feeRatio",
            "offset": 0,
            "slot": "2",
            "type": "t_uint256"
          }
        ],
        "numberOfBytes": "96"
      },
      "t_struct(Counter)1203_storage": {
        "encoding": "inplace",
        "label": "struct Counters.Counter",
        "members": [
          {
            "astId": 1202,
            "contract": "contracts/Pixpress.sol:Pixpress",
            "label": "_value",
            "offset": 0,
            "slot": "0",
            "type": "t_uint256"
          }
        ],
        "numberOfBytes": "32"
      },
      "t_struct(MatchRecord)1705_storage": {
        "encoding": "inplace",
        "label": "struct AssetSwapper.MatchRecord",
        "members": [
          {
            "astId": 1688,
            "contract": "contracts/Pixpress.sol:Pixpress",
            "label": "proposeId",
            "offset": 0,
            "slot": "0",
            "type": "t_uint256"
          },
          {
            "astId": 1690,
            "contract": "contracts/Pixpress.sol:Pixpress",
            "label": "matcher",
            "offset": 0,
            "slot": "1",
            "type": "t_address"
          },
          {
            "astId": 1693,
            "contract": "contracts/Pixpress.sol:Pixpress",
            "label": "tokenAddresses",
            "offset": 0,
            "slot": "2",
            "type": "t_array(t_address)dyn_storage"
          },
          {
            "astId": 1696,
            "contract": "contracts/Pixpress.sol:Pixpress",
            "label": "amounts",
            "offset": 0,
            "slot": "3",
            "type": "t_array(t_uint256)dyn_storage"
          },
          {
            "astId": 1699,
            "contract": "contracts/Pixpress.sol:Pixpress",
            "label": "ids",
            "offset": 0,
            "slot": "4",
            "type": "t_array(t_uint256)dyn_storage"
          },
          {
            "astId": 1702,
            "contract": "contracts/Pixpress.sol:Pixpress",
            "label": "protocols",
            "offset": 0,
            "slot": "5",
            "type": "t_array(t_uint8)dyn_storage"
          },
          {
            "astId": 1704,
            "contract": "contracts/Pixpress.sol:Pixpress",
            "label": "index",
            "offset": 0,
            "slot": "6",
            "type": "t_uint256"
          }
        ],
        "numberOfBytes": "224"
      },
      "t_struct(ProposeRecord)1686_storage": {
        "encoding": "inplace",
        "label": "struct AssetSwapper.ProposeRecord",
        "members": [
          {
            "astId": 1663,
            "contract": "contracts/Pixpress.sol:Pixpress",
            "label": "proposer",
            "offset": 0,
            "slot": "0",
            "type": "t_address"
          },
          {
            "astId": 1665,
            "contract": "contracts/Pixpress.sol:Pixpress",
            "label": "receiver",
            "offset": 0,
            "slot": "1",
            "type": "t_address"
          },
          {
            "astId": 1667,
            "contract": "contracts/Pixpress.sol:Pixpress",
            "label": "note",
            "offset": 0,
            "slot": "2",
            "type": "t_string_storage"
          },
          {
            "astId": 1670,
            "contract": "contracts/Pixpress.sol:Pixpress",
            "label": "tokenAddresses",
            "offset": 0,
            "slot": "3",
            "type": "t_array(t_address)dyn_storage"
          },
          {
            "astId": 1673,
            "contract": "contracts/Pixpress.sol:Pixpress",
            "label": "amounts",
            "offset": 0,
            "slot": "4",
            "type": "t_array(t_uint256)dyn_storage"
          },
          {
            "astId": 1676,
            "contract": "contracts/Pixpress.sol:Pixpress",
            "label": "ids",
            "offset": 0,
            "slot": "5",
            "type": "t_array(t_uint256)dyn_storage"
          },
          {
            "astId": 1679,
            "contract": "contracts/Pixpress.sol:Pixpress",
            "label": "protocols",
            "offset": 0,
            "slot": "6",
            "type": "t_array(t_uint8)dyn_storage"
          },
          {
            "astId": 1682,
            "contract": "contracts/Pixpress.sol:Pixpress",
            "label": "wanted",
            "offset": 0,
            "slot": "7",
            "type": "t_array(t_bool)dyn_storage"
          },
          {
            "astId": 1685,
            "contract": "contracts/Pixpress.sol:Pixpress",
            "label": "matchRecordIds",
            "offset": 0,
            "slot": "8",
            "type": "t_array(t_uint256)dyn_storage"
          }
        ],
        "numberOfBytes": "288"
      },
      "t_struct(PxaOrder)3196_storage": {
        "encoding": "inplace",
        "label": "struct PxaMarket.PxaOrder",
        "members": [
          {
            "astId": 3187,
            "contract": "contracts/Pixpress.sol:Pixpress",
            "label": "seller",
            "offset": 0,
            "slot": "0",
            "type": "t_address"
          },
          {
            "astId": 3189,
            "contract": "contracts/Pixpress.sol:Pixpress",
            "label": "tokenId",
            "offset": 0,
            "slot": "1",
            "type": "t_uint256"
          },
          {
            "astId": 3191,
            "contract": "contracts/Pixpress.sol:Pixpress",
            "label": "price",
            "offset": 0,
            "slot": "2",
            "type": "t_uint256"
          },
          {
            "astId": 3193,
            "contract": "contracts/Pixpress.sol:Pixpress",
            "label": "revenue",
            "offset": 0,
            "slot": "3",
            "type": "t_uint256"
          },
          {
            "astId": 3195,
            "contract": "contracts/Pixpress.sol:Pixpress",
            "label": "index",
            "offset": 0,
            "slot": "4",
            "type": "t_uint256"
          }
        ],
        "numberOfBytes": "160"
      },
      "t_uint256": {
        "encoding": "inplace",
        "label": "uint256",
        "numberOfBytes": "32"
      },
      "t_uint8": {
        "encoding": "inplace",
        "label": "uint8",
        "numberOfBytes": "1"
      }
    }
  }
}