{
  "address": "0xB7Df929f1F27C53bCBC163107251049C2A9C7aF3",
  "abi": [
    {
      "inputs": [
        {
          "internalType": "address",
          "name": "pxaAddress",
          "type": "address"
        },
        {
          "internalType": "contract IERC20Metadata",
          "name": "pxtAddress",
          "type": "address"
        }
      ],
      "stateMutability": "nonpayable",
      "type": "constructor"
    },
    {
      "anonymous": false,
      "inputs": [
        {
          "indexed": true,
          "internalType": "address",
          "name": "tokenAddress",
          "type": "address"
        },
        {
          "components": [
            {
              "internalType": "address",
              "name": "tokenAddress",
              "type": "address"
            },
            {
              "internalType": "uint8",
              "name": "protocol",
              "type": "uint8"
            },
            {
              "internalType": "uint256",
              "name": "feeBase",
              "type": "uint256"
            },
            {
              "internalType": "uint256",
              "name": "feeRatio",
              "type": "uint256"
            }
          ],
          "indexed": false,
          "internalType": "struct AssetManager.Asset",
          "name": "record",
          "type": "tuple"
        }
      ],
      "name": "AssetCreated",
      "type": "event"
    },
    {
      "anonymous": false,
      "inputs": [
        {
          "indexed": true,
          "internalType": "address",
          "name": "tokenAddress",
          "type": "address"
        },
        {
          "indexed": false,
          "internalType": "uint256",
          "name": "feeBase",
          "type": "uint256"
        }
      ],
      "name": "AssetFeeBaseUpdated",
      "type": "event"
    },
    {
      "anonymous": false,
      "inputs": [
        {
          "indexed": true,
          "internalType": "address",
          "name": "tokenAddress",
          "type": "address"
        },
        {
          "indexed": false,
          "internalType": "uint256",
          "name": "feeRatio",
          "type": "uint256"
        }
      ],
      "name": "AssetFeeRatioUpdated",
      "type": "event"
    },
    {
      "anonymous": false,
      "inputs": [
        {
          "indexed": true,
          "internalType": "address",
          "name": "tokenAddress",
          "type": "address"
        }
      ],
      "name": "AssetRemoved",
      "type": "event"
    },
    {
      "anonymous": false,
      "inputs": [
        {
          "indexed": true,
          "internalType": "uint256",
          "name": "tokenId",
          "type": "uint256"
        },
        {
          "indexed": false,
          "internalType": "uint256",
          "name": "price",
          "type": "uint256"
        },
        {
          "indexed": false,
          "internalType": "uint256",
          "name": "revenue",
          "type": "uint256"
        }
      ],
      "name": "Bought",
      "type": "event"
    },
    {
      "anonymous": false,
      "inputs": [
        {
          "indexed": true,
          "internalType": "uint256",
          "name": "tokenId",
          "type": "uint256"
        },
        {
          "indexed": false,
          "internalType": "uint256",
          "name": "revenue",
          "type": "uint256"
        }
      ],
      "name": "Claimed",
      "type": "event"
    },
    {
      "anonymous": false,
      "inputs": [
        {
          "indexed": false,
          "internalType": "uint256",
          "name": "feeBase",
          "type": "uint256"
        }
      ],
      "name": "DefaultAssetFeeBaseUpdated",
      "type": "event"
    },
    {
      "anonymous": false,
      "inputs": [
        {
          "indexed": false,
          "internalType": "uint256",
          "name": "feeRatio",
          "type": "uint256"
        }
      ],
      "name": "DefaultAssetFeeRatioUpdated",
      "type": "event"
    },
    {
      "anonymous": false,
      "inputs": [
        {
          "indexed": true,
          "internalType": "uint256",
          "name": "id",
          "type": "uint256"
        },
        {
          "components": [
            {
              "internalType": "uint256",
              "name": "proposeId",
              "type": "uint256"
            },
            {
              "internalType": "address",
              "name": "matcher",
              "type": "address"
            },
            {
              "internalType": "address[]",
              "name": "tokenAddresses",
              "type": "address[]"
            },
            {
              "internalType": "uint256[]",
              "name": "amounts",
              "type": "uint256[]"
            },
            {
              "internalType": "uint256[]",
              "name": "ids",
              "type": "uint256[]"
            },
            {
              "internalType": "uint8[]",
              "name": "protocols",
              "type": "uint8[]"
            },
            {
              "internalType": "uint256",
              "name": "index",
              "type": "uint256"
            }
          ],
          "indexed": false,
          "internalType": "struct AssetSwapper.MatchRecord",
          "name": "record",
          "type": "tuple"
        }
      ],
      "name": "Matched",
      "type": "event"
    },
    {
      "anonymous": false,
      "inputs": [
        {
          "indexed": true,
          "internalType": "uint256",
          "name": "id",
          "type": "uint256"
        },
        {
          "components": [
            {
              "internalType": "uint256",
              "name": "proposeId",
              "type": "uint256"
            },
            {
              "internalType": "address",
              "name": "matcher",
              "type": "address"
            },
            {
              "internalType": "address[]",
              "name": "tokenAddresses",
              "type": "address[]"
            },
            {
              "internalType": "uint256[]",
              "name": "amounts",
              "type": "uint256[]"
            },
            {
              "internalType": "uint256[]",
              "name": "ids",
              "type": "uint256[]"
            },
            {
              "internalType": "uint8[]",
              "name": "protocols",
              "type": "uint8[]"
            },
            {
              "internalType": "uint256",
              "name": "index",
              "type": "uint256"
            }
          ],
          "indexed": false,
          "internalType": "struct AssetSwapper.MatchRecord",
          "name": "record",
          "type": "tuple"
        }
      ],
      "name": "MatcherRemoved",
      "type": "event"
    },
    {
      "anonymous": false,
      "inputs": [
        {
          "indexed": true,
          "internalType": "uint256",
          "name": "tokenId",
          "type": "uint256"
        },
        {
          "indexed": false,
          "internalType": "address",
          "name": "seller",
          "type": "address"
        },
        {
          "indexed": false,
          "internalType": "uint256",
          "name": "price",
          "type": "uint256"
        }
      ],
      "name": "OrderCreated",
      "type": "event"
    },
    {
      "anonymous": false,
      "inputs": [
        {
          "indexed": true,
          "internalType": "uint256",
          "name": "tokenId",
          "type": "uint256"
        },
        {
          "indexed": false,
          "internalType": "uint256",
          "name": "revenue",
          "type": "uint256"
        }
      ],
      "name": "OrderRemoved",
      "type": "event"
    },
    {
      "anonymous": false,
      "inputs": [
        {
          "indexed": true,
          "internalType": "address",
          "name": "previousOwner",
          "type": "address"
        },
        {
          "indexed": true,
          "internalType": "address",
          "name": "newOwner",
          "type": "address"
        }
      ],
      "name": "OwnershipTransferred",
      "type": "event"
    },
    {
      "anonymous": false,
      "inputs": [
        {
          "indexed": true,
          "internalType": "uint256",
          "name": "id",
          "type": "uint256"
        },
        {
          "components": [
            {
              "internalType": "address",
              "name": "proposer",
              "type": "address"
            },
            {
              "internalType": "address",
              "name": "receiver",
              "type": "address"
            },
            {
              "internalType": "string",
              "name": "note",
              "type": "string"
            },
            {
              "internalType": "address[]",
              "name": "tokenAddresses",
              "type": "address[]"
            },
            {
              "internalType": "uint256[]",
              "name": "amounts",
              "type": "uint256[]"
            },
            {
              "internalType": "uint256[]",
              "name": "ids",
              "type": "uint256[]"
            },
            {
              "internalType": "uint8[]",
              "name": "protocols",
              "type": "uint8[]"
            },
            {
              "internalType": "bool[]",
              "name": "wanted",
              "type": "bool[]"
            },
            {
              "internalType": "uint256[]",
              "name": "matchRecordIds",
              "type": "uint256[]"
            }
          ],
          "indexed": false,
          "internalType": "struct AssetSwapper.ProposeRecord",
          "name": "record",
          "type": "tuple"
        }
      ],
      "name": "ProposalRemoved",
      "type": "event"
    },
    {
      "anonymous": false,
      "inputs": [
        {
          "indexed": true,
          "internalType": "uint256",
          "name": "id",
          "type": "uint256"
        },
        {
          "components": [
            {
              "internalType": "address",
              "name": "proposer",
              "type": "address"
            },
            {
              "internalType": "address",
              "name": "receiver",
              "type": "address"
            },
            {
              "internalType": "string",
              "name": "note",
              "type": "string"
            },
            {
              "internalType": "address[]",
              "name": "tokenAddresses",
              "type": "address[]"
            },
            {
              "internalType": "uint256[]",
              "name": "amounts",
              "type": "uint256[]"
            },
            {
              "internalType": "uint256[]",
              "name": "ids",
              "type": "uint256[]"
            },
            {
              "internalType": "uint8[]",
              "name": "protocols",
              "type": "uint8[]"
            },
            {
              "internalType": "bool[]",
              "name": "wanted",
              "type": "bool[]"
            },
            {
              "internalType": "uint256[]",
              "name": "matchRecordIds",
              "type": "uint256[]"
            }
          ],
          "indexed": false,
          "internalType": "struct AssetSwapper.ProposeRecord",
          "name": "record",
          "type": "tuple"
        }
      ],
      "name": "Proposed",
      "type": "event"
    },
    {
      "anonymous": false,
      "inputs": [
        {
          "indexed": true,
          "internalType": "uint256",
          "name": "tokenId",
          "type": "uint256"
        },
        {
          "indexed": false,
          "internalType": "uint256",
          "name": "revenue",
          "type": "uint256"
        }
      ],
      "name": "RevenueIncreased",
      "type": "event"
    },
    {
      "anonymous": false,
      "inputs": [
        {
          "indexed": true,
          "internalType": "uint256",
          "name": "proposeId",
          "type": "uint256"
        },
        {
          "indexed": true,
          "internalType": "uint256",
          "name": "matchId",
          "type": "uint256"
        }
      ],
      "name": "Swapped",
      "type": "event"
    },
    {
      "inputs": [],
      "name": "AM_RATE_BASE",
      "outputs": [
        {
          "internalType": "uint256",
          "name": "",
          "type": "uint256"
        }
      ],
      "stateMutability": "view",
      "type": "function"
    },
    {
      "inputs": [],
      "name": "PROTOCOL_ERC1155",
      "outputs": [
        {
          "internalType": "uint8",
          "name": "",
          "type": "uint8"
        }
      ],
      "stateMutability": "view",
      "type": "function"
    },
    {
      "inputs": [],
      "name": "PROTOCOL_ERC20",
      "outputs": [
        {
          "internalType": "uint8",
          "name": "",
          "type": "uint8"
        }
      ],
      "stateMutability": "view",
      "type": "function"
    },
    {
      "inputs": [],
      "name": "PROTOCOL_ERC721",
      "outputs": [
        {
          "internalType": "uint8",
          "name": "",
          "type": "uint8"
        }
      ],
      "stateMutability": "view",
      "type": "function"
    },
    {
      "inputs": [],
      "name": "PXA_RATE_BASE",
      "outputs": [
        {
          "internalType": "uint256",
          "name": "",
          "type": "uint256"
        }
      ],
      "stateMutability": "view",
      "type": "function"
    },
    {
      "inputs": [
        {
          "internalType": "uint256",
          "name": "proposeId",
          "type": "uint256"
        },
        {
          "internalType": "uint256",
          "name": "matchId",
          "type": "uint256"
        }
      ],
      "name": "acceptSwap",
      "outputs": [],
      "stateMutability": "nonpayable",
      "type": "function"
    },
    {
      "inputs": [],
      "name": "amFeeBase",
      "outputs": [
        {
          "internalType": "uint256",
          "name": "",
          "type": "uint256"
        }
      ],
      "stateMutability": "view",
      "type": "function"
    },
    {
      "inputs": [],
      "name": "amFeeRatio",
      "outputs": [
        {
          "internalType": "uint256",
          "name": "",
          "type": "uint256"
        }
      ],
      "stateMutability": "view",
      "type": "function"
    },
    {
      "inputs": [
        {
          "internalType": "address",
          "name": "tokenAddress",
          "type": "address"
        }
      ],
      "name": "asset",
      "outputs": [
        {
          "components": [
            {
              "internalType": "address",
              "name": "tokenAddress",
              "type": "address"
            },
            {
              "internalType": "uint8",
              "name": "protocol",
              "type": "uint8"
            },
            {
              "internalType": "uint256",
              "name": "feeBase",
              "type": "uint256"
            },
            {
              "internalType": "uint256",
              "name": "feeRatio",
              "type": "uint256"
            }
          ],
          "internalType": "struct AssetManager.Asset",
          "name": "record",
          "type": "tuple"
        }
      ],
      "stateMutability": "view",
      "type": "function"
    },
    {
      "inputs": [
        {
          "internalType": "address",
          "name": "",
          "type": "address"
        }
      ],
      "name": "assets",
      "outputs": [
        {
          "internalType": "address",
          "name": "tokenAddress",
          "type": "address"
        },
        {
          "internalType": "uint8",
          "name": "protocol",
          "type": "uint8"
        },
        {
          "internalType": "uint256",
          "name": "feeBase",
          "type": "uint256"
        },
        {
          "internalType": "uint256",
          "name": "feeRatio",
          "type": "uint256"
        }
      ],
      "stateMutability": "view",
      "type": "function"
    },
    {
      "inputs": [],
      "name": "balance",
      "outputs": [
        {
          "internalType": "uint256",
          "name": "",
          "type": "uint256"
        }
      ],
      "stateMutability": "view",
      "type": "function"
    },
    {
      "inputs": [
        {
          "internalType": "uint256",
          "name": "tokenId",
          "type": "uint256"
        }
      ],
      "name": "buy",
      "outputs": [],
      "stateMutability": "payable",
      "type": "function"
    },
    {
      "inputs": [
        {
          "internalType": "address[]",
          "name": "tokenAddreses",
          "type": "address[]"
        },
        {
          "internalType": "uint256[]",
          "name": "amounts",
          "type": "uint256[]"
        },
        {
          "internalType": "bool[]",
          "name": "wanted",
          "type": "bool[]"
        }
      ],
      "name": "calcSwapFee",
      "outputs": [
        {
          "internalType": "uint256",
          "name": "",
          "type": "uint256"
        }
      ],
      "stateMutability": "view",
      "type": "function"
    },
    {
      "inputs": [
        {
          "internalType": "uint256",
          "name": "tokenId",
          "type": "uint256"
        }
      ],
      "name": "cancelOrder",
      "outputs": [],
      "stateMutability": "payable",
      "type": "function"
    },
    {
      "inputs": [
        {
          "internalType": "uint256",
          "name": "tokenId",
          "type": "uint256"
        }
      ],
      "name": "claim",
      "outputs": [],
      "stateMutability": "payable",
      "type": "function"
    },
    {
      "inputs": [
        {
          "internalType": "address",
          "name": "tokenAddress",
          "type": "address"
        },
        {
          "internalType": "uint8",
          "name": "protocol",
          "type": "uint8"
        },
        {
          "internalType": "uint256",
          "name": "base",
          "type": "uint256"
        },
        {
          "internalType": "uint256",
          "name": "ratio",
          "type": "uint256"
        }
      ],
      "name": "createAsset",
      "outputs": [],
      "stateMutability": "nonpayable",
      "type": "function"
    },
    {
      "inputs": [
        {
          "internalType": "uint256",
          "name": "tokenId",
          "type": "uint256"
        },
        {
          "internalType": "uint256",
          "name": "price",
          "type": "uint256"
        }
      ],
      "name": "createOrder",
      "outputs": [],
      "stateMutability": "nonpayable",
      "type": "function"
    },
    {
      "inputs": [
        {
          "internalType": "uint256",
          "name": "id",
          "type": "uint256"
        }
      ],
      "name": "matchRecord",
      "outputs": [
        {
          "components": [
            {
              "internalType": "uint256",
              "name": "proposeId",
              "type": "uint256"
            },
            {
              "internalType": "address",
              "name": "matcher",
              "type": "address"
            },
            {
              "internalType": "address[]",
              "name": "tokenAddresses",
              "type": "address[]"
            },
            {
              "internalType": "uint256[]",
              "name": "amounts",
              "type": "uint256[]"
            },
            {
              "internalType": "uint256[]",
              "name": "ids",
              "type": "uint256[]"
            },
            {
              "internalType": "uint8[]",
              "name": "protocols",
              "type": "uint8[]"
            },
            {
              "internalType": "uint256",
              "name": "index",
              "type": "uint256"
            }
          ],
          "internalType": "struct AssetSwapper.MatchRecord",
          "name": "record",
          "type": "tuple"
        }
      ],
      "stateMutability": "view",
      "type": "function"
    },
    {
      "inputs": [
        {
          "internalType": "uint256",
          "name": "proposeId",
          "type": "uint256"
        },
        {
          "internalType": "address[]",
          "name": "tokenAddresses",
          "type": "address[]"
        },
        {
          "internalType": "uint256[]",
          "name": "amounts",
          "type": "uint256[]"
        },
        {
          "internalType": "uint256[]",
          "name": "ids",
          "type": "uint256[]"
        },
        {
          "internalType": "uint8[]",
          "name": "protocols",
          "type": "uint8[]"
        }
      ],
      "name": "matchSwap",
      "outputs": [],
      "stateMutability": "payable",
      "type": "function"
    },
    {
      "inputs": [
        {
          "internalType": "uint256",
          "name": "proposeId",
          "type": "uint256"
        },
        {
          "internalType": "address[]",
          "name": "tokenAddresses",
          "type": "address[]"
        },
        {
          "internalType": "uint256[]",
          "name": "amounts",
          "type": "uint256[]"
        },
        {
          "internalType": "uint256[]",
          "name": "ids",
          "type": "uint256[]"
        },
        {
          "internalType": "uint8[]",
          "name": "protocols",
          "type": "uint8[]"
        }
      ],
      "name": "matchSwapWithPxt",
      "outputs": [],
      "stateMutability": "payable",
      "type": "function"
    },
    {
      "inputs": [
        {
          "internalType": "address",
          "name": "",
          "type": "address"
        },
        {
          "internalType": "address",
          "name": "",
          "type": "address"
        },
        {
          "internalType": "uint256[]",
          "name": "",
          "type": "uint256[]"
        },
        {
          "internalType": "uint256[]",
          "name": "",
          "type": "uint256[]"
        },
        {
          "internalType": "bytes",
          "name": "",
          "type": "bytes"
        }
      ],
      "name": "onERC1155BatchReceived",
      "outputs": [
        {
          "internalType": "bytes4",
          "name": "",
          "type": "bytes4"
        }
      ],
      "stateMutability": "nonpayable",
      "type": "function"
    },
    {
      "inputs": [
        {
          "internalType": "address",
          "name": "",
          "type": "address"
        },
        {
          "internalType": "address",
          "name": "",
          "type": "address"
        },
        {
          "internalType": "uint256",
          "name": "",
          "type": "uint256"
        },
        {
          "internalType": "uint256",
          "name": "",
          "type": "uint256"
        },
        {
          "internalType": "bytes",
          "name": "",
          "type": "bytes"
        }
      ],
      "name": "onERC1155Received",
      "outputs": [
        {
          "internalType": "bytes4",
          "name": "",
          "type": "bytes4"
        }
      ],
      "stateMutability": "nonpayable",
      "type": "function"
    },
    {
      "inputs": [
        {
          "internalType": "address",
          "name": "",
          "type": "address"
        },
        {
          "internalType": "address",
          "name": "",
          "type": "address"
        },
        {
          "internalType": "uint256",
          "name": "",
          "type": "uint256"
        },
        {
          "internalType": "bytes",
          "name": "",
          "type": "bytes"
        }
      ],
      "name": "onERC721Received",
      "outputs": [
        {
          "internalType": "bytes4",
          "name": "",
          "type": "bytes4"
        }
      ],
      "stateMutability": "nonpayable",
      "type": "function"
    },
    {
      "inputs": [],
      "name": "owner",
      "outputs": [
        {
          "internalType": "address",
          "name": "",
          "type": "address"
        }
      ],
      "stateMutability": "view",
      "type": "function"
    },
    {
      "inputs": [
        {
          "internalType": "uint256",
          "name": "value",
          "type": "uint256"
        }
      ],
      "name": "ownerDeposit",
      "outputs": [],
      "stateMutability": "nonpayable",
      "type": "function"
    },
    {
      "inputs": [
        {
          "internalType": "uint256",
          "name": "value",
          "type": "uint256"
        }
      ],
      "name": "ownerWithdraw",
      "outputs": [],
      "stateMutability": "nonpayable",
      "type": "function"
    },
    {
      "inputs": [],
      "name": "perDeposit",
      "outputs": [
        {
          "internalType": "uint256",
          "name": "",
          "type": "uint256"
        }
      ],
      "stateMutability": "view",
      "type": "function"
    },
    {
      "inputs": [],
      "name": "perWithdraw",
      "outputs": [
        {
          "internalType": "uint256",
          "name": "",
          "type": "uint256"
        }
      ],
      "stateMutability": "view",
      "type": "function"
    },
    {
      "inputs": [],
      "name": "poolLowerBoundary",
      "outputs": [
        {
          "internalType": "uint256",
          "name": "",
          "type": "uint256"
        }
      ],
      "stateMutability": "view",
      "type": "function"
    },
    {
      "inputs": [],
      "name": "poolUpperBoundary",
      "outputs": [
        {
          "internalType": "uint256",
          "name": "",
          "type": "uint256"
        }
      ],
      "stateMutability": "view",
      "type": "function"
    },
    {
      "inputs": [],
      "name": "poolWindow",
      "outputs": [
        {
          "internalType": "uint256",
          "name": "",
          "type": "uint256"
        }
      ],
      "stateMutability": "view",
      "type": "function"
    },
    {
      "inputs": [
        {
          "internalType": "uint256",
          "name": "id",
          "type": "uint256"
        }
      ],
      "name": "proposeRecord",
      "outputs": [
        {
          "components": [
            {
              "internalType": "address",
              "name": "proposer",
              "type": "address"
            },
            {
              "internalType": "address",
              "name": "receiver",
              "type": "address"
            },
            {
              "internalType": "string",
              "name": "note",
              "type": "string"
            },
            {
              "internalType": "address[]",
              "name": "tokenAddresses",
              "type": "address[]"
            },
            {
              "internalType": "uint256[]",
              "name": "amounts",
              "type": "uint256[]"
            },
            {
              "internalType": "uint256[]",
              "name": "ids",
              "type": "uint256[]"
            },
            {
              "internalType": "uint8[]",
              "name": "protocols",
              "type": "uint8[]"
            },
            {
              "internalType": "bool[]",
              "name": "wanted",
              "type": "bool[]"
            },
            {
              "internalType": "uint256[]",
              "name": "matchRecordIds",
              "type": "uint256[]"
            }
          ],
          "internalType": "struct AssetSwapper.ProposeRecord",
          "name": "record",
          "type": "tuple"
        }
      ],
      "stateMutability": "view",
      "type": "function"
    },
    {
      "inputs": [
        {
          "internalType": "address",
          "name": "receiver",
          "type": "address"
        },
        {
          "internalType": "string",
          "name": "note",
          "type": "string"
        },
        {
          "internalType": "address[]",
          "name": "tokenAddresses",
          "type": "address[]"
        },
        {
          "internalType": "uint256[]",
          "name": "amounts",
          "type": "uint256[]"
        },
        {
          "internalType": "uint256[]",
          "name": "ids",
          "type": "uint256[]"
        },
        {
          "internalType": "uint8[]",
          "name": "protocols",
          "type": "uint8[]"
        },
        {
          "internalType": "bool[]",
          "name": "wanted",
          "type": "bool[]"
        }
      ],
      "name": "proposeSwap",
      "outputs": [],
      "stateMutability": "payable",
      "type": "function"
    },
    {
      "inputs": [
        {
          "internalType": "address",
          "name": "receiver",
          "type": "address"
        },
        {
          "internalType": "string",
          "name": "note",
          "type": "string"
        },
        {
          "internalType": "address[]",
          "name": "tokenAddresses",
          "type": "address[]"
        },
        {
          "internalType": "uint256[]",
          "name": "amounts",
          "type": "uint256[]"
        },
        {
          "internalType": "uint256[]",
          "name": "ids",
          "type": "uint256[]"
        },
        {
          "internalType": "uint8[]",
          "name": "protocols",
          "type": "uint8[]"
        },
        {
          "internalType": "bool[]",
          "name": "wanted",
          "type": "bool[]"
        }
      ],
      "name": "proposeSwapWithPxt",
      "outputs": [],
      "stateMutability": "payable",
      "type": "function"
    },
    {
      "inputs": [],
      "name": "pxaFeeRatio",
      "outputs": [
        {
          "internalType": "uint256",
          "name": "",
          "type": "uint256"
        }
      ],
      "stateMutability": "view",
      "type": "function"
    },
    {
      "inputs": [],
      "name": "pxaFeeShareRatio",
      "outputs": [
        {
          "internalType": "uint256",
          "name": "",
          "type": "uint256"
        }
      ],
      "stateMutability": "view",
      "type": "function"
    },
    {
      "inputs": [
        {
          "internalType": "uint256",
          "name": "tokenId",
          "type": "uint256"
        }
      ],
      "name": "pxaOrder",
      "outputs": [
        {
          "components": [
            {
              "internalType": "address",
              "name": "seller",
              "type": "address"
            },
            {
              "internalType": "uint256",
              "name": "tokenId",
              "type": "uint256"
            },
            {
              "internalType": "uint256",
              "name": "price",
              "type": "uint256"
            },
            {
              "internalType": "uint256",
              "name": "revenue",
              "type": "uint256"
            },
            {
              "internalType": "uint256",
              "name": "index",
              "type": "uint256"
            }
          ],
          "internalType": "struct PxaMarket.PxaOrder",
          "name": "order",
          "type": "tuple"
        }
      ],
      "stateMutability": "view",
      "type": "function"
    },
    {
      "inputs": [
        {
          "internalType": "address",
          "name": "tokenAddress",
          "type": "address"
        }
      ],
      "name": "removeAsset",
      "outputs": [],
      "stateMutability": "nonpayable",
      "type": "function"
    },
    {
      "inputs": [
        {
          "internalType": "uint256",
          "name": "matchId",
          "type": "uint256"
        }
      ],
      "name": "removeMatchRecord",
      "outputs": [],
      "stateMutability": "nonpayable",
      "type": "function"
    },
    {
      "inputs": [
        {
          "internalType": "uint256",
          "name": "proposeId",
          "type": "uint256"
        }
      ],
      "name": "removeProposeRecord",
      "outputs": [],
      "stateMutability": "nonpayable",
      "type": "function"
    },
    {
      "inputs": [],
      "name": "renounceOwnership",
      "outputs": [],
      "stateMutability": "nonpayable",
      "type": "function"
    },
    {
      "inputs": [
        {
          "internalType": "uint256",
          "name": "value",
          "type": "uint256"
        }
      ],
      "name": "setAmFeeBase",
      "outputs": [],
      "stateMutability": "nonpayable",
      "type": "function"
    },
    {
      "inputs": [
        {
          "internalType": "uint256",
          "name": "value",
          "type": "uint256"
        }
      ],
      "name": "setAmFeeRatio",
      "outputs": [],
      "stateMutability": "nonpayable",
      "type": "function"
    },
    {
      "inputs": [
        {
          "internalType": "address",
          "name": "tokenAddress",
          "type": "address"
        },
        {
          "internalType": "uint256",
          "name": "base",
          "type": "uint256"
        }
      ],
      "name": "setAssetFeeBase",
      "outputs": [],
      "stateMutability": "nonpayable",
      "type": "function"
    },
    {
      "inputs": [
        {
          "internalType": "address",
          "name": "tokenAddress",
          "type": "address"
        },
        {
          "internalType": "uint256",
          "name": "ratio",
          "type": "uint256"
        }
      ],
      "name": "setAssetFeeRatio",
      "outputs": [],
      "stateMutability": "nonpayable",
      "type": "function"
    },
    {
      "inputs": [
        {
          "internalType": "uint256",
          "name": "value",
          "type": "uint256"
        }
      ],
      "name": "setPxaFeeRatio",
      "outputs": [],
      "stateMutability": "nonpayable",
      "type": "function"
    },
    {
      "inputs": [
        {
          "internalType": "address",
          "name": "pxaAddress",
          "type": "address"
        }
      ],
      "name": "setTokenAddress",
      "outputs": [],
      "stateMutability": "nonpayable",
      "type": "function"
    },
    {
      "inputs": [
        {
          "internalType": "bytes4",
          "name": "interfaceId",
          "type": "bytes4"
        }
      ],
      "name": "supportsInterface",
      "outputs": [
        {
          "internalType": "bool",
          "name": "",
          "type": "bool"
        }
      ],
      "stateMutability": "view",
      "type": "function"
    },
    {
      "inputs": [
        {
          "internalType": "address",
          "name": "newOwner",
          "type": "address"
        }
      ],
      "name": "transferOwnership",
      "outputs": [],
      "stateMutability": "nonpayable",
      "type": "function"
    }
  ],
  "transactionHash": "0xfe860f404c6b7db463170336dbbfd55770ca334c7f69589c17df6640c9367463",
  "args": [
    "0x082C09c950d002a6020d68BA8e20a13802B0B20d",
    "0xd5E3bD9e68578F711407579991E01853Aa0d0B86"
  ],
  "numDeployments": 6,
  "solcInputHash": "2d26ccaee6f2555e8ed99ab53bfdd40f",
  "bytecode": "0x6080604052678ac7230489e80000600155612710600255600067ffffffffffffffff811115620000345762000033620002b9565b5b604051908082528060200260200182016040528015620000635781602001602082028036833780820191505090505b50600a90805190602001906200007b92919062000248565b5061c3506011553480156200008f57600080fd5b506040516200b0bc3803806200b0bc8339818101604052810190620000b5919062000397565b8082620000d7620000cb6200017c60201b60201c565b6200018460201b60201c565b600160048190555080600b60006101000a81548173ffffffffffffffffffffffffffffffffffffffff021916908373ffffffffffffffffffffffffffffffffffffffff160217905550611388600c819055505080600d60006101000a81548173ffffffffffffffffffffffffffffffffffffffff021916908373ffffffffffffffffffffffffffffffffffffffff160217905550600a600e81905550505050620003de565b600033905090565b60008060009054906101000a900473ffffffffffffffffffffffffffffffffffffffff169050816000806101000a81548173ffffffffffffffffffffffffffffffffffffffff021916908373ffffffffffffffffffffffffffffffffffffffff1602179055508173ffffffffffffffffffffffffffffffffffffffff168173ffffffffffffffffffffffffffffffffffffffff167f8be0079c531659141344cd1fd0a4f28419497f9722a3daafe3b4186f6b6457e060405160405180910390a35050565b82805482825590600052602060002090810192821562000287579160200282015b828111156200028657825182559160200191906001019062000269565b5b5090506200029691906200029a565b5090565b5b80821115620002b55760008160009055506001016200029b565b5090565b7f4e487b7100000000000000000000000000000000000000000000000000000000600052604160045260246000fd5b600080fd5b600073ffffffffffffffffffffffffffffffffffffffff82169050919050565b60006200031a82620002ed565b9050919050565b6200032c816200030d565b81146200033857600080fd5b50565b6000815190506200034c8162000321565b92915050565b60006200035f826200030d565b9050919050565b620003718162000352565b81146200037d57600080fd5b50565b600081519050620003918162000366565b92915050565b60008060408385031215620003b157620003b0620002e8565b5b6000620003c1858286016200033b565b9250506020620003d48582860162000380565b9150509250929050565b61acce80620003ee6000396000f3fe6080604052600436106102ae5760003560e01c80637a5b023111610175578063a9dc8b85116100dc578063d96a094a11610095578063f11b81881161006f578063f11b818814610a39578063f23a6e6114610a79578063f2fde38b14610ab6578063f9ebec6314610adf576102ae565b8063d96a094a146109d6578063e014afaf146109f2578063ef0aa21814610a1d576102ae565b8063a9dc8b85146108ca578063b69ef8a8146108f3578063bc197c811461091e578063c284f02c1461095b578063cd7e227114610984578063d1d5a071146109ad576102ae565b80638da5cb5b1161012e5780638da5cb5b146107c7578063961e975a146107f25780639991d3bf1461081d57806399f95ece146108395780639c4667a214610864578063a7375701146108a1576102ae565b80637a5b0231146106c25780637d098200146106ff578063807f68d21461072a57806381d9a25c1461075557806384777171146107805780638ca11c741461079c576102ae565b8063476394e2116102195780636a579d2a116101d25780636a579d2a146105da5780636bcbd11c146106055780636c149d5814610630578063715018a61461065957806377f2fcbc1461067057806379109baa14610699576102ae565b8063476394e2146104fa5780634a5e42b1146105255780634b7b9ad01461054e578063514fcac714610579578063558675d614610595578063576053d6146105b1576102ae565b8063262597251161026b57806326259725146103d557806326a4e8d2146104125780632aa1c79a1461043b57806333f707d114610478578063379607f5146104a1578063434f7327146104bd576102ae565b806301ffc9a7146102b357806302de00e8146102f0578063141833dc1461031b578063150b7a02146103445780631cfa829514610381578063240d78a1146103aa575b600080fd5b3480156102bf57600080fd5b506102da60048036038101906102d59190615fb1565b610b0a565b6040516102e79190615ff9565b60405180910390f35b3480156102fc57600080fd5b50610305610b84565b6040516103129190616030565b60405180910390f35b34801561032757600080fd5b50610342600480360381019061033d9190616081565b610b89565b005b34801561035057600080fd5b5061036b60048036038101906103669190616252565b610c67565b60405161037891906162e4565b60405180910390f35b34801561038d57600080fd5b506103a860048036038101906103a391906162ff565b610c7b565b005b3480156103b657600080fd5b506103bf610d61565b6040516103cc919061634e565b60405180910390f35b3480156103e157600080fd5b506103fc60048036038101906103f79190616081565b610e3d565b6040516104099190616654565b60405180910390f35b34801561041e57600080fd5b5061043960048036038101906104349190616676565b611090565b005b34801561044757600080fd5b50610462600480360381019061045d919061691d565b611150565b60405161046f919061634e565b60405180910390f35b34801561048457600080fd5b5061049f600480360381019061049a9190616081565b6111ff565b005b6104bb60048036038101906104b69190616081565b61137c565b005b3480156104c957600080fd5b506104e460048036038101906104df9190616081565b611389565b6040516104f19190616a2c565b60405180910390f35b34801561050657600080fd5b5061050f611434565b60405161051c919061634e565b60405180910390f35b34801561053157600080fd5b5061054c60048036038101906105479190616676565b61143b565b005b34801561055a57600080fd5b5061056361158a565b6040516105709190616030565b60405180910390f35b610593600480360381019061058e9190616081565b61158f565b005b6105af60048036038101906105aa9190616b36565b61172e565b005b3480156105bd57600080fd5b506105d860048036038101906105d39190616c21565b61190a565b005b3480156105e657600080fd5b506105ef611b65565b6040516105fc919061634e565b60405180910390f35b34801561061157600080fd5b5061061a611b6f565b604051610627919061634e565b60405180910390f35b34801561063c57600080fd5b5061065760048036038101906106529190616081565b611b75565b005b34801561066557600080fd5b5061066e611cc5565b005b34801561067c57600080fd5b5061069760048036038101906106929190616081565b611d4d565b005b3480156106a557600080fd5b506106c060048036038101906106bb91906162ff565b611ebe565b005b3480156106ce57600080fd5b506106e960048036038101906106e49190616081565b612187565b6040516106f69190616ebd565b60405180910390f35b34801561070b57600080fd5b50610714612584565b604051610721919061634e565b60405180910390f35b34801561073657600080fd5b5061073f61258e565b60405161074c919061634e565b60405180910390f35b34801561076157600080fd5b5061076a612598565b604051610777919061634e565b60405180910390f35b61079a60048036038101906107959190616b36565b612682565b005b3480156107a857600080fd5b506107b1612703565b6040516107be9190616030565b60405180910390f35b3480156107d357600080fd5b506107dc612708565b6040516107e99190616eee565b60405180910390f35b3480156107fe57600080fd5b50610807612731565b604051610814919061634e565b60405180910390f35b61083760048036038101906108329190616faa565b612738565b005b34801561084557600080fd5b5061084e612882565b60405161085b919061634e565b60405180910390f35b34801561087057600080fd5b5061088b60048036038101906108869190616676565b612888565b6040516108989190617149565b60405180910390f35b3480156108ad57600080fd5b506108c860048036038101906108c39190616081565b612968565b005b3480156108d657600080fd5b506108f160048036038101906108ec9190616081565b612a25565b005b3480156108ff57600080fd5b50610908612aab565b604051610915919061634e565b60405180910390f35b34801561092a57600080fd5b5061094560048036038101906109409190617164565b612b4e565b60405161095291906162e4565b60405180910390f35b34801561096757600080fd5b50610982600480360381019061097d9190616081565b612b63565b005b34801561099057600080fd5b506109ab60048036038101906109a69190617233565b612c20565b005b3480156109b957600080fd5b506109d460048036038101906109cf9190617233565b612e07565b005b6109f060048036038101906109eb9190616081565b612fee565b005b3480156109fe57600080fd5b50610a0761323b565b604051610a14919061634e565b60405180910390f35b610a376004803603810190610a329190616faa565b613241565b005b348015610a4557600080fd5b50610a606004803603810190610a5b9190616676565b6132c6565b604051610a709493929190617273565b60405180910390f35b348015610a8557600080fd5b50610aa06004803603810190610a9b91906172b8565b613323565b604051610aad91906162e4565b60405180910390f35b348015610ac257600080fd5b50610add6004803603810190610ad89190616676565b613338565b005b348015610aeb57600080fd5b50610af4613430565b604051610b01919061634e565b60405180910390f35b60007f4e2312e0000000000000000000000000000000000000000000000000000000007bffffffffffffffffffffffffffffffffffffffffffffffffffffffff1916827bffffffffffffffffffffffffffffffffffffffffffffffffffffffff19161480610b7d5750610b7c82613436565b5b9050919050565b600281565b610b916134a0565b73ffffffffffffffffffffffffffffffffffffffff16610baf612708565b73ffffffffffffffffffffffffffffffffffffffff1614610c05576040517f08c379a0000000000000000000000000000000000000000000000000000000008152600401610bfc906173ac565b60405180910390fd5b610c54333083600d60009054906101000a900473ffffffffffffffffffffffffffffffffffffffff1673ffffffffffffffffffffffffffffffffffffffff166134a8909392919063ffffffff16565b610c64610c5f612aab565b613531565b50565b600063150b7a0260e01b9050949350505050565b60026004541415610cc1576040517f08c379a0000000000000000000000000000000000000000000000000000000008152600401610cb890617418565b60405180910390fd5b6002600481905550610cd3828261355c565b6000610cdd610d61565b90506000811115610d4b57610cfe33600283610cf99190617496565b6139d0565b610d4a6008600084815260200190815260200160002060010160009054906101000a900473ffffffffffffffffffffffffffffffffffffffff16600283610d459190617496565b6139d0565b5b610d5483613b0c565b5060016004819055505050565b600080610d6c612aab565b1415610d7b5760009050610e3a565b600d60009054906101000a900473ffffffffffffffffffffffffffffffffffffffff1673ffffffffffffffffffffffffffffffffffffffff1663313ce5676040518163ffffffff1660e01b8152600401602060405180830381865afa158015610de8573d6000803e3d6000fd5b505050506040513d601f19601f82011682018060405250810190610e0c91906174dc565b600a610e18919061763c565b601054610e23612aab565b610e2d9190617496565b610e379190617687565b90505b90565b610e45615a5b565b600860008381526020019081526020016000206040518060e0016040529081600082015481526020016001820160009054906101000a900473ffffffffffffffffffffffffffffffffffffffff1673ffffffffffffffffffffffffffffffffffffffff1673ffffffffffffffffffffffffffffffffffffffff16815260200160028201805480602002602001604051908101604052809291908181526020018280548015610f4857602002820191906000526020600020905b8160009054906101000a900473ffffffffffffffffffffffffffffffffffffffff1673ffffffffffffffffffffffffffffffffffffffff1681526020019060010190808311610efe575b5050505050815260200160038201805480602002602001604051908101604052809291908181526020018280548015610fa057602002820191906000526020600020905b815481526020019060010190808311610f8c575b5050505050815260200160048201805480602002602001604051908101604052809291908181526020018280548015610ff857602002820191906000526020600020905b815481526020019060010190808311610fe4575b505050505081526020016005820180548060200260200160405190810160405280929190818152602001828054801561107657602002820191906000526020600020906000905b82829054906101000a900460ff1660ff168152602001906001019060208260000104928301926001038202915080841161103f5790505b505050505081526020016006820154815250509050919050565b6110986134a0565b73ffffffffffffffffffffffffffffffffffffffff166110b6612708565b73ffffffffffffffffffffffffffffffffffffffff161461110c576040517f08c379a0000000000000000000000000000000000000000000000000000000008152600401611103906173ac565b60405180910390fd5b80600b60006101000a81548173ffffffffffffffffffffffffffffffffffffffff021916908373ffffffffffffffffffffffffffffffffffffffff16021790555050565b6000806000905060005b85518110156111f3576000151584828151811061117a576111796176e1565b5b6020026020010151151514156111e05784818151811061119d5761119c6176e1565b5b60200260200101516111c88783815181106111bb576111ba6176e1565b5b6020026020010151613c4a565b6111d29190617687565b826111dd9190617710565b91505b80806111eb90617766565b91505061115a565b50809150509392505050565b6112076134a0565b73ffffffffffffffffffffffffffffffffffffffff16611225612708565b73ffffffffffffffffffffffffffffffffffffffff161461127b576040517f08c379a0000000000000000000000000000000000000000000000000000000008152600401611272906173ac565b60405180910390fd5b600d60009054906101000a900473ffffffffffffffffffffffffffffffffffffffff1673ffffffffffffffffffffffffffffffffffffffff1663095ea7b333836040518363ffffffff1660e01b81526004016112d89291906177af565b6020604051808303816000875af11580156112f7573d6000803e3d6000fd5b505050506040513d601f19601f8201168201806040525081019061131b91906177ed565b506113693382600d60009054906101000a900473ffffffffffffffffffffffffffffffffffffffff1673ffffffffffffffffffffffffffffffffffffffff16613dad9092919063ffffffff16565b611379611374612aab565b613531565b50565b6113863382613e33565b50565b611391615aae565b600960008381526020019081526020016000206040518060a00160405290816000820160009054906101000a900473ffffffffffffffffffffffffffffffffffffffff1673ffffffffffffffffffffffffffffffffffffffff1673ffffffffffffffffffffffffffffffffffffffff1681526020016001820154815260200160028201548152602001600382015481526020016004820154815250509050919050565b620f424081565b6114436134a0565b73ffffffffffffffffffffffffffffffffffffffff16611461612708565b73ffffffffffffffffffffffffffffffffffffffff16146114b7576040517f08c379a00000000000000000000000000000000000000000000000000000000081526004016114ae906173ac565b60405180910390fd5b600360008273ffffffffffffffffffffffffffffffffffffffff1673ffffffffffffffffffffffffffffffffffffffff168152602001908152602001600020600080820160006101000a81549073ffffffffffffffffffffffffffffffffffffffff02191690556000820160146101000a81549060ff02191690556001820160009055600282016000905550508073ffffffffffffffffffffffffffffffffffffffff167f37803e2125c48ee96c38ddf04e826daf335b0e1603579040fd275aba6d06b6fc60405160405180910390a250565b600181565b6009600082815260200190815260200160002060000160009054906101000a900473ffffffffffffffffffffffffffffffffffffffff1673ffffffffffffffffffffffffffffffffffffffff163373ffffffffffffffffffffffffffffffffffffffff1614611633576040517f08c379a000000000000000000000000000000000000000000000000000000000815260040161162a90617866565b60405180910390fd5b6000600960008381526020019081526020016000206003015490506116583383613e33565b61166182613f41565b600b60009054906101000a900473ffffffffffffffffffffffffffffffffffffffff1673ffffffffffffffffffffffffffffffffffffffff166342842e0e3033856040518463ffffffff1660e01b81526004016116c093929190617886565b600060405180830381600087803b1580156116da57600080fd5b505af11580156116ee573d6000803e3d6000fd5b50505050817fdec16ec0a15607be6e73ed1ca935aa1269ae828874049d254f31b28c102f6dd082604051611722919061634e565b60405180910390a25050565b60026004541415611774576040517f08c379a000000000000000000000000000000000000000000000000000000000815260040161176b90617418565b60405180910390fd5b60026004819055506000845167ffffffffffffffff81111561179957611798616127565b5b6040519080825280602002602001820160405280156117c75781602001602082028036833780820191505090505b50905060005b81518110156118105760008282815181106117eb576117ea6176e1565b5b602002602001019015159081151581525050808061180890617766565b9150506117cd565b50600061181e868684611150565b905080341015611863576040517f08c379a000000000000000000000000000000000000000000000000000000000815260040161185a90617909565b60405180910390fd5b6118708787878787614076565b6000620f4240601154836118849190617687565b61188e9190617496565b905061189981614330565b600081836118a79190617929565b90506118b1612708565b73ffffffffffffffffffffffffffffffffffffffff166108fc829081150290604051600060405180830381858888f193505050501580156118f6573d6000803e3d6000fd5b505050505060016004819055505050505050565b600073ffffffffffffffffffffffffffffffffffffffff16600360008673ffffffffffffffffffffffffffffffffffffffff1673ffffffffffffffffffffffffffffffffffffffff16815260200190815260200160002060000160009054906101000a900473ffffffffffffffffffffffffffffffffffffffff1673ffffffffffffffffffffffffffffffffffffffff16146119db576040517f08c379a00000000000000000000000000000000000000000000000000000000081526004016119d2906179cf565b60405180910390fd5b60405180608001604052808573ffffffffffffffffffffffffffffffffffffffff1681526020018460ff16815260200183815260200182815250600360008673ffffffffffffffffffffffffffffffffffffffff1673ffffffffffffffffffffffffffffffffffffffff16815260200190815260200160002060008201518160000160006101000a81548173ffffffffffffffffffffffffffffffffffffffff021916908373ffffffffffffffffffffffffffffffffffffffff16021790555060208201518160000160146101000a81548160ff021916908360ff16021790555060408201518160010155606082015181600201559050508373ffffffffffffffffffffffffffffffffffffffff167ff2907ab530928e5b90d775441159d3ad184c3d3bf92dbe843026af908d61702d600360008773ffffffffffffffffffffffffffffffffffffffff1673ffffffffffffffffffffffffffffffffffffffff168152602001908152602001600020604051611b579190617b0a565b60405180910390a250505050565b6000600c54905090565b600e5481565b60026004541415611bbb576040517f08c379a0000000000000000000000000000000000000000000000000000000008152600401611bb290617418565b60405180910390fd5b60026004819055506006600082815260200190815260200160002060000160009054906101000a900473ffffffffffffffffffffffffffffffffffffffff1673ffffffffffffffffffffffffffffffffffffffff163373ffffffffffffffffffffffffffffffffffffffff1614611c67576040517f08c379a0000000000000000000000000000000000000000000000000000000008152600401611c5e90617b71565b60405180910390fd5b611c7081613b0c565b807f3d864d2c1b6545daa5b7b4ad188f731b7401c1ad8e7b0aa7714e57fe4a8a02fd60066000848152602001908152602001600020604051611cb29190619795565b60405180910390a2600160048190555050565b611ccd6134a0565b73ffffffffffffffffffffffffffffffffffffffff16611ceb612708565b73ffffffffffffffffffffffffffffffffffffffff1614611d41576040517f08c379a0000000000000000000000000000000000000000000000000000000008152600401611d38906173ac565b60405180910390fd5b611d4b6000614422565b565b60026004541415611d93576040517f08c379a0000000000000000000000000000000000000000000000000000000008152600401611d8a90617418565b60405180910390fd5b60026004819055503373ffffffffffffffffffffffffffffffffffffffff166008600083815260200190815260200160002060010160009054906101000a900473ffffffffffffffffffffffffffffffffffffffff1673ffffffffffffffffffffffffffffffffffffffff1614611e3f576040517f08c379a0000000000000000000000000000000000000000000000000000000008152600401611e3690619803565b60405180910390fd5b6000600860008381526020019081526020016000209050611e5f816144e6565b611e68826145d6565b817f172e414729ca68e725ab11d0dad476faab984e1fb9118f3c0cd0bce9283abbd060086000858152602001908152602001600020604051611eaa91906198f3565b60405180910390a250600160048190555050565b3373ffffffffffffffffffffffffffffffffffffffff16600b60009054906101000a900473ffffffffffffffffffffffffffffffffffffffff1673ffffffffffffffffffffffffffffffffffffffff16636352211e846040518263ffffffff1660e01b8152600401611f30919061634e565b602060405180830381865afa158015611f4d573d6000803e3d6000fd5b505050506040513d601f19601f82011682018060405250810190611f71919061992a565b73ffffffffffffffffffffffffffffffffffffffff1614611fc7576040517f08c379a0000000000000000000000000000000000000000000000000000000008152600401611fbe906199a3565b60405180910390fd5b600b60009054906101000a900473ffffffffffffffffffffffffffffffffffffffff1673ffffffffffffffffffffffffffffffffffffffff166342842e0e3330856040518463ffffffff1660e01b815260040161202693929190617886565b600060405180830381600087803b15801561204057600080fd5b505af1158015612054573d6000803e3d6000fd5b505050506040518060a001604052803373ffffffffffffffffffffffffffffffffffffffff16815260200183815260200182815260200160008152602001600a805490508152506009600084815260200190815260200160002060008201518160000160006101000a81548173ffffffffffffffffffffffffffffffffffffffff021916908373ffffffffffffffffffffffffffffffffffffffff16021790555060208201518160010155604082015181600201556060820151816003015560808201518160040155905050600a829080600181540180825580915050600190039060005260206000200160009091909190915055817f28eb86fd03c9bd96a8a83e4a46ab2ad257b70cea893d98ad6d482e96aa25fad0338360405161217b9291906177af565b60405180910390a25050565b61218f615af3565b60066000838152602001908152602001600020604051806101200160405290816000820160009054906101000a900473ffffffffffffffffffffffffffffffffffffffff1673ffffffffffffffffffffffffffffffffffffffff1673ffffffffffffffffffffffffffffffffffffffff1681526020016001820160009054906101000a900473ffffffffffffffffffffffffffffffffffffffff1673ffffffffffffffffffffffffffffffffffffffff1673ffffffffffffffffffffffffffffffffffffffff16815260200160028201805461226a90617bc0565b80601f016020809104026020016040519081016040528092919081815260200182805461229690617bc0565b80156122e35780601f106122b8576101008083540402835291602001916122e3565b820191906000526020600020905b8154815290600101906020018083116122c657829003601f168201915b505050505081526020016003820180548060200260200160405190810160405280929190818152602001828054801561237157602002820191906000526020600020905b8160009054906101000a900473ffffffffffffffffffffffffffffffffffffffff1673ffffffffffffffffffffffffffffffffffffffff1681526020019060010190808311612327575b50505050508152602001600482018054806020026020016040519081016040528092919081815260200182805480156123c957602002820191906000526020600020905b8154815260200190600101908083116123b5575b505050505081526020016005820180548060200260200160405190810160405280929190818152602001828054801561242157602002820191906000526020600020905b81548152602001906001019080831161240d575b505050505081526020016006820180548060200260200160405190810160405280929190818152602001828054801561249f57602002820191906000526020600020906000905b82829054906101000a900460ff1660ff16815260200190600101906020826000010492830192600103820291508084116124685790505b505050505081526020016007820180548060200260200160405190810160405280929190818152602001828054801561251c57602002820191906000526020600020906000905b82829054906101000a900460ff161515815260200190600101906020826000010492830192600103820291508084116124e65790505b505050505081526020016008820180548060200260200160405190810160405280929190818152602001828054801561257457602002820191906000526020600020905b815481526020019060010190808311612560575b5050505050815250509050919050565b6000600254905090565b6000600154905090565b6000806125a3612aab565b141561266757600d60009054906101000a900473ffffffffffffffffffffffffffffffffffffffff1673ffffffffffffffffffffffffffffffffffffffff1663313ce5676040518163ffffffff1660e01b8152600401602060405180830381865afa158015612616573d6000803e3d6000fd5b505050506040513d601f19601f8201168201806040525081019061263a91906174dc565b600a612646919061763c565b600e54600f546126569190617496565b6126609190617687565b905061267f565b61266f612aab565b600f5461267c9190617496565b90505b90565b600260045414156126c8576040517f08c379a00000000000000000000000000000000000000000000000000000000081526004016126bf90617418565b60405180910390fd5b600260048190555060006126da612598565b90506126e63382614666565b6126f38686868686614076565b5060016004819055505050505050565b600381565b60008060009054906101000a900473ffffffffffffffffffffffffffffffffffffffff16905090565b620f424081565b6002600454141561277e576040517f08c379a000000000000000000000000000000000000000000000000000000000815260040161277590617418565b60405180910390fd5b60026004819055506000612793868684611150565b9050803410156127d8576040517f08c379a00000000000000000000000000000000000000000000000000000000081526004016127cf90617909565b60405180910390fd5b6127e788888888888888614703565b6000620f4240601154836127fb9190617687565b6128059190617496565b905061281081614330565b6000818361281e9190617929565b9050612828612708565b73ffffffffffffffffffffffffffffffffffffffff166108fc829081150290604051600060405180830381858888f1935050505015801561286d573d6000803e3d6000fd5b50505050600160048190555050505050505050565b60115481565b612890615b6b565b600360008373ffffffffffffffffffffffffffffffffffffffff1673ffffffffffffffffffffffffffffffffffffffff1681526020019081526020016000206040518060800160405290816000820160009054906101000a900473ffffffffffffffffffffffffffffffffffffffff1673ffffffffffffffffffffffffffffffffffffffff1673ffffffffffffffffffffffffffffffffffffffff1681526020016000820160149054906101000a900460ff1660ff1660ff168152602001600182015481526020016002820154815250509050919050565b6129706134a0565b73ffffffffffffffffffffffffffffffffffffffff1661298e612708565b73ffffffffffffffffffffffffffffffffffffffff16146129e4576040517f08c379a00000000000000000000000000000000000000000000000000000000081526004016129db906173ac565b60405180910390fd5b806001819055507fa701c734adc954390df39cc273bd151a37445a72782f9e86c98dd19a4740149881604051612a1a919061634e565b60405180910390a150565b612a2d6134a0565b73ffffffffffffffffffffffffffffffffffffffff16612a4b612708565b73ffffffffffffffffffffffffffffffffffffffff1614612aa1576040517f08c379a0000000000000000000000000000000000000000000000000000000008152600401612a98906173ac565b60405180910390fd5b80600c8190555050565b6000600d60009054906101000a900473ffffffffffffffffffffffffffffffffffffffff1673ffffffffffffffffffffffffffffffffffffffff166370a08231306040518263ffffffff1660e01b8152600401612b089190616eee565b602060405180830381865afa158015612b25573d6000803e3d6000fd5b505050506040513d601f19601f82011682018060405250810190612b4991906199d8565b905090565b600063bc197c8160e01b905095945050505050565b612b6b6134a0565b73ffffffffffffffffffffffffffffffffffffffff16612b89612708565b73ffffffffffffffffffffffffffffffffffffffff1614612bdf576040517f08c379a0000000000000000000000000000000000000000000000000000000008152600401612bd6906173ac565b60405180910390fd5b806002819055507fad98c275fe99ef4d6c741df6bdb2851e1efffb9e71a1a68d63992a0cd8c038ed81604051612c15919061634e565b60405180910390a150565b612c286134a0565b73ffffffffffffffffffffffffffffffffffffffff16612c46612708565b73ffffffffffffffffffffffffffffffffffffffff1614612c9c576040517f08c379a0000000000000000000000000000000000000000000000000000000008152600401612c93906173ac565b60405180910390fd5b600073ffffffffffffffffffffffffffffffffffffffff16600360008473ffffffffffffffffffffffffffffffffffffffff1673ffffffffffffffffffffffffffffffffffffffff16815260200190815260200160002060000160009054906101000a900473ffffffffffffffffffffffffffffffffffffffff1673ffffffffffffffffffffffffffffffffffffffff161415612d6e576040517f08c379a0000000000000000000000000000000000000000000000000000000008152600401612d6590619a77565b60405180910390fd5b80600360008473ffffffffffffffffffffffffffffffffffffffff1673ffffffffffffffffffffffffffffffffffffffff168152602001908152602001600020600201819055508173ffffffffffffffffffffffffffffffffffffffff167f55da874da551007bd7fc7a2fb26d9323093416d2402d016c40fa042deb363ab682604051612dfb919061634e565b60405180910390a25050565b612e0f6134a0565b73ffffffffffffffffffffffffffffffffffffffff16612e2d612708565b73ffffffffffffffffffffffffffffffffffffffff1614612e83576040517f08c379a0000000000000000000000000000000000000000000000000000000008152600401612e7a906173ac565b60405180910390fd5b600073ffffffffffffffffffffffffffffffffffffffff16600360008473ffffffffffffffffffffffffffffffffffffffff1673ffffffffffffffffffffffffffffffffffffffff16815260200190815260200160002060000160009054906101000a900473ffffffffffffffffffffffffffffffffffffffff1673ffffffffffffffffffffffffffffffffffffffff161415612f55576040517f08c379a0000000000000000000000000000000000000000000000000000000008152600401612f4c90619a77565b60405180910390fd5b80600360008473ffffffffffffffffffffffffffffffffffffffff1673ffffffffffffffffffffffffffffffffffffffff168152602001908152602001600020600101819055508173ffffffffffffffffffffffffffffffffffffffff167fa7dd36139906f2738e957c249a5b90dc5e1ffeac05e1e86f53d0200343463f7282604051612fe2919061634e565b60405180910390a25050565b6009600082815260200190815260200160002060020154341015613047576040517f08c379a000000000000000000000000000000000000000000000000000000000815260040161303e90619ae3565b60405180910390fd5b6000620f4240600c543461305b9190617687565b6130659190617496565b9050600081346130759190617929565b905061307f612708565b73ffffffffffffffffffffffffffffffffffffffff166108fc839081150290604051600060405180830381858888f193505050501580156130c4573d6000803e3d6000fd5b506009600084815260200190815260200160002060000160009054906101000a900473ffffffffffffffffffffffffffffffffffffffff1673ffffffffffffffffffffffffffffffffffffffff166108fc829081150290604051600060405180830381858888f19350505050158015613141573d6000803e3d6000fd5b5061314c3384613e33565b600b60009054906101000a900473ffffffffffffffffffffffffffffffffffffffff1673ffffffffffffffffffffffffffffffffffffffff166342842e0e3033866040518463ffffffff1660e01b81526004016131ab93929190617886565b600060405180830381600087803b1580156131c557600080fd5b505af11580156131d9573d6000803e3d6000fd5b505050506131e683613f41565b827f871cca9c30ebd3d38d92d08304561880d6466ddb658d2fd88e501a929c497fd934600960008781526020019081526020016000206003015460405161322e929190619b03565b60405180910390a2505050565b600f5481565b60026004541415613287576040517f08c379a000000000000000000000000000000000000000000000000000000000815260040161327e90617418565b60405180910390fd5b60026004819055506000613299612598565b90506132a53382614666565b6132b488888888888888614703565b50600160048190555050505050505050565b60036020528060005260406000206000915090508060000160009054906101000a900473ffffffffffffffffffffffffffffffffffffffff16908060000160149054906101000a900460ff16908060010154908060020154905084565b600063f23a6e6160e01b905095945050505050565b6133406134a0565b73ffffffffffffffffffffffffffffffffffffffff1661335e612708565b73ffffffffffffffffffffffffffffffffffffffff16146133b4576040517f08c379a00000000000000000000000000000000000000000000000000000000081526004016133ab906173ac565b60405180910390fd5b600073ffffffffffffffffffffffffffffffffffffffff168173ffffffffffffffffffffffffffffffffffffffff161415613424576040517f08c379a000000000000000000000000000000000000000000000000000000000815260040161341b90619b9e565b60405180910390fd5b61342d81614422565b50565b60105481565b60007f01ffc9a7000000000000000000000000000000000000000000000000000000007bffffffffffffffffffffffffffffffffffffffffffffffffffffffff1916827bffffffffffffffffffffffffffffffffffffffffffffffffffffffff1916149050919050565b600033905090565b61352b846323b872dd60e01b8585856040516024016134c993929190617886565b604051602081830303815290604052907bffffffffffffffffffffffffffffffffffffffffffffffffffffffff19166020820180517bffffffffffffffffffffffffffffffffffffffffffffffffffffffff8381831617835250505050614aa4565b50505050565b600e548161353f9190617687565b600f81905550600e54816135539190617496565b60108190555050565b600060066000848152602001908152602001600020905060006008600084815260200190815260200160002090503373ffffffffffffffffffffffffffffffffffffffff168260000160009054906101000a900473ffffffffffffffffffffffffffffffffffffffff1673ffffffffffffffffffffffffffffffffffffffff161461361c576040517f08c379a000000000000000000000000000000000000000000000000000000000815260040161361390617b71565b60405180910390fd5b80600001548414613662576040517f08c379a000000000000000000000000000000000000000000000000000000000815260040161365990619c0a565b60405180910390fd5b61366b82614b6b565b6136aa576040517f08c379a00000000000000000000000000000000000000000000000000000000081526004016136a190619c9c565b60405180910390fd5b6136b381614e17565b6136f2576040517f08c379a00000000000000000000000000000000000000000000000000000000081526004016136e990619d2e565b60405180910390fd5b60005b826003018054905081101561386a576001151583600701828154811061371e5761371d6176e1565b5b90600052602060002090602091828204019190069054906101000a900460ff161515141561374b57613857565b6138568360000160009054906101000a900473ffffffffffffffffffffffffffffffffffffffff168360010160009054906101000a900473ffffffffffffffffffffffffffffffffffffffff168560030184815481106137ae576137ad6176e1565b5b9060005260206000200160009054906101000a900473ffffffffffffffffffffffffffffffffffffffff168660040185815481106137ef576137ee6176e1565b5b90600052602060002001548760050186815481106138105761380f6176e1565b5b9060005260206000200154886006018781548110613831576138306176e1565b5b90600052602060002090602091828204019190069054906101000a900460ff1661507c565b5b808061386290617766565b9150506136f5565b5060005b816002018054905081101561399b576139888260010160009054906101000a900473ffffffffffffffffffffffffffffffffffffffff168460000160009054906101000a900473ffffffffffffffffffffffffffffffffffffffff168460020184815481106138e0576138df6176e1565b5b9060005260206000200160009054906101000a900473ffffffffffffffffffffffffffffffffffffffff16856003018581548110613921576139206176e1565b5b9060005260206000200154866004018681548110613942576139416176e1565b5b9060005260206000200154876005018781548110613963576139626176e1565b5b90600052602060002090602091828204019190069054906101000a900460ff1661507c565b808061399390617766565b91505061386e565b5082847f5a6443be634d8594e0dff76c972a6a74f88bf761fb6e334d88dd979516f3bc8f60405160405180910390a350505050565b6139d8610d61565b811115613a1a576040517f08c379a0000000000000000000000000000000000000000000000000000000008152600401613a1190619d9a565b60405180910390fd5b600d60009054906101000a900473ffffffffffffffffffffffffffffffffffffffff1673ffffffffffffffffffffffffffffffffffffffff1663095ea7b383836040518363ffffffff1660e01b8152600401613a779291906177af565b6020604051808303816000875af1158015613a96573d6000803e3d6000fd5b505050506040513d601f19601f82011682018060405250810190613aba91906177ed565b50613b088282600d60009054906101000a900473ffffffffffffffffffffffffffffffffffffffff1673ffffffffffffffffffffffffffffffffffffffff16613dad9092919063ffffffff16565b5050565b600060066000838152602001908152602001600020905060066000838152602001908152602001600020600080820160006101000a81549073ffffffffffffffffffffffffffffffffffffffff02191690556001820160006101000a81549073ffffffffffffffffffffffffffffffffffffffff0219169055600282016000613b959190615bac565b600382016000613ba59190615bec565b600482016000613bb59190615c0d565b600582016000613bc59190615c0d565b600682016000613bd59190615c2e565b600782016000613be59190615c56565b600882016000613bf59190615c0d565b505060005b8160080180549050811015613c4557613c32826008018281548110613c2257613c216176e1565b5b90600052602060002001546145d6565b8080613c3d90617766565b915050613bfa565b505050565b60008073ffffffffffffffffffffffffffffffffffffffff16600360008473ffffffffffffffffffffffffffffffffffffffff1673ffffffffffffffffffffffffffffffffffffffff16815260200190815260200160002060000160009054906101000a900473ffffffffffffffffffffffffffffffffffffffff1673ffffffffffffffffffffffffffffffffffffffff161415613d0757620f4240600254600154613cf69190617687565b613d009190617496565b9050613da8565b620f4240600360008473ffffffffffffffffffffffffffffffffffffffff1673ffffffffffffffffffffffffffffffffffffffff16815260200190815260200160002060020154600360008573ffffffffffffffffffffffffffffffffffffffff1673ffffffffffffffffffffffffffffffffffffffff16815260200190815260200160002060010154613d9b9190617687565b613da59190617496565b90505b919050565b613e2e8363a9059cbb60e01b8484604051602401613dcc9291906177af565b604051602081830303815290604052907bffffffffffffffffffffffffffffffffffffffffffffffffffffffff19166020820180517bffffffffffffffffffffffffffffffffffffffffffffffffffffffff8381831617835250505050614aa4565b505050565b6000600960008381526020019081526020016000206003015490506000811415613e5d5750613f3d565b47811115613ea0576040517f08c379a0000000000000000000000000000000000000000000000000000000008152600401613e9790619e06565b60405180910390fd5b8273ffffffffffffffffffffffffffffffffffffffff166108fc829081150290604051600060405180830381858888f19350505050158015613ee6573d6000803e3d6000fd5b5060006009600084815260200190815260200160002060030181905550817fc83b5086ce94ec8d5a88a9f5fea4b18a522bb238ed0d2d8abd959549a80c16b882604051613f33919061634e565b60405180910390a2505b5050565b60006009600083815260200190815260200160002060040154905060006001600a80549050613f709190617929565b9050600a8181548110613f8657613f856176e1565b5b9060005260206000200154600a8381548110613fa557613fa46176e1565b5b90600052602060002001819055508160096000600a8481548110613fcc57613fcb6176e1565b5b906000526020600020015481526020019081526020016000206004018190555060096000848152602001908152602001600020600080820160006101000a81549073ffffffffffffffffffffffffffffffffffffffff021916905560018201600090556002820160009055600382016000905560048201600090555050600a80548061405b5761405a619e26565b5b60019003818190600052602060002001600090559055505050565b82518451146140ba576040517f08c379a00000000000000000000000000000000000000000000000000000000081526004016140b190619ec7565b60405180910390fd5b81518451146140fe576040517f08c379a00000000000000000000000000000000000000000000000000000000081526004016140f590619f59565b60405180910390fd5b8051845114614142576040517f08c379a000000000000000000000000000000000000000000000000000000000815260040161413990619feb565b60405180910390fd5b61414c600761520a565b60006141586007615220565b90506040518060e001604052808781526020013373ffffffffffffffffffffffffffffffffffffffff1681526020018681526020018581526020018481526020018381526020016006600089815260200190815260200160002060080180549050815250600860008381526020019081526020016000206000820151816000015560208201518160010160006101000a81548173ffffffffffffffffffffffffffffffffffffffff021916908373ffffffffffffffffffffffffffffffffffffffff160217905550604082015181600201908051906020019061423c929190615c7e565b506060820151816003019080519060200190614259929190615d08565b506080820151816004019080519060200190614276929190615d08565b5060a0820151816005019080519060200190614293929190615d55565b5060c0820151816006015590505060066000878152602001908152602001600020600801819080600181540180825580915050600190039060005260206000200160009091909190915055807fd7af2d7ec779fb9958829116ac22b6fbd4eafe2ca69287d52dc56020617a68826008600084815260200190815260200160002060405161432091906198f3565b60405180910390a2505050505050565b6000600a8054905014156143435761441f565b6000600a80549050826143569190617496565b905060005b600a8054905081101561441c578160096000600a8481548110614381576143806176e1565b5b9060005260206000200154815260200190815260200160002060030160008282546143ac9190617710565b92505081905550600a81815481106143c7576143c66176e1565b5b90600052602060002001547fa916eef8b97ca0570d37ecb046f524f745075ea4e82b3067d873334377e9f8b783604051614401919061634e565b60405180910390a2808061441490617766565b91505061435b565b50505b50565b60008060009054906101000a900473ffffffffffffffffffffffffffffffffffffffff169050816000806101000a81548173ffffffffffffffffffffffffffffffffffffffff021916908373ffffffffffffffffffffffffffffffffffffffff1602179055508173ffffffffffffffffffffffffffffffffffffffff168173ffffffffffffffffffffffffffffffffffffffff167f8be0079c531659141344cd1fd0a4f28419497f9722a3daafe3b4186f6b6457e060405160405180910390a35050565b6000600660008360000154815260200190815260200160002090506000600182600801805490506145179190617929565b9050600060086000846008018481548110614535576145346176e1565b5b90600052602060002001548152602001908152602001600020905083600601548160060181905550826008018281548110614573576145726176e1565b5b906000526020600020015483600801856006015481548110614598576145976176e1565b5b9060005260206000200181905550826008018054806145ba576145b9619e26565b5b6001900381819060005260206000200160009055905550505050565b600860008281526020019081526020016000206000808201600090556001820160006101000a81549073ffffffffffffffffffffffffffffffffffffffff02191690556002820160006146299190615bec565b6003820160006146399190615c0d565b6004820160006146499190615c0d565b6005820160006146599190615c2e565b6006820160009055505050565b61466e612598565b8110156146b0576040517f08c379a00000000000000000000000000000000000000000000000000000000081526004016146a79061a057565b60405180910390fd5b6146ff823083600d60009054906101000a900473ffffffffffffffffffffffffffffffffffffffff1673ffffffffffffffffffffffffffffffffffffffff166134a8909392919063ffffffff16565b5050565b8351855114614747576040517f08c379a000000000000000000000000000000000000000000000000000000000815260040161473e9061a0e9565b60405180910390fd5b825185511461478b576040517f08c379a00000000000000000000000000000000000000000000000000000000081526004016147829061a17b565b60405180910390fd5b81518551146147cf576040517f08c379a00000000000000000000000000000000000000000000000000000000081526004016147c69061a20d565b60405180910390fd5b8051855114614813576040517f08c379a000000000000000000000000000000000000000000000000000000000815260040161480a9061a29f565b60405180910390fd5b61481d600561520a565b60006148296005615220565b90506040518061012001604052803373ffffffffffffffffffffffffffffffffffffffff1681526020018973ffffffffffffffffffffffffffffffffffffffff168152602001888152602001878152602001868152602001858152602001848152602001838152602001600067ffffffffffffffff8111156148ae576148ad616127565b5b6040519080825280602002602001820160405280156148dc5781602001602082028036833780820191505090505b508152506006600083815260200190815260200160002060008201518160000160006101000a81548173ffffffffffffffffffffffffffffffffffffffff021916908373ffffffffffffffffffffffffffffffffffffffff16021790555060208201518160010160006101000a81548173ffffffffffffffffffffffffffffffffffffffff021916908373ffffffffffffffffffffffffffffffffffffffff160217905550604082015181600201908051906020019061499d929190615dfc565b5060608201518160030190805190602001906149ba929190615c7e565b5060808201518160040190805190602001906149d7929190615d08565b5060a08201518160050190805190602001906149f4929190615d08565b5060c0820151816006019080519060200190614a11929190615d55565b5060e0820151816007019080519060200190614a2e929190615e82565b50610100820151816008019080519060200190614a4c929190615d08565b50905050807f48e81893487928a99fb309ba6421c1f6fc1d630b8fd46ba2bd6ed6de9929ff7560066000848152602001908152602001600020604051614a929190619795565b60405180910390a25050505050505050565b6000614b06826040518060400160405280602081526020017f5361666545524332303a206c6f772d6c6576656c2063616c6c206661696c65648152508573ffffffffffffffffffffffffffffffffffffffff1661522e9092919063ffffffff16565b9050600081511115614b665780806020019051810190614b2691906177ed565b614b65576040517f08c379a0000000000000000000000000000000000000000000000000000000008152600401614b5c9061a331565b60405180910390fd5b5b505050565b6000808260000160009054906101000a900473ffffffffffffffffffffffffffffffffffffffff1690506000836003019050600084600501905060008560060190506000866004019050600087600701905060005b8580549050811015614e0757818181548110614bdf57614bde6176e1565b5b90600052602060002090602091828204019190069054906101000a900460ff1615614c0957614df4565b614cbf87878381548110614c2057614c1f6176e1565b5b9060005260206000200160009054906101000a900473ffffffffffffffffffffffffffffffffffffffff16878481548110614c5e57614c5d6176e1565b5b9060005260206000200154878581548110614c7c57614c7b6176e1565b5b90600052602060002090602091828204019190069054906101000a900460ff16878681548110614caf57614cae6176e1565b5b9060005260206000200154615246565b614cfe576040517f08c379a0000000000000000000000000000000000000000000000000000000008152600401614cf59061a3c3565b60405180910390fd5b614db487878381548110614d1557614d146176e1565b5b9060005260206000200160009054906101000a900473ffffffffffffffffffffffffffffffffffffffff16878481548110614d5357614d526176e1565b5b9060005260206000200154878581548110614d7157614d706176e1565b5b90600052602060002090602091828204019190069054906101000a900460ff16878681548110614da457614da36176e1565b5b90600052602060002001546155c3565b614df3576040517f08c379a0000000000000000000000000000000000000000000000000000000008152600401614dea9061a455565b60405180910390fd5b5b8080614dff90617766565b915050614bc0565b5060019650505050505050919050565b6000808260010160009054906101000a900473ffffffffffffffffffffffffffffffffffffffff169050600083600201905060008460040190506000856005019050600086600301905060005b848054905081101561506d57614f2686868381548110614e8757614e866176e1565b5b9060005260206000200160009054906101000a900473ffffffffffffffffffffffffffffffffffffffff16868481548110614ec557614ec46176e1565b5b9060005260206000200154868581548110614ee357614ee26176e1565b5b90600052602060002090602091828204019190069054906101000a900460ff16868681548110614f1657614f156176e1565b5b9060005260206000200154615246565b614f65576040517f08c379a0000000000000000000000000000000000000000000000000000000008152600401614f5c9061a4e7565b60405180910390fd5b61501b86868381548110614f7c57614f7b6176e1565b5b9060005260206000200160009054906101000a900473ffffffffffffffffffffffffffffffffffffffff16868481548110614fba57614fb96176e1565b5b9060005260206000200154868581548110614fd857614fd76176e1565b5b90600052602060002090602091828204019190069054906101000a900460ff1686868154811061500b5761500a6176e1565b5b90600052602060002001546155c3565b61505a576040517f08c379a00000000000000000000000000000000000000000000000000000000081526004016150519061a579565b60405180910390fd5b808061506590617766565b915050614e64565b50600195505050505050919050565b600160ff168160ff1614156150bd576150b88686858773ffffffffffffffffffffffffffffffffffffffff166134a8909392919063ffffffff16565b615202565b600260ff168160ff161415615140578373ffffffffffffffffffffffffffffffffffffffff166342842e0e8787856040518463ffffffff1660e01b815260040161510993929190617886565b600060405180830381600087803b15801561512357600080fd5b505af1158015615137573d6000803e3d6000fd5b50505050615201565b600360ff168160ff1614156151c5578373ffffffffffffffffffffffffffffffffffffffff1663f242432a878785876040518563ffffffff1660e01b815260040161518e949392919061a5d0565b600060405180830381600087803b1580156151a857600080fd5b505af11580156151bc573d6000803e3d6000fd5b50505050615200565b6040517f08c379a00000000000000000000000000000000000000000000000000000000081526004016151f79061a69a565b60405180910390fd5b5b5b505050505050565b6001816000016000828254019250508190555050565b600081600001549050919050565b606061523d84846000856158bd565b90509392505050565b6000600160ff168360ff161415615320576000859050828173ffffffffffffffffffffffffffffffffffffffff1663dd62ed3e89306040518363ffffffff1660e01b815260040161529892919061a6ba565b602060405180830381865afa1580156152b5573d6000803e3d6000fd5b505050506040513d601f19601f820116820180604052508101906152d991906199d8565b101561531a576040517f08c379a00000000000000000000000000000000000000000000000000000000081526004016153119061a755565b60405180910390fd5b506155b6565b600260ff168360ff1614156154a45760008590503073ffffffffffffffffffffffffffffffffffffffff168173ffffffffffffffffffffffffffffffffffffffff1663081812fc876040518263ffffffff1660e01b8152600401615384919061634e565b602060405180830381865afa1580156153a1573d6000803e3d6000fd5b505050506040513d601f19601f820116820180604052508101906153c5919061992a565b73ffffffffffffffffffffffffffffffffffffffff16148061545f57508073ffffffffffffffffffffffffffffffffffffffff1663e985e9c588306040518363ffffffff1660e01b815260040161541d92919061a6ba565b602060405180830381865afa15801561543a573d6000803e3d6000fd5b505050506040513d601f19601f8201168201806040525081019061545e91906177ed565b5b61549e576040517f08c379a00000000000000000000000000000000000000000000000000000000081526004016154959061a7e7565b60405180910390fd5b506155b5565b600360ff168360ff1614156155795760008590508073ffffffffffffffffffffffffffffffffffffffff1663e985e9c588306040518363ffffffff1660e01b81526004016154f392919061a6ba565b602060405180830381865afa158015615510573d6000803e3d6000fd5b505050506040513d601f19601f8201168201806040525081019061553491906177ed565b615573576040517f08c379a000000000000000000000000000000000000000000000000000000000815260040161556a9061a879565b60405180910390fd5b506155b4565b6040517f08c379a00000000000000000000000000000000000000000000000000000000081526004016155ab9061a90b565b60405180910390fd5b5b5b6001905095945050505050565b6000600160ff168360ff16141561569b576000859050828173ffffffffffffffffffffffffffffffffffffffff166370a08231896040518263ffffffff1660e01b81526004016156139190616eee565b602060405180830381865afa158015615630573d6000803e3d6000fd5b505050506040513d601f19601f8201168201806040525081019061565491906199d8565b1015615695576040517f08c379a000000000000000000000000000000000000000000000000000000000815260040161568c9061a99d565b60405180910390fd5b506158b0565b600260ff168360ff16141561579c5760008590508673ffffffffffffffffffffffffffffffffffffffff168173ffffffffffffffffffffffffffffffffffffffff16636352211e876040518263ffffffff1660e01b81526004016156ff919061634e565b602060405180830381865afa15801561571c573d6000803e3d6000fd5b505050506040513d601f19601f82011682018060405250810190615740919061992a565b73ffffffffffffffffffffffffffffffffffffffff1614615796576040517f08c379a000000000000000000000000000000000000000000000000000000000815260040161578d9061aa2f565b60405180910390fd5b506158af565b600360ff168360ff161415615873576000859050828173ffffffffffffffffffffffffffffffffffffffff1662fdd58e89886040518363ffffffff1660e01b81526004016157eb9291906177af565b602060405180830381865afa158015615808573d6000803e3d6000fd5b505050506040513d601f19601f8201168201806040525081019061582c91906199d8565b101561586d576040517f08c379a00000000000000000000000000000000000000000000000000000000081526004016158649061aac1565b60405180910390fd5b506158ae565b6040517f08c379a00000000000000000000000000000000000000000000000000000000081526004016158a59061a90b565b60405180910390fd5b5b5b6001905095945050505050565b606082471015615902576040517f08c379a00000000000000000000000000000000000000000000000000000000081526004016158f99061ab53565b60405180910390fd5b61590b856159d1565b61594a576040517f08c379a00000000000000000000000000000000000000000000000000000000081526004016159419061abbf565b60405180910390fd5b6000808673ffffffffffffffffffffffffffffffffffffffff168587604051615973919061ac26565b60006040518083038185875af1925050503d80600081146159b0576040519150601f19603f3d011682016040523d82523d6000602084013e6159b5565b606091505b50915091506159c58282866159f4565b92505050949350505050565b6000808273ffffffffffffffffffffffffffffffffffffffff163b119050919050565b60608315615a0457829050615a54565b600083511115615a175782518084602001fd5b816040517f08c379a0000000000000000000000000000000000000000000000000000000008152600401615a4b919061ac76565b60405180910390fd5b9392505050565b6040518060e0016040528060008152602001600073ffffffffffffffffffffffffffffffffffffffff16815260200160608152602001606081526020016060815260200160608152602001600081525090565b6040518060a00160405280600073ffffffffffffffffffffffffffffffffffffffff168152602001600081526020016000815260200160008152602001600081525090565b604051806101200160405280600073ffffffffffffffffffffffffffffffffffffffff168152602001600073ffffffffffffffffffffffffffffffffffffffff168152602001606081526020016060815260200160608152602001606081526020016060815260200160608152602001606081525090565b6040518060800160405280600073ffffffffffffffffffffffffffffffffffffffff168152602001600060ff16815260200160008152602001600081525090565b508054615bb890617bc0565b6000825580601f10615bca5750615be9565b601f016020900490600052602060002090810190615be89190615f28565b5b50565b5080546000825590600052602060002090810190615c0a9190615f28565b50565b5080546000825590600052602060002090810190615c2b9190615f28565b50565b50805460008255601f016020900490600052602060002090810190615c539190615f28565b50565b50805460008255601f016020900490600052602060002090810190615c7b9190615f28565b50565b828054828255906000526020600020908101928215615cf7579160200282015b82811115615cf65782518260006101000a81548173ffffffffffffffffffffffffffffffffffffffff021916908373ffffffffffffffffffffffffffffffffffffffff16021790555091602001919060010190615c9e565b5b509050615d049190615f28565b5090565b828054828255906000526020600020908101928215615d44579160200282015b82811115615d43578251825591602001919060010190615d28565b5b509050615d519190615f28565b5090565b82805482825590600052602060002090601f01602090048101928215615deb5791602002820160005b83821115615dbc57835183826101000a81548160ff021916908360ff1602179055509260200192600101602081600001049283019260010302615d7e565b8015615de95782816101000a81549060ff0219169055600101602081600001049283019260010302615dbc565b505b509050615df89190615f28565b5090565b828054615e0890617bc0565b90600052602060002090601f016020900481019282615e2a5760008555615e71565b82601f10615e4357805160ff1916838001178555615e71565b82800160010185558215615e71579182015b82811115615e70578251825591602001919060010190615e55565b5b509050615e7e9190615f28565b5090565b82805482825590600052602060002090601f01602090048101928215615f175791602002820160005b83821115615ee857835183826101000a81548160ff0219169083151502179055509260200192600101602081600001049283019260010302615eab565b8015615f155782816101000a81549060ff0219169055600101602081600001049283019260010302615ee8565b505b509050615f249190615f28565b5090565b5b80821115615f41576000816000905550600101615f29565b5090565b6000604051905090565b600080fd5b600080fd5b60007fffffffff0000000000000000000000000000000000000000000000000000000082169050919050565b615f8e81615f59565b8114615f9957600080fd5b50565b600081359050615fab81615f85565b92915050565b600060208284031215615fc757615fc6615f4f565b5b6000615fd584828501615f9c565b91505092915050565b60008115159050919050565b615ff381615fde565b82525050565b600060208201905061600e6000830184615fea565b92915050565b600060ff82169050919050565b61602a81616014565b82525050565b60006020820190506160456000830184616021565b92915050565b6000819050919050565b61605e8161604b565b811461606957600080fd5b50565b60008135905061607b81616055565b92915050565b60006020828403121561609757616096615f4f565b5b60006160a58482850161606c565b91505092915050565b600073ffffffffffffffffffffffffffffffffffffffff82169050919050565b60006160d9826160ae565b9050919050565b6160e9816160ce565b81146160f457600080fd5b50565b600081359050616106816160e0565b92915050565b600080fd5b600080fd5b6000601f19601f8301169050919050565b7f4e487b7100000000000000000000000000000000000000000000000000000000600052604160045260246000fd5b61615f82616116565b810181811067ffffffffffffffff8211171561617e5761617d616127565b5b80604052505050565b6000616191615f45565b905061619d8282616156565b919050565b600067ffffffffffffffff8211156161bd576161bc616127565b5b6161c682616116565b9050602081019050919050565b82818337600083830152505050565b60006161f56161f0846161a2565b616187565b90508281526020810184848401111561621157616210616111565b5b61621c8482856161d3565b509392505050565b600082601f8301126162395761623861610c565b5b81356162498482602086016161e2565b91505092915050565b6000806000806080858703121561626c5761626b615f4f565b5b600061627a878288016160f7565b945050602061628b878288016160f7565b935050604061629c8782880161606c565b925050606085013567ffffffffffffffff8111156162bd576162bc615f54565b5b6162c987828801616224565b91505092959194509250565b6162de81615f59565b82525050565b60006020820190506162f960008301846162d5565b92915050565b6000806040838503121561631657616315615f4f565b5b60006163248582860161606c565b92505060206163358582860161606c565b9150509250929050565b6163488161604b565b82525050565b6000602082019050616363600083018461633f565b92915050565b6163728161604b565b82525050565b616381816160ce565b82525050565b600081519050919050565b600082825260208201905092915050565b6000819050602082019050919050565b60006163bf8383616378565b60208301905092915050565b6000602082019050919050565b60006163e382616387565b6163ed8185616392565b93506163f8836163a3565b8060005b8381101561642957815161641088826163b3565b975061641b836163cb565b9250506001810190506163fc565b5085935050505092915050565b600081519050919050565b600082825260208201905092915050565b6000819050602082019050919050565b600061646e8383616369565b60208301905092915050565b6000602082019050919050565b600061649282616436565b61649c8185616441565b93506164a783616452565b8060005b838110156164d85781516164bf8882616462565b97506164ca8361647a565b9250506001810190506164ab565b5085935050505092915050565b600081519050919050565b600082825260208201905092915050565b6000819050602082019050919050565b61651a81616014565b82525050565b600061652c8383616511565b60208301905092915050565b6000602082019050919050565b6000616550826164e5565b61655a81856164f0565b935061656583616501565b8060005b8381101561659657815161657d8882616520565b975061658883616538565b925050600181019050616569565b5085935050505092915050565b600060e0830160008301516165bb6000860182616369565b5060208301516165ce6020860182616378565b50604083015184820360408601526165e682826163d8565b915050606083015184820360608601526166008282616487565b9150506080830151848203608086015261661a8282616487565b91505060a083015184820360a08601526166348282616545565b91505060c083015161664960c0860182616369565b508091505092915050565b6000602082019050818103600083015261666e81846165a3565b905092915050565b60006020828403121561668c5761668b615f4f565b5b600061669a848285016160f7565b91505092915050565b600067ffffffffffffffff8211156166be576166bd616127565b5b602082029050602081019050919050565b600080fd5b60006166e76166e2846166a3565b616187565b9050808382526020820190506020840283018581111561670a576167096166cf565b5b835b81811015616733578061671f88826160f7565b84526020840193505060208101905061670c565b5050509392505050565b600082601f8301126167525761675161610c565b5b81356167628482602086016166d4565b91505092915050565b600067ffffffffffffffff82111561678657616785616127565b5b602082029050602081019050919050565b60006167aa6167a58461676b565b616187565b905080838252602082019050602084028301858111156167cd576167cc6166cf565b5b835b818110156167f657806167e2888261606c565b8452602084019350506020810190506167cf565b5050509392505050565b600082601f8301126168155761681461610c565b5b8135616825848260208601616797565b91505092915050565b600067ffffffffffffffff82111561684957616848616127565b5b602082029050602081019050919050565b61686381615fde565b811461686e57600080fd5b50565b6000813590506168808161685a565b92915050565b60006168996168948461682e565b616187565b905080838252602082019050602084028301858111156168bc576168bb6166cf565b5b835b818110156168e557806168d18882616871565b8452602084019350506020810190506168be565b5050509392505050565b600082601f8301126169045761690361610c565b5b8135616914848260208601616886565b91505092915050565b60008060006060848603121561693657616935615f4f565b5b600084013567ffffffffffffffff81111561695457616953615f54565b5b6169608682870161673d565b935050602084013567ffffffffffffffff81111561698157616980615f54565b5b61698d86828701616800565b925050604084013567ffffffffffffffff8111156169ae576169ad615f54565b5b6169ba868287016168ef565b9150509250925092565b60a0820160008201516169da6000850182616378565b5060208201516169ed6020850182616369565b506040820151616a006040850182616369565b506060820151616a136060850182616369565b506080820151616a266080850182616369565b50505050565b600060a082019050616a4160008301846169c4565b92915050565b600067ffffffffffffffff821115616a6257616a61616127565b5b602082029050602081019050919050565b616a7c81616014565b8114616a8757600080fd5b50565b600081359050616a9981616a73565b92915050565b6000616ab2616aad84616a47565b616187565b90508083825260208201905060208402830185811115616ad557616ad46166cf565b5b835b81811015616afe5780616aea8882616a8a565b845260208401935050602081019050616ad7565b5050509392505050565b600082601f830112616b1d57616b1c61610c565b5b8135616b2d848260208601616a9f565b91505092915050565b600080600080600060a08688031215616b5257616b51615f4f565b5b6000616b608882890161606c565b955050602086013567ffffffffffffffff811115616b8157616b80615f54565b5b616b8d8882890161673d565b945050604086013567ffffffffffffffff811115616bae57616bad615f54565b5b616bba88828901616800565b935050606086013567ffffffffffffffff811115616bdb57616bda615f54565b5b616be788828901616800565b925050608086013567ffffffffffffffff811115616c0857616c07615f54565b5b616c1488828901616b08565b9150509295509295909350565b60008060008060808587031215616c3b57616c3a615f4f565b5b6000616c49878288016160f7565b9450506020616c5a87828801616a8a565b9350506040616c6b8782880161606c565b9250506060616c7c8782880161606c565b91505092959194509250565b600081519050919050565b600082825260208201905092915050565b60005b83811015616cc2578082015181840152602081019050616ca7565b83811115616cd1576000848401525b50505050565b6000616ce282616c88565b616cec8185616c93565b9350616cfc818560208601616ca4565b616d0581616116565b840191505092915050565b600081519050919050565b600082825260208201905092915050565b6000819050602082019050919050565b616d4581615fde565b82525050565b6000616d578383616d3c565b60208301905092915050565b6000602082019050919050565b6000616d7b82616d10565b616d858185616d1b565b9350616d9083616d2c565b8060005b83811015616dc1578151616da88882616d4b565b9750616db383616d63565b925050600181019050616d94565b5085935050505092915050565b600061012083016000830151616de76000860182616378565b506020830151616dfa6020860182616378565b5060408301518482036040860152616e128282616cd7565b91505060608301518482036060860152616e2c82826163d8565b91505060808301518482036080860152616e468282616487565b91505060a083015184820360a0860152616e608282616487565b91505060c083015184820360c0860152616e7a8282616545565b91505060e083015184820360e0860152616e948282616d70565b915050610100830151848203610100860152616eb08282616487565b9150508091505092915050565b60006020820190508181036000830152616ed78184616dce565b905092915050565b616ee8816160ce565b82525050565b6000602082019050616f036000830184616edf565b92915050565b600067ffffffffffffffff821115616f2457616f23616127565b5b616f2d82616116565b9050602081019050919050565b6000616f4d616f4884616f09565b616187565b905082815260208101848484011115616f6957616f68616111565b5b616f748482856161d3565b509392505050565b600082601f830112616f9157616f9061610c565b5b8135616fa1848260208601616f3a565b91505092915050565b600080600080600080600060e0888a031215616fc957616fc8615f4f565b5b6000616fd78a828b016160f7565b975050602088013567ffffffffffffffff811115616ff857616ff7615f54565b5b6170048a828b01616f7c565b965050604088013567ffffffffffffffff81111561702557617024615f54565b5b6170318a828b0161673d565b955050606088013567ffffffffffffffff81111561705257617051615f54565b5b61705e8a828b01616800565b945050608088013567ffffffffffffffff81111561707f5761707e615f54565b5b61708b8a828b01616800565b93505060a088013567ffffffffffffffff8111156170ac576170ab615f54565b5b6170b88a828b01616b08565b92505060c088013567ffffffffffffffff8111156170d9576170d8615f54565b5b6170e58a828b016168ef565b91505092959891949750929550565b60808201600082015161710a6000850182616378565b50602082015161711d6020850182616511565b5060408201516171306040850182616369565b5060608201516171436060850182616369565b50505050565b600060808201905061715e60008301846170f4565b92915050565b600080600080600060a086880312156171805761717f615f4f565b5b600061718e888289016160f7565b955050602061719f888289016160f7565b945050604086013567ffffffffffffffff8111156171c0576171bf615f54565b5b6171cc88828901616800565b935050606086013567ffffffffffffffff8111156171ed576171ec615f54565b5b6171f988828901616800565b925050608086013567ffffffffffffffff81111561721a57617219615f54565b5b61722688828901616224565b9150509295509295909350565b6000806040838503121561724a57617249615f4f565b5b6000617258858286016160f7565b92505060206172698582860161606c565b9150509250929050565b60006080820190506172886000830187616edf565b6172956020830186616021565b6172a2604083018561633f565b6172af606083018461633f565b95945050505050565b600080600080600060a086880312156172d4576172d3615f4f565b5b60006172e2888289016160f7565b95505060206172f3888289016160f7565b94505060406173048882890161606c565b93505060606173158882890161606c565b925050608086013567ffffffffffffffff81111561733657617335615f54565b5b61734288828901616224565b9150509295509295909350565b600082825260208201905092915050565b7f4f776e61626c653a2063616c6c6572206973206e6f7420746865206f776e6572600082015250565b600061739660208361734f565b91506173a182617360565b602082019050919050565b600060208201905081810360008301526173c581617389565b9050919050565b7f5265656e7472616e637947756172643a207265656e7472616e742063616c6c00600082015250565b6000617402601f8361734f565b915061740d826173cc565b602082019050919050565b60006020820190508181036000830152617431816173f5565b9050919050565b7f4e487b7100000000000000000000000000000000000000000000000000000000600052601260045260246000fd5b7f4e487b7100000000000000000000000000000000000000000000000000000000600052601160045260246000fd5b60006174a18261604b565b91506174ac8361604b565b9250826174bc576174bb617438565b5b828204905092915050565b6000815190506174d681616a73565b92915050565b6000602082840312156174f2576174f1615f4f565b5b6000617500848285016174c7565b91505092915050565b60008160011c9050919050565b6000808291508390505b60018511156175605780860481111561753c5761753b617467565b5b600185161561754b5780820291505b808102905061755985617509565b9450617520565b94509492505050565b6000826175795760019050617635565b816175875760009050617635565b816001811461759d57600281146175a7576175d6565b6001915050617635565b60ff8411156175b9576175b8617467565b5b8360020a9150848211156175d0576175cf617467565b5b50617635565b5060208310610133831016604e8410600b841016171561760b5782820a90508381111561760657617605617467565b5b617635565b6176188484846001617516565b9250905081840481111561762f5761762e617467565b5b81810290505b9392505050565b60006176478261604b565b915061765283616014565b925061767f7fffffffffffffffffffffffffffffffffffffffffffffffffffffffffffffffff8484617569565b905092915050565b60006176928261604b565b915061769d8361604b565b9250817fffffffffffffffffffffffffffffffffffffffffffffffffffffffffffffffff04831182151516156176d6576176d5617467565b5b828202905092915050565b7f4e487b7100000000000000000000000000000000000000000000000000000000600052603260045260246000fd5b600061771b8261604b565b91506177268361604b565b9250827fffffffffffffffffffffffffffffffffffffffffffffffffffffffffffffffff0382111561775b5761775a617467565b5b828201905092915050565b60006177718261604b565b91507fffffffffffffffffffffffffffffffffffffffffffffffffffffffffffffffff8214156177a4576177a3617467565b5b600182019050919050565b60006040820190506177c46000830185616edf565b6177d1602083018461633f565b9392505050565b6000815190506177e78161685a565b92915050565b60006020828403121561780357617802615f4f565b5b6000617811848285016177d8565b91505092915050565b7f5078614d61726b65743a20696e76616c69642073656c6c657200000000000000600082015250565b600061785060198361734f565b915061785b8261781a565b602082019050919050565b6000602082019050818103600083015261787f81617843565b9050919050565b600060608201905061789b6000830186616edf565b6178a86020830185616edf565b6178b5604083018461633f565b949350505050565b7f50697870726573733a20696e73756666696369656e7420737761702066656500600082015250565b60006178f3601f8361734f565b91506178fe826178bd565b602082019050919050565b60006020820190508181036000830152617922816178e6565b9050919050565b60006179348261604b565b915061793f8361604b565b92508282101561795257617951617467565b5b828203905092915050565b7f41737365744d616e616765723a20617373657420616c7265616479206578697360008201527f7400000000000000000000000000000000000000000000000000000000000000602082015250565b60006179b960218361734f565b91506179c48261795d565b604082019050919050565b600060208201905081810360008301526179e8816179ac565b9050919050565b60008160001c9050919050565b600073ffffffffffffffffffffffffffffffffffffffff82169050919050565b6000617a2f617a2a836179ef565b6179fc565b9050919050565b60008160a01c9050919050565b600060ff82169050919050565b6000617a63617a5e83617a36565b617a43565b9050919050565b6000819050919050565b6000617a87617a82836179ef565b617a6a565b9050919050565b608082016000808301549050617aa381617a1c565b617ab06000860182616378565b50617aba81617a50565b617ac76020860182616511565b5060018301549050617ad881617a74565b617ae56040860182616369565b5060028301549050617af681617a74565b617b036060860182616369565b5050505050565b6000608082019050617b1f6000830184617a8e565b92915050565b7f417373657420537761707065723a20696e76616c69642070726f706f73657200600082015250565b6000617b5b601f8361734f565b9150617b6682617b25565b602082019050919050565b60006020820190508181036000830152617b8a81617b4e565b9050919050565b7f4e487b7100000000000000000000000000000000000000000000000000000000600052602260045260246000fd5b60006002820490506001821680617bd857607f821691505b60208210811415617bec57617beb617b91565b5b50919050565b60008190508160005260206000209050919050565b60008154617c1481617bc0565b617c1e8186616c93565b94506001821660008114617c395760018114617c4b57617c7e565b60ff1983168652602086019350617c7e565b617c5485617bf2565b60005b83811015617c7657815481890152600182019150602081019050617c57565b808801955050505b50505092915050565b600081549050919050565b60008190508160005260206000209050919050565b6000617cb38254617a1c565b9050919050565b6000600182019050919050565b6000617cd282617c87565b617cdc8185616392565b9350617ce783617c92565b8060005b83811015617d1f57617cfc82617ca7565b617d0688826163b3565b9750617d1183617cba565b925050600181019050617ceb565b5085935050505092915050565b600081549050919050565b60008190508160005260206000209050919050565b6000617d588254617a74565b9050919050565b6000600182019050919050565b6000617d7782617d2c565b617d818185616441565b9350617d8c83617d37565b8060005b83811015617dc457617da182617d4c565b617dab8882616462565b9750617db683617d5f565b925050600181019050617d90565b5085935050505092915050565b600081549050919050565b60008190508160005260206000209050919050565b6000617e04617dff836179ef565b617a43565b9050919050565b60008160081c9050919050565b6000617e2b617e2683617e0b565b617a43565b9050919050565b60008160101c9050919050565b6000617e52617e4d83617e32565b617a43565b9050919050565b60008160181c9050919050565b6000617e79617e7483617e59565b617a43565b9050919050565b60008160201c9050919050565b6000617ea0617e9b83617e80565b617a43565b9050919050565b60008160281c9050919050565b6000617ec7617ec283617ea7565b617a43565b9050919050565b60008160301c9050919050565b6000617eee617ee983617ece565b617a43565b9050919050565b60008160381c9050919050565b6000617f15617f1083617ef5565b617a43565b9050919050565b60008160401c9050919050565b6000617f3c617f3783617f1c565b617a43565b9050919050565b60008160481c9050919050565b6000617f63617f5e83617f43565b617a43565b9050919050565b60008160501c9050919050565b6000617f8a617f8583617f6a565b617a43565b9050919050565b60008160581c9050919050565b6000617fb1617fac83617f91565b617a43565b9050919050565b60008160601c9050919050565b6000617fd8617fd383617fb8565b617a43565b9050919050565b60008160681c9050919050565b6000617fff617ffa83617fdf565b617a43565b9050919050565b60008160701c9050919050565b600061802661802183618006565b617a43565b9050919050565b60008160781c9050919050565b600061804d6180488361802d565b617a43565b9050919050565b60008160801c9050919050565b600061807461806f83618054565b617a43565b9050919050565b60008160881c9050919050565b600061809b6180968361807b565b617a43565b9050919050565b60008160901c9050919050565b60006180c26180bd836180a2565b617a43565b9050919050565b60008160981c9050919050565b60006180e96180e4836180c9565b617a43565b9050919050565b60008160a81c9050919050565b600061811061810b836180f0565b617a43565b9050919050565b60008160b01c9050919050565b600061813761813283618117565b617a43565b9050919050565b60008160b81c9050919050565b600061815e6181598361813e565b617a43565b9050919050565b60008160c01c9050919050565b600061818561818083618165565b617a43565b9050919050565b60008160c81c9050919050565b60006181ac6181a78361818c565b617a43565b9050919050565b60008160d01c9050919050565b60006181d36181ce836181b3565b617a43565b9050919050565b60008160d81c9050919050565b60006181fa6181f5836181da565b617a43565b9050919050565b60008160e01c9050919050565b600061822161821c83618201565b617a43565b9050919050565b60008160e81c9050919050565b600061824861824383618228565b617a43565b9050919050565b60008160f01c9050919050565b600061826f61826a8361824f565b617a43565b9050919050565b60008160f81c9050919050565b600061829661829183618276565b617a43565b9050919050565b60006182a882617dd1565b6182b281856164f0565b9350836182be84617ddc565b60006001156185eb575b836001602003820110156185ea5781546182ea886182e583617df1565b616511565b602088019750618302886182fd83617e18565b616511565b60208801975061831a8861831583617e3f565b616511565b6020880197506183328861832d83617e66565b616511565b60208801975061834a8861834583617e8d565b616511565b6020880197506183628861835d83617eb4565b616511565b60208801975061837a8861837583617edb565b616511565b6020880197506183928861838d83617f02565b616511565b6020880197506183aa886183a583617f29565b616511565b6020880197506183c2886183bd83617f50565b616511565b6020880197506183da886183d583617f77565b616511565b6020880197506183f2886183ed83617f9e565b616511565b60208801975061840a8861840583617fc5565b616511565b6020880197506184228861841d83617fec565b616511565b60208801975061843a8861843583618013565b616511565b6020880197506184528861844d8361803a565b616511565b60208801975061846a8861846583618061565b616511565b6020880197506184828861847d83618088565b616511565b60208801975061849a88618495836180af565b616511565b6020880197506184b2886184ad836180d6565b616511565b6020880197506184ca886184c583617a50565b616511565b6020880197506184e2886184dd836180fd565b616511565b6020880197506184fa886184f583618124565b616511565b6020880197506185128861850d8361814b565b616511565b60208801975061852a8861852583618172565b616511565b6020880197506185428861853d83618199565b616511565b60208801975061855a88618555836181c0565b616511565b6020880197506185728861856d836181e7565b616511565b60208801975061858a886185858361820e565b616511565b6020880197506185a28861859d83618235565b616511565b6020880197506185ba886185b58361825c565b616511565b6020880197506185d2886185cd83618283565b616511565b602088019750600183019250506020810190506182c8565b5b600115618ad65781548482101561861b5761860e8861860983617df1565b616511565b6020880197506001820191505b84821015618642576186358861863083617e18565b616511565b6020880197506001820191505b848210156186695761865c8861865783617e3f565b616511565b6020880197506001820191505b84821015618690576186838861867e83617e66565b616511565b6020880197506001820191505b848210156186b7576186aa886186a583617e8d565b616511565b6020880197506001820191505b848210156186de576186d1886186cc83617eb4565b616511565b6020880197506001820191505b84821015618705576186f8886186f383617edb565b616511565b6020880197506001820191505b8482101561872c5761871f8861871a83617f02565b616511565b6020880197506001820191505b84821015618753576187468861874183617f29565b616511565b6020880197506001820191505b8482101561877a5761876d8861876883617f50565b616511565b6020880197506001820191505b848210156187a1576187948861878f83617f77565b616511565b6020880197506001820191505b848210156187c8576187bb886187b683617f9e565b616511565b6020880197506001820191505b848210156187ef576187e2886187dd83617fc5565b616511565b6020880197506001820191505b84821015618816576188098861880483617fec565b616511565b6020880197506001820191505b8482101561883d576188308861882b83618013565b616511565b6020880197506001820191505b8482101561886457618857886188528361803a565b616511565b6020880197506001820191505b8482101561888b5761887e8861887983618061565b616511565b6020880197506001820191505b848210156188b2576188a5886188a083618088565b616511565b6020880197506001820191505b848210156188d9576188cc886188c7836180af565b616511565b6020880197506001820191505b84821015618900576188f3886188ee836180d6565b616511565b6020880197506001820191505b848210156189275761891a8861891583617a50565b616511565b6020880197506001820191505b8482101561894e576189418861893c836180fd565b616511565b6020880197506001820191505b84821015618975576189688861896383618124565b616511565b6020880197506001820191505b8482101561899c5761898f8861898a8361814b565b616511565b6020880197506001820191505b848210156189c3576189b6886189b183618172565b616511565b6020880197506001820191505b848210156189ea576189dd886189d883618199565b616511565b6020880197506001820191505b84821015618a1157618a04886189ff836181c0565b616511565b6020880197506001820191505b84821015618a3857618a2b88618a26836181e7565b616511565b6020880197506001820191505b84821015618a5f57618a5288618a4d8361820e565b616511565b6020880197506001820191505b84821015618a8657618a7988618a7483618235565b616511565b6020880197506001820191505b84821015618aad57618aa088618a9b8361825c565b616511565b6020880197506001820191505b84821015618ad457618ac788618ac283618283565b616511565b6020880197506001820191505b505b8694505050505092915050565b600081549050919050565b60008190508160005260206000209050919050565b600060ff82169050919050565b6000618b23618b1e836179ef565b618b03565b9050919050565b6000618b3d618b3883617e0b565b618b03565b9050919050565b6000618b57618b5283617e32565b618b03565b9050919050565b6000618b71618b6c83617e59565b618b03565b9050919050565b6000618b8b618b8683617e80565b618b03565b9050919050565b6000618ba5618ba083617ea7565b618b03565b9050919050565b6000618bbf618bba83617ece565b618b03565b9050919050565b6000618bd9618bd483617ef5565b618b03565b9050919050565b6000618bf3618bee83617f1c565b618b03565b9050919050565b6000618c0d618c0883617f43565b618b03565b9050919050565b6000618c27618c2283617f6a565b618b03565b9050919050565b6000618c41618c3c83617f91565b618b03565b9050919050565b6000618c5b618c5683617fb8565b618b03565b9050919050565b6000618c75618c7083617fdf565b618b03565b9050919050565b6000618c8f618c8a83618006565b618b03565b9050919050565b6000618ca9618ca48361802d565b618b03565b9050919050565b6000618cc3618cbe83618054565b618b03565b9050919050565b6000618cdd618cd88361807b565b618b03565b9050919050565b6000618cf7618cf2836180a2565b618b03565b9050919050565b6000618d11618d0c836180c9565b618b03565b9050919050565b6000618d2b618d2683617a36565b618b03565b9050919050565b6000618d45618d40836180f0565b618b03565b9050919050565b6000618d5f618d5a83618117565b618b03565b9050919050565b6000618d79618d748361813e565b618b03565b9050919050565b6000618d93618d8e83618165565b618b03565b9050919050565b6000618dad618da88361818c565b618b03565b9050919050565b6000618dc7618dc2836181b3565b618b03565b9050919050565b6000618de1618ddc836181da565b618b03565b9050919050565b6000618dfb618df683618201565b618b03565b9050919050565b6000618e15618e1083618228565b618b03565b9050919050565b6000618e2f618e2a8361824f565b618b03565b9050919050565b6000618e49618e4483618276565b618b03565b9050919050565b6000618e5b82618ae3565b618e658185616d1b565b935083618e7184618aee565b600060011561919e575b8360016020038201101561919d578154618e9d88618e9883618b10565b616d3c565b602088019750618eb588618eb083618b2a565b616d3c565b602088019750618ecd88618ec883618b44565b616d3c565b602088019750618ee588618ee083618b5e565b616d3c565b602088019750618efd88618ef883618b78565b616d3c565b602088019750618f1588618f1083618b92565b616d3c565b602088019750618f2d88618f2883618bac565b616d3c565b602088019750618f4588618f4083618bc6565b616d3c565b602088019750618f5d88618f5883618be0565b616d3c565b602088019750618f7588618f7083618bfa565b616d3c565b602088019750618f8d88618f8883618c14565b616d3c565b602088019750618fa588618fa083618c2e565b616d3c565b602088019750618fbd88618fb883618c48565b616d3c565b602088019750618fd588618fd083618c62565b616d3c565b602088019750618fed88618fe883618c7c565b616d3c565b6020880197506190058861900083618c96565b616d3c565b60208801975061901d8861901883618cb0565b616d3c565b6020880197506190358861903083618cca565b616d3c565b60208801975061904d8861904883618ce4565b616d3c565b6020880197506190658861906083618cfe565b616d3c565b60208801975061907d8861907883618d18565b616d3c565b6020880197506190958861909083618d32565b616d3c565b6020880197506190ad886190a883618d4c565b616d3c565b6020880197506190c5886190c083618d66565b616d3c565b6020880197506190dd886190d883618d80565b616d3c565b6020880197506190f5886190f083618d9a565b616d3c565b60208801975061910d8861910883618db4565b616d3c565b6020880197506191258861912083618dce565b616d3c565b60208801975061913d8861913883618de8565b616d3c565b6020880197506191558861915083618e02565b616d3c565b60208801975061916d8861916883618e1c565b616d3c565b6020880197506191858861918083618e36565b616d3c565b60208801975060018301925050602081019050618e7b565b5b600115619689578154848210156191ce576191c1886191bc83618b10565b616d3c565b6020880197506001820191505b848210156191f5576191e8886191e383618b2a565b616d3c565b6020880197506001820191505b8482101561921c5761920f8861920a83618b44565b616d3c565b6020880197506001820191505b84821015619243576192368861923183618b5e565b616d3c565b6020880197506001820191505b8482101561926a5761925d8861925883618b78565b616d3c565b6020880197506001820191505b84821015619291576192848861927f83618b92565b616d3c565b6020880197506001820191505b848210156192b8576192ab886192a683618bac565b616d3c565b6020880197506001820191505b848210156192df576192d2886192cd83618bc6565b616d3c565b6020880197506001820191505b84821015619306576192f9886192f483618be0565b616d3c565b6020880197506001820191505b8482101561932d576193208861931b83618bfa565b616d3c565b6020880197506001820191505b84821015619354576193478861934283618c14565b616d3c565b6020880197506001820191505b8482101561937b5761936e8861936983618c2e565b616d3c565b6020880197506001820191505b848210156193a2576193958861939083618c48565b616d3c565b6020880197506001820191505b848210156193c9576193bc886193b783618c62565b616d3c565b6020880197506001820191505b848210156193f0576193e3886193de83618c7c565b616d3c565b6020880197506001820191505b848210156194175761940a8861940583618c96565b616d3c565b6020880197506001820191505b8482101561943e576194318861942c83618cb0565b616d3c565b6020880197506001820191505b84821015619465576194588861945383618cca565b616d3c565b6020880197506001820191505b8482101561948c5761947f8861947a83618ce4565b616d3c565b6020880197506001820191505b848210156194b3576194a6886194a183618cfe565b616d3c565b6020880197506001820191505b848210156194da576194cd886194c883618d18565b616d3c565b6020880197506001820191505b84821015619501576194f4886194ef83618d32565b616d3c565b6020880197506001820191505b848210156195285761951b8861951683618d4c565b616d3c565b6020880197506001820191505b8482101561954f576195428861953d83618d66565b616d3c565b6020880197506001820191505b84821015619576576195698861956483618d80565b616d3c565b6020880197506001820191505b8482101561959d576195908861958b83618d9a565b616d3c565b6020880197506001820191505b848210156195c4576195b7886195b283618db4565b616d3c565b6020880197506001820191505b848210156195eb576195de886195d983618dce565b616d3c565b6020880197506001820191505b84821015619612576196058861960083618de8565b616d3c565b6020880197506001820191505b848210156196395761962c8861962783618e02565b616d3c565b6020880197506001820191505b84821015619660576196538861964e83618e1c565b616d3c565b6020880197506001820191505b848210156196875761967a8861967583618e36565b616d3c565b6020880197506001820191505b505b8694505050505092915050565b6000610120830160008084015490506196ae81617a1c565b6196bb6000870182616378565b50600184015490506196cc81617a1c565b6196d96020870182616378565b506002840185830360408701526196f08382617c07565b9250506003840185830360608701526197098382617cc7565b9250506004840185830360808701526197228382617d6c565b9250506005840185830360a087015261973b8382617d6c565b9250506006840185830360c0870152619754838261829d565b9250506007840185830360e087015261976d8382618e50565b925050600884018583036101008701526197878382617d6c565b925050819250505092915050565b600060208201905081810360008301526197af8184619696565b905092915050565b7f417373657420537761707065723a20696e76616c6964206d6174636865720000600082015250565b60006197ed601e8361734f565b91506197f8826197b7565b602082019050919050565b6000602082019050818103600083015261981c816197e0565b9050919050565b600060e08301600080840154905061983a81617a74565b6198476000870182616369565b506001840154905061985881617a1c565b6198656020870182616378565b5060028401858303604087015261987c8382617cc7565b9250506003840185830360608701526198958382617d6c565b9250506004840185830360808701526198ae8382617d6c565b9250506005840185830360a08701526198c7838261829d565b925050600684015490506198da81617a74565b6198e760c0870182616369565b50819250505092915050565b6000602082019050818103600083015261990d8184619823565b905092915050565b600081519050619924816160e0565b92915050565b6000602082840312156199405761993f615f4f565b5b600061994e84828501619915565b91505092915050565b7f5078614d61726b65743a20696e76616c696420746f6b656e206f776e65720000600082015250565b600061998d601e8361734f565b915061999882619957565b602082019050919050565b600060208201905081810360008301526199bc81619980565b9050919050565b6000815190506199d281616055565b92915050565b6000602082840312156199ee576199ed615f4f565b5b60006199fc848285016199c3565b91505092915050565b7f41737365744d616e616765723a20617373657420646f6573206e6f742065786960008201527f7374000000000000000000000000000000000000000000000000000000000000602082015250565b6000619a6160228361734f565b9150619a6c82619a05565b604082019050919050565b60006020820190508181036000830152619a9081619a54565b9050919050565b7f5078614d61726b65743a20696e73756666696369656e742043454c4f00000000600082015250565b6000619acd601c8361734f565b9150619ad882619a97565b602082019050919050565b60006020820190508181036000830152619afc81619ac0565b9050919050565b6000604082019050619b18600083018561633f565b619b25602083018461633f565b9392505050565b7f4f776e61626c653a206e6577206f776e657220697320746865207a65726f206160008201527f6464726573730000000000000000000000000000000000000000000000000000602082015250565b6000619b8860268361734f565b9150619b9382619b2c565b604082019050919050565b60006020820190508181036000830152619bb781619b7b565b9050919050565b7f417373657420537761707065723a20696e76616c6964206d6174636820696400600082015250565b6000619bf4601f8361734f565b9150619bff82619bbe565b602082019050919050565b60006020820190508181036000830152619c2381619be7565b9050919050565b7f417373657420537761707065723a2070726f706f73657220617373657473206960008201527f6e76616c69640000000000000000000000000000000000000000000000000000602082015250565b6000619c8660268361734f565b9150619c9182619c2a565b604082019050919050565b60006020820190508181036000830152619cb581619c79565b9050919050565b7f417373657420537761707065723a206d6174636865722061737365747320696e60008201527f76616c6964000000000000000000000000000000000000000000000000000000602082015250565b6000619d1860258361734f565b9150619d2382619cbc565b604082019050919050565b60006020820190508181036000830152619d4781619d0b565b9050919050565b7f50585420506f6f6c3a20696e73756666696369656e742062616c616e63650000600082015250565b6000619d84601e8361734f565b9150619d8f82619d4e565b602082019050919050565b60006020820190508181036000830152619db381619d77565b9050919050565b7f5078614d61726b65743a20696e73756666696369656e742062616c616e636500600082015250565b6000619df0601f8361734f565b9150619dfb82619dba565b602082019050919050565b60006020820190508181036000830152619e1f81619de3565b9050919050565b7f4e487b7100000000000000000000000000000000000000000000000000000000600052603160045260246000fd5b7f41737365737420537761707065723a20616d6f756e74207265636f726420736960008201527f7a6520646f6573206e6f74206d61746368000000000000000000000000000000602082015250565b6000619eb160318361734f565b9150619ebc82619e55565b604082019050919050565b60006020820190508181036000830152619ee081619ea4565b9050919050565b7f41737365737420537761707065723a206964207265636f72642073697a65206460008201527f6f6573206e6f74206d6174636800000000000000000000000000000000000000602082015250565b6000619f43602d8361734f565b9150619f4e82619ee7565b604082019050919050565b60006020820190508181036000830152619f7281619f36565b9050919050565b7f41737365737420537761707065723a2070726f746f636f6c207265636f72642060008201527f73697a6520646f6573206e6f74206d6174636800000000000000000000000000602082015250565b6000619fd560338361734f565b9150619fe082619f79565b604082019050919050565b6000602082019050818103600083015261a00481619fc8565b9050919050565b7f50585420506f6f6c3a20696e73756666696369656e7420616d6f756e74000000600082015250565b600061a041601d8361734f565b915061a04c8261a00b565b602082019050919050565b6000602082019050818103600083015261a0708161a034565b9050919050565b7f417373657420537761707065723a20616d6f756e74207265636f72642073697a60008201527f6520646f6573206e6f74206d6174636800000000000000000000000000000000602082015250565b600061a0d360308361734f565b915061a0de8261a077565b604082019050919050565b6000602082019050818103600083015261a1028161a0c6565b9050919050565b7f417373657420537761707065723a206964207265636f72642073697a6520646f60008201527f6573206e6f74206d617463680000000000000000000000000000000000000000602082015250565b600061a165602c8361734f565b915061a1708261a109565b604082019050919050565b6000602082019050818103600083015261a1948161a158565b9050919050565b7f417373657420537761707065723a2070726f746f636f6c207265636f7264207360008201527f697a6520646f6573206e6f74206d617463680000000000000000000000000000602082015250565b600061a1f760328361734f565b915061a2028261a19b565b604082019050919050565b6000602082019050818103600083015261a2268161a1ea565b9050919050565b7f417373657420537761707065723a2077616e746564207265636f72642073697a60008201527f6520646f6573206e6f74206d6174636800000000000000000000000000000000602082015250565b600061a28960308361734f565b915061a2948261a22d565b604082019050919050565b6000602082019050818103600083015261a2b88161a27c565b9050919050565b7f5361666545524332303a204552433230206f7065726174696f6e20646964206e60008201527f6f74207375636365656400000000000000000000000000000000000000000000602082015250565b600061a31b602a8361734f565b915061a3268261a2bf565b604082019050919050565b6000602082019050818103600083015261a34a8161a30e565b9050919050565b7f417373657420537761707065723a20736f6d652070726f706f7365722061737360008201527f65747320617265206e6f7420617070726f766564000000000000000000000000602082015250565b600061a3ad60348361734f565b915061a3b88261a351565b604082019050919050565b6000602082019050818103600083015261a3dc8161a3a0565b9050919050565b7f417373657420537761707065723a20736f6d652070726f706f7365722061737360008201527f65747320617265206e6f7420696e2073746f636b000000000000000000000000602082015250565b600061a43f60348361734f565b915061a44a8261a3e3565b604082019050919050565b6000602082019050818103600083015261a46e8161a432565b9050919050565b7f417373657420537761707065723a20736f6d65206d617463686572206173736560008201527f747320617265206e6f7420617070726f76656400000000000000000000000000602082015250565b600061a4d160338361734f565b915061a4dc8261a475565b604082019050919050565b6000602082019050818103600083015261a5008161a4c4565b9050919050565b7f417373657420537761707065723a20736f6d65206d617463686572206173736560008201527f747320617265206e6f7420696e2073746f636b00000000000000000000000000602082015250565b600061a56360338361734f565b915061a56e8261a507565b604082019050919050565b6000602082019050818103600083015261a5928161a556565b9050919050565b600082825260208201905092915050565b50565b600061a5ba60008361a599565b915061a5c58261a5aa565b600082019050919050565b600060a08201905061a5e56000830187616edf565b61a5f26020830186616edf565b61a5ff604083018561633f565b61a60c606083018461633f565b818103608083015261a61d8161a5ad565b905095945050505050565b7f417373657420537761707065723a2063616e6e6f74207377617020756e73757060008201527f706f7274656420746f6b656e2070726f746f636f6c0000000000000000000000602082015250565b600061a68460358361734f565b915061a68f8261a628565b604082019050919050565b6000602082019050818103600083015261a6b38161a677565b9050919050565b600060408201905061a6cf6000830185616edf565b61a6dc6020830184616edf565b9392505050565b7f417373657420537761707065723a20696e73756666696369656e7420746f6b6560008201527f6e20616c6c6f77616e6365000000000000000000000000000000000000000000602082015250565b600061a73f602b8361734f565b915061a74a8261a6e3565b604082019050919050565b6000602082019050818103600083015261a76e8161a732565b9050919050565b7f417373657420537761707065723a2045524337323120746f6b656e206e6f742060008201527f617070726f766564200000000000000000000000000000000000000000000000602082015250565b600061a7d160298361734f565b915061a7dc8261a775565b604082019050919050565b6000602082019050818103600083015261a8008161a7c4565b9050919050565b7f417373657420537761707065723a204552433131353520746f6b656e206e6f7460008201527f20617070726f7665642000000000000000000000000000000000000000000000602082015250565b600061a863602a8361734f565b915061a86e8261a807565b604082019050919050565b6000602082019050818103600083015261a8928161a856565b9050919050565b7f417373657420537761707065723a20756e737570706f7274656420746f6b656e60008201527f2070726f746f636f6c0000000000000000000000000000000000000000000000602082015250565b600061a8f560298361734f565b915061a9008261a899565b604082019050919050565b6000602082019050818103600083015261a9248161a8e8565b9050919050565b7f417373657420537761707065723a20455243323020696e73756666696369656e60008201527f7420746f6b656e2062616c616e63650000000000000000000000000000000000602082015250565b600061a987602f8361734f565b915061a9928261a92b565b604082019050919050565b6000602082019050818103600083015261a9b68161a97a565b9050919050565b7f417373657420537761707065723a2045524337323120696e737566666963696560008201527f6e7420746f6b656e2062616c616e636500000000000000000000000000000000602082015250565b600061aa1960308361734f565b915061aa248261a9bd565b604082019050919050565b6000602082019050818103600083015261aa488161aa0c565b9050919050565b7f417373657420537761707065723a204552433131353520696e7375666669636960008201527f656e7420746f6b656e2062616c616e6365000000000000000000000000000000602082015250565b600061aaab60318361734f565b915061aab68261aa4f565b604082019050919050565b6000602082019050818103600083015261aada8161aa9e565b9050919050565b7f416464726573733a20696e73756666696369656e742062616c616e636520666f60008201527f722063616c6c0000000000000000000000000000000000000000000000000000602082015250565b600061ab3d60268361734f565b915061ab488261aae1565b604082019050919050565b6000602082019050818103600083015261ab6c8161ab30565b9050919050565b7f416464726573733a2063616c6c20746f206e6f6e2d636f6e7472616374000000600082015250565b600061aba9601d8361734f565b915061abb48261ab73565b602082019050919050565b6000602082019050818103600083015261abd88161ab9c565b9050919050565b600081519050919050565b600081905092915050565b600061ac008261abdf565b61ac0a818561abea565b935061ac1a818560208601616ca4565b80840191505092915050565b600061ac32828461abf5565b915081905092915050565b600061ac4882616c88565b61ac52818561734f565b935061ac62818560208601616ca4565b61ac6b81616116565b840191505092915050565b6000602082019050818103600083015261ac90818461ac3d565b90509291505056fea264697066735822122035c7a851dd597fe02d99e33fb25341427f91c9bb8ead50de0364604a98c17c9e64736f6c634300080c0033",
  "devdoc": {
    "kind": "dev",
    "methods": {
      "onERC721Received(address,address,uint256,bytes)": {
        "details": "See {IERC721Receiver-onERC721Received}. Always returns `IERC721Receiver.onERC721Received.selector`."
      },
      "owner()": {
        "details": "Returns the address of the current owner."
      },
      "renounceOwnership()": {
        "details": "Leaves the contract without owner. It will not be possible to call `onlyOwner` functions anymore. Can only be called by the current owner. NOTE: Renouncing ownership will leave the contract without an owner, thereby removing any functionality that is only available to the owner."
      },
      "supportsInterface(bytes4)": {
        "details": "See {IERC165-supportsInterface}."
      },
      "transferOwnership(address)": {
        "details": "Transfers ownership of the contract to a new account (`newOwner`). Can only be called by the current owner."
      }
    },
    "version": 1
  },
  "userdoc": {
    "kind": "user",
    "methods": {},
    "version": 1
  },
  "storageLayout": {
    "storage": [
      {
        "astId": 7,
        "contract": "contracts/Pixpress.sol:Pixpress",
        "label": "_owner",
        "offset": 0,
        "slot": "0",
        "type": "t_address"
      },
      {
        "astId": 1336,
        "contract": "contracts/Pixpress.sol:Pixpress",
        "label": "_amFeeBase",
        "offset": 0,
        "slot": "1",
        "type": "t_uint256"
      },
      {
        "astId": 1339,
        "contract": "contracts/Pixpress.sol:Pixpress",
        "label": "_amFeeRatio",
        "offset": 0,
        "slot": "2",
        "type": "t_uint256"
      },
      {
        "astId": 1375,
        "contract": "contracts/Pixpress.sol:Pixpress",
        "label": "assets",
        "offset": 0,
        "slot": "3",
        "type": "t_mapping(t_address,t_struct(Asset)1333_storage)"
      },
      {
        "astId": 115,
        "contract": "contracts/Pixpress.sol:Pixpress",
        "label": "_status",
        "offset": 0,
        "slot": "4",
        "type": "t_uint256"
      },
      {
        "astId": 1709,
        "contract": "contracts/Pixpress.sol:Pixpress",
        "label": "_proposeRecordIds",
        "offset": 0,
        "slot": "5",
        "type": "t_struct(Counter)1203_storage"
      },
      {
        "astId": 1714,
        "contract": "contracts/Pixpress.sol:Pixpress",
        "label": "_proposeRecords",
        "offset": 0,
        "slot": "6",
        "type": "t_mapping(t_uint256,t_struct(ProposeRecord)1653_storage)"
      },
      {
        "astId": 1717,
        "contract": "contracts/Pixpress.sol:Pixpress",
        "label": "_matchRecordIds",
        "offset": 0,
        "slot": "7",
        "type": "t_struct(Counter)1203_storage"
      },
      {
        "astId": 1722,
        "contract": "contracts/Pixpress.sol:Pixpress",
        "label": "_matchRecords",
        "offset": 0,
        "slot": "8",
        "type": "t_mapping(t_uint256,t_struct(MatchRecord)1672_storage)"
      },
      {
        "astId": 3195,
        "contract": "contracts/Pixpress.sol:Pixpress",
        "label": "_orders",
        "offset": 0,
        "slot": "9",
        "type": "t_mapping(t_uint256,t_struct(PxaOrder)3156_storage)"
      },
      {
        "astId": 3203,
        "contract": "contracts/Pixpress.sol:Pixpress",
        "label": "_orderIds",
        "offset": 0,
        "slot": "10",
        "type": "t_array(t_uint256)dyn_storage"
      },
      {
        "astId": 3205,
        "contract": "contracts/Pixpress.sol:Pixpress",
        "label": "_pxaAddress",
        "offset": 0,
        "slot": "11",
        "type": "t_address"
      },
      {
        "astId": 3207,
        "contract": "contracts/Pixpress.sol:Pixpress",
        "label": "_pxaFeeRatio",
        "offset": 0,
        "slot": "12",
        "type": "t_uint256"
      },
      {
        "astId": 3639,
        "contract": "contracts/Pixpress.sol:Pixpress",
        "label": "_pxtAddress",
        "offset": 0,
        "slot": "13",
        "type": "t_contract(IERC20Metadata)495"
      },
      {
        "astId": 3641,
        "contract": "contracts/Pixpress.sol:Pixpress",
        "label": "poolWindow",
        "offset": 0,
        "slot": "14",
        "type": "t_uint256"
      },
      {
        "astId": 3643,
        "contract": "contracts/Pixpress.sol:Pixpress",
        "label": "poolUpperBoundary",
        "offset": 0,
        "slot": "15",
        "type": "t_uint256"
      },
      {
        "astId": 3645,
        "contract": "contracts/Pixpress.sol:Pixpress",
        "label": "poolLowerBoundary",
        "offset": 0,
        "slot": "16",
        "type": "t_uint256"
      },
      {
        "astId": 2766,
        "contract": "contracts/Pixpress.sol:Pixpress",
        "label": "pxaFeeShareRatio",
        "offset": 0,
        "slot": "17",
        "type": "t_uint256"
      }
    ],
    "types": {
      "t_address": {
        "encoding": "inplace",
        "label": "address",
        "numberOfBytes": "20"
      },
      "t_array(t_address)dyn_storage": {
        "base": "t_address",
        "encoding": "dynamic_array",
        "label": "address[]",
        "numberOfBytes": "32"
      },
      "t_array(t_bool)dyn_storage": {
        "base": "t_bool",
        "encoding": "dynamic_array",
        "label": "bool[]",
        "numberOfBytes": "32"
      },
      "t_array(t_uint256)dyn_storage": {
        "base": "t_uint256",
        "encoding": "dynamic_array",
        "label": "uint256[]",
        "numberOfBytes": "32"
      },
      "t_array(t_uint8)dyn_storage": {
        "base": "t_uint8",
        "encoding": "dynamic_array",
        "label": "uint8[]",
        "numberOfBytes": "32"
      },
      "t_bool": {
        "encoding": "inplace",
        "label": "bool",
        "numberOfBytes": "1"
      },
      "t_contract(IERC20Metadata)495": {
        "encoding": "inplace",
        "label": "contract IERC20Metadata",
        "numberOfBytes": "20"
      },
      "t_mapping(t_address,t_struct(Asset)1333_storage)": {
        "encoding": "mapping",
        "key": "t_address",
        "label": "mapping(address => struct AssetManager.Asset)",
        "numberOfBytes": "32",
        "value": "t_struct(Asset)1333_storage"
      },
      "t_mapping(t_uint256,t_struct(MatchRecord)1672_storage)": {
        "encoding": "mapping",
        "key": "t_uint256",
        "label": "mapping(uint256 => struct AssetSwapper.MatchRecord)",
        "numberOfBytes": "32",
        "value": "t_struct(MatchRecord)1672_storage"
      },
      "t_mapping(t_uint256,t_struct(ProposeRecord)1653_storage)": {
        "encoding": "mapping",
        "key": "t_uint256",
        "label": "mapping(uint256 => struct AssetSwapper.ProposeRecord)",
        "numberOfBytes": "32",
        "value": "t_struct(ProposeRecord)1653_storage"
      },
      "t_mapping(t_uint256,t_struct(PxaOrder)3156_storage)": {
        "encoding": "mapping",
        "key": "t_uint256",
        "label": "mapping(uint256 => struct PxaMarket.PxaOrder)",
        "numberOfBytes": "32",
        "value": "t_struct(PxaOrder)3156_storage"
      },
      "t_string_storage": {
        "encoding": "bytes",
        "label": "string",
        "numberOfBytes": "32"
      },
      "t_struct(Asset)1333_storage": {
        "encoding": "inplace",
        "label": "struct AssetManager.Asset",
        "members": [
          {
            "astId": 1326,
            "contract": "contracts/Pixpress.sol:Pixpress",
            "label": "tokenAddress",
            "offset": 0,
            "slot": "0",
            "type": "t_address"
          },
          {
            "astId": 1328,
            "contract": "contracts/Pixpress.sol:Pixpress",
            "label": "protocol",
            "offset": 20,
            "slot": "0",
            "type": "t_uint8"
          },
          {
            "astId": 1330,
            "contract": "contracts/Pixpress.sol:Pixpress",
            "label": "feeBase",
            "offset": 0,
            "slot": "1",
            "type": "t_uint256"
          },
          {
            "astId": 1332,
            "contract": "contracts/Pixpress.sol:Pixpress",
            "label": "feeRatio",
            "offset": 0,
            "slot": "2",
            "type": "t_uint256"
          }
        ],
        "numberOfBytes": "96"
      },
      "t_struct(Counter)1203_storage": {
        "encoding": "inplace",
        "label": "struct Counters.Counter",
        "members": [
          {
            "astId": 1202,
            "contract": "contracts/Pixpress.sol:Pixpress",
            "label": "_value",
            "offset": 0,
            "slot": "0",
            "type": "t_uint256"
          }
        ],
        "numberOfBytes": "32"
      },
      "t_struct(MatchRecord)1672_storage": {
        "encoding": "inplace",
        "label": "struct AssetSwapper.MatchRecord",
        "members": [
          {
            "astId": 1655,
            "contract": "contracts/Pixpress.sol:Pixpress",
            "label": "proposeId",
            "offset": 0,
            "slot": "0",
            "type": "t_uint256"
          },
          {
            "astId": 1657,
            "contract": "contracts/Pixpress.sol:Pixpress",
            "label": "matcher",
            "offset": 0,
            "slot": "1",
            "type": "t_address"
          },
          {
            "astId": 1660,
            "contract": "contracts/Pixpress.sol:Pixpress",
            "label": "tokenAddresses",
            "offset": 0,
            "slot": "2",
            "type": "t_array(t_address)dyn_storage"
          },
          {
            "astId": 1663,
            "contract": "contracts/Pixpress.sol:Pixpress",
            "label": "amounts",
            "offset": 0,
            "slot": "3",
            "type": "t_array(t_uint256)dyn_storage"
          },
          {
            "astId": 1666,
            "contract": "contracts/Pixpress.sol:Pixpress",
            "label": "ids",
            "offset": 0,
            "slot": "4",
            "type": "t_array(t_uint256)dyn_storage"
          },
          {
            "astId": 1669,
            "contract": "contracts/Pixpress.sol:Pixpress",
            "label": "protocols",
            "offset": 0,
            "slot": "5",
            "type": "t_array(t_uint8)dyn_storage"
          },
          {
            "astId": 1671,
            "contract": "contracts/Pixpress.sol:Pixpress",
            "label": "index",
            "offset": 0,
            "slot": "6",
            "type": "t_uint256"
          }
        ],
        "numberOfBytes": "224"
      },
      "t_struct(ProposeRecord)1653_storage": {
        "encoding": "inplace",
        "label": "struct AssetSwapper.ProposeRecord",
        "members": [
          {
            "astId": 1630,
            "contract": "contracts/Pixpress.sol:Pixpress",
            "label": "proposer",
            "offset": 0,
            "slot": "0",
            "type": "t_address"
          },
          {
            "astId": 1632,
            "contract": "contracts/Pixpress.sol:Pixpress",
            "label": "receiver",
            "offset": 0,
            "slot": "1",
            "type": "t_address"
          },
          {
            "astId": 1634,
            "contract": "contracts/Pixpress.sol:Pixpress",
            "label": "note",
            "offset": 0,
            "slot": "2",
            "type": "t_string_storage"
          },
          {
            "astId": 1637,
            "contract": "contracts/Pixpress.sol:Pixpress",
            "label": "tokenAddresses",
            "offset": 0,
            "slot": "3",
            "type": "t_array(t_address)dyn_storage"
          },
          {
            "astId": 1640,
            "contract": "contracts/Pixpress.sol:Pixpress",
            "label": "amounts",
            "offset": 0,
            "slot": "4",
            "type": "t_array(t_uint256)dyn_storage"
          },
          {
            "astId": 1643,
            "contract": "contracts/Pixpress.sol:Pixpress",
            "label": "ids",
            "offset": 0,
            "slot": "5",
            "type": "t_array(t_uint256)dyn_storage"
          },
          {
            "astId": 1646,
            "contract": "contracts/Pixpress.sol:Pixpress",
            "label": "protocols",
            "offset": 0,
            "slot": "6",
            "type": "t_array(t_uint8)dyn_storage"
          },
          {
            "astId": 1649,
            "contract": "contracts/Pixpress.sol:Pixpress",
            "label": "wanted",
            "offset": 0,
            "slot": "7",
            "type": "t_array(t_bool)dyn_storage"
          },
          {
            "astId": 1652,
            "contract": "contracts/Pixpress.sol:Pixpress",
            "label": "matchRecordIds",
            "offset": 0,
            "slot": "8",
            "type": "t_array(t_uint256)dyn_storage"
          }
        ],
        "numberOfBytes": "288"
      },
      "t_struct(PxaOrder)3156_storage": {
        "encoding": "inplace",
        "label": "struct PxaMarket.PxaOrder",
        "members": [
          {
            "astId": 3147,
            "contract": "contracts/Pixpress.sol:Pixpress",
            "label": "seller",
            "offset": 0,
            "slot": "0",
            "type": "t_address"
          },
          {
            "astId": 3149,
            "contract": "contracts/Pixpress.sol:Pixpress",
            "label": "tokenId",
            "offset": 0,
            "slot": "1",
            "type": "t_uint256"
          },
          {
            "astId": 3151,
            "contract": "contracts/Pixpress.sol:Pixpress",
            "label": "price",
            "offset": 0,
            "slot": "2",
            "type": "t_uint256"
          },
          {
            "astId": 3153,
            "contract": "contracts/Pixpress.sol:Pixpress",
            "label": "revenue",
            "offset": 0,
            "slot": "3",
            "type": "t_uint256"
          },
          {
            "astId": 3155,
            "contract": "contracts/Pixpress.sol:Pixpress",
            "label": "index",
            "offset": 0,
            "slot": "4",
            "type": "t_uint256"
          }
        ],
        "numberOfBytes": "160"
      },
      "t_uint256": {
        "encoding": "inplace",
        "label": "uint256",
        "numberOfBytes": "32"
      },
      "t_uint8": {
        "encoding": "inplace",
        "label": "uint8",
        "numberOfBytes": "1"
      }
    }
  }
}