{
  "address": "0xAB4f0Bb884473ad191E1EacB3441fd30867212bB",
  "abi": [
    {
      "inputs": [
        {
          "internalType": "address",
          "name": "pxaAddress",
          "type": "address"
        },
        {
          "internalType": "contract IERC20Metadata",
          "name": "pxtAddress",
          "type": "address"
        }
      ],
      "stateMutability": "nonpayable",
      "type": "constructor"
    },
    {
      "anonymous": false,
      "inputs": [
        {
          "indexed": true,
          "internalType": "uint256",
          "name": "tokenId",
          "type": "uint256"
        },
        {
          "indexed": false,
          "internalType": "uint256",
          "name": "price",
          "type": "uint256"
        },
        {
          "indexed": false,
          "internalType": "uint256",
          "name": "revenue",
          "type": "uint256"
        }
      ],
      "name": "Bought",
      "type": "event"
    },
    {
      "anonymous": false,
      "inputs": [
        {
          "indexed": true,
          "internalType": "uint256",
          "name": "tokenId",
          "type": "uint256"
        },
        {
          "indexed": false,
          "internalType": "uint256",
          "name": "revenue",
          "type": "uint256"
        }
      ],
      "name": "Claimed",
      "type": "event"
    },
    {
      "anonymous": false,
      "inputs": [
        {
          "indexed": true,
          "internalType": "uint256",
          "name": "id",
          "type": "uint256"
        },
        {
          "components": [
            {
              "internalType": "uint256",
              "name": "proposeId",
              "type": "uint256"
            },
            {
              "internalType": "address",
              "name": "matcher",
              "type": "address"
            },
            {
              "internalType": "address[]",
              "name": "tokenAddresses",
              "type": "address[]"
            },
            {
              "internalType": "uint256[]",
              "name": "amounts",
              "type": "uint256[]"
            },
            {
              "internalType": "uint256[]",
              "name": "ids",
              "type": "uint256[]"
            },
            {
              "internalType": "uint8[]",
              "name": "protocols",
              "type": "uint8[]"
            },
            {
              "internalType": "uint256",
              "name": "index",
              "type": "uint256"
            }
          ],
          "indexed": false,
          "internalType": "struct AssetSwapper.MatchRecord",
          "name": "record",
          "type": "tuple"
        }
      ],
      "name": "Matched",
      "type": "event"
    },
    {
      "anonymous": false,
      "inputs": [
        {
          "indexed": true,
          "internalType": "uint256",
          "name": "id",
          "type": "uint256"
        },
        {
          "components": [
            {
              "internalType": "uint256",
              "name": "proposeId",
              "type": "uint256"
            },
            {
              "internalType": "address",
              "name": "matcher",
              "type": "address"
            },
            {
              "internalType": "address[]",
              "name": "tokenAddresses",
              "type": "address[]"
            },
            {
              "internalType": "uint256[]",
              "name": "amounts",
              "type": "uint256[]"
            },
            {
              "internalType": "uint256[]",
              "name": "ids",
              "type": "uint256[]"
            },
            {
              "internalType": "uint8[]",
              "name": "protocols",
              "type": "uint8[]"
            },
            {
              "internalType": "uint256",
              "name": "index",
              "type": "uint256"
            }
          ],
          "indexed": false,
          "internalType": "struct AssetSwapper.MatchRecord",
          "name": "record",
          "type": "tuple"
        }
      ],
      "name": "MatcherRemoved",
      "type": "event"
    },
    {
      "anonymous": false,
      "inputs": [
        {
          "indexed": true,
          "internalType": "uint256",
          "name": "tokenId",
          "type": "uint256"
        },
        {
          "indexed": false,
          "internalType": "address",
          "name": "seller",
          "type": "address"
        },
        {
          "indexed": false,
          "internalType": "uint256",
          "name": "price",
          "type": "uint256"
        }
      ],
      "name": "OrderCreated",
      "type": "event"
    },
    {
      "anonymous": false,
      "inputs": [
        {
          "indexed": true,
          "internalType": "uint256",
          "name": "tokenId",
          "type": "uint256"
        },
        {
          "indexed": false,
          "internalType": "uint256",
          "name": "revenue",
          "type": "uint256"
        }
      ],
      "name": "OrderRemoved",
      "type": "event"
    },
    {
      "anonymous": false,
      "inputs": [
        {
          "indexed": true,
          "internalType": "address",
          "name": "previousOwner",
          "type": "address"
        },
        {
          "indexed": true,
          "internalType": "address",
          "name": "newOwner",
          "type": "address"
        }
      ],
      "name": "OwnershipTransferred",
      "type": "event"
    },
    {
      "anonymous": false,
      "inputs": [
        {
          "indexed": true,
          "internalType": "uint256",
          "name": "id",
          "type": "uint256"
        },
        {
          "components": [
            {
              "internalType": "address",
              "name": "proposer",
              "type": "address"
            },
            {
              "internalType": "address",
              "name": "receiver",
              "type": "address"
            },
            {
              "internalType": "string",
              "name": "note",
              "type": "string"
            },
            {
              "internalType": "address[]",
              "name": "tokenAddresses",
              "type": "address[]"
            },
            {
              "internalType": "uint256[]",
              "name": "amounts",
              "type": "uint256[]"
            },
            {
              "internalType": "uint256[]",
              "name": "ids",
              "type": "uint256[]"
            },
            {
              "internalType": "uint8[]",
              "name": "protocols",
              "type": "uint8[]"
            },
            {
              "internalType": "bool[]",
              "name": "wanted",
              "type": "bool[]"
            },
            {
              "internalType": "uint256[]",
              "name": "matchRecordIds",
              "type": "uint256[]"
            }
          ],
          "indexed": false,
          "internalType": "struct AssetSwapper.ProposeRecord",
          "name": "record",
          "type": "tuple"
        }
      ],
      "name": "ProposalRemoved",
      "type": "event"
    },
    {
      "anonymous": false,
      "inputs": [
        {
          "indexed": true,
          "internalType": "uint256",
          "name": "id",
          "type": "uint256"
        },
        {
          "components": [
            {
              "internalType": "address",
              "name": "proposer",
              "type": "address"
            },
            {
              "internalType": "address",
              "name": "receiver",
              "type": "address"
            },
            {
              "internalType": "string",
              "name": "note",
              "type": "string"
            },
            {
              "internalType": "address[]",
              "name": "tokenAddresses",
              "type": "address[]"
            },
            {
              "internalType": "uint256[]",
              "name": "amounts",
              "type": "uint256[]"
            },
            {
              "internalType": "uint256[]",
              "name": "ids",
              "type": "uint256[]"
            },
            {
              "internalType": "uint8[]",
              "name": "protocols",
              "type": "uint8[]"
            },
            {
              "internalType": "bool[]",
              "name": "wanted",
              "type": "bool[]"
            },
            {
              "internalType": "uint256[]",
              "name": "matchRecordIds",
              "type": "uint256[]"
            }
          ],
          "indexed": false,
          "internalType": "struct AssetSwapper.ProposeRecord",
          "name": "record",
          "type": "tuple"
        }
      ],
      "name": "Proposed",
      "type": "event"
    },
    {
      "anonymous": false,
      "inputs": [
        {
          "indexed": true,
          "internalType": "uint256",
          "name": "tokenId",
          "type": "uint256"
        },
        {
          "indexed": false,
          "internalType": "uint256",
          "name": "revenue",
          "type": "uint256"
        }
      ],
      "name": "RevenueIncreased",
      "type": "event"
    },
    {
      "anonymous": false,
      "inputs": [
        {
          "indexed": true,
          "internalType": "uint256",
          "name": "proposeId",
          "type": "uint256"
        },
        {
          "indexed": true,
          "internalType": "uint256",
          "name": "matchId",
          "type": "uint256"
        }
      ],
      "name": "Swapped",
      "type": "event"
    },
    {
      "inputs": [],
      "name": "AM_RATE_BASE",
      "outputs": [
        {
          "internalType": "uint256",
          "name": "",
          "type": "uint256"
        }
      ],
      "stateMutability": "view",
      "type": "function"
    },
    {
      "inputs": [],
      "name": "PROTOCOL_ERC1155",
      "outputs": [
        {
          "internalType": "uint8",
          "name": "",
          "type": "uint8"
        }
      ],
      "stateMutability": "view",
      "type": "function"
    },
    {
      "inputs": [],
      "name": "PROTOCOL_ERC20",
      "outputs": [
        {
          "internalType": "uint8",
          "name": "",
          "type": "uint8"
        }
      ],
      "stateMutability": "view",
      "type": "function"
    },
    {
      "inputs": [],
      "name": "PROTOCOL_ERC721",
      "outputs": [
        {
          "internalType": "uint8",
          "name": "",
          "type": "uint8"
        }
      ],
      "stateMutability": "view",
      "type": "function"
    },
    {
      "inputs": [],
      "name": "PXA_RATE_BASE",
      "outputs": [
        {
          "internalType": "uint256",
          "name": "",
          "type": "uint256"
        }
      ],
      "stateMutability": "view",
      "type": "function"
    },
    {
      "inputs": [
        {
          "internalType": "uint256",
          "name": "proposeId",
          "type": "uint256"
        },
        {
          "internalType": "uint256",
          "name": "matchId",
          "type": "uint256"
        }
      ],
      "name": "acceptSwap",
      "outputs": [],
      "stateMutability": "nonpayable",
      "type": "function"
    },
    {
      "inputs": [],
      "name": "amFeeBase",
      "outputs": [
        {
          "internalType": "uint256",
          "name": "",
          "type": "uint256"
        }
      ],
      "stateMutability": "view",
      "type": "function"
    },
    {
      "inputs": [],
      "name": "amFeeRatio",
      "outputs": [
        {
          "internalType": "uint256",
          "name": "",
          "type": "uint256"
        }
      ],
      "stateMutability": "view",
      "type": "function"
    },
    {
      "inputs": [
        {
          "internalType": "address",
          "name": "",
          "type": "address"
        }
      ],
      "name": "assets",
      "outputs": [
        {
          "internalType": "address",
          "name": "tokenAddress",
          "type": "address"
        },
        {
          "internalType": "uint8",
          "name": "protocol",
          "type": "uint8"
        },
        {
          "internalType": "bool",
          "name": "verified",
          "type": "bool"
        },
        {
          "internalType": "uint256",
          "name": "feeBase",
          "type": "uint256"
        },
        {
          "internalType": "uint256",
          "name": "feeRatio",
          "type": "uint256"
        }
      ],
      "stateMutability": "view",
      "type": "function"
    },
    {
      "inputs": [],
      "name": "balance",
      "outputs": [
        {
          "internalType": "uint256",
          "name": "",
          "type": "uint256"
        }
      ],
      "stateMutability": "view",
      "type": "function"
    },
    {
      "inputs": [
        {
          "internalType": "uint256",
          "name": "tokenId",
          "type": "uint256"
        }
      ],
      "name": "buy",
      "outputs": [],
      "stateMutability": "payable",
      "type": "function"
    },
    {
      "inputs": [
        {
          "internalType": "address[]",
          "name": "tokenAddreses",
          "type": "address[]"
        },
        {
          "internalType": "uint256[]",
          "name": "amounts",
          "type": "uint256[]"
        },
        {
          "internalType": "bool[]",
          "name": "wanted",
          "type": "bool[]"
        }
      ],
      "name": "calcSwapFee",
      "outputs": [
        {
          "internalType": "uint256",
          "name": "",
          "type": "uint256"
        }
      ],
      "stateMutability": "view",
      "type": "function"
    },
    {
      "inputs": [
        {
          "internalType": "uint256",
          "name": "tokenId",
          "type": "uint256"
        }
      ],
      "name": "cancelOrder",
      "outputs": [],
      "stateMutability": "payable",
      "type": "function"
    },
    {
      "inputs": [
        {
          "internalType": "uint256",
          "name": "tokenId",
          "type": "uint256"
        }
      ],
      "name": "claim",
      "outputs": [],
      "stateMutability": "payable",
      "type": "function"
    },
    {
      "inputs": [
        {
          "internalType": "address",
          "name": "tokenAddress",
          "type": "address"
        },
        {
          "internalType": "uint8",
          "name": "protocol",
          "type": "uint8"
        }
      ],
      "name": "createAsset",
      "outputs": [],
      "stateMutability": "nonpayable",
      "type": "function"
    },
    {
      "inputs": [
        {
          "internalType": "uint256",
          "name": "tokenId",
          "type": "uint256"
        },
        {
          "internalType": "uint256",
          "name": "price",
          "type": "uint256"
        }
      ],
      "name": "createOrder",
      "outputs": [],
      "stateMutability": "nonpayable",
      "type": "function"
    },
    {
      "inputs": [
        {
          "internalType": "uint256",
          "name": "id",
          "type": "uint256"
        }
      ],
      "name": "matchRecord",
      "outputs": [
        {
          "components": [
            {
              "internalType": "uint256",
              "name": "proposeId",
              "type": "uint256"
            },
            {
              "internalType": "address",
              "name": "matcher",
              "type": "address"
            },
            {
              "internalType": "address[]",
              "name": "tokenAddresses",
              "type": "address[]"
            },
            {
              "internalType": "uint256[]",
              "name": "amounts",
              "type": "uint256[]"
            },
            {
              "internalType": "uint256[]",
              "name": "ids",
              "type": "uint256[]"
            },
            {
              "internalType": "uint8[]",
              "name": "protocols",
              "type": "uint8[]"
            },
            {
              "internalType": "uint256",
              "name": "index",
              "type": "uint256"
            }
          ],
          "internalType": "struct AssetSwapper.MatchRecord",
          "name": "record",
          "type": "tuple"
        }
      ],
      "stateMutability": "view",
      "type": "function"
    },
    {
      "inputs": [
        {
          "internalType": "uint256",
          "name": "proposeId",
          "type": "uint256"
        },
        {
          "internalType": "address[]",
          "name": "tokenAddresses",
          "type": "address[]"
        },
        {
          "internalType": "uint256[]",
          "name": "amounts",
          "type": "uint256[]"
        },
        {
          "internalType": "uint256[]",
          "name": "ids",
          "type": "uint256[]"
        },
        {
          "internalType": "uint8[]",
          "name": "protocols",
          "type": "uint8[]"
        }
      ],
      "name": "matchSwap",
      "outputs": [],
      "stateMutability": "payable",
      "type": "function"
    },
    {
      "inputs": [
        {
          "internalType": "uint256",
          "name": "proposeId",
          "type": "uint256"
        },
        {
          "internalType": "address[]",
          "name": "tokenAddresses",
          "type": "address[]"
        },
        {
          "internalType": "uint256[]",
          "name": "amounts",
          "type": "uint256[]"
        },
        {
          "internalType": "uint256[]",
          "name": "ids",
          "type": "uint256[]"
        },
        {
          "internalType": "uint8[]",
          "name": "protocols",
          "type": "uint8[]"
        }
      ],
      "name": "matchSwapWithPxt",
      "outputs": [],
      "stateMutability": "payable",
      "type": "function"
    },
    {
      "inputs": [
        {
          "internalType": "address",
          "name": "",
          "type": "address"
        },
        {
          "internalType": "address",
          "name": "",
          "type": "address"
        },
        {
          "internalType": "uint256[]",
          "name": "",
          "type": "uint256[]"
        },
        {
          "internalType": "uint256[]",
          "name": "",
          "type": "uint256[]"
        },
        {
          "internalType": "bytes",
          "name": "",
          "type": "bytes"
        }
      ],
      "name": "onERC1155BatchReceived",
      "outputs": [
        {
          "internalType": "bytes4",
          "name": "",
          "type": "bytes4"
        }
      ],
      "stateMutability": "nonpayable",
      "type": "function"
    },
    {
      "inputs": [
        {
          "internalType": "address",
          "name": "",
          "type": "address"
        },
        {
          "internalType": "address",
          "name": "",
          "type": "address"
        },
        {
          "internalType": "uint256",
          "name": "",
          "type": "uint256"
        },
        {
          "internalType": "uint256",
          "name": "",
          "type": "uint256"
        },
        {
          "internalType": "bytes",
          "name": "",
          "type": "bytes"
        }
      ],
      "name": "onERC1155Received",
      "outputs": [
        {
          "internalType": "bytes4",
          "name": "",
          "type": "bytes4"
        }
      ],
      "stateMutability": "nonpayable",
      "type": "function"
    },
    {
      "inputs": [
        {
          "internalType": "address",
          "name": "",
          "type": "address"
        },
        {
          "internalType": "address",
          "name": "",
          "type": "address"
        },
        {
          "internalType": "uint256",
          "name": "",
          "type": "uint256"
        },
        {
          "internalType": "bytes",
          "name": "",
          "type": "bytes"
        }
      ],
      "name": "onERC721Received",
      "outputs": [
        {
          "internalType": "bytes4",
          "name": "",
          "type": "bytes4"
        }
      ],
      "stateMutability": "nonpayable",
      "type": "function"
    },
    {
      "inputs": [],
      "name": "owner",
      "outputs": [
        {
          "internalType": "address",
          "name": "",
          "type": "address"
        }
      ],
      "stateMutability": "view",
      "type": "function"
    },
    {
      "inputs": [
        {
          "internalType": "uint256",
          "name": "value",
          "type": "uint256"
        }
      ],
      "name": "ownerDeposit",
      "outputs": [],
      "stateMutability": "nonpayable",
      "type": "function"
    },
    {
      "inputs": [
        {
          "internalType": "uint256",
          "name": "value",
          "type": "uint256"
        }
      ],
      "name": "ownerWithdraw",
      "outputs": [],
      "stateMutability": "nonpayable",
      "type": "function"
    },
    {
      "inputs": [],
      "name": "perDeposit",
      "outputs": [
        {
          "internalType": "uint256",
          "name": "",
          "type": "uint256"
        }
      ],
      "stateMutability": "view",
      "type": "function"
    },
    {
      "inputs": [],
      "name": "perWithdraw",
      "outputs": [
        {
          "internalType": "uint256",
          "name": "",
          "type": "uint256"
        }
      ],
      "stateMutability": "view",
      "type": "function"
    },
    {
      "inputs": [],
      "name": "poolLowerBoundary",
      "outputs": [
        {
          "internalType": "uint256",
          "name": "",
          "type": "uint256"
        }
      ],
      "stateMutability": "view",
      "type": "function"
    },
    {
      "inputs": [],
      "name": "poolUpperBoundary",
      "outputs": [
        {
          "internalType": "uint256",
          "name": "",
          "type": "uint256"
        }
      ],
      "stateMutability": "view",
      "type": "function"
    },
    {
      "inputs": [],
      "name": "poolWindow",
      "outputs": [
        {
          "internalType": "uint256",
          "name": "",
          "type": "uint256"
        }
      ],
      "stateMutability": "view",
      "type": "function"
    },
    {
      "inputs": [
        {
          "internalType": "uint256",
          "name": "id",
          "type": "uint256"
        }
      ],
      "name": "proposeRecord",
      "outputs": [
        {
          "components": [
            {
              "internalType": "address",
              "name": "proposer",
              "type": "address"
            },
            {
              "internalType": "address",
              "name": "receiver",
              "type": "address"
            },
            {
              "internalType": "string",
              "name": "note",
              "type": "string"
            },
            {
              "internalType": "address[]",
              "name": "tokenAddresses",
              "type": "address[]"
            },
            {
              "internalType": "uint256[]",
              "name": "amounts",
              "type": "uint256[]"
            },
            {
              "internalType": "uint256[]",
              "name": "ids",
              "type": "uint256[]"
            },
            {
              "internalType": "uint8[]",
              "name": "protocols",
              "type": "uint8[]"
            },
            {
              "internalType": "bool[]",
              "name": "wanted",
              "type": "bool[]"
            },
            {
              "internalType": "uint256[]",
              "name": "matchRecordIds",
              "type": "uint256[]"
            }
          ],
          "internalType": "struct AssetSwapper.ProposeRecord",
          "name": "record",
          "type": "tuple"
        }
      ],
      "stateMutability": "view",
      "type": "function"
    },
    {
      "inputs": [
        {
          "internalType": "address",
          "name": "receiver",
          "type": "address"
        },
        {
          "internalType": "string",
          "name": "note",
          "type": "string"
        },
        {
          "internalType": "address[]",
          "name": "tokenAddresses",
          "type": "address[]"
        },
        {
          "internalType": "uint256[]",
          "name": "amounts",
          "type": "uint256[]"
        },
        {
          "internalType": "uint256[]",
          "name": "ids",
          "type": "uint256[]"
        },
        {
          "internalType": "uint8[]",
          "name": "protocols",
          "type": "uint8[]"
        },
        {
          "internalType": "bool[]",
          "name": "wanted",
          "type": "bool[]"
        }
      ],
      "name": "proposeSwap",
      "outputs": [],
      "stateMutability": "payable",
      "type": "function"
    },
    {
      "inputs": [
        {
          "internalType": "address",
          "name": "receiver",
          "type": "address"
        },
        {
          "internalType": "string",
          "name": "note",
          "type": "string"
        },
        {
          "internalType": "address[]",
          "name": "tokenAddresses",
          "type": "address[]"
        },
        {
          "internalType": "uint256[]",
          "name": "amounts",
          "type": "uint256[]"
        },
        {
          "internalType": "uint256[]",
          "name": "ids",
          "type": "uint256[]"
        },
        {
          "internalType": "uint8[]",
          "name": "protocols",
          "type": "uint8[]"
        },
        {
          "internalType": "bool[]",
          "name": "wanted",
          "type": "bool[]"
        }
      ],
      "name": "proposeSwapWithPxt",
      "outputs": [],
      "stateMutability": "payable",
      "type": "function"
    },
    {
      "inputs": [],
      "name": "pxaFeeRatio",
      "outputs": [
        {
          "internalType": "uint256",
          "name": "",
          "type": "uint256"
        }
      ],
      "stateMutability": "view",
      "type": "function"
    },
    {
      "inputs": [],
      "name": "pxaFeeShareRatio",
      "outputs": [
        {
          "internalType": "uint256",
          "name": "",
          "type": "uint256"
        }
      ],
      "stateMutability": "view",
      "type": "function"
    },
    {
      "inputs": [
        {
          "internalType": "uint256",
          "name": "tokenId",
          "type": "uint256"
        }
      ],
      "name": "pxaOrder",
      "outputs": [
        {
          "components": [
            {
              "internalType": "address",
              "name": "seller",
              "type": "address"
            },
            {
              "internalType": "uint256",
              "name": "tokenId",
              "type": "uint256"
            },
            {
              "internalType": "uint256",
              "name": "price",
              "type": "uint256"
            },
            {
              "internalType": "uint256",
              "name": "revenue",
              "type": "uint256"
            },
            {
              "internalType": "uint256",
              "name": "index",
              "type": "uint256"
            }
          ],
          "internalType": "struct PxaMarket.PxaOrder",
          "name": "order",
          "type": "tuple"
        }
      ],
      "stateMutability": "view",
      "type": "function"
    },
    {
      "inputs": [
        {
          "internalType": "uint256",
          "name": "matchId",
          "type": "uint256"
        }
      ],
      "name": "removeMatchRecord",
      "outputs": [],
      "stateMutability": "nonpayable",
      "type": "function"
    },
    {
      "inputs": [
        {
          "internalType": "uint256",
          "name": "proposeId",
          "type": "uint256"
        }
      ],
      "name": "removeProposeRecord",
      "outputs": [],
      "stateMutability": "nonpayable",
      "type": "function"
    },
    {
      "inputs": [],
      "name": "renounceOwnership",
      "outputs": [],
      "stateMutability": "nonpayable",
      "type": "function"
    },
    {
      "inputs": [
        {
          "internalType": "uint256",
          "name": "value",
          "type": "uint256"
        }
      ],
      "name": "setAmFeeBase",
      "outputs": [],
      "stateMutability": "nonpayable",
      "type": "function"
    },
    {
      "inputs": [
        {
          "internalType": "uint256",
          "name": "value",
          "type": "uint256"
        }
      ],
      "name": "setAmFeeRatio",
      "outputs": [],
      "stateMutability": "nonpayable",
      "type": "function"
    },
    {
      "inputs": [
        {
          "internalType": "address",
          "name": "tokenAddress",
          "type": "address"
        },
        {
          "internalType": "uint256",
          "name": "base",
          "type": "uint256"
        }
      ],
      "name": "setAssetFeeBase",
      "outputs": [],
      "stateMutability": "nonpayable",
      "type": "function"
    },
    {
      "inputs": [
        {
          "internalType": "address",
          "name": "tokenAddress",
          "type": "address"
        },
        {
          "internalType": "uint256",
          "name": "ratio",
          "type": "uint256"
        }
      ],
      "name": "setAssetFeeRatio",
      "outputs": [],
      "stateMutability": "nonpayable",
      "type": "function"
    },
    {
      "inputs": [
        {
          "internalType": "address",
          "name": "tokenAddress",
          "type": "address"
        },
        {
          "internalType": "bool",
          "name": "verified",
          "type": "bool"
        }
      ],
      "name": "setAssetVerified",
      "outputs": [],
      "stateMutability": "nonpayable",
      "type": "function"
    },
    {
      "inputs": [
        {
          "internalType": "uint256",
          "name": "value",
          "type": "uint256"
        }
      ],
      "name": "setPxaFeeRatio",
      "outputs": [],
      "stateMutability": "nonpayable",
      "type": "function"
    },
    {
      "inputs": [
        {
          "internalType": "address",
          "name": "pxaAddress",
          "type": "address"
        }
      ],
      "name": "setTokenAddress",
      "outputs": [],
      "stateMutability": "nonpayable",
      "type": "function"
    },
    {
      "inputs": [
        {
          "internalType": "bytes4",
          "name": "interfaceId",
          "type": "bytes4"
        }
      ],
      "name": "supportsInterface",
      "outputs": [
        {
          "internalType": "bool",
          "name": "",
          "type": "bool"
        }
      ],
      "stateMutability": "view",
      "type": "function"
    },
    {
      "inputs": [
        {
          "internalType": "address",
          "name": "newOwner",
          "type": "address"
        }
      ],
      "name": "transferOwnership",
      "outputs": [],
      "stateMutability": "nonpayable",
      "type": "function"
    }
  ],
  "transactionHash": "0x3d2d769788905f5e36ca5d2251a2b377d6fb74c8bbd9aa88667ba37baa0aae58",
  "args": [
    "0x082C09c950d002a6020d68BA8e20a13802B0B20d",
    "0xd5E3bD9e68578F711407579991E01853Aa0d0B86"
  ],
  "numDeployments": 3,
  "solcInputHash": "58fe3b30e13b78904ee8faa4bb002b9a",
  "bytecode": "0x6080604052678ac7230489e80000600155612710600255600067ffffffffffffffff811115620000345762000033620002b9565b5b604051908082528060200260200182016040528015620000635781602001602082028036833780820191505090505b50600a90805190602001906200007b92919062000248565b5061c3506011553480156200008f57600080fd5b506040516200ad693803806200ad698339818101604052810190620000b5919062000397565b8082620000d7620000cb6200017c60201b60201c565b6200018460201b60201c565b600160048190555080600b60006101000a81548173ffffffffffffffffffffffffffffffffffffffff021916908373ffffffffffffffffffffffffffffffffffffffff160217905550611388600c819055505080600d60006101000a81548173ffffffffffffffffffffffffffffffffffffffff021916908373ffffffffffffffffffffffffffffffffffffffff160217905550600a600e81905550505050620003de565b600033905090565b60008060009054906101000a900473ffffffffffffffffffffffffffffffffffffffff169050816000806101000a81548173ffffffffffffffffffffffffffffffffffffffff021916908373ffffffffffffffffffffffffffffffffffffffff1602179055508173ffffffffffffffffffffffffffffffffffffffff168173ffffffffffffffffffffffffffffffffffffffff167f8be0079c531659141344cd1fd0a4f28419497f9722a3daafe3b4186f6b6457e060405160405180910390a35050565b82805482825590600052602060002090810192821562000287579160200282015b828111156200028657825182559160200191906001019062000269565b5b5090506200029691906200029a565b5090565b5b80821115620002b55760008160009055506001016200029b565b5090565b7f4e487b7100000000000000000000000000000000000000000000000000000000600052604160045260246000fd5b600080fd5b600073ffffffffffffffffffffffffffffffffffffffff82169050919050565b60006200031a82620002ed565b9050919050565b6200032c816200030d565b81146200033857600080fd5b50565b6000815190506200034c8162000321565b92915050565b60006200035f826200030d565b9050919050565b620003718162000352565b81146200037d57600080fd5b50565b600081519050620003918162000366565b92915050565b60008060408385031215620003b157620003b0620002e8565b5b6000620003c1858286016200033b565b9250506020620003d48582860162000380565b9150509250929050565b61a97b80620003ee6000396000f3fe6080604052600436106102935760003560e01c80637d0982001161015a578063bc197c81116100c1578063e52f89411161007a578063e52f89411461099c578063ef0aa218146109c5578063f11b8188146109e1578063f23a6e6114610a22578063f2fde38b14610a5f578063f9ebec6314610a8857610293565b8063bc197c811461089d578063c284f02c146108da578063cd7e227114610903578063d1d5a0711461092c578063d96a094a14610955578063e014afaf1461097157610293565b8063961e975a11610113578063961e975a146107ae5780639991d3bf146107d957806399f95ece146107f5578063a737570114610820578063a9dc8b8514610849578063b69ef8a81461087257610293565b80637d098200146106bb578063807f68d2146106e657806381d9a25c14610711578063847771711461073c5780638ca11c74146107585780638da5cb5b1461078357610293565b8063476394e2116101fe5780636c149d58116101b75780636c149d58146105c3578063715018a6146105ec57806377f2fcbc1461060357806379109baa1461062c5780637a5b0231146106555780637b6ee86e1461069257610293565b8063476394e2146104df5780634b7b9ad01461050a578063514fcac714610535578063558675d6146105515780636a579d2a1461056d5780636bcbd11c1461059857610293565b8063262597251161025057806326259725146103ba57806326a4e8d2146103f75780632aa1c79a1461042057806333f707d11461045d578063379607f514610486578063434f7327146104a257610293565b806301ffc9a71461029857806302de00e8146102d5578063141833dc14610300578063150b7a02146103295780631cfa829514610366578063240d78a11461038f575b600080fd5b3480156102a457600080fd5b506102bf60048036038101906102ba9190615d3e565b610ab3565b6040516102cc9190615d86565b60405180910390f35b3480156102e157600080fd5b506102ea610b2d565b6040516102f79190615dbd565b60405180910390f35b34801561030c57600080fd5b5061032760048036038101906103229190615e0e565b610b32565b005b34801561033557600080fd5b50610350600480360381019061034b9190615fdf565b610c10565b60405161035d9190616071565b60405180910390f35b34801561037257600080fd5b5061038d6004803603810190610388919061608c565b610c24565b005b34801561039b57600080fd5b506103a4610d0a565b6040516103b191906160db565b60405180910390f35b3480156103c657600080fd5b506103e160048036038101906103dc9190615e0e565b610de6565b6040516103ee91906163e1565b60405180910390f35b34801561040357600080fd5b5061041e60048036038101906104199190616403565b611039565b005b34801561042c57600080fd5b50610447600480360381019061044291906166aa565b6110f9565b60405161045491906160db565b60405180910390f35b34801561046957600080fd5b50610484600480360381019061047f9190615e0e565b6111a8565b005b6104a0600480360381019061049b9190615e0e565b611325565b005b3480156104ae57600080fd5b506104c960048036038101906104c49190615e0e565b611332565b6040516104d691906167b9565b60405180910390f35b3480156104eb57600080fd5b506104f46113dd565b60405161050191906160db565b60405180910390f35b34801561051657600080fd5b5061051f6113e4565b60405161052c9190615dbd565b60405180910390f35b61054f600480360381019061054a9190615e0e565b6113e9565b005b61056b600480360381019061056691906168c3565b611588565b005b34801561057957600080fd5b50610582611764565b60405161058f91906160db565b60405180910390f35b3480156105a457600080fd5b506105ad61176e565b6040516105ba91906160db565b60405180910390f35b3480156105cf57600080fd5b506105ea60048036038101906105e59190615e0e565b611774565b005b3480156105f857600080fd5b506106016118c4565b005b34801561060f57600080fd5b5061062a60048036038101906106259190615e0e565b61194c565b005b34801561063857600080fd5b50610653600480360381019061064e919061608c565b611abd565b005b34801561066157600080fd5b5061067c60048036038101906106779190615e0e565b611d86565b6040516106899190616be3565b60405180910390f35b34801561069e57600080fd5b506106b960048036038101906106b49190616c05565b612183565b005b3480156106c757600080fd5b506106d061237d565b6040516106dd91906160db565b60405180910390f35b3480156106f257600080fd5b506106fb612387565b60405161070891906160db565b60405180910390f35b34801561071d57600080fd5b50610726612391565b60405161073391906160db565b60405180910390f35b610756600480360381019061075191906168c3565b61247b565b005b34801561076457600080fd5b5061076d6124fc565b60405161077a9190615dbd565b60405180910390f35b34801561078f57600080fd5b50610798612501565b6040516107a59190616c54565b60405180910390f35b3480156107ba57600080fd5b506107c361252a565b6040516107d091906160db565b60405180910390f35b6107f360048036038101906107ee9190616d10565b612531565b005b34801561080157600080fd5b5061080a61267b565b60405161081791906160db565b60405180910390f35b34801561082c57600080fd5b5061084760048036038101906108429190615e0e565b612681565b005b34801561085557600080fd5b50610870600480360381019061086b9190615e0e565b612707565b005b34801561087e57600080fd5b5061088761278d565b60405161089491906160db565b60405180910390f35b3480156108a957600080fd5b506108c460048036038101906108bf9190616e5a565b612830565b6040516108d19190616071565b60405180910390f35b3480156108e657600080fd5b5061090160048036038101906108fc9190615e0e565b612845565b005b34801561090f57600080fd5b5061092a60048036038101906109259190616f29565b6128cb565b005b34801561093857600080fd5b50610953600480360381019061094e9190616f29565b612a64565b005b61096f600480360381019061096a9190615e0e565b612bfd565b005b34801561097d57600080fd5b50610986612e4a565b60405161099391906160db565b60405180910390f35b3480156109a857600080fd5b506109c360048036038101906109be9190616f69565b612e50565b005b6109df60048036038101906109da9190616d10565b612ffc565b005b3480156109ed57600080fd5b50610a086004803603810190610a039190616403565b613081565b604051610a19959493929190616fa9565b60405180910390f35b348015610a2e57600080fd5b50610a496004803603810190610a449190616ffc565b6130f1565b604051610a569190616071565b60405180910390f35b348015610a6b57600080fd5b50610a866004803603810190610a819190616403565b613106565b005b348015610a9457600080fd5b50610a9d6131fe565b604051610aaa91906160db565b60405180910390f35b60007f4e2312e0000000000000000000000000000000000000000000000000000000007bffffffffffffffffffffffffffffffffffffffffffffffffffffffff1916827bffffffffffffffffffffffffffffffffffffffffffffffffffffffff19161480610b265750610b2582613204565b5b9050919050565b600281565b610b3a61326e565b73ffffffffffffffffffffffffffffffffffffffff16610b58612501565b73ffffffffffffffffffffffffffffffffffffffff1614610bae576040517f08c379a0000000000000000000000000000000000000000000000000000000008152600401610ba5906170f0565b60405180910390fd5b610bfd333083600d60009054906101000a900473ffffffffffffffffffffffffffffffffffffffff1673ffffffffffffffffffffffffffffffffffffffff16613276909392919063ffffffff16565b610c0d610c0861278d565b6132ff565b50565b600063150b7a0260e01b9050949350505050565b60026004541415610c6a576040517f08c379a0000000000000000000000000000000000000000000000000000000008152600401610c619061715c565b60405180910390fd5b6002600481905550610c7c828261332a565b6000610c86610d0a565b90506000811115610cf457610ca733600283610ca291906171da565b61379e565b610cf36008600084815260200190815260200160002060010160009054906101000a900473ffffffffffffffffffffffffffffffffffffffff16600283610cee91906171da565b61379e565b5b610cfd836138da565b5060016004819055505050565b600080610d1561278d565b1415610d245760009050610de3565b600d60009054906101000a900473ffffffffffffffffffffffffffffffffffffffff1673ffffffffffffffffffffffffffffffffffffffff1663313ce5676040518163ffffffff1660e01b8152600401602060405180830381865afa158015610d91573d6000803e3d6000fd5b505050506040513d601f19601f82011682018060405250810190610db59190617220565b600a610dc19190617380565b601054610dcc61278d565b610dd691906171da565b610de091906173cb565b90505b90565b610dee615829565b600860008381526020019081526020016000206040518060e0016040529081600082015481526020016001820160009054906101000a900473ffffffffffffffffffffffffffffffffffffffff1673ffffffffffffffffffffffffffffffffffffffff1673ffffffffffffffffffffffffffffffffffffffff16815260200160028201805480602002602001604051908101604052809291908181526020018280548015610ef157602002820191906000526020600020905b8160009054906101000a900473ffffffffffffffffffffffffffffffffffffffff1673ffffffffffffffffffffffffffffffffffffffff1681526020019060010190808311610ea7575b5050505050815260200160038201805480602002602001604051908101604052809291908181526020018280548015610f4957602002820191906000526020600020905b815481526020019060010190808311610f35575b5050505050815260200160048201805480602002602001604051908101604052809291908181526020018280548015610fa157602002820191906000526020600020905b815481526020019060010190808311610f8d575b505050505081526020016005820180548060200260200160405190810160405280929190818152602001828054801561101f57602002820191906000526020600020906000905b82829054906101000a900460ff1660ff1681526020019060010190602082600001049283019260010382029150808411610fe85790505b505050505081526020016006820154815250509050919050565b61104161326e565b73ffffffffffffffffffffffffffffffffffffffff1661105f612501565b73ffffffffffffffffffffffffffffffffffffffff16146110b5576040517f08c379a00000000000000000000000000000000000000000000000000000000081526004016110ac906170f0565b60405180910390fd5b80600b60006101000a81548173ffffffffffffffffffffffffffffffffffffffff021916908373ffffffffffffffffffffffffffffffffffffffff16021790555050565b6000806000905060005b855181101561119c576000151584828151811061112357611122617425565b5b6020026020010151151514156111895784818151811061114657611145617425565b5b602002602001015161117187838151811061116457611163617425565b5b6020026020010151613a18565b61117b91906173cb565b826111869190617454565b91505b8080611194906174aa565b915050611103565b50809150509392505050565b6111b061326e565b73ffffffffffffffffffffffffffffffffffffffff166111ce612501565b73ffffffffffffffffffffffffffffffffffffffff1614611224576040517f08c379a000000000000000000000000000000000000000000000000000000000815260040161121b906170f0565b60405180910390fd5b600d60009054906101000a900473ffffffffffffffffffffffffffffffffffffffff1673ffffffffffffffffffffffffffffffffffffffff1663095ea7b333836040518363ffffffff1660e01b81526004016112819291906174f3565b6020604051808303816000875af11580156112a0573d6000803e3d6000fd5b505050506040513d601f19601f820116820180604052508101906112c49190617531565b506113123382600d60009054906101000a900473ffffffffffffffffffffffffffffffffffffffff1673ffffffffffffffffffffffffffffffffffffffff16613b7b9092919063ffffffff16565b61132261131d61278d565b6132ff565b50565b61132f3382613c01565b50565b61133a61587c565b600960008381526020019081526020016000206040518060a00160405290816000820160009054906101000a900473ffffffffffffffffffffffffffffffffffffffff1673ffffffffffffffffffffffffffffffffffffffff1673ffffffffffffffffffffffffffffffffffffffff1681526020016001820154815260200160028201548152602001600382015481526020016004820154815250509050919050565b620f424081565b600181565b6009600082815260200190815260200160002060000160009054906101000a900473ffffffffffffffffffffffffffffffffffffffff1673ffffffffffffffffffffffffffffffffffffffff163373ffffffffffffffffffffffffffffffffffffffff161461148d576040517f08c379a0000000000000000000000000000000000000000000000000000000008152600401611484906175aa565b60405180910390fd5b6000600960008381526020019081526020016000206003015490506114b23383613c01565b6114bb82613d0f565b600b60009054906101000a900473ffffffffffffffffffffffffffffffffffffffff1673ffffffffffffffffffffffffffffffffffffffff166342842e0e3033856040518463ffffffff1660e01b815260040161151a939291906175ca565b600060405180830381600087803b15801561153457600080fd5b505af1158015611548573d6000803e3d6000fd5b50505050817fdec16ec0a15607be6e73ed1ca935aa1269ae828874049d254f31b28c102f6dd08260405161157c91906160db565b60405180910390a25050565b600260045414156115ce576040517f08c379a00000000000000000000000000000000000000000000000000000000081526004016115c59061715c565b60405180910390fd5b60026004819055506000845167ffffffffffffffff8111156115f3576115f2615eb4565b5b6040519080825280602002602001820160405280156116215781602001602082028036833780820191505090505b50905060005b815181101561166a57600082828151811061164557611644617425565b5b6020026020010190151590811515815250508080611662906174aa565b915050611627565b5060006116788686846110f9565b9050803410156116bd576040517f08c379a00000000000000000000000000000000000000000000000000000000081526004016116b49061764d565b60405180910390fd5b6116ca8787878787613e44565b6000620f4240601154836116de91906173cb565b6116e891906171da565b90506116f3816140fe565b60008183611701919061766d565b905061170b612501565b73ffffffffffffffffffffffffffffffffffffffff166108fc829081150290604051600060405180830381858888f19350505050158015611750573d6000803e3d6000fd5b505050505060016004819055505050505050565b6000600c54905090565b600e5481565b600260045414156117ba576040517f08c379a00000000000000000000000000000000000000000000000000000000081526004016117b19061715c565b60405180910390fd5b60026004819055506006600082815260200190815260200160002060000160009054906101000a900473ffffffffffffffffffffffffffffffffffffffff1673ffffffffffffffffffffffffffffffffffffffff163373ffffffffffffffffffffffffffffffffffffffff1614611866576040517f08c379a000000000000000000000000000000000000000000000000000000000815260040161185d906176ed565b60405180910390fd5b61186f816138da565b807f3d864d2c1b6545daa5b7b4ad188f731b7401c1ad8e7b0aa7714e57fe4a8a02fd600660008481526020019081526020016000206040516118b191906193b0565b60405180910390a2600160048190555050565b6118cc61326e565b73ffffffffffffffffffffffffffffffffffffffff166118ea612501565b73ffffffffffffffffffffffffffffffffffffffff1614611940576040517f08c379a0000000000000000000000000000000000000000000000000000000008152600401611937906170f0565b60405180910390fd5b61194a60006141f0565b565b60026004541415611992576040517f08c379a00000000000000000000000000000000000000000000000000000000081526004016119899061715c565b60405180910390fd5b60026004819055503373ffffffffffffffffffffffffffffffffffffffff166008600083815260200190815260200160002060010160009054906101000a900473ffffffffffffffffffffffffffffffffffffffff1673ffffffffffffffffffffffffffffffffffffffff1614611a3e576040517f08c379a0000000000000000000000000000000000000000000000000000000008152600401611a359061941e565b60405180910390fd5b6000600860008381526020019081526020016000209050611a5e816142b4565b611a67826143a4565b817f172e414729ca68e725ab11d0dad476faab984e1fb9118f3c0cd0bce9283abbd060086000858152602001908152602001600020604051611aa9919061950e565b60405180910390a250600160048190555050565b3373ffffffffffffffffffffffffffffffffffffffff16600b60009054906101000a900473ffffffffffffffffffffffffffffffffffffffff1673ffffffffffffffffffffffffffffffffffffffff16636352211e846040518263ffffffff1660e01b8152600401611b2f91906160db565b602060405180830381865afa158015611b4c573d6000803e3d6000fd5b505050506040513d601f19601f82011682018060405250810190611b709190619545565b73ffffffffffffffffffffffffffffffffffffffff1614611bc6576040517f08c379a0000000000000000000000000000000000000000000000000000000008152600401611bbd906195be565b60405180910390fd5b600b60009054906101000a900473ffffffffffffffffffffffffffffffffffffffff1673ffffffffffffffffffffffffffffffffffffffff166342842e0e3330856040518463ffffffff1660e01b8152600401611c25939291906175ca565b600060405180830381600087803b158015611c3f57600080fd5b505af1158015611c53573d6000803e3d6000fd5b505050506040518060a001604052803373ffffffffffffffffffffffffffffffffffffffff16815260200183815260200182815260200160008152602001600a805490508152506009600084815260200190815260200160002060008201518160000160006101000a81548173ffffffffffffffffffffffffffffffffffffffff021916908373ffffffffffffffffffffffffffffffffffffffff16021790555060208201518160010155604082015181600201556060820151816003015560808201518160040155905050600a829080600181540180825580915050600190039060005260206000200160009091909190915055817f28eb86fd03c9bd96a8a83e4a46ab2ad257b70cea893d98ad6d482e96aa25fad03383604051611d7a9291906174f3565b60405180910390a25050565b611d8e6158c1565b60066000838152602001908152602001600020604051806101200160405290816000820160009054906101000a900473ffffffffffffffffffffffffffffffffffffffff1673ffffffffffffffffffffffffffffffffffffffff1673ffffffffffffffffffffffffffffffffffffffff1681526020016001820160009054906101000a900473ffffffffffffffffffffffffffffffffffffffff1673ffffffffffffffffffffffffffffffffffffffff1673ffffffffffffffffffffffffffffffffffffffff168152602001600282018054611e6990617783565b80601f0160208091040260200160405190810160405280929190818152602001828054611e9590617783565b8015611ee25780601f10611eb757610100808354040283529160200191611ee2565b820191906000526020600020905b815481529060010190602001808311611ec557829003601f168201915b5050505050815260200160038201805480602002602001604051908101604052809291908181526020018280548015611f7057602002820191906000526020600020905b8160009054906101000a900473ffffffffffffffffffffffffffffffffffffffff1673ffffffffffffffffffffffffffffffffffffffff1681526020019060010190808311611f26575b5050505050815260200160048201805480602002602001604051908101604052809291908181526020018280548015611fc857602002820191906000526020600020905b815481526020019060010190808311611fb4575b505050505081526020016005820180548060200260200160405190810160405280929190818152602001828054801561202057602002820191906000526020600020905b81548152602001906001019080831161200c575b505050505081526020016006820180548060200260200160405190810160405280929190818152602001828054801561209e57602002820191906000526020600020906000905b82829054906101000a900460ff1660ff16815260200190600101906020826000010492830192600103820291508084116120675790505b505050505081526020016007820180548060200260200160405190810160405280929190818152602001828054801561211b57602002820191906000526020600020906000905b82829054906101000a900460ff161515815260200190600101906020826000010492830192600103820291508084116120e55790505b505050505081526020016008820180548060200260200160405190810160405280929190818152602001828054801561217357602002820191906000526020600020905b81548152602001906001019080831161215f575b5050505050815250509050919050565b600073ffffffffffffffffffffffffffffffffffffffff16600360008473ffffffffffffffffffffffffffffffffffffffff1673ffffffffffffffffffffffffffffffffffffffff16815260200190815260200160002060000160009054906101000a900473ffffffffffffffffffffffffffffffffffffffff1673ffffffffffffffffffffffffffffffffffffffff1614612254576040517f08c379a000000000000000000000000000000000000000000000000000000000815260040161224b90619650565b60405180910390fd5b6040518060a001604052808373ffffffffffffffffffffffffffffffffffffffff1681526020018260ff1681526020016000151581526020016001548152602001600254815250600360008473ffffffffffffffffffffffffffffffffffffffff1673ffffffffffffffffffffffffffffffffffffffff16815260200190815260200160002060008201518160000160006101000a81548173ffffffffffffffffffffffffffffffffffffffff021916908373ffffffffffffffffffffffffffffffffffffffff16021790555060208201518160000160146101000a81548160ff021916908360ff16021790555060408201518160000160156101000a81548160ff02191690831515021790555060608201518160010155608082015181600201559050505050565b6000600254905090565b6000600154905090565b60008061239c61278d565b141561246057600d60009054906101000a900473ffffffffffffffffffffffffffffffffffffffff1673ffffffffffffffffffffffffffffffffffffffff1663313ce5676040518163ffffffff1660e01b8152600401602060405180830381865afa15801561240f573d6000803e3d6000fd5b505050506040513d601f19601f820116820180604052508101906124339190617220565b600a61243f9190617380565b600e54600f5461244f91906171da565b61245991906173cb565b9050612478565b61246861278d565b600f5461247591906171da565b90505b90565b600260045414156124c1576040517f08c379a00000000000000000000000000000000000000000000000000000000081526004016124b89061715c565b60405180910390fd5b600260048190555060006124d3612391565b90506124df3382614434565b6124ec8686868686613e44565b5060016004819055505050505050565b600381565b60008060009054906101000a900473ffffffffffffffffffffffffffffffffffffffff16905090565b620f424081565b60026004541415612577576040517f08c379a000000000000000000000000000000000000000000000000000000000815260040161256e9061715c565b60405180910390fd5b6002600481905550600061258c8686846110f9565b9050803410156125d1576040517f08c379a00000000000000000000000000000000000000000000000000000000081526004016125c89061764d565b60405180910390fd5b6125e0888888888888886144d1565b6000620f4240601154836125f491906173cb565b6125fe91906171da565b9050612609816140fe565b60008183612617919061766d565b9050612621612501565b73ffffffffffffffffffffffffffffffffffffffff166108fc829081150290604051600060405180830381858888f19350505050158015612666573d6000803e3d6000fd5b50505050600160048190555050505050505050565b60115481565b61268961326e565b73ffffffffffffffffffffffffffffffffffffffff166126a7612501565b73ffffffffffffffffffffffffffffffffffffffff16146126fd576040517f08c379a00000000000000000000000000000000000000000000000000000000081526004016126f4906170f0565b60405180910390fd5b8060018190555050565b61270f61326e565b73ffffffffffffffffffffffffffffffffffffffff1661272d612501565b73ffffffffffffffffffffffffffffffffffffffff1614612783576040517f08c379a000000000000000000000000000000000000000000000000000000000815260040161277a906170f0565b60405180910390fd5b80600c8190555050565b6000600d60009054906101000a900473ffffffffffffffffffffffffffffffffffffffff1673ffffffffffffffffffffffffffffffffffffffff166370a08231306040518263ffffffff1660e01b81526004016127ea9190616c54565b602060405180830381865afa158015612807573d6000803e3d6000fd5b505050506040513d601f19601f8201168201806040525081019061282b9190619685565b905090565b600063bc197c8160e01b905095945050505050565b61284d61326e565b73ffffffffffffffffffffffffffffffffffffffff1661286b612501565b73ffffffffffffffffffffffffffffffffffffffff16146128c1576040517f08c379a00000000000000000000000000000000000000000000000000000000081526004016128b8906170f0565b60405180910390fd5b8060028190555050565b6128d361326e565b73ffffffffffffffffffffffffffffffffffffffff166128f1612501565b73ffffffffffffffffffffffffffffffffffffffff1614612947576040517f08c379a000000000000000000000000000000000000000000000000000000000815260040161293e906170f0565b60405180910390fd5b600073ffffffffffffffffffffffffffffffffffffffff16600360008473ffffffffffffffffffffffffffffffffffffffff1673ffffffffffffffffffffffffffffffffffffffff16815260200190815260200160002060000160009054906101000a900473ffffffffffffffffffffffffffffffffffffffff1673ffffffffffffffffffffffffffffffffffffffff161415612a19576040517f08c379a0000000000000000000000000000000000000000000000000000000008152600401612a1090619724565b60405180910390fd5b80600360008473ffffffffffffffffffffffffffffffffffffffff1673ffffffffffffffffffffffffffffffffffffffff168152602001908152602001600020600201819055505050565b612a6c61326e565b73ffffffffffffffffffffffffffffffffffffffff16612a8a612501565b73ffffffffffffffffffffffffffffffffffffffff1614612ae0576040517f08c379a0000000000000000000000000000000000000000000000000000000008152600401612ad7906170f0565b60405180910390fd5b600073ffffffffffffffffffffffffffffffffffffffff16600360008473ffffffffffffffffffffffffffffffffffffffff1673ffffffffffffffffffffffffffffffffffffffff16815260200190815260200160002060000160009054906101000a900473ffffffffffffffffffffffffffffffffffffffff1673ffffffffffffffffffffffffffffffffffffffff161415612bb2576040517f08c379a0000000000000000000000000000000000000000000000000000000008152600401612ba990619724565b60405180910390fd5b80600360008473ffffffffffffffffffffffffffffffffffffffff1673ffffffffffffffffffffffffffffffffffffffff168152602001908152602001600020600101819055505050565b6009600082815260200190815260200160002060020154341015612c56576040517f08c379a0000000000000000000000000000000000000000000000000000000008152600401612c4d90619790565b60405180910390fd5b6000620f4240600c5434612c6a91906173cb565b612c7491906171da565b905060008134612c84919061766d565b9050612c8e612501565b73ffffffffffffffffffffffffffffffffffffffff166108fc839081150290604051600060405180830381858888f19350505050158015612cd3573d6000803e3d6000fd5b506009600084815260200190815260200160002060000160009054906101000a900473ffffffffffffffffffffffffffffffffffffffff1673ffffffffffffffffffffffffffffffffffffffff166108fc829081150290604051600060405180830381858888f19350505050158015612d50573d6000803e3d6000fd5b50612d5b3384613c01565b600b60009054906101000a900473ffffffffffffffffffffffffffffffffffffffff1673ffffffffffffffffffffffffffffffffffffffff166342842e0e3033866040518463ffffffff1660e01b8152600401612dba939291906175ca565b600060405180830381600087803b158015612dd457600080fd5b505af1158015612de8573d6000803e3d6000fd5b50505050612df583613d0f565b827f871cca9c30ebd3d38d92d08304561880d6466ddb658d2fd88e501a929c497fd9346009600087815260200190815260200160002060030154604051612e3d9291906197b0565b60405180910390a2505050565b600f5481565b612e5861326e565b73ffffffffffffffffffffffffffffffffffffffff16612e76612501565b73ffffffffffffffffffffffffffffffffffffffff1614612ecc576040517f08c379a0000000000000000000000000000000000000000000000000000000008152600401612ec3906170f0565b60405180910390fd5b600073ffffffffffffffffffffffffffffffffffffffff16600360008473ffffffffffffffffffffffffffffffffffffffff1673ffffffffffffffffffffffffffffffffffffffff16815260200190815260200160002060000160009054906101000a900473ffffffffffffffffffffffffffffffffffffffff1673ffffffffffffffffffffffffffffffffffffffff161415612f9e576040517f08c379a0000000000000000000000000000000000000000000000000000000008152600401612f9590619724565b60405180910390fd5b80600360008473ffffffffffffffffffffffffffffffffffffffff1673ffffffffffffffffffffffffffffffffffffffff16815260200190815260200160002060000160156101000a81548160ff0219169083151502179055505050565b60026004541415613042576040517f08c379a00000000000000000000000000000000000000000000000000000000081526004016130399061715c565b60405180910390fd5b60026004819055506000613054612391565b90506130603382614434565b61306f888888888888886144d1565b50600160048190555050505050505050565b60036020528060005260406000206000915090508060000160009054906101000a900473ffffffffffffffffffffffffffffffffffffffff16908060000160149054906101000a900460ff16908060000160159054906101000a900460ff16908060010154908060020154905085565b600063f23a6e6160e01b905095945050505050565b61310e61326e565b73ffffffffffffffffffffffffffffffffffffffff1661312c612501565b73ffffffffffffffffffffffffffffffffffffffff1614613182576040517f08c379a0000000000000000000000000000000000000000000000000000000008152600401613179906170f0565b60405180910390fd5b600073ffffffffffffffffffffffffffffffffffffffff168173ffffffffffffffffffffffffffffffffffffffff1614156131f2576040517f08c379a00000000000000000000000000000000000000000000000000000000081526004016131e99061984b565b60405180910390fd5b6131fb816141f0565b50565b60105481565b60007f01ffc9a7000000000000000000000000000000000000000000000000000000007bffffffffffffffffffffffffffffffffffffffffffffffffffffffff1916827bffffffffffffffffffffffffffffffffffffffffffffffffffffffff1916149050919050565b600033905090565b6132f9846323b872dd60e01b858585604051602401613297939291906175ca565b604051602081830303815290604052907bffffffffffffffffffffffffffffffffffffffffffffffffffffffff19166020820180517bffffffffffffffffffffffffffffffffffffffffffffffffffffffff8381831617835250505050614872565b50505050565b600e548161330d91906173cb565b600f81905550600e548161332191906171da565b60108190555050565b600060066000848152602001908152602001600020905060006008600084815260200190815260200160002090503373ffffffffffffffffffffffffffffffffffffffff168260000160009054906101000a900473ffffffffffffffffffffffffffffffffffffffff1673ffffffffffffffffffffffffffffffffffffffff16146133ea576040517f08c379a00000000000000000000000000000000000000000000000000000000081526004016133e1906176ed565b60405180910390fd5b80600001548414613430576040517f08c379a0000000000000000000000000000000000000000000000000000000008152600401613427906198b7565b60405180910390fd5b61343982614939565b613478576040517f08c379a000000000000000000000000000000000000000000000000000000000815260040161346f90619949565b60405180910390fd5b61348181614be5565b6134c0576040517f08c379a00000000000000000000000000000000000000000000000000000000081526004016134b7906199db565b60405180910390fd5b60005b826003018054905081101561363857600115158360070182815481106134ec576134eb617425565b5b90600052602060002090602091828204019190069054906101000a900460ff161515141561351957613625565b6136248360000160009054906101000a900473ffffffffffffffffffffffffffffffffffffffff168360010160009054906101000a900473ffffffffffffffffffffffffffffffffffffffff1685600301848154811061357c5761357b617425565b5b9060005260206000200160009054906101000a900473ffffffffffffffffffffffffffffffffffffffff168660040185815481106135bd576135bc617425565b5b90600052602060002001548760050186815481106135de576135dd617425565b5b90600052602060002001548860060187815481106135ff576135fe617425565b5b90600052602060002090602091828204019190069054906101000a900460ff16614e4a565b5b8080613630906174aa565b9150506134c3565b5060005b8160020180549050811015613769576137568260010160009054906101000a900473ffffffffffffffffffffffffffffffffffffffff168460000160009054906101000a900473ffffffffffffffffffffffffffffffffffffffff168460020184815481106136ae576136ad617425565b5b9060005260206000200160009054906101000a900473ffffffffffffffffffffffffffffffffffffffff168560030185815481106136ef576136ee617425565b5b90600052602060002001548660040186815481106137105761370f617425565b5b906000526020600020015487600501878154811061373157613730617425565b5b90600052602060002090602091828204019190069054906101000a900460ff16614e4a565b8080613761906174aa565b91505061363c565b5082847f5a6443be634d8594e0dff76c972a6a74f88bf761fb6e334d88dd979516f3bc8f60405160405180910390a350505050565b6137a6610d0a565b8111156137e8576040517f08c379a00000000000000000000000000000000000000000000000000000000081526004016137df90619a47565b60405180910390fd5b600d60009054906101000a900473ffffffffffffffffffffffffffffffffffffffff1673ffffffffffffffffffffffffffffffffffffffff1663095ea7b383836040518363ffffffff1660e01b81526004016138459291906174f3565b6020604051808303816000875af1158015613864573d6000803e3d6000fd5b505050506040513d601f19601f820116820180604052508101906138889190617531565b506138d68282600d60009054906101000a900473ffffffffffffffffffffffffffffffffffffffff1673ffffffffffffffffffffffffffffffffffffffff16613b7b9092919063ffffffff16565b5050565b600060066000838152602001908152602001600020905060066000838152602001908152602001600020600080820160006101000a81549073ffffffffffffffffffffffffffffffffffffffff02191690556001820160006101000a81549073ffffffffffffffffffffffffffffffffffffffff02191690556002820160006139639190615939565b6003820160006139739190615979565b600482016000613983919061599a565b600582016000613993919061599a565b6006820160006139a391906159bb565b6007820160006139b391906159e3565b6008820160006139c3919061599a565b505060005b8160080180549050811015613a1357613a008260080182815481106139f0576139ef617425565b5b90600052602060002001546143a4565b8080613a0b906174aa565b9150506139c8565b505050565b60008073ffffffffffffffffffffffffffffffffffffffff16600360008473ffffffffffffffffffffffffffffffffffffffff1673ffffffffffffffffffffffffffffffffffffffff16815260200190815260200160002060000160009054906101000a900473ffffffffffffffffffffffffffffffffffffffff1673ffffffffffffffffffffffffffffffffffffffff161415613ad557620f4240600254600154613ac491906173cb565b613ace91906171da565b9050613b76565b620f4240600360008473ffffffffffffffffffffffffffffffffffffffff1673ffffffffffffffffffffffffffffffffffffffff16815260200190815260200160002060020154600360008573ffffffffffffffffffffffffffffffffffffffff1673ffffffffffffffffffffffffffffffffffffffff16815260200190815260200160002060010154613b6991906173cb565b613b7391906171da565b90505b919050565b613bfc8363a9059cbb60e01b8484604051602401613b9a9291906174f3565b604051602081830303815290604052907bffffffffffffffffffffffffffffffffffffffffffffffffffffffff19166020820180517bffffffffffffffffffffffffffffffffffffffffffffffffffffffff8381831617835250505050614872565b505050565b6000600960008381526020019081526020016000206003015490506000811415613c2b5750613d0b565b47811115613c6e576040517f08c379a0000000000000000000000000000000000000000000000000000000008152600401613c6590619ab3565b60405180910390fd5b8273ffffffffffffffffffffffffffffffffffffffff166108fc829081150290604051600060405180830381858888f19350505050158015613cb4573d6000803e3d6000fd5b5060006009600084815260200190815260200160002060030181905550817fc83b5086ce94ec8d5a88a9f5fea4b18a522bb238ed0d2d8abd959549a80c16b882604051613d0191906160db565b60405180910390a2505b5050565b60006009600083815260200190815260200160002060040154905060006001600a80549050613d3e919061766d565b9050600a8181548110613d5457613d53617425565b5b9060005260206000200154600a8381548110613d7357613d72617425565b5b90600052602060002001819055508160096000600a8481548110613d9a57613d99617425565b5b906000526020600020015481526020019081526020016000206004018190555060096000848152602001908152602001600020600080820160006101000a81549073ffffffffffffffffffffffffffffffffffffffff021916905560018201600090556002820160009055600382016000905560048201600090555050600a805480613e2957613e28619ad3565b5b60019003818190600052602060002001600090559055505050565b8251845114613e88576040517f08c379a0000000000000000000000000000000000000000000000000000000008152600401613e7f90619b74565b60405180910390fd5b8151845114613ecc576040517f08c379a0000000000000000000000000000000000000000000000000000000008152600401613ec390619c06565b60405180910390fd5b8051845114613f10576040517f08c379a0000000000000000000000000000000000000000000000000000000008152600401613f0790619c98565b60405180910390fd5b613f1a6007614fd8565b6000613f266007614fee565b90506040518060e001604052808781526020013373ffffffffffffffffffffffffffffffffffffffff1681526020018681526020018581526020018481526020018381526020016006600089815260200190815260200160002060080180549050815250600860008381526020019081526020016000206000820151816000015560208201518160010160006101000a81548173ffffffffffffffffffffffffffffffffffffffff021916908373ffffffffffffffffffffffffffffffffffffffff160217905550604082015181600201908051906020019061400a929190615a0b565b506060820151816003019080519060200190614027929190615a95565b506080820151816004019080519060200190614044929190615a95565b5060a0820151816005019080519060200190614061929190615ae2565b5060c0820151816006015590505060066000878152602001908152602001600020600801819080600181540180825580915050600190039060005260206000200160009091909190915055807fd7af2d7ec779fb9958829116ac22b6fbd4eafe2ca69287d52dc56020617a6882600860008481526020019081526020016000206040516140ee919061950e565b60405180910390a2505050505050565b6000600a805490501415614111576141ed565b6000600a805490508261412491906171da565b905060005b600a805490508110156141ea578160096000600a848154811061414f5761414e617425565b5b90600052602060002001548152602001908152602001600020600301600082825461417a9190617454565b92505081905550600a818154811061419557614194617425565b5b90600052602060002001547fa916eef8b97ca0570d37ecb046f524f745075ea4e82b3067d873334377e9f8b7836040516141cf91906160db565b60405180910390a280806141e2906174aa565b915050614129565b50505b50565b60008060009054906101000a900473ffffffffffffffffffffffffffffffffffffffff169050816000806101000a81548173ffffffffffffffffffffffffffffffffffffffff021916908373ffffffffffffffffffffffffffffffffffffffff1602179055508173ffffffffffffffffffffffffffffffffffffffff168173ffffffffffffffffffffffffffffffffffffffff167f8be0079c531659141344cd1fd0a4f28419497f9722a3daafe3b4186f6b6457e060405160405180910390a35050565b6000600660008360000154815260200190815260200160002090506000600182600801805490506142e5919061766d565b905060006008600084600801848154811061430357614302617425565b5b9060005260206000200154815260200190815260200160002090508360060154816006018190555082600801828154811061434157614340617425565b5b90600052602060002001548360080185600601548154811061436657614365617425565b5b90600052602060002001819055508260080180548061438857614387619ad3565b5b6001900381819060005260206000200160009055905550505050565b600860008281526020019081526020016000206000808201600090556001820160006101000a81549073ffffffffffffffffffffffffffffffffffffffff02191690556002820160006143f79190615979565b600382016000614407919061599a565b600482016000614417919061599a565b60058201600061442791906159bb565b6006820160009055505050565b61443c612391565b81101561447e576040517f08c379a000000000000000000000000000000000000000000000000000000000815260040161447590619d04565b60405180910390fd5b6144cd823083600d60009054906101000a900473ffffffffffffffffffffffffffffffffffffffff1673ffffffffffffffffffffffffffffffffffffffff16613276909392919063ffffffff16565b5050565b8351855114614515576040517f08c379a000000000000000000000000000000000000000000000000000000000815260040161450c90619d96565b60405180910390fd5b8251855114614559576040517f08c379a000000000000000000000000000000000000000000000000000000000815260040161455090619e28565b60405180910390fd5b815185511461459d576040517f08c379a000000000000000000000000000000000000000000000000000000000815260040161459490619eba565b60405180910390fd5b80518551146145e1576040517f08c379a00000000000000000000000000000000000000000000000000000000081526004016145d890619f4c565b60405180910390fd5b6145eb6005614fd8565b60006145f76005614fee565b90506040518061012001604052803373ffffffffffffffffffffffffffffffffffffffff1681526020018973ffffffffffffffffffffffffffffffffffffffff168152602001888152602001878152602001868152602001858152602001848152602001838152602001600067ffffffffffffffff81111561467c5761467b615eb4565b5b6040519080825280602002602001820160405280156146aa5781602001602082028036833780820191505090505b508152506006600083815260200190815260200160002060008201518160000160006101000a81548173ffffffffffffffffffffffffffffffffffffffff021916908373ffffffffffffffffffffffffffffffffffffffff16021790555060208201518160010160006101000a81548173ffffffffffffffffffffffffffffffffffffffff021916908373ffffffffffffffffffffffffffffffffffffffff160217905550604082015181600201908051906020019061476b929190615b89565b506060820151816003019080519060200190614788929190615a0b565b5060808201518160040190805190602001906147a5929190615a95565b5060a08201518160050190805190602001906147c2929190615a95565b5060c08201518160060190805190602001906147df929190615ae2565b5060e08201518160070190805190602001906147fc929190615c0f565b5061010082015181600801908051906020019061481a929190615a95565b50905050807f48e81893487928a99fb309ba6421c1f6fc1d630b8fd46ba2bd6ed6de9929ff756006600084815260200190815260200160002060405161486091906193b0565b60405180910390a25050505050505050565b60006148d4826040518060400160405280602081526020017f5361666545524332303a206c6f772d6c6576656c2063616c6c206661696c65648152508573ffffffffffffffffffffffffffffffffffffffff16614ffc9092919063ffffffff16565b905060008151111561493457808060200190518101906148f49190617531565b614933576040517f08c379a000000000000000000000000000000000000000000000000000000000815260040161492a90619fde565b60405180910390fd5b5b505050565b6000808260000160009054906101000a900473ffffffffffffffffffffffffffffffffffffffff1690506000836003019050600084600501905060008560060190506000866004019050600087600701905060005b8580549050811015614bd5578181815481106149ad576149ac617425565b5b90600052602060002090602091828204019190069054906101000a900460ff16156149d757614bc2565b614a8d878783815481106149ee576149ed617425565b5b9060005260206000200160009054906101000a900473ffffffffffffffffffffffffffffffffffffffff16878481548110614a2c57614a2b617425565b5b9060005260206000200154878581548110614a4a57614a49617425565b5b90600052602060002090602091828204019190069054906101000a900460ff16878681548110614a7d57614a7c617425565b5b9060005260206000200154615014565b614acc576040517f08c379a0000000000000000000000000000000000000000000000000000000008152600401614ac39061a070565b60405180910390fd5b614b8287878381548110614ae357614ae2617425565b5b9060005260206000200160009054906101000a900473ffffffffffffffffffffffffffffffffffffffff16878481548110614b2157614b20617425565b5b9060005260206000200154878581548110614b3f57614b3e617425565b5b90600052602060002090602091828204019190069054906101000a900460ff16878681548110614b7257614b71617425565b5b9060005260206000200154615391565b614bc1576040517f08c379a0000000000000000000000000000000000000000000000000000000008152600401614bb89061a102565b60405180910390fd5b5b8080614bcd906174aa565b91505061498e565b5060019650505050505050919050565b6000808260010160009054906101000a900473ffffffffffffffffffffffffffffffffffffffff169050600083600201905060008460040190506000856005019050600086600301905060005b8480549050811015614e3b57614cf486868381548110614c5557614c54617425565b5b9060005260206000200160009054906101000a900473ffffffffffffffffffffffffffffffffffffffff16868481548110614c9357614c92617425565b5b9060005260206000200154868581548110614cb157614cb0617425565b5b90600052602060002090602091828204019190069054906101000a900460ff16868681548110614ce457614ce3617425565b5b9060005260206000200154615014565b614d33576040517f08c379a0000000000000000000000000000000000000000000000000000000008152600401614d2a9061a194565b60405180910390fd5b614de986868381548110614d4a57614d49617425565b5b9060005260206000200160009054906101000a900473ffffffffffffffffffffffffffffffffffffffff16868481548110614d8857614d87617425565b5b9060005260206000200154868581548110614da657614da5617425565b5b90600052602060002090602091828204019190069054906101000a900460ff16868681548110614dd957614dd8617425565b5b9060005260206000200154615391565b614e28576040517f08c379a0000000000000000000000000000000000000000000000000000000008152600401614e1f9061a226565b60405180910390fd5b8080614e33906174aa565b915050614c32565b50600195505050505050919050565b600160ff168160ff161415614e8b57614e868686858773ffffffffffffffffffffffffffffffffffffffff16613276909392919063ffffffff16565b614fd0565b600260ff168160ff161415614f0e578373ffffffffffffffffffffffffffffffffffffffff166342842e0e8787856040518463ffffffff1660e01b8152600401614ed7939291906175ca565b600060405180830381600087803b158015614ef157600080fd5b505af1158015614f05573d6000803e3d6000fd5b50505050614fcf565b600360ff168160ff161415614f93578373ffffffffffffffffffffffffffffffffffffffff1663f242432a878785876040518563ffffffff1660e01b8152600401614f5c949392919061a27d565b600060405180830381600087803b158015614f7657600080fd5b505af1158015614f8a573d6000803e3d6000fd5b50505050614fce565b6040517f08c379a0000000000000000000000000000000000000000000000000000000008152600401614fc59061a347565b60405180910390fd5b5b5b505050505050565b6001816000016000828254019250508190555050565b600081600001549050919050565b606061500b848460008561568b565b90509392505050565b6000600160ff168360ff1614156150ee576000859050828173ffffffffffffffffffffffffffffffffffffffff1663dd62ed3e89306040518363ffffffff1660e01b815260040161506692919061a367565b602060405180830381865afa158015615083573d6000803e3d6000fd5b505050506040513d601f19601f820116820180604052508101906150a79190619685565b10156150e8576040517f08c379a00000000000000000000000000000000000000000000000000000000081526004016150df9061a402565b60405180910390fd5b50615384565b600260ff168360ff1614156152725760008590503073ffffffffffffffffffffffffffffffffffffffff168173ffffffffffffffffffffffffffffffffffffffff1663081812fc876040518263ffffffff1660e01b815260040161515291906160db565b602060405180830381865afa15801561516f573d6000803e3d6000fd5b505050506040513d601f19601f820116820180604052508101906151939190619545565b73ffffffffffffffffffffffffffffffffffffffff16148061522d57508073ffffffffffffffffffffffffffffffffffffffff1663e985e9c588306040518363ffffffff1660e01b81526004016151eb92919061a367565b602060405180830381865afa158015615208573d6000803e3d6000fd5b505050506040513d601f19601f8201168201806040525081019061522c9190617531565b5b61526c576040517f08c379a00000000000000000000000000000000000000000000000000000000081526004016152639061a494565b60405180910390fd5b50615383565b600360ff168360ff1614156153475760008590508073ffffffffffffffffffffffffffffffffffffffff1663e985e9c588306040518363ffffffff1660e01b81526004016152c192919061a367565b602060405180830381865afa1580156152de573d6000803e3d6000fd5b505050506040513d601f19601f820116820180604052508101906153029190617531565b615341576040517f08c379a00000000000000000000000000000000000000000000000000000000081526004016153389061a526565b60405180910390fd5b50615382565b6040517f08c379a00000000000000000000000000000000000000000000000000000000081526004016153799061a5b8565b60405180910390fd5b5b5b6001905095945050505050565b6000600160ff168360ff161415615469576000859050828173ffffffffffffffffffffffffffffffffffffffff166370a08231896040518263ffffffff1660e01b81526004016153e19190616c54565b602060405180830381865afa1580156153fe573d6000803e3d6000fd5b505050506040513d601f19601f820116820180604052508101906154229190619685565b1015615463576040517f08c379a000000000000000000000000000000000000000000000000000000000815260040161545a9061a64a565b60405180910390fd5b5061567e565b600260ff168360ff16141561556a5760008590508673ffffffffffffffffffffffffffffffffffffffff168173ffffffffffffffffffffffffffffffffffffffff16636352211e876040518263ffffffff1660e01b81526004016154cd91906160db565b602060405180830381865afa1580156154ea573d6000803e3d6000fd5b505050506040513d601f19601f8201168201806040525081019061550e9190619545565b73ffffffffffffffffffffffffffffffffffffffff1614615564576040517f08c379a000000000000000000000000000000000000000000000000000000000815260040161555b9061a6dc565b60405180910390fd5b5061567d565b600360ff168360ff161415615641576000859050828173ffffffffffffffffffffffffffffffffffffffff1662fdd58e89886040518363ffffffff1660e01b81526004016155b99291906174f3565b602060405180830381865afa1580156155d6573d6000803e3d6000fd5b505050506040513d601f19601f820116820180604052508101906155fa9190619685565b101561563b576040517f08c379a00000000000000000000000000000000000000000000000000000000081526004016156329061a76e565b60405180910390fd5b5061567c565b6040517f08c379a00000000000000000000000000000000000000000000000000000000081526004016156739061a5b8565b60405180910390fd5b5b5b6001905095945050505050565b6060824710156156d0576040517f08c379a00000000000000000000000000000000000000000000000000000000081526004016156c79061a800565b60405180910390fd5b6156d98561579f565b615718576040517f08c379a000000000000000000000000000000000000000000000000000000000815260040161570f9061a86c565b60405180910390fd5b6000808673ffffffffffffffffffffffffffffffffffffffff168587604051615741919061a8d3565b60006040518083038185875af1925050503d806000811461577e576040519150601f19603f3d011682016040523d82523d6000602084013e615783565b606091505b50915091506157938282866157c2565b92505050949350505050565b6000808273ffffffffffffffffffffffffffffffffffffffff163b119050919050565b606083156157d257829050615822565b6000835111156157e55782518084602001fd5b816040517f08c379a0000000000000000000000000000000000000000000000000000000008152600401615819919061a923565b60405180910390fd5b9392505050565b6040518060e0016040528060008152602001600073ffffffffffffffffffffffffffffffffffffffff16815260200160608152602001606081526020016060815260200160608152602001600081525090565b6040518060a00160405280600073ffffffffffffffffffffffffffffffffffffffff168152602001600081526020016000815260200160008152602001600081525090565b604051806101200160405280600073ffffffffffffffffffffffffffffffffffffffff168152602001600073ffffffffffffffffffffffffffffffffffffffff168152602001606081526020016060815260200160608152602001606081526020016060815260200160608152602001606081525090565b50805461594590617783565b6000825580601f106159575750615976565b601f0160209004906000526020600020908101906159759190615cb5565b5b50565b50805460008255906000526020600020908101906159979190615cb5565b50565b50805460008255906000526020600020908101906159b89190615cb5565b50565b50805460008255601f0160209004906000526020600020908101906159e09190615cb5565b50565b50805460008255601f016020900490600052602060002090810190615a089190615cb5565b50565b828054828255906000526020600020908101928215615a84579160200282015b82811115615a835782518260006101000a81548173ffffffffffffffffffffffffffffffffffffffff021916908373ffffffffffffffffffffffffffffffffffffffff16021790555091602001919060010190615a2b565b5b509050615a919190615cb5565b5090565b828054828255906000526020600020908101928215615ad1579160200282015b82811115615ad0578251825591602001919060010190615ab5565b5b509050615ade9190615cb5565b5090565b82805482825590600052602060002090601f01602090048101928215615b785791602002820160005b83821115615b4957835183826101000a81548160ff021916908360ff1602179055509260200192600101602081600001049283019260010302615b0b565b8015615b765782816101000a81549060ff0219169055600101602081600001049283019260010302615b49565b505b509050615b859190615cb5565b5090565b828054615b9590617783565b90600052602060002090601f016020900481019282615bb75760008555615bfe565b82601f10615bd057805160ff1916838001178555615bfe565b82800160010185558215615bfe579182015b82811115615bfd578251825591602001919060010190615be2565b5b509050615c0b9190615cb5565b5090565b82805482825590600052602060002090601f01602090048101928215615ca45791602002820160005b83821115615c7557835183826101000a81548160ff0219169083151502179055509260200192600101602081600001049283019260010302615c38565b8015615ca25782816101000a81549060ff0219169055600101602081600001049283019260010302615c75565b505b509050615cb19190615cb5565b5090565b5b80821115615cce576000816000905550600101615cb6565b5090565b6000604051905090565b600080fd5b600080fd5b60007fffffffff0000000000000000000000000000000000000000000000000000000082169050919050565b615d1b81615ce6565b8114615d2657600080fd5b50565b600081359050615d3881615d12565b92915050565b600060208284031215615d5457615d53615cdc565b5b6000615d6284828501615d29565b91505092915050565b60008115159050919050565b615d8081615d6b565b82525050565b6000602082019050615d9b6000830184615d77565b92915050565b600060ff82169050919050565b615db781615da1565b82525050565b6000602082019050615dd26000830184615dae565b92915050565b6000819050919050565b615deb81615dd8565b8114615df657600080fd5b50565b600081359050615e0881615de2565b92915050565b600060208284031215615e2457615e23615cdc565b5b6000615e3284828501615df9565b91505092915050565b600073ffffffffffffffffffffffffffffffffffffffff82169050919050565b6000615e6682615e3b565b9050919050565b615e7681615e5b565b8114615e8157600080fd5b50565b600081359050615e9381615e6d565b92915050565b600080fd5b600080fd5b6000601f19601f8301169050919050565b7f4e487b7100000000000000000000000000000000000000000000000000000000600052604160045260246000fd5b615eec82615ea3565b810181811067ffffffffffffffff82111715615f0b57615f0a615eb4565b5b80604052505050565b6000615f1e615cd2565b9050615f2a8282615ee3565b919050565b600067ffffffffffffffff821115615f4a57615f49615eb4565b5b615f5382615ea3565b9050602081019050919050565b82818337600083830152505050565b6000615f82615f7d84615f2f565b615f14565b905082815260208101848484011115615f9e57615f9d615e9e565b5b615fa9848285615f60565b509392505050565b600082601f830112615fc657615fc5615e99565b5b8135615fd6848260208601615f6f565b91505092915050565b60008060008060808587031215615ff957615ff8615cdc565b5b600061600787828801615e84565b945050602061601887828801615e84565b935050604061602987828801615df9565b925050606085013567ffffffffffffffff81111561604a57616049615ce1565b5b61605687828801615fb1565b91505092959194509250565b61606b81615ce6565b82525050565b60006020820190506160866000830184616062565b92915050565b600080604083850312156160a3576160a2615cdc565b5b60006160b185828601615df9565b92505060206160c285828601615df9565b9150509250929050565b6160d581615dd8565b82525050565b60006020820190506160f060008301846160cc565b92915050565b6160ff81615dd8565b82525050565b61610e81615e5b565b82525050565b600081519050919050565b600082825260208201905092915050565b6000819050602082019050919050565b600061614c8383616105565b60208301905092915050565b6000602082019050919050565b600061617082616114565b61617a818561611f565b935061618583616130565b8060005b838110156161b657815161619d8882616140565b97506161a883616158565b925050600181019050616189565b5085935050505092915050565b600081519050919050565b600082825260208201905092915050565b6000819050602082019050919050565b60006161fb83836160f6565b60208301905092915050565b6000602082019050919050565b600061621f826161c3565b61622981856161ce565b9350616234836161df565b8060005b8381101561626557815161624c88826161ef565b975061625783616207565b925050600181019050616238565b5085935050505092915050565b600081519050919050565b600082825260208201905092915050565b6000819050602082019050919050565b6162a781615da1565b82525050565b60006162b9838361629e565b60208301905092915050565b6000602082019050919050565b60006162dd82616272565b6162e7818561627d565b93506162f28361628e565b8060005b8381101561632357815161630a88826162ad565b9750616315836162c5565b9250506001810190506162f6565b5085935050505092915050565b600060e08301600083015161634860008601826160f6565b50602083015161635b6020860182616105565b50604083015184820360408601526163738282616165565b9150506060830151848203606086015261638d8282616214565b915050608083015184820360808601526163a78282616214565b91505060a083015184820360a08601526163c182826162d2565b91505060c08301516163d660c08601826160f6565b508091505092915050565b600060208201905081810360008301526163fb8184616330565b905092915050565b60006020828403121561641957616418615cdc565b5b600061642784828501615e84565b91505092915050565b600067ffffffffffffffff82111561644b5761644a615eb4565b5b602082029050602081019050919050565b600080fd5b600061647461646f84616430565b615f14565b905080838252602082019050602084028301858111156164975761649661645c565b5b835b818110156164c057806164ac8882615e84565b845260208401935050602081019050616499565b5050509392505050565b600082601f8301126164df576164de615e99565b5b81356164ef848260208601616461565b91505092915050565b600067ffffffffffffffff82111561651357616512615eb4565b5b602082029050602081019050919050565b6000616537616532846164f8565b615f14565b9050808382526020820190506020840283018581111561655a5761655961645c565b5b835b81811015616583578061656f8882615df9565b84526020840193505060208101905061655c565b5050509392505050565b600082601f8301126165a2576165a1615e99565b5b81356165b2848260208601616524565b91505092915050565b600067ffffffffffffffff8211156165d6576165d5615eb4565b5b602082029050602081019050919050565b6165f081615d6b565b81146165fb57600080fd5b50565b60008135905061660d816165e7565b92915050565b6000616626616621846165bb565b615f14565b905080838252602082019050602084028301858111156166495761664861645c565b5b835b81811015616672578061665e88826165fe565b84526020840193505060208101905061664b565b5050509392505050565b600082601f83011261669157616690615e99565b5b81356166a1848260208601616613565b91505092915050565b6000806000606084860312156166c3576166c2615cdc565b5b600084013567ffffffffffffffff8111156166e1576166e0615ce1565b5b6166ed868287016164ca565b935050602084013567ffffffffffffffff81111561670e5761670d615ce1565b5b61671a8682870161658d565b925050604084013567ffffffffffffffff81111561673b5761673a615ce1565b5b6167478682870161667c565b9150509250925092565b60a0820160008201516167676000850182616105565b50602082015161677a60208501826160f6565b50604082015161678d60408501826160f6565b5060608201516167a060608501826160f6565b5060808201516167b360808501826160f6565b50505050565b600060a0820190506167ce6000830184616751565b92915050565b600067ffffffffffffffff8211156167ef576167ee615eb4565b5b602082029050602081019050919050565b61680981615da1565b811461681457600080fd5b50565b60008135905061682681616800565b92915050565b600061683f61683a846167d4565b615f14565b905080838252602082019050602084028301858111156168625761686161645c565b5b835b8181101561688b57806168778882616817565b845260208401935050602081019050616864565b5050509392505050565b600082601f8301126168aa576168a9615e99565b5b81356168ba84826020860161682c565b91505092915050565b600080600080600060a086880312156168df576168de615cdc565b5b60006168ed88828901615df9565b955050602086013567ffffffffffffffff81111561690e5761690d615ce1565b5b61691a888289016164ca565b945050604086013567ffffffffffffffff81111561693b5761693a615ce1565b5b6169478882890161658d565b935050606086013567ffffffffffffffff81111561696857616967615ce1565b5b6169748882890161658d565b925050608086013567ffffffffffffffff81111561699557616994615ce1565b5b6169a188828901616895565b9150509295509295909350565b600081519050919050565b600082825260208201905092915050565b60005b838110156169e85780820151818401526020810190506169cd565b838111156169f7576000848401525b50505050565b6000616a08826169ae565b616a1281856169b9565b9350616a228185602086016169ca565b616a2b81615ea3565b840191505092915050565b600081519050919050565b600082825260208201905092915050565b6000819050602082019050919050565b616a6b81615d6b565b82525050565b6000616a7d8383616a62565b60208301905092915050565b6000602082019050919050565b6000616aa182616a36565b616aab8185616a41565b9350616ab683616a52565b8060005b83811015616ae7578151616ace8882616a71565b9750616ad983616a89565b925050600181019050616aba565b5085935050505092915050565b600061012083016000830151616b0d6000860182616105565b506020830151616b206020860182616105565b5060408301518482036040860152616b3882826169fd565b91505060608301518482036060860152616b528282616165565b91505060808301518482036080860152616b6c8282616214565b91505060a083015184820360a0860152616b868282616214565b91505060c083015184820360c0860152616ba082826162d2565b91505060e083015184820360e0860152616bba8282616a96565b915050610100830151848203610100860152616bd68282616214565b9150508091505092915050565b60006020820190508181036000830152616bfd8184616af4565b905092915050565b60008060408385031215616c1c57616c1b615cdc565b5b6000616c2a85828601615e84565b9250506020616c3b85828601616817565b9150509250929050565b616c4e81615e5b565b82525050565b6000602082019050616c696000830184616c45565b92915050565b600067ffffffffffffffff821115616c8a57616c89615eb4565b5b616c9382615ea3565b9050602081019050919050565b6000616cb3616cae84616c6f565b615f14565b905082815260208101848484011115616ccf57616cce615e9e565b5b616cda848285615f60565b509392505050565b600082601f830112616cf757616cf6615e99565b5b8135616d07848260208601616ca0565b91505092915050565b600080600080600080600060e0888a031215616d2f57616d2e615cdc565b5b6000616d3d8a828b01615e84565b975050602088013567ffffffffffffffff811115616d5e57616d5d615ce1565b5b616d6a8a828b01616ce2565b965050604088013567ffffffffffffffff811115616d8b57616d8a615ce1565b5b616d978a828b016164ca565b955050606088013567ffffffffffffffff811115616db857616db7615ce1565b5b616dc48a828b0161658d565b945050608088013567ffffffffffffffff811115616de557616de4615ce1565b5b616df18a828b0161658d565b93505060a088013567ffffffffffffffff811115616e1257616e11615ce1565b5b616e1e8a828b01616895565b92505060c088013567ffffffffffffffff811115616e3f57616e3e615ce1565b5b616e4b8a828b0161667c565b91505092959891949750929550565b600080600080600060a08688031215616e7657616e75615cdc565b5b6000616e8488828901615e84565b9550506020616e9588828901615e84565b945050604086013567ffffffffffffffff811115616eb657616eb5615ce1565b5b616ec28882890161658d565b935050606086013567ffffffffffffffff811115616ee357616ee2615ce1565b5b616eef8882890161658d565b925050608086013567ffffffffffffffff811115616f1057616f0f615ce1565b5b616f1c88828901615fb1565b9150509295509295909350565b60008060408385031215616f4057616f3f615cdc565b5b6000616f4e85828601615e84565b9250506020616f5f85828601615df9565b9150509250929050565b60008060408385031215616f8057616f7f615cdc565b5b6000616f8e85828601615e84565b9250506020616f9f858286016165fe565b9150509250929050565b600060a082019050616fbe6000830188616c45565b616fcb6020830187615dae565b616fd86040830186615d77565b616fe560608301856160cc565b616ff260808301846160cc565b9695505050505050565b600080600080600060a0868803121561701857617017615cdc565b5b600061702688828901615e84565b955050602061703788828901615e84565b945050604061704888828901615df9565b935050606061705988828901615df9565b925050608086013567ffffffffffffffff81111561707a57617079615ce1565b5b61708688828901615fb1565b9150509295509295909350565b600082825260208201905092915050565b7f4f776e61626c653a2063616c6c6572206973206e6f7420746865206f776e6572600082015250565b60006170da602083617093565b91506170e5826170a4565b602082019050919050565b60006020820190508181036000830152617109816170cd565b9050919050565b7f5265656e7472616e637947756172643a207265656e7472616e742063616c6c00600082015250565b6000617146601f83617093565b915061715182617110565b602082019050919050565b6000602082019050818103600083015261717581617139565b9050919050565b7f4e487b7100000000000000000000000000000000000000000000000000000000600052601260045260246000fd5b7f4e487b7100000000000000000000000000000000000000000000000000000000600052601160045260246000fd5b60006171e582615dd8565b91506171f083615dd8565b925082617200576171ff61717c565b5b828204905092915050565b60008151905061721a81616800565b92915050565b60006020828403121561723657617235615cdc565b5b60006172448482850161720b565b91505092915050565b60008160011c9050919050565b6000808291508390505b60018511156172a4578086048111156172805761727f6171ab565b5b600185161561728f5780820291505b808102905061729d8561724d565b9450617264565b94509492505050565b6000826172bd5760019050617379565b816172cb5760009050617379565b81600181146172e157600281146172eb5761731a565b6001915050617379565b60ff8411156172fd576172fc6171ab565b5b8360020a915084821115617314576173136171ab565b5b50617379565b5060208310610133831016604e8410600b841016171561734f5782820a90508381111561734a576173496171ab565b5b617379565b61735c848484600161725a565b92509050818404811115617373576173726171ab565b5b81810290505b9392505050565b600061738b82615dd8565b915061739683615da1565b92506173c37fffffffffffffffffffffffffffffffffffffffffffffffffffffffffffffffff84846172ad565b905092915050565b60006173d682615dd8565b91506173e183615dd8565b9250817fffffffffffffffffffffffffffffffffffffffffffffffffffffffffffffffff048311821515161561741a576174196171ab565b5b828202905092915050565b7f4e487b7100000000000000000000000000000000000000000000000000000000600052603260045260246000fd5b600061745f82615dd8565b915061746a83615dd8565b9250827fffffffffffffffffffffffffffffffffffffffffffffffffffffffffffffffff0382111561749f5761749e6171ab565b5b828201905092915050565b60006174b582615dd8565b91507fffffffffffffffffffffffffffffffffffffffffffffffffffffffffffffffff8214156174e8576174e76171ab565b5b600182019050919050565b60006040820190506175086000830185616c45565b61751560208301846160cc565b9392505050565b60008151905061752b816165e7565b92915050565b60006020828403121561754757617546615cdc565b5b60006175558482850161751c565b91505092915050565b7f5078614d61726b65743a20696e76616c69642073656c6c657200000000000000600082015250565b6000617594601983617093565b915061759f8261755e565b602082019050919050565b600060208201905081810360008301526175c381617587565b9050919050565b60006060820190506175df6000830186616c45565b6175ec6020830185616c45565b6175f960408301846160cc565b949350505050565b7f50697870726573733a20696e73756666696369656e7420737761702066656500600082015250565b6000617637601f83617093565b915061764282617601565b602082019050919050565b600060208201905081810360008301526176668161762a565b9050919050565b600061767882615dd8565b915061768383615dd8565b925082821015617696576176956171ab565b5b828203905092915050565b7f417373657420537761707065723a20696e76616c69642070726f706f73657200600082015250565b60006176d7601f83617093565b91506176e2826176a1565b602082019050919050565b60006020820190508181036000830152617706816176ca565b9050919050565b60008160001c9050919050565b600073ffffffffffffffffffffffffffffffffffffffff82169050919050565b600061774d6177488361770d565b61771a565b9050919050565b7f4e487b7100000000000000000000000000000000000000000000000000000000600052602260045260246000fd5b6000600282049050600182168061779b57607f821691505b602082108114156177af576177ae617754565b5b50919050565b60008190508160005260206000209050919050565b600081546177d781617783565b6177e181866169b9565b945060018216600081146177fc576001811461780e57617841565b60ff1983168652602086019350617841565b617817856177b5565b60005b838110156178395781548189015260018201915060208101905061781a565b808801955050505b50505092915050565b600081549050919050565b60008190508160005260206000209050919050565b6000617876825461773a565b9050919050565b6000600182019050919050565b60006178958261784a565b61789f818561611f565b93506178aa83617855565b8060005b838110156178e2576178bf8261786a565b6178c98882616140565b97506178d48361787d565b9250506001810190506178ae565b5085935050505092915050565b600081549050919050565b60008190508160005260206000209050919050565b6000819050919050565b600061792c6179278361770d565b61790f565b9050919050565b600061793f8254617919565b9050919050565b6000600182019050919050565b600061795e826178ef565b61796881856161ce565b9350617973836178fa565b8060005b838110156179ab5761798882617933565b61799288826161ef565b975061799d83617946565b925050600181019050617977565b5085935050505092915050565b600081549050919050565b60008190508160005260206000209050919050565b600060ff82169050919050565b60006179f86179f38361770d565b6179d8565b9050919050565b60008160081c9050919050565b6000617a1f617a1a836179ff565b6179d8565b9050919050565b60008160101c9050919050565b6000617a46617a4183617a26565b6179d8565b9050919050565b60008160181c9050919050565b6000617a6d617a6883617a4d565b6179d8565b9050919050565b60008160201c9050919050565b6000617a94617a8f83617a74565b6179d8565b9050919050565b60008160281c9050919050565b6000617abb617ab683617a9b565b6179d8565b9050919050565b60008160301c9050919050565b6000617ae2617add83617ac2565b6179d8565b9050919050565b60008160381c9050919050565b6000617b09617b0483617ae9565b6179d8565b9050919050565b60008160401c9050919050565b6000617b30617b2b83617b10565b6179d8565b9050919050565b60008160481c9050919050565b6000617b57617b5283617b37565b6179d8565b9050919050565b60008160501c9050919050565b6000617b7e617b7983617b5e565b6179d8565b9050919050565b60008160581c9050919050565b6000617ba5617ba083617b85565b6179d8565b9050919050565b60008160601c9050919050565b6000617bcc617bc783617bac565b6179d8565b9050919050565b60008160681c9050919050565b6000617bf3617bee83617bd3565b6179d8565b9050919050565b60008160701c9050919050565b6000617c1a617c1583617bfa565b6179d8565b9050919050565b60008160781c9050919050565b6000617c41617c3c83617c21565b6179d8565b9050919050565b60008160801c9050919050565b6000617c68617c6383617c48565b6179d8565b9050919050565b60008160881c9050919050565b6000617c8f617c8a83617c6f565b6179d8565b9050919050565b60008160901c9050919050565b6000617cb6617cb183617c96565b6179d8565b9050919050565b60008160981c9050919050565b6000617cdd617cd883617cbd565b6179d8565b9050919050565b60008160a01c9050919050565b6000617d04617cff83617ce4565b6179d8565b9050919050565b60008160a81c9050919050565b6000617d2b617d2683617d0b565b6179d8565b9050919050565b60008160b01c9050919050565b6000617d52617d4d83617d32565b6179d8565b9050919050565b60008160b81c9050919050565b6000617d79617d7483617d59565b6179d8565b9050919050565b60008160c01c9050919050565b6000617da0617d9b83617d80565b6179d8565b9050919050565b60008160c81c9050919050565b6000617dc7617dc283617da7565b6179d8565b9050919050565b60008160d01c9050919050565b6000617dee617de983617dce565b6179d8565b9050919050565b60008160d81c9050919050565b6000617e15617e1083617df5565b6179d8565b9050919050565b60008160e01c9050919050565b6000617e3c617e3783617e1c565b6179d8565b9050919050565b60008160e81c9050919050565b6000617e63617e5e83617e43565b6179d8565b9050919050565b60008160f01c9050919050565b6000617e8a617e8583617e6a565b6179d8565b9050919050565b60008160f81c9050919050565b6000617eb1617eac83617e91565b6179d8565b9050919050565b6000617ec3826179b8565b617ecd818561627d565b935083617ed9846179c3565b6000600115618206575b83600160200382011015618205578154617f0588617f00836179e5565b61629e565b602088019750617f1d88617f1883617a0c565b61629e565b602088019750617f3588617f3083617a33565b61629e565b602088019750617f4d88617f4883617a5a565b61629e565b602088019750617f6588617f6083617a81565b61629e565b602088019750617f7d88617f7883617aa8565b61629e565b602088019750617f9588617f9083617acf565b61629e565b602088019750617fad88617fa883617af6565b61629e565b602088019750617fc588617fc083617b1d565b61629e565b602088019750617fdd88617fd883617b44565b61629e565b602088019750617ff588617ff083617b6b565b61629e565b60208801975061800d8861800883617b92565b61629e565b6020880197506180258861802083617bb9565b61629e565b60208801975061803d8861803883617be0565b61629e565b6020880197506180558861805083617c07565b61629e565b60208801975061806d8861806883617c2e565b61629e565b6020880197506180858861808083617c55565b61629e565b60208801975061809d8861809883617c7c565b61629e565b6020880197506180b5886180b083617ca3565b61629e565b6020880197506180cd886180c883617cca565b61629e565b6020880197506180e5886180e083617cf1565b61629e565b6020880197506180fd886180f883617d18565b61629e565b6020880197506181158861811083617d3f565b61629e565b60208801975061812d8861812883617d66565b61629e565b6020880197506181458861814083617d8d565b61629e565b60208801975061815d8861815883617db4565b61629e565b6020880197506181758861817083617ddb565b61629e565b60208801975061818d8861818883617e02565b61629e565b6020880197506181a5886181a083617e29565b61629e565b6020880197506181bd886181b883617e50565b61629e565b6020880197506181d5886181d083617e77565b61629e565b6020880197506181ed886181e883617e9e565b61629e565b60208801975060018301925050602081019050617ee3565b5b6001156186f1578154848210156182365761822988618224836179e5565b61629e565b6020880197506001820191505b8482101561825d576182508861824b83617a0c565b61629e565b6020880197506001820191505b84821015618284576182778861827283617a33565b61629e565b6020880197506001820191505b848210156182ab5761829e8861829983617a5a565b61629e565b6020880197506001820191505b848210156182d2576182c5886182c083617a81565b61629e565b6020880197506001820191505b848210156182f9576182ec886182e783617aa8565b61629e565b6020880197506001820191505b84821015618320576183138861830e83617acf565b61629e565b6020880197506001820191505b848210156183475761833a8861833583617af6565b61629e565b6020880197506001820191505b8482101561836e576183618861835c83617b1d565b61629e565b6020880197506001820191505b84821015618395576183888861838383617b44565b61629e565b6020880197506001820191505b848210156183bc576183af886183aa83617b6b565b61629e565b6020880197506001820191505b848210156183e3576183d6886183d183617b92565b61629e565b6020880197506001820191505b8482101561840a576183fd886183f883617bb9565b61629e565b6020880197506001820191505b84821015618431576184248861841f83617be0565b61629e565b6020880197506001820191505b848210156184585761844b8861844683617c07565b61629e565b6020880197506001820191505b8482101561847f576184728861846d83617c2e565b61629e565b6020880197506001820191505b848210156184a6576184998861849483617c55565b61629e565b6020880197506001820191505b848210156184cd576184c0886184bb83617c7c565b61629e565b6020880197506001820191505b848210156184f4576184e7886184e283617ca3565b61629e565b6020880197506001820191505b8482101561851b5761850e8861850983617cca565b61629e565b6020880197506001820191505b84821015618542576185358861853083617cf1565b61629e565b6020880197506001820191505b848210156185695761855c8861855783617d18565b61629e565b6020880197506001820191505b84821015618590576185838861857e83617d3f565b61629e565b6020880197506001820191505b848210156185b7576185aa886185a583617d66565b61629e565b6020880197506001820191505b848210156185de576185d1886185cc83617d8d565b61629e565b6020880197506001820191505b84821015618605576185f8886185f383617db4565b61629e565b6020880197506001820191505b8482101561862c5761861f8861861a83617ddb565b61629e565b6020880197506001820191505b84821015618653576186468861864183617e02565b61629e565b6020880197506001820191505b8482101561867a5761866d8861866883617e29565b61629e565b6020880197506001820191505b848210156186a1576186948861868f83617e50565b61629e565b6020880197506001820191505b848210156186c8576186bb886186b683617e77565b61629e565b6020880197506001820191505b848210156186ef576186e2886186dd83617e9e565b61629e565b6020880197506001820191505b505b8694505050505092915050565b600081549050919050565b60008190508160005260206000209050919050565b600060ff82169050919050565b600061873e6187398361770d565b61871e565b9050919050565b6000618758618753836179ff565b61871e565b9050919050565b600061877261876d83617a26565b61871e565b9050919050565b600061878c61878783617a4d565b61871e565b9050919050565b60006187a66187a183617a74565b61871e565b9050919050565b60006187c06187bb83617a9b565b61871e565b9050919050565b60006187da6187d583617ac2565b61871e565b9050919050565b60006187f46187ef83617ae9565b61871e565b9050919050565b600061880e61880983617b10565b61871e565b9050919050565b600061882861882383617b37565b61871e565b9050919050565b600061884261883d83617b5e565b61871e565b9050919050565b600061885c61885783617b85565b61871e565b9050919050565b600061887661887183617bac565b61871e565b9050919050565b600061889061888b83617bd3565b61871e565b9050919050565b60006188aa6188a583617bfa565b61871e565b9050919050565b60006188c46188bf83617c21565b61871e565b9050919050565b60006188de6188d983617c48565b61871e565b9050919050565b60006188f86188f383617c6f565b61871e565b9050919050565b600061891261890d83617c96565b61871e565b9050919050565b600061892c61892783617cbd565b61871e565b9050919050565b600061894661894183617ce4565b61871e565b9050919050565b600061896061895b83617d0b565b61871e565b9050919050565b600061897a61897583617d32565b61871e565b9050919050565b600061899461898f83617d59565b61871e565b9050919050565b60006189ae6189a983617d80565b61871e565b9050919050565b60006189c86189c383617da7565b61871e565b9050919050565b60006189e26189dd83617dce565b61871e565b9050919050565b60006189fc6189f783617df5565b61871e565b9050919050565b6000618a16618a1183617e1c565b61871e565b9050919050565b6000618a30618a2b83617e43565b61871e565b9050919050565b6000618a4a618a4583617e6a565b61871e565b9050919050565b6000618a64618a5f83617e91565b61871e565b9050919050565b6000618a76826186fe565b618a808185616a41565b935083618a8c84618709565b6000600115618db9575b83600160200382011015618db8578154618ab888618ab38361872b565b616a62565b602088019750618ad088618acb83618745565b616a62565b602088019750618ae888618ae38361875f565b616a62565b602088019750618b0088618afb83618779565b616a62565b602088019750618b1888618b1383618793565b616a62565b602088019750618b3088618b2b836187ad565b616a62565b602088019750618b4888618b43836187c7565b616a62565b602088019750618b6088618b5b836187e1565b616a62565b602088019750618b7888618b73836187fb565b616a62565b602088019750618b9088618b8b83618815565b616a62565b602088019750618ba888618ba38361882f565b616a62565b602088019750618bc088618bbb83618849565b616a62565b602088019750618bd888618bd383618863565b616a62565b602088019750618bf088618beb8361887d565b616a62565b602088019750618c0888618c0383618897565b616a62565b602088019750618c2088618c1b836188b1565b616a62565b602088019750618c3888618c33836188cb565b616a62565b602088019750618c5088618c4b836188e5565b616a62565b602088019750618c6888618c63836188ff565b616a62565b602088019750618c8088618c7b83618919565b616a62565b602088019750618c9888618c9383618933565b616a62565b602088019750618cb088618cab8361894d565b616a62565b602088019750618cc888618cc383618967565b616a62565b602088019750618ce088618cdb83618981565b616a62565b602088019750618cf888618cf38361899b565b616a62565b602088019750618d1088618d0b836189b5565b616a62565b602088019750618d2888618d23836189cf565b616a62565b602088019750618d4088618d3b836189e9565b616a62565b602088019750618d5888618d5383618a03565b616a62565b602088019750618d7088618d6b83618a1d565b616a62565b602088019750618d8888618d8383618a37565b616a62565b602088019750618da088618d9b83618a51565b616a62565b60208801975060018301925050602081019050618a96565b5b6001156192a457815484821015618de957618ddc88618dd78361872b565b616a62565b6020880197506001820191505b84821015618e1057618e0388618dfe83618745565b616a62565b6020880197506001820191505b84821015618e3757618e2a88618e258361875f565b616a62565b6020880197506001820191505b84821015618e5e57618e5188618e4c83618779565b616a62565b6020880197506001820191505b84821015618e8557618e7888618e7383618793565b616a62565b6020880197506001820191505b84821015618eac57618e9f88618e9a836187ad565b616a62565b6020880197506001820191505b84821015618ed357618ec688618ec1836187c7565b616a62565b6020880197506001820191505b84821015618efa57618eed88618ee8836187e1565b616a62565b6020880197506001820191505b84821015618f2157618f1488618f0f836187fb565b616a62565b6020880197506001820191505b84821015618f4857618f3b88618f3683618815565b616a62565b6020880197506001820191505b84821015618f6f57618f6288618f5d8361882f565b616a62565b6020880197506001820191505b84821015618f9657618f8988618f8483618849565b616a62565b6020880197506001820191505b84821015618fbd57618fb088618fab83618863565b616a62565b6020880197506001820191505b84821015618fe457618fd788618fd28361887d565b616a62565b6020880197506001820191505b8482101561900b57618ffe88618ff983618897565b616a62565b6020880197506001820191505b848210156190325761902588619020836188b1565b616a62565b6020880197506001820191505b848210156190595761904c88619047836188cb565b616a62565b6020880197506001820191505b84821015619080576190738861906e836188e5565b616a62565b6020880197506001820191505b848210156190a75761909a88619095836188ff565b616a62565b6020880197506001820191505b848210156190ce576190c1886190bc83618919565b616a62565b6020880197506001820191505b848210156190f5576190e8886190e383618933565b616a62565b6020880197506001820191505b8482101561911c5761910f8861910a8361894d565b616a62565b6020880197506001820191505b84821015619143576191368861913183618967565b616a62565b6020880197506001820191505b8482101561916a5761915d8861915883618981565b616a62565b6020880197506001820191505b84821015619191576191848861917f8361899b565b616a62565b6020880197506001820191505b848210156191b8576191ab886191a6836189b5565b616a62565b6020880197506001820191505b848210156191df576191d2886191cd836189cf565b616a62565b6020880197506001820191505b84821015619206576191f9886191f4836189e9565b616a62565b6020880197506001820191505b8482101561922d576192208861921b83618a03565b616a62565b6020880197506001820191505b84821015619254576192478861924283618a1d565b616a62565b6020880197506001820191505b8482101561927b5761926e8861926983618a37565b616a62565b6020880197506001820191505b848210156192a2576192958861929083618a51565b616a62565b6020880197506001820191505b505b8694505050505092915050565b6000610120830160008084015490506192c98161773a565b6192d66000870182616105565b50600184015490506192e78161773a565b6192f46020870182616105565b5060028401858303604087015261930b83826177ca565b925050600384018583036060870152619324838261788a565b92505060048401858303608087015261933d8382617953565b9250506005840185830360a08701526193568382617953565b9250506006840185830360c087015261936f8382617eb8565b9250506007840185830360e08701526193888382618a6b565b925050600884018583036101008701526193a28382617953565b925050819250505092915050565b600060208201905081810360008301526193ca81846192b1565b905092915050565b7f417373657420537761707065723a20696e76616c6964206d6174636865720000600082015250565b6000619408601e83617093565b9150619413826193d2565b602082019050919050565b60006020820190508181036000830152619437816193fb565b9050919050565b600060e08301600080840154905061945581617919565b61946260008701826160f6565b50600184015490506194738161773a565b6194806020870182616105565b50600284018583036040870152619497838261788a565b9250506003840185830360608701526194b08382617953565b9250506004840185830360808701526194c98382617953565b9250506005840185830360a08701526194e28382617eb8565b925050600684015490506194f581617919565b61950260c08701826160f6565b50819250505092915050565b60006020820190508181036000830152619528818461943e565b905092915050565b60008151905061953f81615e6d565b92915050565b60006020828403121561955b5761955a615cdc565b5b600061956984828501619530565b91505092915050565b7f5078614d61726b65743a20696e76616c696420746f6b656e206f776e65720000600082015250565b60006195a8601e83617093565b91506195b382619572565b602082019050919050565b600060208201905081810360008301526195d78161959b565b9050919050565b7f41737365744d616e616765723a20617373657420616c7265616479206578697360008201527f7400000000000000000000000000000000000000000000000000000000000000602082015250565b600061963a602183617093565b9150619645826195de565b604082019050919050565b600060208201905081810360008301526196698161962d565b9050919050565b60008151905061967f81615de2565b92915050565b60006020828403121561969b5761969a615cdc565b5b60006196a984828501619670565b91505092915050565b7f41737365744d616e616765723a20617373657420646f6573206e6f742065786960008201527f7374000000000000000000000000000000000000000000000000000000000000602082015250565b600061970e602283617093565b9150619719826196b2565b604082019050919050565b6000602082019050818103600083015261973d81619701565b9050919050565b7f5078614d61726b65743a20696e73756666696369656e742043454c4f00000000600082015250565b600061977a601c83617093565b915061978582619744565b602082019050919050565b600060208201905081810360008301526197a98161976d565b9050919050565b60006040820190506197c560008301856160cc565b6197d260208301846160cc565b9392505050565b7f4f776e61626c653a206e6577206f776e657220697320746865207a65726f206160008201527f6464726573730000000000000000000000000000000000000000000000000000602082015250565b6000619835602683617093565b9150619840826197d9565b604082019050919050565b6000602082019050818103600083015261986481619828565b9050919050565b7f417373657420537761707065723a20696e76616c6964206d6174636820696400600082015250565b60006198a1601f83617093565b91506198ac8261986b565b602082019050919050565b600060208201905081810360008301526198d081619894565b9050919050565b7f417373657420537761707065723a2070726f706f73657220617373657473206960008201527f6e76616c69640000000000000000000000000000000000000000000000000000602082015250565b6000619933602683617093565b915061993e826198d7565b604082019050919050565b6000602082019050818103600083015261996281619926565b9050919050565b7f417373657420537761707065723a206d6174636865722061737365747320696e60008201527f76616c6964000000000000000000000000000000000000000000000000000000602082015250565b60006199c5602583617093565b91506199d082619969565b604082019050919050565b600060208201905081810360008301526199f4816199b8565b9050919050565b7f50585420506f6f6c3a20696e73756666696369656e742062616c616e63650000600082015250565b6000619a31601e83617093565b9150619a3c826199fb565b602082019050919050565b60006020820190508181036000830152619a6081619a24565b9050919050565b7f5078614d61726b65743a20696e73756666696369656e742062616c616e636500600082015250565b6000619a9d601f83617093565b9150619aa882619a67565b602082019050919050565b60006020820190508181036000830152619acc81619a90565b9050919050565b7f4e487b7100000000000000000000000000000000000000000000000000000000600052603160045260246000fd5b7f41737365737420537761707065723a20616d6f756e74207265636f726420736960008201527f7a6520646f6573206e6f74206d61746368000000000000000000000000000000602082015250565b6000619b5e603183617093565b9150619b6982619b02565b604082019050919050565b60006020820190508181036000830152619b8d81619b51565b9050919050565b7f41737365737420537761707065723a206964207265636f72642073697a65206460008201527f6f6573206e6f74206d6174636800000000000000000000000000000000000000602082015250565b6000619bf0602d83617093565b9150619bfb82619b94565b604082019050919050565b60006020820190508181036000830152619c1f81619be3565b9050919050565b7f41737365737420537761707065723a2070726f746f636f6c207265636f72642060008201527f73697a6520646f6573206e6f74206d6174636800000000000000000000000000602082015250565b6000619c82603383617093565b9150619c8d82619c26565b604082019050919050565b60006020820190508181036000830152619cb181619c75565b9050919050565b7f50585420506f6f6c3a20696e73756666696369656e7420616d6f756e74000000600082015250565b6000619cee601d83617093565b9150619cf982619cb8565b602082019050919050565b60006020820190508181036000830152619d1d81619ce1565b9050919050565b7f417373657420537761707065723a20616d6f756e74207265636f72642073697a60008201527f6520646f6573206e6f74206d6174636800000000000000000000000000000000602082015250565b6000619d80603083617093565b9150619d8b82619d24565b604082019050919050565b60006020820190508181036000830152619daf81619d73565b9050919050565b7f417373657420537761707065723a206964207265636f72642073697a6520646f60008201527f6573206e6f74206d617463680000000000000000000000000000000000000000602082015250565b6000619e12602c83617093565b9150619e1d82619db6565b604082019050919050565b60006020820190508181036000830152619e4181619e05565b9050919050565b7f417373657420537761707065723a2070726f746f636f6c207265636f7264207360008201527f697a6520646f6573206e6f74206d617463680000000000000000000000000000602082015250565b6000619ea4603283617093565b9150619eaf82619e48565b604082019050919050565b60006020820190508181036000830152619ed381619e97565b9050919050565b7f417373657420537761707065723a2077616e746564207265636f72642073697a60008201527f6520646f6573206e6f74206d6174636800000000000000000000000000000000602082015250565b6000619f36603083617093565b9150619f4182619eda565b604082019050919050565b60006020820190508181036000830152619f6581619f29565b9050919050565b7f5361666545524332303a204552433230206f7065726174696f6e20646964206e60008201527f6f74207375636365656400000000000000000000000000000000000000000000602082015250565b6000619fc8602a83617093565b9150619fd382619f6c565b604082019050919050565b60006020820190508181036000830152619ff781619fbb565b9050919050565b7f417373657420537761707065723a20736f6d652070726f706f7365722061737360008201527f65747320617265206e6f7420617070726f766564000000000000000000000000602082015250565b600061a05a603483617093565b915061a06582619ffe565b604082019050919050565b6000602082019050818103600083015261a0898161a04d565b9050919050565b7f417373657420537761707065723a20736f6d652070726f706f7365722061737360008201527f65747320617265206e6f7420696e2073746f636b000000000000000000000000602082015250565b600061a0ec603483617093565b915061a0f78261a090565b604082019050919050565b6000602082019050818103600083015261a11b8161a0df565b9050919050565b7f417373657420537761707065723a20736f6d65206d617463686572206173736560008201527f747320617265206e6f7420617070726f76656400000000000000000000000000602082015250565b600061a17e603383617093565b915061a1898261a122565b604082019050919050565b6000602082019050818103600083015261a1ad8161a171565b9050919050565b7f417373657420537761707065723a20736f6d65206d617463686572206173736560008201527f747320617265206e6f7420696e2073746f636b00000000000000000000000000602082015250565b600061a210603383617093565b915061a21b8261a1b4565b604082019050919050565b6000602082019050818103600083015261a23f8161a203565b9050919050565b600082825260208201905092915050565b50565b600061a26760008361a246565b915061a2728261a257565b600082019050919050565b600060a08201905061a2926000830187616c45565b61a29f6020830186616c45565b61a2ac60408301856160cc565b61a2b960608301846160cc565b818103608083015261a2ca8161a25a565b905095945050505050565b7f417373657420537761707065723a2063616e6e6f74207377617020756e73757060008201527f706f7274656420746f6b656e2070726f746f636f6c0000000000000000000000602082015250565b600061a331603583617093565b915061a33c8261a2d5565b604082019050919050565b6000602082019050818103600083015261a3608161a324565b9050919050565b600060408201905061a37c6000830185616c45565b61a3896020830184616c45565b9392505050565b7f417373657420537761707065723a20696e73756666696369656e7420746f6b6560008201527f6e20616c6c6f77616e6365000000000000000000000000000000000000000000602082015250565b600061a3ec602b83617093565b915061a3f78261a390565b604082019050919050565b6000602082019050818103600083015261a41b8161a3df565b9050919050565b7f417373657420537761707065723a2045524337323120746f6b656e206e6f742060008201527f617070726f766564200000000000000000000000000000000000000000000000602082015250565b600061a47e602983617093565b915061a4898261a422565b604082019050919050565b6000602082019050818103600083015261a4ad8161a471565b9050919050565b7f417373657420537761707065723a204552433131353520746f6b656e206e6f7460008201527f20617070726f7665642000000000000000000000000000000000000000000000602082015250565b600061a510602a83617093565b915061a51b8261a4b4565b604082019050919050565b6000602082019050818103600083015261a53f8161a503565b9050919050565b7f417373657420537761707065723a20756e737570706f7274656420746f6b656e60008201527f2070726f746f636f6c0000000000000000000000000000000000000000000000602082015250565b600061a5a2602983617093565b915061a5ad8261a546565b604082019050919050565b6000602082019050818103600083015261a5d18161a595565b9050919050565b7f417373657420537761707065723a20455243323020696e73756666696369656e60008201527f7420746f6b656e2062616c616e63650000000000000000000000000000000000602082015250565b600061a634602f83617093565b915061a63f8261a5d8565b604082019050919050565b6000602082019050818103600083015261a6638161a627565b9050919050565b7f417373657420537761707065723a2045524337323120696e737566666963696560008201527f6e7420746f6b656e2062616c616e636500000000000000000000000000000000602082015250565b600061a6c6603083617093565b915061a6d18261a66a565b604082019050919050565b6000602082019050818103600083015261a6f58161a6b9565b9050919050565b7f417373657420537761707065723a204552433131353520696e7375666669636960008201527f656e7420746f6b656e2062616c616e6365000000000000000000000000000000602082015250565b600061a758603183617093565b915061a7638261a6fc565b604082019050919050565b6000602082019050818103600083015261a7878161a74b565b9050919050565b7f416464726573733a20696e73756666696369656e742062616c616e636520666f60008201527f722063616c6c0000000000000000000000000000000000000000000000000000602082015250565b600061a7ea602683617093565b915061a7f58261a78e565b604082019050919050565b6000602082019050818103600083015261a8198161a7dd565b9050919050565b7f416464726573733a2063616c6c20746f206e6f6e2d636f6e7472616374000000600082015250565b600061a856601d83617093565b915061a8618261a820565b602082019050919050565b6000602082019050818103600083015261a8858161a849565b9050919050565b600081519050919050565b600081905092915050565b600061a8ad8261a88c565b61a8b7818561a897565b935061a8c78185602086016169ca565b80840191505092915050565b600061a8df828461a8a2565b915081905092915050565b600061a8f5826169ae565b61a8ff8185617093565b935061a90f8185602086016169ca565b61a91881615ea3565b840191505092915050565b6000602082019050818103600083015261a93d818461a8ea565b90509291505056fea2646970667358221220f5a766cc62300bc0c668b321bf340daffb9137b289ae92617a1ba7397b73152b64736f6c634300080c0033",
  "devdoc": {
    "kind": "dev",
    "methods": {
      "onERC721Received(address,address,uint256,bytes)": {
        "details": "See {IERC721Receiver-onERC721Received}. Always returns `IERC721Receiver.onERC721Received.selector`."
      },
      "owner()": {
        "details": "Returns the address of the current owner."
      },
      "renounceOwnership()": {
        "details": "Leaves the contract without owner. It will not be possible to call `onlyOwner` functions anymore. Can only be called by the current owner. NOTE: Renouncing ownership will leave the contract without an owner, thereby removing any functionality that is only available to the owner."
      },
      "supportsInterface(bytes4)": {
        "details": "See {IERC165-supportsInterface}."
      },
      "transferOwnership(address)": {
        "details": "Transfers ownership of the contract to a new account (`newOwner`). Can only be called by the current owner."
      }
    },
    "version": 1
  },
  "userdoc": {
    "kind": "user",
    "methods": {},
    "version": 1
  },
  "storageLayout": {
    "storage": [
      {
        "astId": 7,
        "contract": "contracts/Pixpress.sol:Pixpress",
        "label": "_owner",
        "offset": 0,
        "slot": "0",
        "type": "t_address"
      },
      {
        "astId": 1338,
        "contract": "contracts/Pixpress.sol:Pixpress",
        "label": "_amFeeBase",
        "offset": 0,
        "slot": "1",
        "type": "t_uint256"
      },
      {
        "astId": 1341,
        "contract": "contracts/Pixpress.sol:Pixpress",
        "label": "_amFeeRatio",
        "offset": 0,
        "slot": "2",
        "type": "t_uint256"
      },
      {
        "astId": 1346,
        "contract": "contracts/Pixpress.sol:Pixpress",
        "label": "assets",
        "offset": 0,
        "slot": "3",
        "type": "t_mapping(t_address,t_struct(Asset)1335_storage)"
      },
      {
        "astId": 115,
        "contract": "contracts/Pixpress.sol:Pixpress",
        "label": "_status",
        "offset": 0,
        "slot": "4",
        "type": "t_uint256"
      },
      {
        "astId": 1652,
        "contract": "contracts/Pixpress.sol:Pixpress",
        "label": "_proposeRecordIds",
        "offset": 0,
        "slot": "5",
        "type": "t_struct(Counter)1203_storage"
      },
      {
        "astId": 1657,
        "contract": "contracts/Pixpress.sol:Pixpress",
        "label": "_proposeRecords",
        "offset": 0,
        "slot": "6",
        "type": "t_mapping(t_uint256,t_struct(ProposeRecord)1596_storage)"
      },
      {
        "astId": 1660,
        "contract": "contracts/Pixpress.sol:Pixpress",
        "label": "_matchRecordIds",
        "offset": 0,
        "slot": "7",
        "type": "t_struct(Counter)1203_storage"
      },
      {
        "astId": 1665,
        "contract": "contracts/Pixpress.sol:Pixpress",
        "label": "_matchRecords",
        "offset": 0,
        "slot": "8",
        "type": "t_mapping(t_uint256,t_struct(MatchRecord)1615_storage)"
      },
      {
        "astId": 3138,
        "contract": "contracts/Pixpress.sol:Pixpress",
        "label": "_orders",
        "offset": 0,
        "slot": "9",
        "type": "t_mapping(t_uint256,t_struct(PxaOrder)3099_storage)"
      },
      {
        "astId": 3146,
        "contract": "contracts/Pixpress.sol:Pixpress",
        "label": "_orderIds",
        "offset": 0,
        "slot": "10",
        "type": "t_array(t_uint256)dyn_storage"
      },
      {
        "astId": 3148,
        "contract": "contracts/Pixpress.sol:Pixpress",
        "label": "_pxaAddress",
        "offset": 0,
        "slot": "11",
        "type": "t_address"
      },
      {
        "astId": 3150,
        "contract": "contracts/Pixpress.sol:Pixpress",
        "label": "_pxaFeeRatio",
        "offset": 0,
        "slot": "12",
        "type": "t_uint256"
      },
      {
        "astId": 3582,
        "contract": "contracts/Pixpress.sol:Pixpress",
        "label": "_pxtAddress",
        "offset": 0,
        "slot": "13",
        "type": "t_contract(IERC20Metadata)495"
      },
      {
        "astId": 3584,
        "contract": "contracts/Pixpress.sol:Pixpress",
        "label": "poolWindow",
        "offset": 0,
        "slot": "14",
        "type": "t_uint256"
      },
      {
        "astId": 3586,
        "contract": "contracts/Pixpress.sol:Pixpress",
        "label": "poolUpperBoundary",
        "offset": 0,
        "slot": "15",
        "type": "t_uint256"
      },
      {
        "astId": 3588,
        "contract": "contracts/Pixpress.sol:Pixpress",
        "label": "poolLowerBoundary",
        "offset": 0,
        "slot": "16",
        "type": "t_uint256"
      },
      {
        "astId": 2709,
        "contract": "contracts/Pixpress.sol:Pixpress",
        "label": "pxaFeeShareRatio",
        "offset": 0,
        "slot": "17",
        "type": "t_uint256"
      }
    ],
    "types": {
      "t_address": {
        "encoding": "inplace",
        "label": "address",
        "numberOfBytes": "20"
      },
      "t_array(t_address)dyn_storage": {
        "base": "t_address",
        "encoding": "dynamic_array",
        "label": "address[]",
        "numberOfBytes": "32"
      },
      "t_array(t_bool)dyn_storage": {
        "base": "t_bool",
        "encoding": "dynamic_array",
        "label": "bool[]",
        "numberOfBytes": "32"
      },
      "t_array(t_uint256)dyn_storage": {
        "base": "t_uint256",
        "encoding": "dynamic_array",
        "label": "uint256[]",
        "numberOfBytes": "32"
      },
      "t_array(t_uint8)dyn_storage": {
        "base": "t_uint8",
        "encoding": "dynamic_array",
        "label": "uint8[]",
        "numberOfBytes": "32"
      },
      "t_bool": {
        "encoding": "inplace",
        "label": "bool",
        "numberOfBytes": "1"
      },
      "t_contract(IERC20Metadata)495": {
        "encoding": "inplace",
        "label": "contract IERC20Metadata",
        "numberOfBytes": "20"
      },
      "t_mapping(t_address,t_struct(Asset)1335_storage)": {
        "encoding": "mapping",
        "key": "t_address",
        "label": "mapping(address => struct AssetManager.Asset)",
        "numberOfBytes": "32",
        "value": "t_struct(Asset)1335_storage"
      },
      "t_mapping(t_uint256,t_struct(MatchRecord)1615_storage)": {
        "encoding": "mapping",
        "key": "t_uint256",
        "label": "mapping(uint256 => struct AssetSwapper.MatchRecord)",
        "numberOfBytes": "32",
        "value": "t_struct(MatchRecord)1615_storage"
      },
      "t_mapping(t_uint256,t_struct(ProposeRecord)1596_storage)": {
        "encoding": "mapping",
        "key": "t_uint256",
        "label": "mapping(uint256 => struct AssetSwapper.ProposeRecord)",
        "numberOfBytes": "32",
        "value": "t_struct(ProposeRecord)1596_storage"
      },
      "t_mapping(t_uint256,t_struct(PxaOrder)3099_storage)": {
        "encoding": "mapping",
        "key": "t_uint256",
        "label": "mapping(uint256 => struct PxaMarket.PxaOrder)",
        "numberOfBytes": "32",
        "value": "t_struct(PxaOrder)3099_storage"
      },
      "t_string_storage": {
        "encoding": "bytes",
        "label": "string",
        "numberOfBytes": "32"
      },
      "t_struct(Asset)1335_storage": {
        "encoding": "inplace",
        "label": "struct AssetManager.Asset",
        "members": [
          {
            "astId": 1326,
            "contract": "contracts/Pixpress.sol:Pixpress",
            "label": "tokenAddress",
            "offset": 0,
            "slot": "0",
            "type": "t_address"
          },
          {
            "astId": 1328,
            "contract": "contracts/Pixpress.sol:Pixpress",
            "label": "protocol",
            "offset": 20,
            "slot": "0",
            "type": "t_uint8"
          },
          {
            "astId": 1330,
            "contract": "contracts/Pixpress.sol:Pixpress",
            "label": "verified",
            "offset": 21,
            "slot": "0",
            "type": "t_bool"
          },
          {
            "astId": 1332,
            "contract": "contracts/Pixpress.sol:Pixpress",
            "label": "feeBase",
            "offset": 0,
            "slot": "1",
            "type": "t_uint256"
          },
          {
            "astId": 1334,
            "contract": "contracts/Pixpress.sol:Pixpress",
            "label": "feeRatio",
            "offset": 0,
            "slot": "2",
            "type": "t_uint256"
          }
        ],
        "numberOfBytes": "96"
      },
      "t_struct(Counter)1203_storage": {
        "encoding": "inplace",
        "label": "struct Counters.Counter",
        "members": [
          {
            "astId": 1202,
            "contract": "contracts/Pixpress.sol:Pixpress",
            "label": "_value",
            "offset": 0,
            "slot": "0",
            "type": "t_uint256"
          }
        ],
        "numberOfBytes": "32"
      },
      "t_struct(MatchRecord)1615_storage": {
        "encoding": "inplace",
        "label": "struct AssetSwapper.MatchRecord",
        "members": [
          {
            "astId": 1598,
            "contract": "contracts/Pixpress.sol:Pixpress",
            "label": "proposeId",
            "offset": 0,
            "slot": "0",
            "type": "t_uint256"
          },
          {
            "astId": 1600,
            "contract": "contracts/Pixpress.sol:Pixpress",
            "label": "matcher",
            "offset": 0,
            "slot": "1",
            "type": "t_address"
          },
          {
            "astId": 1603,
            "contract": "contracts/Pixpress.sol:Pixpress",
            "label": "tokenAddresses",
            "offset": 0,
            "slot": "2",
            "type": "t_array(t_address)dyn_storage"
          },
          {
            "astId": 1606,
            "contract": "contracts/Pixpress.sol:Pixpress",
            "label": "amounts",
            "offset": 0,
            "slot": "3",
            "type": "t_array(t_uint256)dyn_storage"
          },
          {
            "astId": 1609,
            "contract": "contracts/Pixpress.sol:Pixpress",
            "label": "ids",
            "offset": 0,
            "slot": "4",
            "type": "t_array(t_uint256)dyn_storage"
          },
          {
            "astId": 1612,
            "contract": "contracts/Pixpress.sol:Pixpress",
            "label": "protocols",
            "offset": 0,
            "slot": "5",
            "type": "t_array(t_uint8)dyn_storage"
          },
          {
            "astId": 1614,
            "contract": "contracts/Pixpress.sol:Pixpress",
            "label": "index",
            "offset": 0,
            "slot": "6",
            "type": "t_uint256"
          }
        ],
        "numberOfBytes": "224"
      },
      "t_struct(ProposeRecord)1596_storage": {
        "encoding": "inplace",
        "label": "struct AssetSwapper.ProposeRecord",
        "members": [
          {
            "astId": 1573,
            "contract": "contracts/Pixpress.sol:Pixpress",
            "label": "proposer",
            "offset": 0,
            "slot": "0",
            "type": "t_address"
          },
          {
            "astId": 1575,
            "contract": "contracts/Pixpress.sol:Pixpress",
            "label": "receiver",
            "offset": 0,
            "slot": "1",
            "type": "t_address"
          },
          {
            "astId": 1577,
            "contract": "contracts/Pixpress.sol:Pixpress",
            "label": "note",
            "offset": 0,
            "slot": "2",
            "type": "t_string_storage"
          },
          {
            "astId": 1580,
            "contract": "contracts/Pixpress.sol:Pixpress",
            "label": "tokenAddresses",
            "offset": 0,
            "slot": "3",
            "type": "t_array(t_address)dyn_storage"
          },
          {
            "astId": 1583,
            "contract": "contracts/Pixpress.sol:Pixpress",
            "label": "amounts",
            "offset": 0,
            "slot": "4",
            "type": "t_array(t_uint256)dyn_storage"
          },
          {
            "astId": 1586,
            "contract": "contracts/Pixpress.sol:Pixpress",
            "label": "ids",
            "offset": 0,
            "slot": "5",
            "type": "t_array(t_uint256)dyn_storage"
          },
          {
            "astId": 1589,
            "contract": "contracts/Pixpress.sol:Pixpress",
            "label": "protocols",
            "offset": 0,
            "slot": "6",
            "type": "t_array(t_uint8)dyn_storage"
          },
          {
            "astId": 1592,
            "contract": "contracts/Pixpress.sol:Pixpress",
            "label": "wanted",
            "offset": 0,
            "slot": "7",
            "type": "t_array(t_bool)dyn_storage"
          },
          {
            "astId": 1595,
            "contract": "contracts/Pixpress.sol:Pixpress",
            "label": "matchRecordIds",
            "offset": 0,
            "slot": "8",
            "type": "t_array(t_uint256)dyn_storage"
          }
        ],
        "numberOfBytes": "288"
      },
      "t_struct(PxaOrder)3099_storage": {
        "encoding": "inplace",
        "label": "struct PxaMarket.PxaOrder",
        "members": [
          {
            "astId": 3090,
            "contract": "contracts/Pixpress.sol:Pixpress",
            "label": "seller",
            "offset": 0,
            "slot": "0",
            "type": "t_address"
          },
          {
            "astId": 3092,
            "contract": "contracts/Pixpress.sol:Pixpress",
            "label": "tokenId",
            "offset": 0,
            "slot": "1",
            "type": "t_uint256"
          },
          {
            "astId": 3094,
            "contract": "contracts/Pixpress.sol:Pixpress",
            "label": "price",
            "offset": 0,
            "slot": "2",
            "type": "t_uint256"
          },
          {
            "astId": 3096,
            "contract": "contracts/Pixpress.sol:Pixpress",
            "label": "revenue",
            "offset": 0,
            "slot": "3",
            "type": "t_uint256"
          },
          {
            "astId": 3098,
            "contract": "contracts/Pixpress.sol:Pixpress",
            "label": "index",
            "offset": 0,
            "slot": "4",
            "type": "t_uint256"
          }
        ],
        "numberOfBytes": "160"
      },
      "t_uint256": {
        "encoding": "inplace",
        "label": "uint256",
        "numberOfBytes": "32"
      },
      "t_uint8": {
        "encoding": "inplace",
        "label": "uint8",
        "numberOfBytes": "1"
      }
    }
  }
}